{
  "contractName": "QilinPieceB",
  "abi": [
    {
      "inputs": [],
      "stateMutability": "nonpayable",
      "type": "constructor"
    },
    {
      "anonymous": false,
      "inputs": [
        {
          "indexed": true,
          "internalType": "address",
          "name": "owner",
          "type": "address"
        },
        {
          "indexed": true,
          "internalType": "address",
          "name": "approved",
          "type": "address"
        },
        {
          "indexed": true,
          "internalType": "uint256",
          "name": "tokenId",
          "type": "uint256"
        }
      ],
      "name": "Approval",
      "type": "event"
    },
    {
      "anonymous": false,
      "inputs": [
        {
          "indexed": true,
          "internalType": "address",
          "name": "owner",
          "type": "address"
        },
        {
          "indexed": true,
          "internalType": "address",
          "name": "operator",
          "type": "address"
        },
        {
          "indexed": false,
          "internalType": "bool",
          "name": "approved",
          "type": "bool"
        }
      ],
      "name": "ApprovalForAll",
      "type": "event"
    },
    {
      "anonymous": false,
      "inputs": [
        {
          "indexed": true,
          "internalType": "address",
          "name": "previousOwner",
          "type": "address"
        },
        {
          "indexed": true,
          "internalType": "address",
          "name": "newOwner",
          "type": "address"
        }
      ],
      "name": "OwnershipTransferred",
      "type": "event"
    },
    {
      "anonymous": false,
      "inputs": [
        {
          "indexed": true,
          "internalType": "address",
          "name": "from",
          "type": "address"
        },
        {
          "indexed": true,
          "internalType": "address",
          "name": "to",
          "type": "address"
        },
        {
          "indexed": true,
          "internalType": "uint256",
          "name": "tokenId",
          "type": "uint256"
        }
      ],
      "name": "Transfer",
      "type": "event"
    },
    {
      "inputs": [
        {
          "internalType": "address",
          "name": "to",
          "type": "address"
        },
        {
          "internalType": "uint256",
          "name": "tokenId",
          "type": "uint256"
        }
      ],
      "name": "approve",
      "outputs": [],
      "stateMutability": "nonpayable",
      "type": "function"
    },
    {
      "inputs": [
        {
          "internalType": "address",
          "name": "owner",
          "type": "address"
        }
      ],
      "name": "balanceOf",
      "outputs": [
        {
          "internalType": "uint256",
          "name": "",
          "type": "uint256"
        }
      ],
      "stateMutability": "view",
      "type": "function"
    },
    {
      "inputs": [
        {
          "internalType": "uint256",
          "name": "tokenId",
          "type": "uint256"
        }
      ],
      "name": "getApproved",
      "outputs": [
        {
          "internalType": "address",
          "name": "",
          "type": "address"
        }
      ],
      "stateMutability": "view",
      "type": "function"
    },
    {
      "inputs": [
        {
          "internalType": "address",
          "name": "owner",
          "type": "address"
        },
        {
          "internalType": "address",
          "name": "operator",
          "type": "address"
        }
      ],
      "name": "isApprovedForAll",
      "outputs": [
        {
          "internalType": "bool",
          "name": "",
          "type": "bool"
        }
      ],
      "stateMutability": "view",
      "type": "function"
    },
    {
      "inputs": [
        {
          "internalType": "address",
          "name": "",
          "type": "address"
        }
      ],
      "name": "minterToTokenIdB",
      "outputs": [
        {
          "internalType": "uint256",
          "name": "",
          "type": "uint256"
        }
      ],
      "stateMutability": "view",
      "type": "function"
    },
    {
      "inputs": [],
      "name": "name",
      "outputs": [
        {
          "internalType": "string",
          "name": "",
          "type": "string"
        }
      ],
      "stateMutability": "view",
      "type": "function"
    },
    {
      "inputs": [],
      "name": "owner",
      "outputs": [
        {
          "internalType": "address",
          "name": "",
          "type": "address"
        }
      ],
      "stateMutability": "view",
      "type": "function"
    },
    {
      "inputs": [
        {
          "internalType": "uint256",
          "name": "tokenId",
          "type": "uint256"
        }
      ],
      "name": "ownerOf",
      "outputs": [
        {
          "internalType": "address",
          "name": "",
          "type": "address"
        }
      ],
      "stateMutability": "view",
      "type": "function"
    },
    {
      "inputs": [],
      "name": "renounceOwnership",
      "outputs": [],
      "stateMutability": "nonpayable",
      "type": "function"
    },
    {
      "inputs": [
        {
          "internalType": "address",
          "name": "from",
          "type": "address"
        },
        {
          "internalType": "address",
          "name": "to",
          "type": "address"
        },
        {
          "internalType": "uint256",
          "name": "tokenId",
          "type": "uint256"
        }
      ],
      "name": "safeTransferFrom",
      "outputs": [],
      "stateMutability": "nonpayable",
      "type": "function"
    },
    {
      "inputs": [
        {
          "internalType": "address",
          "name": "from",
          "type": "address"
        },
        {
          "internalType": "address",
          "name": "to",
          "type": "address"
        },
        {
          "internalType": "uint256",
          "name": "tokenId",
          "type": "uint256"
        },
        {
          "internalType": "bytes",
          "name": "_data",
          "type": "bytes"
        }
      ],
      "name": "safeTransferFrom",
      "outputs": [],
      "stateMutability": "nonpayable",
      "type": "function"
    },
    {
      "inputs": [
        {
          "internalType": "address",
          "name": "operator",
          "type": "address"
        },
        {
          "internalType": "bool",
          "name": "approved",
          "type": "bool"
        }
      ],
      "name": "setApprovalForAll",
      "outputs": [],
      "stateMutability": "nonpayable",
      "type": "function"
    },
    {
      "inputs": [
        {
          "internalType": "bytes4",
          "name": "interfaceId",
          "type": "bytes4"
        }
      ],
      "name": "supportsInterface",
      "outputs": [
        {
          "internalType": "bool",
          "name": "",
          "type": "bool"
        }
      ],
      "stateMutability": "view",
      "type": "function"
    },
    {
      "inputs": [],
      "name": "symbol",
      "outputs": [
        {
          "internalType": "string",
          "name": "",
          "type": "string"
        }
      ],
      "stateMutability": "view",
      "type": "function"
    },
    {
      "inputs": [
        {
          "internalType": "uint256",
          "name": "tokenId",
          "type": "uint256"
        }
      ],
      "name": "tokenURI",
      "outputs": [
        {
          "internalType": "string",
          "name": "",
          "type": "string"
        }
      ],
      "stateMutability": "view",
      "type": "function"
    },
    {
      "inputs": [],
      "name": "totalBQty",
      "outputs": [
        {
          "internalType": "uint256",
          "name": "",
          "type": "uint256"
        }
      ],
      "stateMutability": "view",
      "type": "function"
    },
    {
      "inputs": [
        {
          "internalType": "address",
          "name": "from",
          "type": "address"
        },
        {
          "internalType": "address",
          "name": "to",
          "type": "address"
        },
        {
          "internalType": "uint256",
          "name": "tokenId",
          "type": "uint256"
        }
      ],
      "name": "transferFrom",
      "outputs": [],
      "stateMutability": "nonpayable",
      "type": "function"
    },
    {
      "inputs": [
        {
          "internalType": "address",
          "name": "newOwner",
          "type": "address"
        }
      ],
      "name": "transferOwnership",
      "outputs": [],
      "stateMutability": "nonpayable",
      "type": "function"
    },
    {
      "inputs": [],
      "name": "mintQilinPieceB",
      "outputs": [],
      "stateMutability": "nonpayable",
      "type": "function"
    },
    {
      "inputs": [
        {
          "internalType": "address",
          "name": "from",
          "type": "address"
        },
        {
          "internalType": "address",
          "name": "to",
          "type": "address"
        },
        {
          "internalType": "uint256",
          "name": "tokenId",
          "type": "uint256"
        }
      ],
      "name": "transferB",
      "outputs": [],
      "stateMutability": "nonpayable",
      "type": "function"
    },
    {
      "inputs": [
        {
          "internalType": "uint256",
          "name": "tokenId",
          "type": "uint256"
        }
      ],
      "name": "burnB",
      "outputs": [],
      "stateMutability": "nonpayable",
      "type": "function"
    },
    {
      "inputs": [
        {
          "internalType": "address",
          "name": "owner",
          "type": "address"
        }
      ],
      "name": "getHolderB",
      "outputs": [
        {
          "internalType": "uint256",
          "name": "",
          "type": "uint256"
        }
      ],
      "stateMutability": "view",
      "type": "function"
    }
  ],
  "bytecode": "0x608060405260006007553480156200001657600080fd5b506040518060400160405280600681526020017f51696c696e4200000000000000000000000000000000000000000000000000008152506040518060400160405280600181526020017f4200000000000000000000000000000000000000000000000000000000000000815250620000a362000097620000dd60201b60201c565b620000e560201b60201c565b8160019080519060200190620000bb929190620001a9565b508060029080519060200190620000d4929190620001a9565b505050620002be565b600033905090565b60008060009054906101000a900473ffffffffffffffffffffffffffffffffffffffff169050816000806101000a81548173ffffffffffffffffffffffffffffffffffffffff021916908373ffffffffffffffffffffffffffffffffffffffff1602179055508173ffffffffffffffffffffffffffffffffffffffff168173ffffffffffffffffffffffffffffffffffffffff167f8be0079c531659141344cd1fd0a4f28419497f9722a3daafe3b4186f6b6457e060405160405180910390a35050565b828054620001b79062000259565b90600052602060002090601f016020900481019282620001db576000855562000227565b82601f10620001f657805160ff191683800117855562000227565b8280016001018555821562000227579182015b828111156200022657825182559160200191906001019062000209565b5b5090506200023691906200023a565b5090565b5b80821115620002555760008160009055506001016200023b565b5090565b600060028204905060018216806200027257607f821691505b602082108114156200028957620002886200028f565b5b50919050565b7f4e487b7100000000000000000000000000000000000000000000000000000000600052602260045260246000fd5b612fea80620002ce6000396000f3fe608060405234801561001057600080fd5b50600436106101425760003560e01c8063715018a6116100b857806395d89b411161007c57806395d89b4114610361578063a22cb4651461037f578063b88d4fde1461039b578063c87b56dd146103b7578063e985e9c5146103e7578063f2fde38b1461041757610142565b8063715018a6146102e157806371a0c9d6146102eb5780638da5cb5b1461031b5780638f825dc7146103395780639097b0111461035757610142565b806323b872dd1161010a57806323b872dd146101fd5780633342a7ab14610219578063415a1ce51461024957806342842e0e146102655780636352211e1461028157806370a08231146102b157610142565b806301ffc9a71461014757806306fdde0314610177578063081812fc14610195578063095ea7b3146101c55780632071033a146101e1575b600080fd5b610161600480360381019061015c9190612016565b610433565b60405161016e9190612462565b60405180910390f35b61017f610515565b60405161018c919061247d565b60405180910390f35b6101af60048036038101906101aa9190612068565b6105a7565b6040516101bc91906123fb565b60405180910390f35b6101df60048036038101906101da9190611fda565b61062c565b005b6101fb60048036038101906101f69190611ed4565b610744565b005b61021760048036038101906102129190611ed4565b61080c565b005b610233600480360381019061022e9190611e6f565b61086c565b60405161024091906126df565b60405180910390f35b610263600480360381019061025e9190612068565b6108b5565b005b61027f600480360381019061027a9190611ed4565b6108c1565b005b61029b60048036038101906102969190612068565b6108e1565b6040516102a891906123fb565b60405180910390f35b6102cb60048036038101906102c69190611e6f565b610993565b6040516102d891906126df565b60405180910390f35b6102e9610a4b565b005b61030560048036038101906103009190611e6f565b610ad3565b60405161031291906126df565b60405180910390f35b610323610aeb565b60405161033091906123fb565b60405180910390f35b610341610b14565b60405161034e91906126df565b60405180910390f35b61035f610b1a565b005b610369610c00565b604051610376919061247d565b60405180910390f35b61039960048036038101906103949190611f9e565b610c92565b005b6103b560048036038101906103b09190611f23565b610ca8565b005b6103d160048036038101906103cc9190612068565b610d0a565b6040516103de919061247d565b60405180910390f35b61040160048036038101906103fc9190611e98565b610db1565b60405161040e9190612462565b60405180910390f35b610431600480360381019061042c9190611e6f565b610e45565b005b60007f80ac58cd000000000000000000000000000000000000000000000000000000007bffffffffffffffffffffffffffffffffffffffffffffffffffffffff1916827bffffffffffffffffffffffffffffffffffffffffffffffffffffffff191614806104fe57507f5b5e139f000000000000000000000000000000000000000000000000000000007bffffffffffffffffffffffffffffffffffffffffffffffffffffffff1916827bffffffffffffffffffffffffffffffffffffffffffffffffffffffff1916145b8061050e575061050d82610f3d565b5b9050919050565b60606001805461052490612904565b80601f016020809104026020016040519081016040528092919081815260200182805461055090612904565b801561059d5780601f106105725761010080835404028352916020019161059d565b820191906000526020600020905b81548152906001019060200180831161058057829003601f168201915b5050505050905090565b60006105b282610fa7565b6105f1576040517f08c379a00000000000000000000000000000000000000000000000000000000081526004016105e89061261f565b60405180910390fd5b6005600083815260200190815260200160002060009054906101000a900473ffffffffffffffffffffffffffffffffffffffff169050919050565b6000610637826108e1565b90508073ffffffffffffffffffffffffffffffffffffffff168373ffffffffffffffffffffffffffffffffffffffff1614156106a8576040517f08c379a000000000000000000000000000000000000000000000000000000000815260040161069f9061269f565b60405180910390fd5b8073ffffffffffffffffffffffffffffffffffffffff166106c7611013565b73ffffffffffffffffffffffffffffffffffffffff1614806106f657506106f5816106f0611013565b610db1565b5b610735576040517f08c379a000000000000000000000000000000000000000000000000000000000815260040161072c9061259f565b60405180910390fd5b61073f838361101b565b505050565b61074c610aeb565b73ffffffffffffffffffffffffffffffffffffffff168273ffffffffffffffffffffffffffffffffffffffff16146107b9576040517f08c379a00000000000000000000000000000000000000000000000000000000081526004016107b09061249f565b60405180910390fd5b6107c48383836110d4565b600860008473ffffffffffffffffffffffffffffffffffffffff1673ffffffffffffffffffffffffffffffffffffffff16815260200190815260200160002060009055505050565b61081d610817611013565b8261133b565b61085c576040517f08c379a0000000000000000000000000000000000000000000000000000000008152600401610853906126bf565b60405180910390fd5b6108678383836110d4565b505050565b6000600860008373ffffffffffffffffffffffffffffffffffffffff1673ffffffffffffffffffffffffffffffffffffffff168152602001908152602001600020549050919050565b6108be81611419565b50565b6108dc83838360405180602001604052806000815250610ca8565b505050565b6000806003600084815260200190815260200160002060009054906101000a900473ffffffffffffffffffffffffffffffffffffffff169050600073ffffffffffffffffffffffffffffffffffffffff168173ffffffffffffffffffffffffffffffffffffffff16141561098a576040517f08c379a0000000000000000000000000000000000000000000000000000000008152600401610981906125df565b60405180910390fd5b80915050919050565b60008073ffffffffffffffffffffffffffffffffffffffff168273ffffffffffffffffffffffffffffffffffffffff161415610a04576040517f08c379a00000000000000000000000000000000000000000000000000000000081526004016109fb906125bf565b60405180910390fd5b600460008373ffffffffffffffffffffffffffffffffffffffff1673ffffffffffffffffffffffffffffffffffffffff168152602001908152602001600020549050919050565b610a53611013565b73ffffffffffffffffffffffffffffffffffffffff16610a71610aeb565b73ffffffffffffffffffffffffffffffffffffffff1614610ac7576040517f08c379a0000000000000000000000000000000000000000000000000000000008152600401610abe9061263f565b60405180910390fd5b610ad16000611536565b565b60086020528060005260406000206000915090505481565b60008060009054906101000a900473ffffffffffffffffffffffffffffffffffffffff16905090565b60075481565b6001600860003373ffffffffffffffffffffffffffffffffffffffff1673ffffffffffffffffffffffffffffffffffffffff1681526020019081526020016000205410610b9c576040517f08c379a0000000000000000000000000000000000000000000000000000000008152600401610b939061267f565b60405180910390fd5b60006001600754610bad9190612793565b9050610bb933826115fa565b80600860003373ffffffffffffffffffffffffffffffffffffffff1673ffffffffffffffffffffffffffffffffffffffff1681526020019081526020016000208190555050565b606060028054610c0f90612904565b80601f0160208091040260200160405190810160405280929190818152602001828054610c3b90612904565b8015610c885780601f10610c5d57610100808354040283529160200191610c88565b820191906000526020600020905b815481529060010190602001808311610c6b57829003601f168201915b5050505050905090565b610ca4610c9d611013565b8383611618565b5050565b610cb9610cb3611013565b8361133b565b610cf8576040517f08c379a0000000000000000000000000000000000000000000000000000000008152600401610cef906126bf565b60405180910390fd5b610d0484848484611785565b50505050565b6060610d1582610fa7565b610d54576040517f08c379a0000000000000000000000000000000000000000000000000000000008152600401610d4b9061265f565b60405180910390fd5b6000610d5e6117e1565b90506000815111610d7e5760405180602001604052806000815250610da9565b80610d88846117f8565b604051602001610d999291906123d7565b6040516020818303038152906040525b915050919050565b6000600660008473ffffffffffffffffffffffffffffffffffffffff1673ffffffffffffffffffffffffffffffffffffffff16815260200190815260200160002060008373ffffffffffffffffffffffffffffffffffffffff1673ffffffffffffffffffffffffffffffffffffffff16815260200190815260200160002060009054906101000a900460ff16905092915050565b610e4d611013565b73ffffffffffffffffffffffffffffffffffffffff16610e6b610aeb565b73ffffffffffffffffffffffffffffffffffffffff1614610ec1576040517f08c379a0000000000000000000000000000000000000000000000000000000008152600401610eb89061263f565b60405180910390fd5b600073ffffffffffffffffffffffffffffffffffffffff168173ffffffffffffffffffffffffffffffffffffffff161415610f31576040517f08c379a0000000000000000000000000000000000000000000000000000000008152600401610f28906124df565b60405180910390fd5b610f3a81611536565b50565b60007f01ffc9a7000000000000000000000000000000000000000000000000000000007bffffffffffffffffffffffffffffffffffffffffffffffffffffffff1916827bffffffffffffffffffffffffffffffffffffffffffffffffffffffff1916149050919050565b60008073ffffffffffffffffffffffffffffffffffffffff166003600084815260200190815260200160002060009054906101000a900473ffffffffffffffffffffffffffffffffffffffff1673ffffffffffffffffffffffffffffffffffffffff1614159050919050565b600033905090565b816005600083815260200190815260200160002060006101000a81548173ffffffffffffffffffffffffffffffffffffffff021916908373ffffffffffffffffffffffffffffffffffffffff160217905550808273ffffffffffffffffffffffffffffffffffffffff1661108e836108e1565b73ffffffffffffffffffffffffffffffffffffffff167f8c5be1e5ebec7d5bd14f71427d1e84f3dd0314c0f7b2291e5b200ac8c7c3b92560405160405180910390a45050565b8273ffffffffffffffffffffffffffffffffffffffff166110f4826108e1565b73ffffffffffffffffffffffffffffffffffffffff161461114a576040517f08c379a0000000000000000000000000000000000000000000000000000000008152600401611141906124ff565b60405180910390fd5b600073ffffffffffffffffffffffffffffffffffffffff168273ffffffffffffffffffffffffffffffffffffffff1614156111ba576040517f08c379a00000000000000000000000000000000000000000000000000000000081526004016111b19061253f565b60405180910390fd5b6111c58383836119a5565b6111d060008261101b565b6001600460008573ffffffffffffffffffffffffffffffffffffffff1673ffffffffffffffffffffffffffffffffffffffff1681526020019081526020016000206000828254611220919061281a565b925050819055506001600460008473ffffffffffffffffffffffffffffffffffffffff1673ffffffffffffffffffffffffffffffffffffffff16815260200190815260200160002060008282546112779190612793565b92505081905550816003600083815260200190815260200160002060006101000a81548173ffffffffffffffffffffffffffffffffffffffff021916908373ffffffffffffffffffffffffffffffffffffffff160217905550808273ffffffffffffffffffffffffffffffffffffffff168473ffffffffffffffffffffffffffffffffffffffff167fddf252ad1be2c89b69c2b068fc378daa952ba7f163c4a11628f55a4df523b3ef60405160405180910390a46113368383836119aa565b505050565b600061134682610fa7565b611385576040517f08c379a000000000000000000000000000000000000000000000000000000000815260040161137c9061257f565b60405180910390fd5b6000611390836108e1565b90508073ffffffffffffffffffffffffffffffffffffffff168473ffffffffffffffffffffffffffffffffffffffff1614806113ff57508373ffffffffffffffffffffffffffffffffffffffff166113e7846105a7565b73ffffffffffffffffffffffffffffffffffffffff16145b80611410575061140f8185610db1565b5b91505092915050565b6000611424826108e1565b9050611432816000846119a5565b61143d60008361101b565b6001600460008373ffffffffffffffffffffffffffffffffffffffff1673ffffffffffffffffffffffffffffffffffffffff168152602001908152602001600020600082825461148d919061281a565b925050819055506003600083815260200190815260200160002060006101000a81549073ffffffffffffffffffffffffffffffffffffffff021916905581600073ffffffffffffffffffffffffffffffffffffffff168273ffffffffffffffffffffffffffffffffffffffff167fddf252ad1be2c89b69c2b068fc378daa952ba7f163c4a11628f55a4df523b3ef60405160405180910390a4611532816000846119aa565b5050565b60008060009054906101000a900473ffffffffffffffffffffffffffffffffffffffff169050816000806101000a81548173ffffffffffffffffffffffffffffffffffffffff021916908373ffffffffffffffffffffffffffffffffffffffff1602179055508173ffffffffffffffffffffffffffffffffffffffff168173ffffffffffffffffffffffffffffffffffffffff167f8be0079c531659141344cd1fd0a4f28419497f9722a3daafe3b4186f6b6457e060405160405180910390a35050565b6116148282604051806020016040528060008152506119af565b5050565b8173ffffffffffffffffffffffffffffffffffffffff168373ffffffffffffffffffffffffffffffffffffffff161415611687576040517f08c379a000000000000000000000000000000000000000000000000000000000815260040161167e9061255f565b60405180910390fd5b80600660008573ffffffffffffffffffffffffffffffffffffffff1673ffffffffffffffffffffffffffffffffffffffff16815260200190815260200160002060008473ffffffffffffffffffffffffffffffffffffffff1673ffffffffffffffffffffffffffffffffffffffff16815260200190815260200160002060006101000a81548160ff0219169083151502179055508173ffffffffffffffffffffffffffffffffffffffff168373ffffffffffffffffffffffffffffffffffffffff167f17307eab39ab6107e8899845ad3d59bd9653f200f220920489ca2b5937696c31836040516117789190612462565b60405180910390a3505050565b6117908484846110d4565b61179c84848484611a0a565b6117db576040517f08c379a00000000000000000000000000000000000000000000000000000000081526004016117d2906124bf565b60405180910390fd5b50505050565b606060405180602001604052806000815250905090565b60606000821415611840576040518060400160405280600181526020017f300000000000000000000000000000000000000000000000000000000000000081525090506119a0565b600082905060005b6000821461187257808061185b90612967565b915050600a8261186b91906127e9565b9150611848565b60008167ffffffffffffffff8111156118b4577f4e487b7100000000000000000000000000000000000000000000000000000000600052604160045260246000fd5b6040519080825280601f01601f1916602001820160405280156118e65781602001600182028036833780820191505090505b5090505b60008514611999576001826118ff919061281a565b9150600a8561190e91906129b0565b603061191a9190612793565b60f81b818381518110611956577f4e487b7100000000000000000000000000000000000000000000000000000000600052603260045260246000fd5b60200101907effffffffffffffffffffffffffffffffffffffffffffffffffffffffffffff1916908160001a905350600a8561199291906127e9565b94506118ea565b8093505050505b919050565b505050565b505050565b6119b98383611ba1565b6119c66000848484611a0a565b611a05576040517f08c379a00000000000000000000000000000000000000000000000000000000081526004016119fc906124bf565b60405180910390fd5b505050565b6000611a2b8473ffffffffffffffffffffffffffffffffffffffff16611d7b565b15611b94578373ffffffffffffffffffffffffffffffffffffffff1663150b7a02611a54611013565b8786866040518563ffffffff1660e01b8152600401611a769493929190612416565b602060405180830381600087803b158015611a9057600080fd5b505af1925050508015611ac157506040513d601f19601f82011682018060405250810190611abe919061203f565b60015b611b44573d8060008114611af1576040519150601f19603f3d011682016040523d82523d6000602084013e611af6565b606091505b50600081511415611b3c576040517f08c379a0000000000000000000000000000000000000000000000000000000008152600401611b33906124bf565b60405180910390fd5b805181602001fd5b63150b7a0260e01b7bffffffffffffffffffffffffffffffffffffffffffffffffffffffff1916817bffffffffffffffffffffffffffffffffffffffffffffffffffffffff191614915050611b99565b600190505b949350505050565b600073ffffffffffffffffffffffffffffffffffffffff168273ffffffffffffffffffffffffffffffffffffffff161415611c11576040517f08c379a0000000000000000000000000000000000000000000000000000000008152600401611c08906125ff565b60405180910390fd5b611c1a81610fa7565b15611c5a576040517f08c379a0000000000000000000000000000000000000000000000000000000008152600401611c519061251f565b60405180910390fd5b611c66600083836119a5565b6001600460008473ffffffffffffffffffffffffffffffffffffffff1673ffffffffffffffffffffffffffffffffffffffff1681526020019081526020016000206000828254611cb69190612793565b92505081905550816003600083815260200190815260200160002060006101000a81548173ffffffffffffffffffffffffffffffffffffffff021916908373ffffffffffffffffffffffffffffffffffffffff160217905550808273ffffffffffffffffffffffffffffffffffffffff16600073ffffffffffffffffffffffffffffffffffffffff167fddf252ad1be2c89b69c2b068fc378daa952ba7f163c4a11628f55a4df523b3ef60405160405180910390a4611d77600083836119aa565b5050565b6000808273ffffffffffffffffffffffffffffffffffffffff163b119050919050565b6000611db1611dac8461271f565b6126fa565b905082815260208101848484011115611dc957600080fd5b611dd48482856128c2565b509392505050565b600081359050611deb81612f58565b92915050565b600081359050611e0081612f6f565b92915050565b600081359050611e1581612f86565b92915050565b600081519050611e2a81612f86565b92915050565b600082601f830112611e4157600080fd5b8135611e51848260208601611d9e565b91505092915050565b600081359050611e6981612f9d565b92915050565b600060208284031215611e8157600080fd5b6000611e8f84828501611ddc565b91505092915050565b60008060408385031215611eab57600080fd5b6000611eb985828601611ddc565b9250506020611eca85828601611ddc565b9150509250929050565b600080600060608486031215611ee957600080fd5b6000611ef786828701611ddc565b9350506020611f0886828701611ddc565b9250506040611f1986828701611e5a565b9150509250925092565b60008060008060808587031215611f3957600080fd5b6000611f4787828801611ddc565b9450506020611f5887828801611ddc565b9350506040611f6987828801611e5a565b925050606085013567ffffffffffffffff811115611f8657600080fd5b611f9287828801611e30565b91505092959194509250565b60008060408385031215611fb157600080fd5b6000611fbf85828601611ddc565b9250506020611fd085828601611df1565b9150509250929050565b60008060408385031215611fed57600080fd5b6000611ffb85828601611ddc565b925050602061200c85828601611e5a565b9150509250929050565b60006020828403121561202857600080fd5b600061203684828501611e06565b91505092915050565b60006020828403121561205157600080fd5b600061205f84828501611e1b565b91505092915050565b60006020828403121561207a57600080fd5b600061208884828501611e5a565b91505092915050565b61209a8161284e565b82525050565b6120a981612860565b82525050565b60006120ba82612750565b6120c48185612766565b93506120d48185602086016128d1565b6120dd81612a9d565b840191505092915050565b60006120f38261275b565b6120fd8185612777565b935061210d8185602086016128d1565b61211681612a9d565b840191505092915050565b600061212c8261275b565b6121368185612788565b93506121468185602086016128d1565b80840191505092915050565b600061215f601283612777565b915061216a82612aae565b602082019050919050565b6000612182603283612777565b915061218d82612ad7565b604082019050919050565b60006121a5602683612777565b91506121b082612b26565b604082019050919050565b60006121c8602583612777565b91506121d382612b75565b604082019050919050565b60006121eb601c83612777565b91506121f682612bc4565b602082019050919050565b600061220e602483612777565b915061221982612bed565b604082019050919050565b6000612231601983612777565b915061223c82612c3c565b602082019050919050565b6000612254602c83612777565b915061225f82612c65565b604082019050919050565b6000612277603883612777565b915061228282612cb4565b604082019050919050565b600061229a602a83612777565b91506122a582612d03565b604082019050919050565b60006122bd602983612777565b91506122c882612d52565b604082019050919050565b60006122e0602083612777565b91506122eb82612da1565b602082019050919050565b6000612303602c83612777565b915061230e82612dca565b604082019050919050565b6000612326602083612777565b915061233182612e19565b602082019050919050565b6000612349602f83612777565b915061235482612e42565b604082019050919050565b600061236c601883612777565b915061237782612e91565b602082019050919050565b600061238f602183612777565b915061239a82612eba565b604082019050919050565b60006123b2603183612777565b91506123bd82612f09565b604082019050919050565b6123d1816128b8565b82525050565b60006123e38285612121565b91506123ef8284612121565b91508190509392505050565b60006020820190506124106000830184612091565b92915050565b600060808201905061242b6000830187612091565b6124386020830186612091565b61244560408301856123c8565b818103606083015261245781846120af565b905095945050505050565b600060208201905061247760008301846120a0565b92915050565b6000602082019050818103600083015261249781846120e8565b905092915050565b600060208201905081810360008301526124b881612152565b9050919050565b600060208201905081810360008301526124d881612175565b9050919050565b600060208201905081810360008301526124f881612198565b9050919050565b60006020820190508181036000830152612518816121bb565b9050919050565b60006020820190508181036000830152612538816121de565b9050919050565b6000602082019050818103600083015261255881612201565b9050919050565b6000602082019050818103600083015261257881612224565b9050919050565b6000602082019050818103600083015261259881612247565b9050919050565b600060208201905081810360008301526125b88161226a565b9050919050565b600060208201905081810360008301526125d88161228d565b9050919050565b600060208201905081810360008301526125f8816122b0565b9050919050565b60006020820190508181036000830152612618816122d3565b9050919050565b60006020820190508181036000830152612638816122f6565b9050919050565b6000602082019050818103600083015261265881612319565b9050919050565b600060208201905081810360008301526126788161233c565b9050919050565b600060208201905081810360008301526126988161235f565b9050919050565b600060208201905081810360008301526126b881612382565b9050919050565b600060208201905081810360008301526126d8816123a5565b9050919050565b60006020820190506126f460008301846123c8565b92915050565b6000612704612715565b90506127108282612936565b919050565b6000604051905090565b600067ffffffffffffffff82111561273a57612739612a6e565b5b61274382612a9d565b9050602081019050919050565b600081519050919050565b600081519050919050565b600082825260208201905092915050565b600082825260208201905092915050565b600081905092915050565b600061279e826128b8565b91506127a9836128b8565b9250827fffffffffffffffffffffffffffffffffffffffffffffffffffffffffffffffff038211156127de576127dd6129e1565b5b828201905092915050565b60006127f4826128b8565b91506127ff836128b8565b92508261280f5761280e612a10565b5b828204905092915050565b6000612825826128b8565b9150612830836128b8565b925082821015612843576128426129e1565b5b828203905092915050565b600061285982612898565b9050919050565b60008115159050919050565b60007fffffffff0000000000000000000000000000000000000000000000000000000082169050919050565b600073ffffffffffffffffffffffffffffffffffffffff82169050919050565b6000819050919050565b82818337600083830152505050565b60005b838110156128ef5780820151818401526020810190506128d4565b838111156128fe576000848401525b50505050565b6000600282049050600182168061291c57607f821691505b602082108114156129305761292f612a3f565b5b50919050565b61293f82612a9d565b810181811067ffffffffffffffff8211171561295e5761295d612a6e565b5b80604052505050565b6000612972826128b8565b91507fffffffffffffffffffffffffffffffffffffffffffffffffffffffffffffffff8214156129a5576129a46129e1565b5b600182019050919050565b60006129bb826128b8565b91506129c6836128b8565b9250826129d6576129d5612a10565b5b828206905092915050565b7f4e487b7100000000000000000000000000000000000000000000000000000000600052601160045260246000fd5b7f4e487b7100000000000000000000000000000000000000000000000000000000600052601260045260246000fd5b7f4e487b7100000000000000000000000000000000000000000000000000000000600052602260045260246000fd5b7f4e487b7100000000000000000000000000000000000000000000000000000000600052604160045260246000fd5b6000601f19601f8301169050919050565b7f7472616e736665722069732062616e6e65640000000000000000000000000000600082015250565b7f4552433732313a207472616e7366657220746f206e6f6e20455243373231526560008201527f63656976657220696d706c656d656e7465720000000000000000000000000000602082015250565b7f4f776e61626c653a206e6577206f776e657220697320746865207a65726f206160008201527f6464726573730000000000000000000000000000000000000000000000000000602082015250565b7f4552433732313a207472616e736665722066726f6d20696e636f72726563742060008201527f6f776e6572000000000000000000000000000000000000000000000000000000602082015250565b7f4552433732313a20746f6b656e20616c7265616479206d696e74656400000000600082015250565b7f4552433732313a207472616e7366657220746f20746865207a65726f2061646460008201527f7265737300000000000000000000000000000000000000000000000000000000602082015250565b7f4552433732313a20617070726f766520746f2063616c6c657200000000000000600082015250565b7f4552433732313a206f70657261746f7220717565727920666f72206e6f6e657860008201527f697374656e7420746f6b656e0000000000000000000000000000000000000000602082015250565b7f4552433732313a20617070726f76652063616c6c6572206973206e6f74206f7760008201527f6e6572206e6f7220617070726f76656420666f7220616c6c0000000000000000602082015250565b7f4552433732313a2062616c616e636520717565727920666f7220746865207a6560008201527f726f206164647265737300000000000000000000000000000000000000000000602082015250565b7f4552433732313a206f776e657220717565727920666f72206e6f6e657869737460008201527f656e7420746f6b656e0000000000000000000000000000000000000000000000602082015250565b7f4552433732313a206d696e7420746f20746865207a65726f2061646472657373600082015250565b7f4552433732313a20617070726f76656420717565727920666f72206e6f6e657860008201527f697374656e7420746f6b656e0000000000000000000000000000000000000000602082015250565b7f4f776e61626c653a2063616c6c6572206973206e6f7420746865206f776e6572600082015250565b7f4552433732314d657461646174613a2055524920717565727920666f72206e6f60008201527f6e6578697374656e7420746f6b656e0000000000000000000000000000000000602082015250565b7f796f7520616c7265616479206861766520706965636520420000000000000000600082015250565b7f4552433732313a20617070726f76616c20746f2063757272656e74206f776e6560008201527f7200000000000000000000000000000000000000000000000000000000000000602082015250565b7f4552433732313a207472616e736665722063616c6c6572206973206e6f74206f60008201527f776e6572206e6f7220617070726f766564000000000000000000000000000000602082015250565b612f618161284e565b8114612f6c57600080fd5b50565b612f7881612860565b8114612f8357600080fd5b50565b612f8f8161286c565b8114612f9a57600080fd5b50565b612fa6816128b8565b8114612fb157600080fd5b5056fea2646970667358221220cc472de6fa5d39468e6c6be25261a5a14fb00c1dfb5f05f5cdc46683687f245e64736f6c63430008010033",
  "immutableReferences": {},
  "source": "pragma solidity >=0.4.22 <0.9.0;\n\nimport \"@openzeppelin/contracts/token/ERC721/ERC721.sol\";\nimport \"@openzeppelin/contracts/access/Ownable.sol\";\n\ncontract QilinPieceB is Ownable, ERC721 {\n\n    uint256 public totalBQty = 0;\n    mapping (address => uint256) public minterToTokenIdB;\n\n    constructor() ERC721(\"QilinB\", \"B\") {}\n\n    function mintQilinPieceB () external {\n        \n        require(minterToTokenIdB[msg.sender] < 1, \"you already have piece B\");\n\n        uint256 tokenId = totalBQty + 1;\n        _safeMint(msg.sender, tokenId);\n\n        minterToTokenIdB[msg.sender] = tokenId;\n    }\n\n    function transferB (\n        address from,\n        address to,\n        uint256 tokenId\n    ) external {\n\n        require(to == owner(), \"transfer is banned\");\n\n        _transfer(from, to, tokenId);\n        delete minterToTokenIdB[from];\n    }\n\n    function burnB (uint256 tokenId) external {\n        _burn(tokenId);\n    }\n\n    function getHolderB(address owner) external view returns (uint256) {\n        return minterToTokenIdB[owner];\n    }\n}",
  "sourcePath": "/Users/pengyun/Desktop/code/qilin-nft/contracts/QilinPieceB.sol",
  "compiler": {
    "name": "solc",
    "version": "0.8.1+commit.df193b15.Emscripten.clang"
  },
  "schemaVersion": "3.3.3",
  "updatedAt": "2022-03-08T03:12:23.524Z",
  "devdoc": {
    "kind": "dev",
    "methods": {
      "approve(address,uint256)": {
        "details": "See {IERC721-approve}."
      },
      "balanceOf(address)": {
        "details": "See {IERC721-balanceOf}."
      },
      "getApproved(uint256)": {
        "details": "See {IERC721-getApproved}."
      },
      "isApprovedForAll(address,address)": {
        "details": "See {IERC721-isApprovedForAll}."
      },
      "name()": {
        "details": "See {IERC721Metadata-name}."
      },
      "owner()": {
        "details": "Returns the address of the current owner."
      },
      "ownerOf(uint256)": {
        "details": "See {IERC721-ownerOf}."
      },
      "renounceOwnership()": {
        "details": "Leaves the contract without owner. It will not be possible to call `onlyOwner` functions anymore. Can only be called by the current owner. NOTE: Renouncing ownership will leave the contract without an owner, thereby removing any functionality that is only available to the owner."
      },
      "safeTransferFrom(address,address,uint256)": {
        "details": "See {IERC721-safeTransferFrom}."
      },
      "safeTransferFrom(address,address,uint256,bytes)": {
        "details": "See {IERC721-safeTransferFrom}."
      },
      "setApprovalForAll(address,bool)": {
        "details": "See {IERC721-setApprovalForAll}."
      },
      "supportsInterface(bytes4)": {
        "details": "See {IERC165-supportsInterface}."
      },
      "symbol()": {
        "details": "See {IERC721Metadata-symbol}."
      },
      "tokenURI(uint256)": {
        "details": "See {IERC721Metadata-tokenURI}."
      },
      "transferFrom(address,address,uint256)": {
        "details": "See {IERC721-transferFrom}."
      },
      "transferOwnership(address)": {
        "details": "Transfers ownership of the contract to a new account (`newOwner`). Can only be called by the current owner."
      }
    },
    "version": 1
  },
  "userdoc": {
    "kind": "user",
    "methods": {},
    "version": 1
  }
}