{
  "contractName": "QilinPiece",
  "abi": [
    {
      "inputs": [
        {
          "internalType": "string",
          "name": "name",
          "type": "string"
        },
        {
          "internalType": "string",
          "name": "symbol",
          "type": "string"
        },
        {
          "internalType": "uint256",
          "name": "totalSupply_",
          "type": "uint256"
        }
      ],
      "stateMutability": "nonpayable",
      "type": "constructor"
    },
    {
      "anonymous": false,
      "inputs": [
        {
          "indexed": true,
          "internalType": "address",
          "name": "owner",
          "type": "address"
        },
        {
          "indexed": true,
          "internalType": "address",
          "name": "approved",
          "type": "address"
        },
        {
          "indexed": true,
          "internalType": "uint256",
          "name": "tokenId",
          "type": "uint256"
        }
      ],
      "name": "Approval",
      "type": "event"
    },
    {
      "anonymous": false,
      "inputs": [
        {
          "indexed": true,
          "internalType": "address",
          "name": "owner",
          "type": "address"
        },
        {
          "indexed": true,
          "internalType": "address",
          "name": "operator",
          "type": "address"
        },
        {
          "indexed": false,
          "internalType": "bool",
          "name": "approved",
          "type": "bool"
        }
      ],
      "name": "ApprovalForAll",
      "type": "event"
    },
    {
      "anonymous": false,
      "inputs": [
        {
          "indexed": true,
          "internalType": "address",
          "name": "previousOwner",
          "type": "address"
        },
        {
          "indexed": true,
          "internalType": "address",
          "name": "newOwner",
          "type": "address"
        }
      ],
      "name": "OwnershipTransferred",
      "type": "event"
    },
    {
      "anonymous": false,
      "inputs": [
        {
          "indexed": true,
          "internalType": "address",
          "name": "from",
          "type": "address"
        },
        {
          "indexed": true,
          "internalType": "address",
          "name": "to",
          "type": "address"
        },
        {
          "indexed": true,
          "internalType": "uint256",
          "name": "tokenId",
          "type": "uint256"
        }
      ],
      "name": "Transfer",
      "type": "event"
    },
    {
      "inputs": [],
      "name": "_totalSupply",
      "outputs": [
        {
          "internalType": "uint256",
          "name": "",
          "type": "uint256"
        }
      ],
      "stateMutability": "view",
      "type": "function",
      "constant": true
    },
    {
      "inputs": [
        {
          "internalType": "address",
          "name": "to",
          "type": "address"
        },
        {
          "internalType": "uint256",
          "name": "tokenId",
          "type": "uint256"
        }
      ],
      "name": "approve",
      "outputs": [],
      "stateMutability": "nonpayable",
      "type": "function"
    },
    {
      "inputs": [
        {
          "internalType": "address",
          "name": "owner",
          "type": "address"
        }
      ],
      "name": "balanceOf",
      "outputs": [
        {
          "internalType": "uint256",
          "name": "",
          "type": "uint256"
        }
      ],
      "stateMutability": "view",
      "type": "function",
      "constant": true
    },
    {
      "inputs": [
        {
          "internalType": "uint256",
          "name": "tokenId",
          "type": "uint256"
        }
      ],
      "name": "getApproved",
      "outputs": [
        {
          "internalType": "address",
          "name": "",
          "type": "address"
        }
      ],
      "stateMutability": "view",
      "type": "function",
      "constant": true
    },
    {
      "inputs": [
        {
          "internalType": "address",
          "name": "owner",
          "type": "address"
        },
        {
          "internalType": "address",
          "name": "operator",
          "type": "address"
        }
      ],
      "name": "isApprovedForAll",
      "outputs": [
        {
          "internalType": "bool",
          "name": "",
          "type": "bool"
        }
      ],
      "stateMutability": "view",
      "type": "function",
      "constant": true
    },
    {
      "inputs": [
        {
          "internalType": "address",
          "name": "",
          "type": "address"
        }
      ],
      "name": "minterToTokenId",
      "outputs": [
        {
          "internalType": "uint256",
          "name": "",
          "type": "uint256"
        }
      ],
      "stateMutability": "view",
      "type": "function",
      "constant": true
    },
    {
      "inputs": [],
      "name": "name",
      "outputs": [
        {
          "internalType": "string",
          "name": "",
          "type": "string"
        }
      ],
      "stateMutability": "view",
      "type": "function",
      "constant": true
    },
    {
      "inputs": [],
      "name": "owner",
      "outputs": [
        {
          "internalType": "address",
          "name": "",
          "type": "address"
        }
      ],
      "stateMutability": "view",
      "type": "function",
      "constant": true
    },
    {
      "inputs": [
        {
          "internalType": "uint256",
          "name": "tokenId",
          "type": "uint256"
        }
      ],
      "name": "ownerOf",
      "outputs": [
        {
          "internalType": "address",
          "name": "",
          "type": "address"
        }
      ],
      "stateMutability": "view",
      "type": "function",
      "constant": true
    },
    {
      "inputs": [],
      "name": "renounceOwnership",
      "outputs": [],
      "stateMutability": "nonpayable",
      "type": "function"
    },
    {
      "inputs": [
        {
          "internalType": "address",
          "name": "from",
          "type": "address"
        },
        {
          "internalType": "address",
          "name": "to",
          "type": "address"
        },
        {
          "internalType": "uint256",
          "name": "tokenId",
          "type": "uint256"
        }
      ],
      "name": "safeTransferFrom",
      "outputs": [],
      "stateMutability": "nonpayable",
      "type": "function"
    },
    {
      "inputs": [
        {
          "internalType": "address",
          "name": "from",
          "type": "address"
        },
        {
          "internalType": "address",
          "name": "to",
          "type": "address"
        },
        {
          "internalType": "uint256",
          "name": "tokenId",
          "type": "uint256"
        },
        {
          "internalType": "bytes",
          "name": "_data",
          "type": "bytes"
        }
      ],
      "name": "safeTransferFrom",
      "outputs": [],
      "stateMutability": "nonpayable",
      "type": "function"
    },
    {
      "inputs": [
        {
          "internalType": "address",
          "name": "operator",
          "type": "address"
        },
        {
          "internalType": "bool",
          "name": "approved",
          "type": "bool"
        }
      ],
      "name": "setApprovalForAll",
      "outputs": [],
      "stateMutability": "nonpayable",
      "type": "function"
    },
    {
      "inputs": [
        {
          "internalType": "bytes4",
          "name": "interfaceId",
          "type": "bytes4"
        }
      ],
      "name": "supportsInterface",
      "outputs": [
        {
          "internalType": "bool",
          "name": "",
          "type": "bool"
        }
      ],
      "stateMutability": "view",
      "type": "function",
      "constant": true
    },
    {
      "inputs": [],
      "name": "symbol",
      "outputs": [
        {
          "internalType": "string",
          "name": "",
          "type": "string"
        }
      ],
      "stateMutability": "view",
      "type": "function",
      "constant": true
    },
    {
      "inputs": [
        {
          "internalType": "uint256",
          "name": "tokenId",
          "type": "uint256"
        }
      ],
      "name": "tokenURI",
      "outputs": [
        {
          "internalType": "string",
          "name": "",
          "type": "string"
        }
      ],
      "stateMutability": "view",
      "type": "function",
      "constant": true
    },
    {
      "inputs": [],
      "name": "totalQty",
      "outputs": [
        {
          "internalType": "uint256",
          "name": "",
          "type": "uint256"
        }
      ],
      "stateMutability": "view",
      "type": "function",
      "constant": true
    },
    {
      "inputs": [
        {
          "internalType": "address",
          "name": "newOwner",
          "type": "address"
        }
      ],
      "name": "transferOwnership",
      "outputs": [],
      "stateMutability": "nonpayable",
      "type": "function"
    },
    {
      "inputs": [
        {
          "internalType": "address",
          "name": "account",
          "type": "address"
        }
      ],
      "name": "mintQilinPiece",
      "outputs": [],
      "stateMutability": "nonpayable",
      "type": "function"
    },
    {
      "inputs": [
        {
          "internalType": "address",
          "name": "from",
          "type": "address"
        },
        {
          "internalType": "address",
          "name": "to",
          "type": "address"
        },
        {
          "internalType": "uint256",
          "name": "tokenId",
          "type": "uint256"
        }
      ],
      "name": "transferFrom",
      "outputs": [],
      "stateMutability": "nonpayable",
      "type": "function"
    },
    {
      "inputs": [
        {
          "internalType": "uint256",
          "name": "tokenId",
          "type": "uint256"
        }
      ],
      "name": "burn",
      "outputs": [],
      "stateMutability": "nonpayable",
      "type": "function"
    },
    {
      "inputs": [
        {
          "internalType": "address",
          "name": "holder",
          "type": "address"
        }
      ],
      "name": "getHolder",
      "outputs": [
        {
          "internalType": "uint256",
          "name": "",
          "type": "uint256"
        }
      ],
      "stateMutability": "view",
      "type": "function",
      "constant": true
    },
    {
      "inputs": [
        {
          "internalType": "address",
          "name": "owner",
          "type": "address"
        }
      ],
      "name": "setOwner",
      "outputs": [],
      "stateMutability": "nonpayable",
      "type": "function"
    }
  ],
  "bytecode": "0x6080604052600060075560006009553480156200001b57600080fd5b50604051620036b8380380620036b88339818101604052810190620000419190620002ac565b82826200006362000057620000a760201b60201c565b620000af60201b60201c565b81600190805190602001906200007b92919062000173565b5080600290805190602001906200009492919062000173565b50505080600981905550505050620004c8565b600033905090565b60008060009054906101000a900473ffffffffffffffffffffffffffffffffffffffff169050816000806101000a81548173ffffffffffffffffffffffffffffffffffffffff021916908373ffffffffffffffffffffffffffffffffffffffff1602179055508173ffffffffffffffffffffffffffffffffffffffff168173ffffffffffffffffffffffffffffffffffffffff167f8be0079c531659141344cd1fd0a4f28419497f9722a3daafe3b4186f6b6457e060405160405180910390a35050565b8280546200018190620003d3565b90600052602060002090601f016020900481019282620001a55760008555620001f1565b82601f10620001c057805160ff1916838001178555620001f1565b82800160010185558215620001f1579182015b82811115620001f0578251825591602001919060010190620001d3565b5b50905062000200919062000204565b5090565b5b808211156200021f57600081600090555060010162000205565b5090565b60006200023a62000234846200035d565b62000334565b9050828152602081018484840111156200025357600080fd5b620002608482856200039d565b509392505050565b600082601f8301126200027a57600080fd5b81516200028c84826020860162000223565b91505092915050565b600081519050620002a681620004ae565b92915050565b600080600060608486031215620002c257600080fd5b600084015167ffffffffffffffff811115620002dd57600080fd5b620002eb8682870162000268565b935050602084015167ffffffffffffffff8111156200030957600080fd5b620003178682870162000268565b92505060406200032a8682870162000295565b9150509250925092565b60006200034062000353565b90506200034e828262000409565b919050565b6000604051905090565b600067ffffffffffffffff8211156200037b576200037a6200046e565b5b62000386826200049d565b9050602081019050919050565b6000819050919050565b60005b83811015620003bd578082015181840152602081019050620003a0565b83811115620003cd576000848401525b50505050565b60006002820490506001821680620003ec57607f821691505b602082108114156200040357620004026200043f565b5b50919050565b62000414826200049d565b810181811067ffffffffffffffff821117156200043657620004356200046e565b5b80604052505050565b7f4e487b7100000000000000000000000000000000000000000000000000000000600052602260045260246000fd5b7f4e487b7100000000000000000000000000000000000000000000000000000000600052604160045260246000fd5b6000601f19601f8301169050919050565b620004b98162000393565b8114620004c557600080fd5b50565b6131e080620004d86000396000f3fe608060405234801561001057600080fd5b506004361061014c5760003560e01c806370a08231116100c3578063a897598a1161007c578063a897598a14610387578063b88d4fde146103a5578063c87b56dd146103c1578063cd75c7d4146103f1578063e985e9c514610421578063f2fde38b146104515761014c565b806370a08231146102c5578063715018a6146102f55780638da5cb5b146102ff57806395d89b411461031d578063a22cb4651461033b578063a35f8055146103575761014c565b806313af40351161011557806313af40351461020757806323b872dd146102235780633eaaf86b1461023f57806342842e0e1461025d57806342966c68146102795780636352211e146102955761014c565b806229aa481461015157806301ffc9a71461016d57806306fdde031461019d578063081812fc146101bb578063095ea7b3146101eb575b600080fd5b61016b60048036038101906101669190611ff9565b61046d565b005b610187600480360381019061018291906121a0565b61063c565b604051610194919061260f565b60405180910390f35b6101a561071e565b6040516101b2919061262a565b60405180910390f35b6101d560048036038101906101d091906121f2565b6107b0565b6040516101e291906125a8565b60405180910390f35b61020560048036038101906102009190612164565b610835565b005b610221600480360381019061021c9190611ff9565b61094d565b005b61023d6004803603810190610238919061205e565b6109d5565b005b610247610a5a565b60405161025491906128ac565b60405180910390f35b6102776004803603810190610272919061205e565b610a60565b005b610293600480360381019061028e91906121f2565b610a80565b005b6102af60048036038101906102aa91906121f2565b610b08565b6040516102bc91906125a8565b60405180910390f35b6102df60048036038101906102da9190611ff9565b610bba565b6040516102ec91906128ac565b60405180910390f35b6102fd610c72565b005b610307610cfa565b60405161031491906125a8565b60405180910390f35b610325610d23565b604051610332919061262a565b60405180910390f35b61035560048036038101906103509190612128565b610db5565b005b610371600480360381019061036c9190611ff9565b610dcb565b60405161037e91906128ac565b60405180910390f35b61038f610de3565b60405161039c91906128ac565b60405180910390f35b6103bf60048036038101906103ba91906120ad565b610de9565b005b6103db60048036038101906103d691906121f2565b610e4b565b6040516103e8919061262a565b60405180910390f35b61040b60048036038101906104069190611ff9565b610ef2565b60405161041891906128ac565b60405180910390f35b61043b60048036038101906104369190612022565b610f3b565b604051610448919061260f565b60405180910390f35b61046b60048036038101906104669190611ff9565b610fcf565b005b6104756110c7565b73ffffffffffffffffffffffffffffffffffffffff16610493610cfa565b73ffffffffffffffffffffffffffffffffffffffff16146104e9576040517f08c379a00000000000000000000000000000000000000000000000000000000081526004016104e09061280c565b60405180910390fd5b6000600954111561053b576009546007541061053a576040517f08c379a0000000000000000000000000000000000000000000000000000000008152600401610531906126ec565b60405180910390fd5b5b6001600860008373ffffffffffffffffffffffffffffffffffffffff1673ffffffffffffffffffffffffffffffffffffffff16815260200190815260200160002054106105bd576040517f08c379a00000000000000000000000000000000000000000000000000000000081526004016105b49061288c565b60405180910390fd5b600060016007546105ce9190612960565b90506001600760008282546105e39190612960565b925050819055506105f482826110cf565b80600860008473ffffffffffffffffffffffffffffffffffffffff1673ffffffffffffffffffffffffffffffffffffffff168152602001908152602001600020819055505050565b60007f80ac58cd000000000000000000000000000000000000000000000000000000007bffffffffffffffffffffffffffffffffffffffffffffffffffffffff1916827bffffffffffffffffffffffffffffffffffffffffffffffffffffffff1916148061070757507f5b5e139f000000000000000000000000000000000000000000000000000000007bffffffffffffffffffffffffffffffffffffffffffffffffffffffff1916827bffffffffffffffffffffffffffffffffffffffffffffffffffffffff1916145b806107175750610716826110ed565b5b9050919050565b60606001805461072d90612ad1565b80601f016020809104026020016040519081016040528092919081815260200182805461075990612ad1565b80156107a65780601f1061077b576101008083540402835291602001916107a6565b820191906000526020600020905b81548152906001019060200180831161078957829003601f168201915b5050505050905090565b60006107bb82611157565b6107fa576040517f08c379a00000000000000000000000000000000000000000000000000000000081526004016107f1906127ec565b60405180910390fd5b6005600083815260200190815260200160002060009054906101000a900473ffffffffffffffffffffffffffffffffffffffff169050919050565b600061084082610b08565b90508073ffffffffffffffffffffffffffffffffffffffff168373ffffffffffffffffffffffffffffffffffffffff1614156108b1576040517f08c379a00000000000000000000000000000000000000000000000000000000081526004016108a89061284c565b60405180910390fd5b8073ffffffffffffffffffffffffffffffffffffffff166108d06110c7565b73ffffffffffffffffffffffffffffffffffffffff1614806108ff57506108fe816108f96110c7565b610f3b565b5b61093e576040517f08c379a00000000000000000000000000000000000000000000000000000000081526004016109359061276c565b60405180910390fd5b61094883836111c3565b505050565b6109556110c7565b73ffffffffffffffffffffffffffffffffffffffff16610973610cfa565b73ffffffffffffffffffffffffffffffffffffffff16146109c9576040517f08c379a00000000000000000000000000000000000000000000000000000000081526004016109c09061280c565b60405180910390fd5b6109d28161127c565b50565b6109dd610cfa565b73ffffffffffffffffffffffffffffffffffffffff168273ffffffffffffffffffffffffffffffffffffffff1614610a4a576040517f08c379a0000000000000000000000000000000000000000000000000000000008152600401610a419061264c565b60405180910390fd5b610a55838383611340565b505050565b60095481565b610a7b83838360405180602001604052806000815250610de9565b505050565b610a886110c7565b73ffffffffffffffffffffffffffffffffffffffff16610aa6610cfa565b73ffffffffffffffffffffffffffffffffffffffff1614610afc576040517f08c379a0000000000000000000000000000000000000000000000000000000008152600401610af39061280c565b60405180910390fd5b610b05816115a7565b50565b6000806003600084815260200190815260200160002060009054906101000a900473ffffffffffffffffffffffffffffffffffffffff169050600073ffffffffffffffffffffffffffffffffffffffff168173ffffffffffffffffffffffffffffffffffffffff161415610bb1576040517f08c379a0000000000000000000000000000000000000000000000000000000008152600401610ba8906127ac565b60405180910390fd5b80915050919050565b60008073ffffffffffffffffffffffffffffffffffffffff168273ffffffffffffffffffffffffffffffffffffffff161415610c2b576040517f08c379a0000000000000000000000000000000000000000000000000000000008152600401610c229061278c565b60405180910390fd5b600460008373ffffffffffffffffffffffffffffffffffffffff1673ffffffffffffffffffffffffffffffffffffffff168152602001908152602001600020549050919050565b610c7a6110c7565b73ffffffffffffffffffffffffffffffffffffffff16610c98610cfa565b73ffffffffffffffffffffffffffffffffffffffff1614610cee576040517f08c379a0000000000000000000000000000000000000000000000000000000008152600401610ce59061280c565b60405180910390fd5b610cf8600061127c565b565b60008060009054906101000a900473ffffffffffffffffffffffffffffffffffffffff16905090565b606060028054610d3290612ad1565b80601f0160208091040260200160405190810160405280929190818152602001828054610d5e90612ad1565b8015610dab5780601f10610d8057610100808354040283529160200191610dab565b820191906000526020600020905b815481529060010190602001808311610d8e57829003601f168201915b5050505050905090565b610dc7610dc06110c7565b83836116c4565b5050565b60086020528060005260406000206000915090505481565b60075481565b610dfa610df46110c7565b83611831565b610e39576040517f08c379a0000000000000000000000000000000000000000000000000000000008152600401610e309061286c565b60405180910390fd5b610e458484848461190f565b50505050565b6060610e5682611157565b610e95576040517f08c379a0000000000000000000000000000000000000000000000000000000008152600401610e8c9061282c565b60405180910390fd5b6000610e9f61196b565b90506000815111610ebf5760405180602001604052806000815250610eea565b80610ec984611982565b604051602001610eda929190612584565b6040516020818303038152906040525b915050919050565b6000600860008373ffffffffffffffffffffffffffffffffffffffff1673ffffffffffffffffffffffffffffffffffffffff168152602001908152602001600020549050919050565b6000600660008473ffffffffffffffffffffffffffffffffffffffff1673ffffffffffffffffffffffffffffffffffffffff16815260200190815260200160002060008373ffffffffffffffffffffffffffffffffffffffff1673ffffffffffffffffffffffffffffffffffffffff16815260200190815260200160002060009054906101000a900460ff16905092915050565b610fd76110c7565b73ffffffffffffffffffffffffffffffffffffffff16610ff5610cfa565b73ffffffffffffffffffffffffffffffffffffffff161461104b576040517f08c379a00000000000000000000000000000000000000000000000000000000081526004016110429061280c565b60405180910390fd5b600073ffffffffffffffffffffffffffffffffffffffff168173ffffffffffffffffffffffffffffffffffffffff1614156110bb576040517f08c379a00000000000000000000000000000000000000000000000000000000081526004016110b29061268c565b60405180910390fd5b6110c48161127c565b50565b600033905090565b6110e9828260405180602001604052806000815250611b2f565b5050565b60007f01ffc9a7000000000000000000000000000000000000000000000000000000007bffffffffffffffffffffffffffffffffffffffffffffffffffffffff1916827bffffffffffffffffffffffffffffffffffffffffffffffffffffffff1916149050919050565b60008073ffffffffffffffffffffffffffffffffffffffff166003600084815260200190815260200160002060009054906101000a900473ffffffffffffffffffffffffffffffffffffffff1673ffffffffffffffffffffffffffffffffffffffff1614159050919050565b816005600083815260200190815260200160002060006101000a81548173ffffffffffffffffffffffffffffffffffffffff021916908373ffffffffffffffffffffffffffffffffffffffff160217905550808273ffffffffffffffffffffffffffffffffffffffff1661123683610b08565b73ffffffffffffffffffffffffffffffffffffffff167f8c5be1e5ebec7d5bd14f71427d1e84f3dd0314c0f7b2291e5b200ac8c7c3b92560405160405180910390a45050565b60008060009054906101000a900473ffffffffffffffffffffffffffffffffffffffff169050816000806101000a81548173ffffffffffffffffffffffffffffffffffffffff021916908373ffffffffffffffffffffffffffffffffffffffff1602179055508173ffffffffffffffffffffffffffffffffffffffff168173ffffffffffffffffffffffffffffffffffffffff167f8be0079c531659141344cd1fd0a4f28419497f9722a3daafe3b4186f6b6457e060405160405180910390a35050565b8273ffffffffffffffffffffffffffffffffffffffff1661136082610b08565b73ffffffffffffffffffffffffffffffffffffffff16146113b6576040517f08c379a00000000000000000000000000000000000000000000000000000000081526004016113ad906126ac565b60405180910390fd5b600073ffffffffffffffffffffffffffffffffffffffff168273ffffffffffffffffffffffffffffffffffffffff161415611426576040517f08c379a000000000000000000000000000000000000000000000000000000000815260040161141d9061270c565b60405180910390fd5b611431838383611b8a565b61143c6000826111c3565b6001600460008573ffffffffffffffffffffffffffffffffffffffff1673ffffffffffffffffffffffffffffffffffffffff168152602001908152602001600020600082825461148c91906129e7565b925050819055506001600460008473ffffffffffffffffffffffffffffffffffffffff1673ffffffffffffffffffffffffffffffffffffffff16815260200190815260200160002060008282546114e39190612960565b92505081905550816003600083815260200190815260200160002060006101000a81548173ffffffffffffffffffffffffffffffffffffffff021916908373ffffffffffffffffffffffffffffffffffffffff160217905550808273ffffffffffffffffffffffffffffffffffffffff168473ffffffffffffffffffffffffffffffffffffffff167fddf252ad1be2c89b69c2b068fc378daa952ba7f163c4a11628f55a4df523b3ef60405160405180910390a46115a2838383611b8f565b505050565b60006115b282610b08565b90506115c081600084611b8a565b6115cb6000836111c3565b6001600460008373ffffffffffffffffffffffffffffffffffffffff1673ffffffffffffffffffffffffffffffffffffffff168152602001908152602001600020600082825461161b91906129e7565b925050819055506003600083815260200190815260200160002060006101000a81549073ffffffffffffffffffffffffffffffffffffffff021916905581600073ffffffffffffffffffffffffffffffffffffffff168273ffffffffffffffffffffffffffffffffffffffff167fddf252ad1be2c89b69c2b068fc378daa952ba7f163c4a11628f55a4df523b3ef60405160405180910390a46116c081600084611b8f565b5050565b8173ffffffffffffffffffffffffffffffffffffffff168373ffffffffffffffffffffffffffffffffffffffff161415611733576040517f08c379a000000000000000000000000000000000000000000000000000000000815260040161172a9061272c565b60405180910390fd5b80600660008573ffffffffffffffffffffffffffffffffffffffff1673ffffffffffffffffffffffffffffffffffffffff16815260200190815260200160002060008473ffffffffffffffffffffffffffffffffffffffff1673ffffffffffffffffffffffffffffffffffffffff16815260200190815260200160002060006101000a81548160ff0219169083151502179055508173ffffffffffffffffffffffffffffffffffffffff168373ffffffffffffffffffffffffffffffffffffffff167f17307eab39ab6107e8899845ad3d59bd9653f200f220920489ca2b5937696c3183604051611824919061260f565b60405180910390a3505050565b600061183c82611157565b61187b576040517f08c379a00000000000000000000000000000000000000000000000000000000081526004016118729061274c565b60405180910390fd5b600061188683610b08565b90508073ffffffffffffffffffffffffffffffffffffffff168473ffffffffffffffffffffffffffffffffffffffff1614806118f557508373ffffffffffffffffffffffffffffffffffffffff166118dd846107b0565b73ffffffffffffffffffffffffffffffffffffffff16145b8061190657506119058185610f3b565b5b91505092915050565b61191a848484611340565b61192684848484611b94565b611965576040517f08c379a000000000000000000000000000000000000000000000000000000000815260040161195c9061266c565b60405180910390fd5b50505050565b606060405180602001604052806000815250905090565b606060008214156119ca576040518060400160405280600181526020017f30000000000000000000000000000000000000000000000000000000000000008152509050611b2a565b600082905060005b600082146119fc5780806119e590612b34565b915050600a826119f591906129b6565b91506119d2565b60008167ffffffffffffffff811115611a3e577f4e487b7100000000000000000000000000000000000000000000000000000000600052604160045260246000fd5b6040519080825280601f01601f191660200182016040528015611a705781602001600182028036833780820191505090505b5090505b60008514611b2357600182611a8991906129e7565b9150600a85611a989190612b7d565b6030611aa49190612960565b60f81b818381518110611ae0577f4e487b7100000000000000000000000000000000000000000000000000000000600052603260045260246000fd5b60200101907effffffffffffffffffffffffffffffffffffffffffffffffffffffffffffff1916908160001a905350600a85611b1c91906129b6565b9450611a74565b8093505050505b919050565b611b398383611d2b565b611b466000848484611b94565b611b85576040517f08c379a0000000000000000000000000000000000000000000000000000000008152600401611b7c9061266c565b60405180910390fd5b505050565b505050565b505050565b6000611bb58473ffffffffffffffffffffffffffffffffffffffff16611f05565b15611d1e578373ffffffffffffffffffffffffffffffffffffffff1663150b7a02611bde6110c7565b8786866040518563ffffffff1660e01b8152600401611c0094939291906125c3565b602060405180830381600087803b158015611c1a57600080fd5b505af1925050508015611c4b57506040513d601f19601f82011682018060405250810190611c4891906121c9565b60015b611cce573d8060008114611c7b576040519150601f19603f3d011682016040523d82523d6000602084013e611c80565b606091505b50600081511415611cc6576040517f08c379a0000000000000000000000000000000000000000000000000000000008152600401611cbd9061266c565b60405180910390fd5b805181602001fd5b63150b7a0260e01b7bffffffffffffffffffffffffffffffffffffffffffffffffffffffff1916817bffffffffffffffffffffffffffffffffffffffffffffffffffffffff191614915050611d23565b600190505b949350505050565b600073ffffffffffffffffffffffffffffffffffffffff168273ffffffffffffffffffffffffffffffffffffffff161415611d9b576040517f08c379a0000000000000000000000000000000000000000000000000000000008152600401611d92906127cc565b60405180910390fd5b611da481611157565b15611de4576040517f08c379a0000000000000000000000000000000000000000000000000000000008152600401611ddb906126cc565b60405180910390fd5b611df060008383611b8a565b6001600460008473ffffffffffffffffffffffffffffffffffffffff1673ffffffffffffffffffffffffffffffffffffffff1681526020019081526020016000206000828254611e409190612960565b92505081905550816003600083815260200190815260200160002060006101000a81548173ffffffffffffffffffffffffffffffffffffffff021916908373ffffffffffffffffffffffffffffffffffffffff160217905550808273ffffffffffffffffffffffffffffffffffffffff16600073ffffffffffffffffffffffffffffffffffffffff167fddf252ad1be2c89b69c2b068fc378daa952ba7f163c4a11628f55a4df523b3ef60405160405180910390a4611f0160008383611b8f565b5050565b6000808273ffffffffffffffffffffffffffffffffffffffff163b119050919050565b6000611f3b611f36846128ec565b6128c7565b905082815260208101848484011115611f5357600080fd5b611f5e848285612a8f565b509392505050565b600081359050611f758161314e565b92915050565b600081359050611f8a81613165565b92915050565b600081359050611f9f8161317c565b92915050565b600081519050611fb48161317c565b92915050565b600082601f830112611fcb57600080fd5b8135611fdb848260208601611f28565b91505092915050565b600081359050611ff381613193565b92915050565b60006020828403121561200b57600080fd5b600061201984828501611f66565b91505092915050565b6000806040838503121561203557600080fd5b600061204385828601611f66565b925050602061205485828601611f66565b9150509250929050565b60008060006060848603121561207357600080fd5b600061208186828701611f66565b935050602061209286828701611f66565b92505060406120a386828701611fe4565b9150509250925092565b600080600080608085870312156120c357600080fd5b60006120d187828801611f66565b94505060206120e287828801611f66565b93505060406120f387828801611fe4565b925050606085013567ffffffffffffffff81111561211057600080fd5b61211c87828801611fba565b91505092959194509250565b6000806040838503121561213b57600080fd5b600061214985828601611f66565b925050602061215a85828601611f7b565b9150509250929050565b6000806040838503121561217757600080fd5b600061218585828601611f66565b925050602061219685828601611fe4565b9150509250929050565b6000602082840312156121b257600080fd5b60006121c084828501611f90565b91505092915050565b6000602082840312156121db57600080fd5b60006121e984828501611fa5565b91505092915050565b60006020828403121561220457600080fd5b600061221284828501611fe4565b91505092915050565b61222481612a1b565b82525050565b61223381612a2d565b82525050565b60006122448261291d565b61224e8185612933565b935061225e818560208601612a9e565b61226781612c6a565b840191505092915050565b600061227d82612928565b6122878185612944565b9350612297818560208601612a9e565b6122a081612c6a565b840191505092915050565b60006122b682612928565b6122c08185612955565b93506122d0818560208601612a9e565b80840191505092915050565b60006122e9601283612944565b91506122f482612c7b565b602082019050919050565b600061230c603283612944565b915061231782612ca4565b604082019050919050565b600061232f602683612944565b915061233a82612cf3565b604082019050919050565b6000612352602583612944565b915061235d82612d42565b604082019050919050565b6000612375601c83612944565b915061238082612d91565b602082019050919050565b6000612398601683612944565b91506123a382612dba565b602082019050919050565b60006123bb602483612944565b91506123c682612de3565b604082019050919050565b60006123de601983612944565b91506123e982612e32565b602082019050919050565b6000612401602c83612944565b915061240c82612e5b565b604082019050919050565b6000612424603883612944565b915061242f82612eaa565b604082019050919050565b6000612447602a83612944565b915061245282612ef9565b604082019050919050565b600061246a602983612944565b915061247582612f48565b604082019050919050565b600061248d602083612944565b915061249882612f97565b602082019050919050565b60006124b0602c83612944565b91506124bb82612fc0565b604082019050919050565b60006124d3602083612944565b91506124de8261300f565b602082019050919050565b60006124f6602f83612944565b915061250182613038565b604082019050919050565b6000612519602183612944565b915061252482613087565b604082019050919050565b600061253c603183612944565b9150612547826130d6565b604082019050919050565b600061255f601983612944565b915061256a82613125565b602082019050919050565b61257e81612a85565b82525050565b600061259082856122ab565b915061259c82846122ab565b91508190509392505050565b60006020820190506125bd600083018461221b565b92915050565b60006080820190506125d8600083018761221b565b6125e5602083018661221b565b6125f26040830185612575565b81810360608301526126048184612239565b905095945050505050565b6000602082019050612624600083018461222a565b92915050565b600060208201905081810360008301526126448184612272565b905092915050565b60006020820190508181036000830152612665816122dc565b9050919050565b60006020820190508181036000830152612685816122ff565b9050919050565b600060208201905081810360008301526126a581612322565b9050919050565b600060208201905081810360008301526126c581612345565b9050919050565b600060208201905081810360008301526126e581612368565b9050919050565b600060208201905081810360008301526127058161238b565b9050919050565b60006020820190508181036000830152612725816123ae565b9050919050565b60006020820190508181036000830152612745816123d1565b9050919050565b60006020820190508181036000830152612765816123f4565b9050919050565b6000602082019050818103600083015261278581612417565b9050919050565b600060208201905081810360008301526127a58161243a565b9050919050565b600060208201905081810360008301526127c58161245d565b9050919050565b600060208201905081810360008301526127e581612480565b9050919050565b60006020820190508181036000830152612805816124a3565b9050919050565b60006020820190508181036000830152612825816124c6565b9050919050565b60006020820190508181036000830152612845816124e9565b9050919050565b600060208201905081810360008301526128658161250c565b9050919050565b600060208201905081810360008301526128858161252f565b9050919050565b600060208201905081810360008301526128a581612552565b9050919050565b60006020820190506128c16000830184612575565b92915050565b60006128d16128e2565b90506128dd8282612b03565b919050565b6000604051905090565b600067ffffffffffffffff82111561290757612906612c3b565b5b61291082612c6a565b9050602081019050919050565b600081519050919050565b600081519050919050565b600082825260208201905092915050565b600082825260208201905092915050565b600081905092915050565b600061296b82612a85565b915061297683612a85565b9250827fffffffffffffffffffffffffffffffffffffffffffffffffffffffffffffffff038211156129ab576129aa612bae565b5b828201905092915050565b60006129c182612a85565b91506129cc83612a85565b9250826129dc576129db612bdd565b5b828204905092915050565b60006129f282612a85565b91506129fd83612a85565b925082821015612a1057612a0f612bae565b5b828203905092915050565b6000612a2682612a65565b9050919050565b60008115159050919050565b60007fffffffff0000000000000000000000000000000000000000000000000000000082169050919050565b600073ffffffffffffffffffffffffffffffffffffffff82169050919050565b6000819050919050565b82818337600083830152505050565b60005b83811015612abc578082015181840152602081019050612aa1565b83811115612acb576000848401525b50505050565b60006002820490506001821680612ae957607f821691505b60208210811415612afd57612afc612c0c565b5b50919050565b612b0c82612c6a565b810181811067ffffffffffffffff82111715612b2b57612b2a612c3b565b5b80604052505050565b6000612b3f82612a85565b91507fffffffffffffffffffffffffffffffffffffffffffffffffffffffffffffffff821415612b7257612b71612bae565b5b600182019050919050565b6000612b8882612a85565b9150612b9383612a85565b925082612ba357612ba2612bdd565b5b828206905092915050565b7f4e487b7100000000000000000000000000000000000000000000000000000000600052601160045260246000fd5b7f4e487b7100000000000000000000000000000000000000000000000000000000600052601260045260246000fd5b7f4e487b7100000000000000000000000000000000000000000000000000000000600052602260045260246000fd5b7f4e487b7100000000000000000000000000000000000000000000000000000000600052604160045260246000fd5b6000601f19601f8301169050919050565b7f7472616e736665722069732062616e6e65640000000000000000000000000000600082015250565b7f4552433732313a207472616e7366657220746f206e6f6e20455243373231526560008201527f63656976657220696d706c656d656e7465720000000000000000000000000000602082015250565b7f4f776e61626c653a206e6577206f776e657220697320746865207a65726f206160008201527f6464726573730000000000000000000000000000000000000000000000000000602082015250565b7f4552433732313a207472616e736665722066726f6d20696e636f72726563742060008201527f6f776e6572000000000000000000000000000000000000000000000000000000602082015250565b7f4552433732313a20746f6b656e20616c7265616479206d696e74656400000000600082015250565b7f746865207069656365206973206d696e74206f75742100000000000000000000600082015250565b7f4552433732313a207472616e7366657220746f20746865207a65726f2061646460008201527f7265737300000000000000000000000000000000000000000000000000000000602082015250565b7f4552433732313a20617070726f766520746f2063616c6c657200000000000000600082015250565b7f4552433732313a206f70657261746f7220717565727920666f72206e6f6e657860008201527f697374656e7420746f6b656e0000000000000000000000000000000000000000602082015250565b7f4552433732313a20617070726f76652063616c6c6572206973206e6f74206f7760008201527f6e6572206e6f7220617070726f76656420666f7220616c6c0000000000000000602082015250565b7f4552433732313a2062616c616e636520717565727920666f7220746865207a6560008201527f726f206164647265737300000000000000000000000000000000000000000000602082015250565b7f4552433732313a206f776e657220717565727920666f72206e6f6e657869737460008201527f656e7420746f6b656e0000000000000000000000000000000000000000000000602082015250565b7f4552433732313a206d696e7420746f20746865207a65726f2061646472657373600082015250565b7f4552433732313a20617070726f76656420717565727920666f72206e6f6e657860008201527f697374656e7420746f6b656e0000000000000000000000000000000000000000602082015250565b7f4f776e61626c653a2063616c6c6572206973206e6f7420746865206f776e6572600082015250565b7f4552433732314d657461646174613a2055524920717565727920666f72206e6f60008201527f6e6578697374656e7420746f6b656e0000000000000000000000000000000000602082015250565b7f4552433732313a20617070726f76616c20746f2063757272656e74206f776e6560008201527f7200000000000000000000000000000000000000000000000000000000000000602082015250565b7f4552433732313a207472616e736665722063616c6c6572206973206e6f74206f60008201527f776e6572206e6f7220617070726f766564000000000000000000000000000000602082015250565b7f796f752068617665206f776e6564207468697320706965636500000000000000600082015250565b61315781612a1b565b811461316257600080fd5b50565b61316e81612a2d565b811461317957600080fd5b50565b61318581612a39565b811461319057600080fd5b50565b61319c81612a85565b81146131a757600080fd5b5056fea264697066735822122095705e1fbdb925149b578a5c4141b8bc116aaaf75a26aa5cb89208c0cecd461564736f6c63430008010033",
  "immutableReferences": {},
  "source": "pragma solidity >=0.4.22 <0.9.0;\n\nimport \"@openzeppelin/contracts/token/ERC721/ERC721.sol\";\nimport \"@openzeppelin/contracts/access/Ownable.sol\";\n\ncontract QilinPiece is Ownable, ERC721{\n\n    uint256 public totalQty = 0;\n\n    mapping (address => uint256) public minterToTokenId;\n\n    uint256 public _totalSupply = 0;\n\n    constructor(\n        string memory name,\n        string memory symbol,\n        uint256 totalSupply_\n    ) ERC721(name, symbol) {\n        _totalSupply = totalSupply_;\n    }\n\n    function mintQilinPiece (address account) external onlyOwner {\n\n        if (_totalSupply > 0) {\n            require(totalQty < _totalSupply, \"the piece is mint out!\");\n        }\n\n        require(minterToTokenId[account] < 1, \"you have owned this piece\");\n\n        uint256 tokenId = totalQty + 1;\n        totalQty += 1;\n        _safeMint(account, tokenId);\n\n        minterToTokenId[account] = tokenId;\n    }\n\n    function transferFrom (\n        address from,\n        address to,\n        uint256 tokenId\n    ) override public {\n\n        require(to == owner(), \"transfer is banned\");\n\n        _transfer(from, to, tokenId);\n    }\n\n    function burn (uint256 tokenId) external onlyOwner {\n        \n        _burn(tokenId);\n    } \n\n    function getHolder (address holder) external view returns (uint256) {\n        \n        return minterToTokenId[holder];\n    }\n\n    function setOwner (address owner) external onlyOwner {\n\n        _transferOwnership(owner);\n    }\n}",
  "sourcePath": "/Users/pengyun/Desktop/code/qilin-nft/contracts/QilinPiece.sol",
  "compiler": {
    "name": "solc",
    "version": "0.8.1+commit.df193b15.Emscripten.clang"
  },
  "schemaVersion": "3.3.3",
  "updatedAt": "2022-03-08T11:01:13.658Z",
  "networkType": "ethereum",
  "devdoc": {
    "kind": "dev",
    "methods": {
      "approve(address,uint256)": {
        "details": "See {IERC721-approve}."
      },
      "balanceOf(address)": {
        "details": "See {IERC721-balanceOf}."
      },
      "getApproved(uint256)": {
        "details": "See {IERC721-getApproved}."
      },
      "isApprovedForAll(address,address)": {
        "details": "See {IERC721-isApprovedForAll}."
      },
      "name()": {
        "details": "See {IERC721Metadata-name}."
      },
      "owner()": {
        "details": "Returns the address of the current owner."
      },
      "ownerOf(uint256)": {
        "details": "See {IERC721-ownerOf}."
      },
      "renounceOwnership()": {
        "details": "Leaves the contract without owner. It will not be possible to call `onlyOwner` functions anymore. Can only be called by the current owner. NOTE: Renouncing ownership will leave the contract without an owner, thereby removing any functionality that is only available to the owner."
      },
      "safeTransferFrom(address,address,uint256)": {
        "details": "See {IERC721-safeTransferFrom}."
      },
      "safeTransferFrom(address,address,uint256,bytes)": {
        "details": "See {IERC721-safeTransferFrom}."
      },
      "setApprovalForAll(address,bool)": {
        "details": "See {IERC721-setApprovalForAll}."
      },
      "supportsInterface(bytes4)": {
        "details": "See {IERC165-supportsInterface}."
      },
      "symbol()": {
        "details": "See {IERC721Metadata-symbol}."
      },
      "tokenURI(uint256)": {
        "details": "See {IERC721Metadata-tokenURI}."
      },
      "transferFrom(address,address,uint256)": {
        "details": "See {IERC721-transferFrom}."
      },
      "transferOwnership(address)": {
        "details": "Transfers ownership of the contract to a new account (`newOwner`). Can only be called by the current owner."
      }
    },
    "version": 1
  },
  "userdoc": {
    "kind": "user",
    "methods": {},
    "version": 1
  }
}