{
  "contractName": "QilinPieceX",
  "abi": [
    {
      "inputs": [],
      "stateMutability": "nonpayable",
      "type": "constructor"
    },
    {
      "anonymous": false,
      "inputs": [
        {
          "indexed": true,
          "internalType": "address",
          "name": "owner",
          "type": "address"
        },
        {
          "indexed": true,
          "internalType": "address",
          "name": "approved",
          "type": "address"
        },
        {
          "indexed": true,
          "internalType": "uint256",
          "name": "tokenId",
          "type": "uint256"
        }
      ],
      "name": "Approval",
      "type": "event"
    },
    {
      "anonymous": false,
      "inputs": [
        {
          "indexed": true,
          "internalType": "address",
          "name": "owner",
          "type": "address"
        },
        {
          "indexed": true,
          "internalType": "address",
          "name": "operator",
          "type": "address"
        },
        {
          "indexed": false,
          "internalType": "bool",
          "name": "approved",
          "type": "bool"
        }
      ],
      "name": "ApprovalForAll",
      "type": "event"
    },
    {
      "anonymous": false,
      "inputs": [
        {
          "indexed": true,
          "internalType": "address",
          "name": "previousOwner",
          "type": "address"
        },
        {
          "indexed": true,
          "internalType": "address",
          "name": "newOwner",
          "type": "address"
        }
      ],
      "name": "OwnershipTransferred",
      "type": "event"
    },
    {
      "anonymous": false,
      "inputs": [
        {
          "indexed": true,
          "internalType": "address",
          "name": "from",
          "type": "address"
        },
        {
          "indexed": true,
          "internalType": "address",
          "name": "to",
          "type": "address"
        },
        {
          "indexed": true,
          "internalType": "uint256",
          "name": "tokenId",
          "type": "uint256"
        }
      ],
      "name": "Transfer",
      "type": "event"
    },
    {
      "inputs": [],
      "name": "TOTAL_X_SUPPLY",
      "outputs": [
        {
          "internalType": "uint256",
          "name": "",
          "type": "uint256"
        }
      ],
      "stateMutability": "view",
      "type": "function"
    },
    {
      "inputs": [
        {
          "internalType": "address",
          "name": "to",
          "type": "address"
        },
        {
          "internalType": "uint256",
          "name": "tokenId",
          "type": "uint256"
        }
      ],
      "name": "approve",
      "outputs": [],
      "stateMutability": "nonpayable",
      "type": "function"
    },
    {
      "inputs": [
        {
          "internalType": "address",
          "name": "owner",
          "type": "address"
        }
      ],
      "name": "balanceOf",
      "outputs": [
        {
          "internalType": "uint256",
          "name": "",
          "type": "uint256"
        }
      ],
      "stateMutability": "view",
      "type": "function"
    },
    {
      "inputs": [
        {
          "internalType": "uint256",
          "name": "tokenId",
          "type": "uint256"
        }
      ],
      "name": "getApproved",
      "outputs": [
        {
          "internalType": "address",
          "name": "",
          "type": "address"
        }
      ],
      "stateMutability": "view",
      "type": "function"
    },
    {
      "inputs": [
        {
          "internalType": "address",
          "name": "owner",
          "type": "address"
        },
        {
          "internalType": "address",
          "name": "operator",
          "type": "address"
        }
      ],
      "name": "isApprovedForAll",
      "outputs": [
        {
          "internalType": "bool",
          "name": "",
          "type": "bool"
        }
      ],
      "stateMutability": "view",
      "type": "function"
    },
    {
      "inputs": [
        {
          "internalType": "address",
          "name": "",
          "type": "address"
        }
      ],
      "name": "mintRecordX",
      "outputs": [
        {
          "internalType": "uint256",
          "name": "",
          "type": "uint256"
        }
      ],
      "stateMutability": "view",
      "type": "function"
    },
    {
      "inputs": [],
      "name": "name",
      "outputs": [
        {
          "internalType": "string",
          "name": "",
          "type": "string"
        }
      ],
      "stateMutability": "view",
      "type": "function"
    },
    {
      "inputs": [],
      "name": "owner",
      "outputs": [
        {
          "internalType": "address",
          "name": "",
          "type": "address"
        }
      ],
      "stateMutability": "view",
      "type": "function"
    },
    {
      "inputs": [
        {
          "internalType": "uint256",
          "name": "tokenId",
          "type": "uint256"
        }
      ],
      "name": "ownerOf",
      "outputs": [
        {
          "internalType": "address",
          "name": "",
          "type": "address"
        }
      ],
      "stateMutability": "view",
      "type": "function"
    },
    {
      "inputs": [],
      "name": "renounceOwnership",
      "outputs": [],
      "stateMutability": "nonpayable",
      "type": "function"
    },
    {
      "inputs": [
        {
          "internalType": "address",
          "name": "from",
          "type": "address"
        },
        {
          "internalType": "address",
          "name": "to",
          "type": "address"
        },
        {
          "internalType": "uint256",
          "name": "tokenId",
          "type": "uint256"
        }
      ],
      "name": "safeTransferFrom",
      "outputs": [],
      "stateMutability": "nonpayable",
      "type": "function"
    },
    {
      "inputs": [
        {
          "internalType": "address",
          "name": "from",
          "type": "address"
        },
        {
          "internalType": "address",
          "name": "to",
          "type": "address"
        },
        {
          "internalType": "uint256",
          "name": "tokenId",
          "type": "uint256"
        },
        {
          "internalType": "bytes",
          "name": "_data",
          "type": "bytes"
        }
      ],
      "name": "safeTransferFrom",
      "outputs": [],
      "stateMutability": "nonpayable",
      "type": "function"
    },
    {
      "inputs": [
        {
          "internalType": "address",
          "name": "operator",
          "type": "address"
        },
        {
          "internalType": "bool",
          "name": "approved",
          "type": "bool"
        }
      ],
      "name": "setApprovalForAll",
      "outputs": [],
      "stateMutability": "nonpayable",
      "type": "function"
    },
    {
      "inputs": [
        {
          "internalType": "bytes4",
          "name": "interfaceId",
          "type": "bytes4"
        }
      ],
      "name": "supportsInterface",
      "outputs": [
        {
          "internalType": "bool",
          "name": "",
          "type": "bool"
        }
      ],
      "stateMutability": "view",
      "type": "function"
    },
    {
      "inputs": [],
      "name": "symbol",
      "outputs": [
        {
          "internalType": "string",
          "name": "",
          "type": "string"
        }
      ],
      "stateMutability": "view",
      "type": "function"
    },
    {
      "inputs": [
        {
          "internalType": "uint256",
          "name": "tokenId",
          "type": "uint256"
        }
      ],
      "name": "tokenURI",
      "outputs": [
        {
          "internalType": "string",
          "name": "",
          "type": "string"
        }
      ],
      "stateMutability": "view",
      "type": "function"
    },
    {
      "inputs": [],
      "name": "totalXQty",
      "outputs": [
        {
          "internalType": "uint256",
          "name": "",
          "type": "uint256"
        }
      ],
      "stateMutability": "view",
      "type": "function"
    },
    {
      "inputs": [
        {
          "internalType": "address",
          "name": "from",
          "type": "address"
        },
        {
          "internalType": "address",
          "name": "to",
          "type": "address"
        },
        {
          "internalType": "uint256",
          "name": "tokenId",
          "type": "uint256"
        }
      ],
      "name": "transferFrom",
      "outputs": [],
      "stateMutability": "nonpayable",
      "type": "function"
    },
    {
      "inputs": [
        {
          "internalType": "address",
          "name": "newOwner",
          "type": "address"
        }
      ],
      "name": "transferOwnership",
      "outputs": [],
      "stateMutability": "nonpayable",
      "type": "function"
    },
    {
      "inputs": [],
      "name": "mintQilinPieceX",
      "outputs": [],
      "stateMutability": "nonpayable",
      "type": "function"
    },
    {
      "inputs": [
        {
          "internalType": "address",
          "name": "from",
          "type": "address"
        },
        {
          "internalType": "address",
          "name": "to",
          "type": "address"
        },
        {
          "internalType": "uint256",
          "name": "tokenId",
          "type": "uint256"
        }
      ],
      "name": "transferX",
      "outputs": [],
      "stateMutability": "nonpayable",
      "type": "function"
    },
    {
      "inputs": [
        {
          "internalType": "uint256",
          "name": "tokenId",
          "type": "uint256"
        }
      ],
      "name": "burnX",
      "outputs": [],
      "stateMutability": "nonpayable",
      "type": "function"
    },
    {
      "inputs": [
        {
          "internalType": "address",
          "name": "owner",
          "type": "address"
        }
      ],
      "name": "getHolderX",
      "outputs": [
        {
          "internalType": "uint256",
          "name": "",
          "type": "uint256"
        }
      ],
      "stateMutability": "view",
      "type": "function"
    }
  ],
  "bytecode": "0x608060405260006007553480156200001657600080fd5b506040518060400160405280600681526020017f51696c696e5800000000000000000000000000000000000000000000000000008152506040518060400160405280600181526020017f5800000000000000000000000000000000000000000000000000000000000000815250620000a362000097620000dd60201b60201c565b620000e560201b60201c565b8160019080519060200190620000bb929190620001a9565b508060029080519060200190620000d4929190620001a9565b505050620002be565b600033905090565b60008060009054906101000a900473ffffffffffffffffffffffffffffffffffffffff169050816000806101000a81548173ffffffffffffffffffffffffffffffffffffffff021916908373ffffffffffffffffffffffffffffffffffffffff1602179055508173ffffffffffffffffffffffffffffffffffffffff168173ffffffffffffffffffffffffffffffffffffffff167f8be0079c531659141344cd1fd0a4f28419497f9722a3daafe3b4186f6b6457e060405160405180910390a35050565b828054620001b79062000259565b90600052602060002090601f016020900481019282620001db576000855562000227565b82601f10620001f657805160ff191683800117855562000227565b8280016001018555821562000227579182015b828111156200022657825182559160200191906001019062000209565b5b5090506200023691906200023a565b5090565b5b80821115620002555760008160009055506001016200023b565b5090565b600060028204905060018216806200027257607f821691505b602082108114156200028957620002886200028f565b5b50919050565b7f4e487b7100000000000000000000000000000000000000000000000000000000600052602260045260246000fd5b6130cb80620002ce6000396000f3fe608060405234801561001057600080fd5b506004361061014d5760003560e01c80638da5cb5b116100c3578063d952eca51161007c578063d952eca51461039c578063e485b9ad146103cc578063e985e9c5146103d6578063ed61db2914610406578063f1adcd1614610422578063f2fde38b146104405761014d565b80638da5cb5b146102dc57806395d89b41146102fa57806397c73af614610318578063a22cb46514610334578063b88d4fde14610350578063c87b56dd1461036c5761014d565b806323b872dd1161011557806323b872dd1461020a57806342842e0e146102265780636352211e1461024257806370a0823114610272578063715018a6146102a25780638b3d3079146102ac5761014d565b806301ffc9a71461015257806306fdde0314610182578063081812fc146101a0578063095ea7b3146101d05780631e20ae3b146101ec575b600080fd5b61016c6004803603810190610167919061208b565b61045c565b60405161017991906124fa565b60405180910390f35b61018a61053e565b6040516101979190612515565b60405180910390f35b6101ba60048036038101906101b591906120dd565b6105d0565b6040516101c79190612493565b60405180910390f35b6101ea60048036038101906101e5919061204f565b610655565b005b6101f461076d565b6040516102019190612797565b60405180910390f35b610224600480360381019061021f9190611f49565b610773565b005b610240600480360381019061023b9190611f49565b6107d3565b005b61025c600480360381019061025791906120dd565b6107f3565b6040516102699190612493565b60405180910390f35b61028c60048036038101906102879190611ee4565b6108a5565b6040516102999190612797565b60405180910390f35b6102aa61095d565b005b6102c660048036038101906102c19190611ee4565b6109e5565b6040516102d39190612797565b60405180910390f35b6102e46109fd565b6040516102f19190612493565b60405180910390f35b610302610a26565b60405161030f9190612515565b60405180910390f35b610332600480360381019061032d91906120dd565b610ab8565b005b61034e60048036038101906103499190612013565b610ac4565b005b61036a60048036038101906103659190611f98565b610ada565b005b610386600480360381019061038191906120dd565b610b3c565b6040516103939190612515565b60405180910390f35b6103b660048036038101906103b19190611ee4565b610be3565b6040516103c39190612797565b60405180910390f35b6103d4610c2c565b005b6103f060048036038101906103eb9190611f0d565b610d58565b6040516103fd91906124fa565b60405180910390f35b610420600480360381019061041b9190611f49565b610dec565b005b61042a610eb4565b6040516104379190612797565b60405180910390f35b61045a60048036038101906104559190611ee4565b610eba565b005b60007f80ac58cd000000000000000000000000000000000000000000000000000000007bffffffffffffffffffffffffffffffffffffffffffffffffffffffff1916827bffffffffffffffffffffffffffffffffffffffffffffffffffffffff1916148061052757507f5b5e139f000000000000000000000000000000000000000000000000000000007bffffffffffffffffffffffffffffffffffffffffffffffffffffffff1916827bffffffffffffffffffffffffffffffffffffffffffffffffffffffff1916145b80610537575061053682610fb2565b5b9050919050565b60606001805461054d906129bc565b80601f0160208091040260200160405190810160405280929190818152602001828054610579906129bc565b80156105c65780601f1061059b576101008083540402835291602001916105c6565b820191906000526020600020905b8154815290600101906020018083116105a957829003601f168201915b5050505050905090565b60006105db8261101c565b61061a576040517f08c379a0000000000000000000000000000000000000000000000000000000008152600401610611906126d7565b60405180910390fd5b6005600083815260200190815260200160002060009054906101000a900473ffffffffffffffffffffffffffffffffffffffff169050919050565b6000610660826107f3565b90508073ffffffffffffffffffffffffffffffffffffffff168373ffffffffffffffffffffffffffffffffffffffff1614156106d1576040517f08c379a00000000000000000000000000000000000000000000000000000000081526004016106c890612757565b60405180910390fd5b8073ffffffffffffffffffffffffffffffffffffffff166106f0611088565b73ffffffffffffffffffffffffffffffffffffffff16148061071f575061071e81610719611088565b610d58565b5b61075e576040517f08c379a000000000000000000000000000000000000000000000000000000000815260040161075590612657565b60405180910390fd5b6107688383611090565b505050565b6107e681565b61078461077e611088565b82611149565b6107c3576040517f08c379a00000000000000000000000000000000000000000000000000000000081526004016107ba90612777565b60405180910390fd5b6107ce838383611227565b505050565b6107ee83838360405180602001604052806000815250610ada565b505050565b6000806003600084815260200190815260200160002060009054906101000a900473ffffffffffffffffffffffffffffffffffffffff169050600073ffffffffffffffffffffffffffffffffffffffff168173ffffffffffffffffffffffffffffffffffffffff16141561089c576040517f08c379a000000000000000000000000000000000000000000000000000000000815260040161089390612697565b60405180910390fd5b80915050919050565b60008073ffffffffffffffffffffffffffffffffffffffff168273ffffffffffffffffffffffffffffffffffffffff161415610916576040517f08c379a000000000000000000000000000000000000000000000000000000000815260040161090d90612677565b60405180910390fd5b600460008373ffffffffffffffffffffffffffffffffffffffff1673ffffffffffffffffffffffffffffffffffffffff168152602001908152602001600020549050919050565b610965611088565b73ffffffffffffffffffffffffffffffffffffffff166109836109fd565b73ffffffffffffffffffffffffffffffffffffffff16146109d9576040517f08c379a00000000000000000000000000000000000000000000000000000000081526004016109d0906126f7565b60405180910390fd5b6109e3600061148e565b565b60086020528060005260406000206000915090505481565b60008060009054906101000a900473ffffffffffffffffffffffffffffffffffffffff16905090565b606060028054610a35906129bc565b80601f0160208091040260200160405190810160405280929190818152602001828054610a61906129bc565b8015610aae5780601f10610a8357610100808354040283529160200191610aae565b820191906000526020600020905b815481529060010190602001808311610a9157829003601f168201915b5050505050905090565b610ac181611552565b50565b610ad6610acf611088565b838361166f565b5050565b610aeb610ae5611088565b83611149565b610b2a576040517f08c379a0000000000000000000000000000000000000000000000000000000008152600401610b2190612777565b60405180910390fd5b610b36848484846117dc565b50505050565b6060610b478261101c565b610b86576040517f08c379a0000000000000000000000000000000000000000000000000000000008152600401610b7d90612717565b60405180910390fd5b6000610b90611838565b90506000815111610bb05760405180602001604052806000815250610bdb565b80610bba8461184f565b604051602001610bcb92919061246f565b6040516020818303038152906040525b915050919050565b6000600860008373ffffffffffffffffffffffffffffffffffffffff1673ffffffffffffffffffffffffffffffffffffffff168152602001908152602001600020549050919050565b6107e660075410610c72576040517f08c379a0000000000000000000000000000000000000000000000000000000008152600401610c6990612617565b60405180910390fd5b6001600860003373ffffffffffffffffffffffffffffffffffffffff1673ffffffffffffffffffffffffffffffffffffffff1681526020019081526020016000205410610cf4576040517f08c379a0000000000000000000000000000000000000000000000000000000008152600401610ceb90612737565b60405180910390fd5b60006001600754610d05919061284b565b9050610d1133826119fc565b80600860003373ffffffffffffffffffffffffffffffffffffffff1673ffffffffffffffffffffffffffffffffffffffff1681526020019081526020016000208190555050565b6000600660008473ffffffffffffffffffffffffffffffffffffffff1673ffffffffffffffffffffffffffffffffffffffff16815260200190815260200160002060008373ffffffffffffffffffffffffffffffffffffffff1673ffffffffffffffffffffffffffffffffffffffff16815260200190815260200160002060009054906101000a900460ff16905092915050565b610df46109fd565b73ffffffffffffffffffffffffffffffffffffffff168273ffffffffffffffffffffffffffffffffffffffff1614610e61576040517f08c379a0000000000000000000000000000000000000000000000000000000008152600401610e5890612537565b60405180910390fd5b610e6c838383611227565b600860008473ffffffffffffffffffffffffffffffffffffffff1673ffffffffffffffffffffffffffffffffffffffff16815260200190815260200160002060009055505050565b60075481565b610ec2611088565b73ffffffffffffffffffffffffffffffffffffffff16610ee06109fd565b73ffffffffffffffffffffffffffffffffffffffff1614610f36576040517f08c379a0000000000000000000000000000000000000000000000000000000008152600401610f2d906126f7565b60405180910390fd5b600073ffffffffffffffffffffffffffffffffffffffff168173ffffffffffffffffffffffffffffffffffffffff161415610fa6576040517f08c379a0000000000000000000000000000000000000000000000000000000008152600401610f9d90612577565b60405180910390fd5b610faf8161148e565b50565b60007f01ffc9a7000000000000000000000000000000000000000000000000000000007bffffffffffffffffffffffffffffffffffffffffffffffffffffffff1916827bffffffffffffffffffffffffffffffffffffffffffffffffffffffff1916149050919050565b60008073ffffffffffffffffffffffffffffffffffffffff166003600084815260200190815260200160002060009054906101000a900473ffffffffffffffffffffffffffffffffffffffff1673ffffffffffffffffffffffffffffffffffffffff1614159050919050565b600033905090565b816005600083815260200190815260200160002060006101000a81548173ffffffffffffffffffffffffffffffffffffffff021916908373ffffffffffffffffffffffffffffffffffffffff160217905550808273ffffffffffffffffffffffffffffffffffffffff16611103836107f3565b73ffffffffffffffffffffffffffffffffffffffff167f8c5be1e5ebec7d5bd14f71427d1e84f3dd0314c0f7b2291e5b200ac8c7c3b92560405160405180910390a45050565b60006111548261101c565b611193576040517f08c379a000000000000000000000000000000000000000000000000000000000815260040161118a90612637565b60405180910390fd5b600061119e836107f3565b90508073ffffffffffffffffffffffffffffffffffffffff168473ffffffffffffffffffffffffffffffffffffffff16148061120d57508373ffffffffffffffffffffffffffffffffffffffff166111f5846105d0565b73ffffffffffffffffffffffffffffffffffffffff16145b8061121e575061121d8185610d58565b5b91505092915050565b8273ffffffffffffffffffffffffffffffffffffffff16611247826107f3565b73ffffffffffffffffffffffffffffffffffffffff161461129d576040517f08c379a000000000000000000000000000000000000000000000000000000000815260040161129490612597565b60405180910390fd5b600073ffffffffffffffffffffffffffffffffffffffff168273ffffffffffffffffffffffffffffffffffffffff16141561130d576040517f08c379a0000000000000000000000000000000000000000000000000000000008152600401611304906125d7565b60405180910390fd5b611318838383611a1a565b611323600082611090565b6001600460008573ffffffffffffffffffffffffffffffffffffffff1673ffffffffffffffffffffffffffffffffffffffff168152602001908152602001600020600082825461137391906128d2565b925050819055506001600460008473ffffffffffffffffffffffffffffffffffffffff1673ffffffffffffffffffffffffffffffffffffffff16815260200190815260200160002060008282546113ca919061284b565b92505081905550816003600083815260200190815260200160002060006101000a81548173ffffffffffffffffffffffffffffffffffffffff021916908373ffffffffffffffffffffffffffffffffffffffff160217905550808273ffffffffffffffffffffffffffffffffffffffff168473ffffffffffffffffffffffffffffffffffffffff167fddf252ad1be2c89b69c2b068fc378daa952ba7f163c4a11628f55a4df523b3ef60405160405180910390a4611489838383611a1f565b505050565b60008060009054906101000a900473ffffffffffffffffffffffffffffffffffffffff169050816000806101000a81548173ffffffffffffffffffffffffffffffffffffffff021916908373ffffffffffffffffffffffffffffffffffffffff1602179055508173ffffffffffffffffffffffffffffffffffffffff168173ffffffffffffffffffffffffffffffffffffffff167f8be0079c531659141344cd1fd0a4f28419497f9722a3daafe3b4186f6b6457e060405160405180910390a35050565b600061155d826107f3565b905061156b81600084611a1a565b611576600083611090565b6001600460008373ffffffffffffffffffffffffffffffffffffffff1673ffffffffffffffffffffffffffffffffffffffff16815260200190815260200160002060008282546115c691906128d2565b925050819055506003600083815260200190815260200160002060006101000a81549073ffffffffffffffffffffffffffffffffffffffff021916905581600073ffffffffffffffffffffffffffffffffffffffff168273ffffffffffffffffffffffffffffffffffffffff167fddf252ad1be2c89b69c2b068fc378daa952ba7f163c4a11628f55a4df523b3ef60405160405180910390a461166b81600084611a1f565b5050565b8173ffffffffffffffffffffffffffffffffffffffff168373ffffffffffffffffffffffffffffffffffffffff1614156116de576040517f08c379a00000000000000000000000000000000000000000000000000000000081526004016116d5906125f7565b60405180910390fd5b80600660008573ffffffffffffffffffffffffffffffffffffffff1673ffffffffffffffffffffffffffffffffffffffff16815260200190815260200160002060008473ffffffffffffffffffffffffffffffffffffffff1673ffffffffffffffffffffffffffffffffffffffff16815260200190815260200160002060006101000a81548160ff0219169083151502179055508173ffffffffffffffffffffffffffffffffffffffff168373ffffffffffffffffffffffffffffffffffffffff167f17307eab39ab6107e8899845ad3d59bd9653f200f220920489ca2b5937696c31836040516117cf91906124fa565b60405180910390a3505050565b6117e7848484611227565b6117f384848484611a24565b611832576040517f08c379a000000000000000000000000000000000000000000000000000000000815260040161182990612557565b60405180910390fd5b50505050565b606060405180602001604052806000815250905090565b60606000821415611897576040518060400160405280600181526020017f300000000000000000000000000000000000000000000000000000000000000081525090506119f7565b600082905060005b600082146118c95780806118b290612a1f565b915050600a826118c291906128a1565b915061189f565b60008167ffffffffffffffff81111561190b577f4e487b7100000000000000000000000000000000000000000000000000000000600052604160045260246000fd5b6040519080825280601f01601f19166020018201604052801561193d5781602001600182028036833780820191505090505b5090505b600085146119f05760018261195691906128d2565b9150600a856119659190612a68565b6030611971919061284b565b60f81b8183815181106119ad577f4e487b7100000000000000000000000000000000000000000000000000000000600052603260045260246000fd5b60200101907effffffffffffffffffffffffffffffffffffffffffffffffffffffffffffff1916908160001a905350600a856119e991906128a1565b9450611941565b8093505050505b919050565b611a16828260405180602001604052806000815250611bbb565b5050565b505050565b505050565b6000611a458473ffffffffffffffffffffffffffffffffffffffff16611c16565b15611bae578373ffffffffffffffffffffffffffffffffffffffff1663150b7a02611a6e611088565b8786866040518563ffffffff1660e01b8152600401611a9094939291906124ae565b602060405180830381600087803b158015611aaa57600080fd5b505af1925050508015611adb57506040513d601f19601f82011682018060405250810190611ad891906120b4565b60015b611b5e573d8060008114611b0b576040519150601f19603f3d011682016040523d82523d6000602084013e611b10565b606091505b50600081511415611b56576040517f08c379a0000000000000000000000000000000000000000000000000000000008152600401611b4d90612557565b60405180910390fd5b805181602001fd5b63150b7a0260e01b7bffffffffffffffffffffffffffffffffffffffffffffffffffffffff1916817bffffffffffffffffffffffffffffffffffffffffffffffffffffffff191614915050611bb3565b600190505b949350505050565b611bc58383611c39565b611bd26000848484611a24565b611c11576040517f08c379a0000000000000000000000000000000000000000000000000000000008152600401611c0890612557565b60405180910390fd5b505050565b6000808273ffffffffffffffffffffffffffffffffffffffff163b119050919050565b600073ffffffffffffffffffffffffffffffffffffffff168273ffffffffffffffffffffffffffffffffffffffff161415611ca9576040517f08c379a0000000000000000000000000000000000000000000000000000000008152600401611ca0906126b7565b60405180910390fd5b611cb28161101c565b15611cf2576040517f08c379a0000000000000000000000000000000000000000000000000000000008152600401611ce9906125b7565b60405180910390fd5b611cfe60008383611a1a565b6001600460008473ffffffffffffffffffffffffffffffffffffffff1673ffffffffffffffffffffffffffffffffffffffff1681526020019081526020016000206000828254611d4e919061284b565b92505081905550816003600083815260200190815260200160002060006101000a81548173ffffffffffffffffffffffffffffffffffffffff021916908373ffffffffffffffffffffffffffffffffffffffff160217905550808273ffffffffffffffffffffffffffffffffffffffff16600073ffffffffffffffffffffffffffffffffffffffff167fddf252ad1be2c89b69c2b068fc378daa952ba7f163c4a11628f55a4df523b3ef60405160405180910390a4611e0f60008383611a1f565b5050565b6000611e26611e21846127d7565b6127b2565b905082815260208101848484011115611e3e57600080fd5b611e4984828561297a565b509392505050565b600081359050611e6081613039565b92915050565b600081359050611e7581613050565b92915050565b600081359050611e8a81613067565b92915050565b600081519050611e9f81613067565b92915050565b600082601f830112611eb657600080fd5b8135611ec6848260208601611e13565b91505092915050565b600081359050611ede8161307e565b92915050565b600060208284031215611ef657600080fd5b6000611f0484828501611e51565b91505092915050565b60008060408385031215611f2057600080fd5b6000611f2e85828601611e51565b9250506020611f3f85828601611e51565b9150509250929050565b600080600060608486031215611f5e57600080fd5b6000611f6c86828701611e51565b9350506020611f7d86828701611e51565b9250506040611f8e86828701611ecf565b9150509250925092565b60008060008060808587031215611fae57600080fd5b6000611fbc87828801611e51565b9450506020611fcd87828801611e51565b9350506040611fde87828801611ecf565b925050606085013567ffffffffffffffff811115611ffb57600080fd5b61200787828801611ea5565b91505092959194509250565b6000806040838503121561202657600080fd5b600061203485828601611e51565b925050602061204585828601611e66565b9150509250929050565b6000806040838503121561206257600080fd5b600061207085828601611e51565b925050602061208185828601611ecf565b9150509250929050565b60006020828403121561209d57600080fd5b60006120ab84828501611e7b565b91505092915050565b6000602082840312156120c657600080fd5b60006120d484828501611e90565b91505092915050565b6000602082840312156120ef57600080fd5b60006120fd84828501611ecf565b91505092915050565b61210f81612906565b82525050565b61211e81612918565b82525050565b600061212f82612808565b612139818561281e565b9350612149818560208601612989565b61215281612b55565b840191505092915050565b600061216882612813565b612172818561282f565b9350612182818560208601612989565b61218b81612b55565b840191505092915050565b60006121a182612813565b6121ab8185612840565b93506121bb818560208601612989565b80840191505092915050565b60006121d460128361282f565b91506121df82612b66565b602082019050919050565b60006121f760328361282f565b915061220282612b8f565b604082019050919050565b600061221a60268361282f565b915061222582612bde565b604082019050919050565b600061223d60258361282f565b915061224882612c2d565b604082019050919050565b6000612260601c8361282f565b915061226b82612c7c565b602082019050919050565b600061228360248361282f565b915061228e82612ca5565b604082019050919050565b60006122a660198361282f565b91506122b182612cf4565b602082019050919050565b60006122c960148361282f565b91506122d482612d1d565b602082019050919050565b60006122ec602c8361282f565b91506122f782612d46565b604082019050919050565b600061230f60388361282f565b915061231a82612d95565b604082019050919050565b6000612332602a8361282f565b915061233d82612de4565b604082019050919050565b600061235560298361282f565b915061236082612e33565b604082019050919050565b600061237860208361282f565b915061238382612e82565b602082019050919050565b600061239b602c8361282f565b91506123a682612eab565b604082019050919050565b60006123be60208361282f565b91506123c982612efa565b602082019050919050565b60006123e1602f8361282f565b91506123ec82612f23565b604082019050919050565b600061240460188361282f565b915061240f82612f72565b602082019050919050565b600061242760218361282f565b915061243282612f9b565b604082019050919050565b600061244a60318361282f565b915061245582612fea565b604082019050919050565b61246981612970565b82525050565b600061247b8285612196565b91506124878284612196565b91508190509392505050565b60006020820190506124a86000830184612106565b92915050565b60006080820190506124c36000830187612106565b6124d06020830186612106565b6124dd6040830185612460565b81810360608301526124ef8184612124565b905095945050505050565b600060208201905061250f6000830184612115565b92915050565b6000602082019050818103600083015261252f818461215d565b905092915050565b60006020820190508181036000830152612550816121c7565b9050919050565b60006020820190508181036000830152612570816121ea565b9050919050565b600060208201905081810360008301526125908161220d565b9050919050565b600060208201905081810360008301526125b081612230565b9050919050565b600060208201905081810360008301526125d081612253565b9050919050565b600060208201905081810360008301526125f081612276565b9050919050565b6000602082019050818103600083015261261081612299565b9050919050565b60006020820190508181036000830152612630816122bc565b9050919050565b60006020820190508181036000830152612650816122df565b9050919050565b6000602082019050818103600083015261267081612302565b9050919050565b6000602082019050818103600083015261269081612325565b9050919050565b600060208201905081810360008301526126b081612348565b9050919050565b600060208201905081810360008301526126d08161236b565b9050919050565b600060208201905081810360008301526126f08161238e565b9050919050565b60006020820190508181036000830152612710816123b1565b9050919050565b60006020820190508181036000830152612730816123d4565b9050919050565b60006020820190508181036000830152612750816123f7565b9050919050565b600060208201905081810360008301526127708161241a565b9050919050565b600060208201905081810360008301526127908161243d565b9050919050565b60006020820190506127ac6000830184612460565b92915050565b60006127bc6127cd565b90506127c882826129ee565b919050565b6000604051905090565b600067ffffffffffffffff8211156127f2576127f1612b26565b5b6127fb82612b55565b9050602081019050919050565b600081519050919050565b600081519050919050565b600082825260208201905092915050565b600082825260208201905092915050565b600081905092915050565b600061285682612970565b915061286183612970565b9250827fffffffffffffffffffffffffffffffffffffffffffffffffffffffffffffffff0382111561289657612895612a99565b5b828201905092915050565b60006128ac82612970565b91506128b783612970565b9250826128c7576128c6612ac8565b5b828204905092915050565b60006128dd82612970565b91506128e883612970565b9250828210156128fb576128fa612a99565b5b828203905092915050565b600061291182612950565b9050919050565b60008115159050919050565b60007fffffffff0000000000000000000000000000000000000000000000000000000082169050919050565b600073ffffffffffffffffffffffffffffffffffffffff82169050919050565b6000819050919050565b82818337600083830152505050565b60005b838110156129a757808201518184015260208101905061298c565b838111156129b6576000848401525b50505050565b600060028204905060018216806129d457607f821691505b602082108114156129e8576129e7612af7565b5b50919050565b6129f782612b55565b810181811067ffffffffffffffff82111715612a1657612a15612b26565b5b80604052505050565b6000612a2a82612970565b91507fffffffffffffffffffffffffffffffffffffffffffffffffffffffffffffffff821415612a5d57612a5c612a99565b5b600182019050919050565b6000612a7382612970565b9150612a7e83612970565b925082612a8e57612a8d612ac8565b5b828206905092915050565b7f4e487b7100000000000000000000000000000000000000000000000000000000600052601160045260246000fd5b7f4e487b7100000000000000000000000000000000000000000000000000000000600052601260045260246000fd5b7f4e487b7100000000000000000000000000000000000000000000000000000000600052602260045260246000fd5b7f4e487b7100000000000000000000000000000000000000000000000000000000600052604160045260246000fd5b6000601f19601f8301169050919050565b7f7472616e736665722069732062616e6e65640000000000000000000000000000600082015250565b7f4552433732313a207472616e7366657220746f206e6f6e20455243373231526560008201527f63656976657220696d706c656d656e7465720000000000000000000000000000602082015250565b7f4f776e61626c653a206e6577206f776e657220697320746865207a65726f206160008201527f6464726573730000000000000000000000000000000000000000000000000000602082015250565b7f4552433732313a207472616e736665722066726f6d20696e636f72726563742060008201527f6f776e6572000000000000000000000000000000000000000000000000000000602082015250565b7f4552433732313a20746f6b656e20616c7265616479206d696e74656400000000600082015250565b7f4552433732313a207472616e7366657220746f20746865207a65726f2061646460008201527f7265737300000000000000000000000000000000000000000000000000000000602082015250565b7f4552433732313a20617070726f766520746f2063616c6c657200000000000000600082015250565b7f7069656365205820697320736f6c64206f757421000000000000000000000000600082015250565b7f4552433732313a206f70657261746f7220717565727920666f72206e6f6e657860008201527f697374656e7420746f6b656e0000000000000000000000000000000000000000602082015250565b7f4552433732313a20617070726f76652063616c6c6572206973206e6f74206f7760008201527f6e6572206e6f7220617070726f76656420666f7220616c6c0000000000000000602082015250565b7f4552433732313a2062616c616e636520717565727920666f7220746865207a6560008201527f726f206164647265737300000000000000000000000000000000000000000000602082015250565b7f4552433732313a206f776e657220717565727920666f72206e6f6e657869737460008201527f656e7420746f6b656e0000000000000000000000000000000000000000000000602082015250565b7f4552433732313a206d696e7420746f20746865207a65726f2061646472657373600082015250565b7f4552433732313a20617070726f76656420717565727920666f72206e6f6e657860008201527f697374656e7420746f6b656e0000000000000000000000000000000000000000602082015250565b7f4f776e61626c653a2063616c6c6572206973206e6f7420746865206f776e6572600082015250565b7f4552433732314d657461646174613a2055524920717565727920666f72206e6f60008201527f6e6578697374656e7420746f6b656e0000000000000000000000000000000000602082015250565b7f796f7520616c7265616479206861766520706965636520420000000000000000600082015250565b7f4552433732313a20617070726f76616c20746f2063757272656e74206f776e6560008201527f7200000000000000000000000000000000000000000000000000000000000000602082015250565b7f4552433732313a207472616e736665722063616c6c6572206973206e6f74206f60008201527f776e6572206e6f7220617070726f766564000000000000000000000000000000602082015250565b61304281612906565b811461304d57600080fd5b50565b61305981612918565b811461306457600080fd5b50565b61307081612924565b811461307b57600080fd5b50565b61308781612970565b811461309257600080fd5b5056fea26469706673582212208e46d8b84267f0661a54d7df292984ecc496c98ac888bf360adeb89a5b7e342764736f6c63430008010033",
  "immutableReferences": {},
  "source": "pragma solidity >=0.4.22 <0.9.0;\n\nimport \"@openzeppelin/contracts/token/ERC721/ERC721.sol\";\nimport \"@openzeppelin/contracts/access/Ownable.sol\";\n\ncontract QilinPieceX is Ownable, ERC721 {\n\n    uint256 public constant TOTAL_X_SUPPLY = 2022;\n\n    uint256 public totalXQty = 0;\n    mapping (address => uint256) public mintRecordX;\n\n    constructor() ERC721(\"QilinX\", \"X\") {}\n\n    function mintQilinPieceX () external {\n\n        require(totalXQty < TOTAL_X_SUPPLY, \"piece X is sold out!\");\n        require(mintRecordX[msg.sender] < 1, \"you already have piece B\");\n\n        uint256 tokenId = totalXQty + 1;\n        _safeMint(msg.sender, tokenId);\n\n        mintRecordX[msg.sender] = tokenId;\n\n    }\n\n    function transferX (\n        address from,\n        address to,\n        uint256 tokenId\n    ) external {\n\n        require(to == owner(), \"transfer is banned\");\n\n        _transfer(from, to, tokenId);\n        delete mintRecordX[from];\n    }\n\n    function burnX (uint256 tokenId) external {\n        _burn(tokenId);\n    }\n\n    function getHolderX(address owner) external view returns (uint256) {\n        return mintRecordX[owner];\n    }\n}",
  "sourcePath": "/Users/pengyun/Desktop/code/qilin-nft/contracts/QilinPieceX.sol",
  "compiler": {
    "name": "solc",
    "version": "0.8.1+commit.df193b15.Emscripten.clang"
  },
  "schemaVersion": "3.3.3",
  "updatedAt": "2022-03-08T03:12:23.530Z",
  "devdoc": {
    "kind": "dev",
    "methods": {
      "approve(address,uint256)": {
        "details": "See {IERC721-approve}."
      },
      "balanceOf(address)": {
        "details": "See {IERC721-balanceOf}."
      },
      "getApproved(uint256)": {
        "details": "See {IERC721-getApproved}."
      },
      "isApprovedForAll(address,address)": {
        "details": "See {IERC721-isApprovedForAll}."
      },
      "name()": {
        "details": "See {IERC721Metadata-name}."
      },
      "owner()": {
        "details": "Returns the address of the current owner."
      },
      "ownerOf(uint256)": {
        "details": "See {IERC721-ownerOf}."
      },
      "renounceOwnership()": {
        "details": "Leaves the contract without owner. It will not be possible to call `onlyOwner` functions anymore. Can only be called by the current owner. NOTE: Renouncing ownership will leave the contract without an owner, thereby removing any functionality that is only available to the owner."
      },
      "safeTransferFrom(address,address,uint256)": {
        "details": "See {IERC721-safeTransferFrom}."
      },
      "safeTransferFrom(address,address,uint256,bytes)": {
        "details": "See {IERC721-safeTransferFrom}."
      },
      "setApprovalForAll(address,bool)": {
        "details": "See {IERC721-setApprovalForAll}."
      },
      "supportsInterface(bytes4)": {
        "details": "See {IERC165-supportsInterface}."
      },
      "symbol()": {
        "details": "See {IERC721Metadata-symbol}."
      },
      "tokenURI(uint256)": {
        "details": "See {IERC721Metadata-tokenURI}."
      },
      "transferFrom(address,address,uint256)": {
        "details": "See {IERC721-transferFrom}."
      },
      "transferOwnership(address)": {
        "details": "Transfers ownership of the contract to a new account (`newOwner`). Can only be called by the current owner."
      }
    },
    "version": 1
  },
  "userdoc": {
    "kind": "user",
    "methods": {},
    "version": 1
  }
}