{
  "contractName": "Qilin",
  "abi": [
    {
      "inputs": [],
      "stateMutability": "nonpayable",
      "type": "constructor"
    },
    {
      "anonymous": false,
      "inputs": [
        {
          "indexed": true,
          "internalType": "address",
          "name": "owner",
          "type": "address"
        },
        {
          "indexed": true,
          "internalType": "address",
          "name": "approved",
          "type": "address"
        },
        {
          "indexed": true,
          "internalType": "uint256",
          "name": "tokenId",
          "type": "uint256"
        }
      ],
      "name": "Approval",
      "type": "event"
    },
    {
      "anonymous": false,
      "inputs": [
        {
          "indexed": true,
          "internalType": "address",
          "name": "owner",
          "type": "address"
        },
        {
          "indexed": true,
          "internalType": "address",
          "name": "operator",
          "type": "address"
        },
        {
          "indexed": false,
          "internalType": "bool",
          "name": "approved",
          "type": "bool"
        }
      ],
      "name": "ApprovalForAll",
      "type": "event"
    },
    {
      "anonymous": false,
      "inputs": [
        {
          "indexed": true,
          "internalType": "address",
          "name": "previousOwner",
          "type": "address"
        },
        {
          "indexed": true,
          "internalType": "address",
          "name": "newOwner",
          "type": "address"
        }
      ],
      "name": "OwnershipTransferred",
      "type": "event"
    },
    {
      "anonymous": false,
      "inputs": [
        {
          "indexed": true,
          "internalType": "address",
          "name": "from",
          "type": "address"
        },
        {
          "indexed": true,
          "internalType": "address",
          "name": "to",
          "type": "address"
        },
        {
          "indexed": true,
          "internalType": "uint256",
          "name": "tokenId",
          "type": "uint256"
        }
      ],
      "name": "Transfer",
      "type": "event"
    },
    {
      "inputs": [],
      "name": "TOTAL_QILIN_SUPPLY",
      "outputs": [
        {
          "internalType": "uint256",
          "name": "",
          "type": "uint256"
        }
      ],
      "stateMutability": "view",
      "type": "function"
    },
    {
      "inputs": [
        {
          "internalType": "address",
          "name": "to",
          "type": "address"
        },
        {
          "internalType": "uint256",
          "name": "tokenId",
          "type": "uint256"
        }
      ],
      "name": "approve",
      "outputs": [],
      "stateMutability": "nonpayable",
      "type": "function"
    },
    {
      "inputs": [
        {
          "internalType": "address",
          "name": "owner",
          "type": "address"
        }
      ],
      "name": "balanceOf",
      "outputs": [
        {
          "internalType": "uint256",
          "name": "",
          "type": "uint256"
        }
      ],
      "stateMutability": "view",
      "type": "function"
    },
    {
      "inputs": [
        {
          "internalType": "uint256",
          "name": "tokenId",
          "type": "uint256"
        }
      ],
      "name": "getApproved",
      "outputs": [
        {
          "internalType": "address",
          "name": "",
          "type": "address"
        }
      ],
      "stateMutability": "view",
      "type": "function"
    },
    {
      "inputs": [
        {
          "internalType": "address",
          "name": "owner",
          "type": "address"
        },
        {
          "internalType": "address",
          "name": "operator",
          "type": "address"
        }
      ],
      "name": "isApprovedForAll",
      "outputs": [
        {
          "internalType": "bool",
          "name": "",
          "type": "bool"
        }
      ],
      "stateMutability": "view",
      "type": "function"
    },
    {
      "inputs": [],
      "name": "name",
      "outputs": [
        {
          "internalType": "string",
          "name": "",
          "type": "string"
        }
      ],
      "stateMutability": "view",
      "type": "function"
    },
    {
      "inputs": [],
      "name": "owner",
      "outputs": [
        {
          "internalType": "address",
          "name": "",
          "type": "address"
        }
      ],
      "stateMutability": "view",
      "type": "function"
    },
    {
      "inputs": [
        {
          "internalType": "uint256",
          "name": "tokenId",
          "type": "uint256"
        }
      ],
      "name": "ownerOf",
      "outputs": [
        {
          "internalType": "address",
          "name": "",
          "type": "address"
        }
      ],
      "stateMutability": "view",
      "type": "function"
    },
    {
      "inputs": [],
      "name": "renounceOwnership",
      "outputs": [],
      "stateMutability": "nonpayable",
      "type": "function"
    },
    {
      "inputs": [
        {
          "internalType": "address",
          "name": "from",
          "type": "address"
        },
        {
          "internalType": "address",
          "name": "to",
          "type": "address"
        },
        {
          "internalType": "uint256",
          "name": "tokenId",
          "type": "uint256"
        }
      ],
      "name": "safeTransferFrom",
      "outputs": [],
      "stateMutability": "nonpayable",
      "type": "function"
    },
    {
      "inputs": [
        {
          "internalType": "address",
          "name": "from",
          "type": "address"
        },
        {
          "internalType": "address",
          "name": "to",
          "type": "address"
        },
        {
          "internalType": "uint256",
          "name": "tokenId",
          "type": "uint256"
        },
        {
          "internalType": "bytes",
          "name": "_data",
          "type": "bytes"
        }
      ],
      "name": "safeTransferFrom",
      "outputs": [],
      "stateMutability": "nonpayable",
      "type": "function"
    },
    {
      "inputs": [
        {
          "internalType": "address",
          "name": "operator",
          "type": "address"
        },
        {
          "internalType": "bool",
          "name": "approved",
          "type": "bool"
        }
      ],
      "name": "setApprovalForAll",
      "outputs": [],
      "stateMutability": "nonpayable",
      "type": "function"
    },
    {
      "inputs": [
        {
          "internalType": "bytes4",
          "name": "interfaceId",
          "type": "bytes4"
        }
      ],
      "name": "supportsInterface",
      "outputs": [
        {
          "internalType": "bool",
          "name": "",
          "type": "bool"
        }
      ],
      "stateMutability": "view",
      "type": "function"
    },
    {
      "inputs": [],
      "name": "symbol",
      "outputs": [
        {
          "internalType": "string",
          "name": "",
          "type": "string"
        }
      ],
      "stateMutability": "view",
      "type": "function"
    },
    {
      "inputs": [
        {
          "internalType": "uint256",
          "name": "tokenId",
          "type": "uint256"
        }
      ],
      "name": "tokenURI",
      "outputs": [
        {
          "internalType": "string",
          "name": "",
          "type": "string"
        }
      ],
      "stateMutability": "view",
      "type": "function"
    },
    {
      "inputs": [],
      "name": "totalQilinQty",
      "outputs": [
        {
          "internalType": "uint256",
          "name": "",
          "type": "uint256"
        }
      ],
      "stateMutability": "view",
      "type": "function"
    },
    {
      "inputs": [
        {
          "internalType": "address",
          "name": "from",
          "type": "address"
        },
        {
          "internalType": "address",
          "name": "to",
          "type": "address"
        },
        {
          "internalType": "uint256",
          "name": "tokenId",
          "type": "uint256"
        }
      ],
      "name": "transferFrom",
      "outputs": [],
      "stateMutability": "nonpayable",
      "type": "function"
    },
    {
      "inputs": [
        {
          "internalType": "address",
          "name": "newOwner",
          "type": "address"
        }
      ],
      "name": "transferOwnership",
      "outputs": [],
      "stateMutability": "nonpayable",
      "type": "function"
    },
    {
      "inputs": [
        {
          "internalType": "address",
          "name": "",
          "type": "address"
        }
      ],
      "name": "whiteListA",
      "outputs": [
        {
          "internalType": "uint256",
          "name": "",
          "type": "uint256"
        }
      ],
      "stateMutability": "view",
      "type": "function"
    },
    {
      "inputs": [
        {
          "internalType": "address",
          "name": "",
          "type": "address"
        }
      ],
      "name": "whiteListB",
      "outputs": [
        {
          "internalType": "uint256",
          "name": "",
          "type": "uint256"
        }
      ],
      "stateMutability": "view",
      "type": "function"
    },
    {
      "inputs": [
        {
          "internalType": "address",
          "name": "",
          "type": "address"
        }
      ],
      "name": "whiteListX",
      "outputs": [
        {
          "internalType": "uint256",
          "name": "",
          "type": "uint256"
        }
      ],
      "stateMutability": "view",
      "type": "function"
    },
    {
      "inputs": [],
      "name": "mintQilin",
      "outputs": [],
      "stateMutability": "nonpayable",
      "type": "function"
    },
    {
      "inputs": [
        {
          "internalType": "uint256",
          "name": "piece",
          "type": "uint256"
        }
      ],
      "name": "mintQilinPiece",
      "outputs": [],
      "stateMutability": "nonpayable",
      "type": "function"
    },
    {
      "inputs": [
        {
          "internalType": "address",
          "name": "whiteLister",
          "type": "address"
        },
        {
          "internalType": "uint256",
          "name": "piece",
          "type": "uint256"
        }
      ],
      "name": "setWhiteList",
      "outputs": [],
      "stateMutability": "nonpayable",
      "type": "function"
    }
  ],
  "bytecode": "0x608060405260006007553480156200001657600080fd5b506040518060400160405280600581526020017f51696c696e0000000000000000000000000000000000000000000000000000008152506040518060400160405280600581526020017f51696c696e000000000000000000000000000000000000000000000000000000815250620000a362000097620000dd60201b60201c565b620000e560201b60201c565b8160019080519060200190620000bb929190620001a9565b508060029080519060200190620000d4929190620001a9565b505050620002be565b600033905090565b60008060009054906101000a900473ffffffffffffffffffffffffffffffffffffffff169050816000806101000a81548173ffffffffffffffffffffffffffffffffffffffff021916908373ffffffffffffffffffffffffffffffffffffffff1602179055508173ffffffffffffffffffffffffffffffffffffffff168173ffffffffffffffffffffffffffffffffffffffff167f8be0079c531659141344cd1fd0a4f28419497f9722a3daafe3b4186f6b6457e060405160405180910390a35050565b828054620001b79062000259565b90600052602060002090601f016020900481019282620001db576000855562000227565b82601f10620001f657805160ff191683800117855562000227565b8280016001018555821562000227579182015b828111156200022657825182559160200191906001019062000209565b5b5090506200023691906200023a565b5090565b5b80821115620002555760008160009055506001016200023b565b5090565b600060028204905060018216806200027257607f821691505b602082108114156200028957620002886200028f565b5b50919050565b7f4e487b7100000000000000000000000000000000000000000000000000000000600052602260045260246000fd5b61d7e780620002ce6000396000f3fe60806040523480156200001157600080fd5b5060043610620001785760003560e01c80638da5cb5b11620000d5578063b61e9a7c1162000087578063b61e9a7c1462000437578063b88d4fde1462000459578063c156776a1462000479578063c87b56dd1462000499578063e985e9c514620004cf578063f2fde38b14620005055762000178565b80638da5cb5b146200034757806395d89b4114620003695780639f07f286146200038b578063a22cb46514620003c1578063a5b98f2014620003e1578063a6921aeb14620004015762000178565b806332ecfc2f116200012f57806332ecfc2f146200026d57806342842e0e14620002795780636352211e146200029957806370a0823114620002cf578063715018a61462000305578063750cd8e714620003115762000178565b806301ffc9a7146200017d57806306fdde0314620001b3578063081812fc14620001d5578063095ea7b3146200020b57806323b872dd146200022b5780632ebf6479146200024b575b600080fd5b6200019b600480360381019062000195919062002b0c565b62000525565b604051620001aa9190620030ff565b60405180910390f35b620001bd6200060b565b604051620001cc91906200311c565b60405180910390f35b620001f36004803603810190620001ed919062002b64565b620006a5565b60405162000202919062003051565b60405180910390f35b62000229600480360381019062000223919062002acb565b6200072f565b005b620002496004803603810190620002439190620029af565b62000858565b005b62000255620008c1565b6040516200026491906200344e565b60405180910390f35b62000277620008c7565b005b620002976004803603810190620002919190620029af565b62000f6d565b005b620002b76004803603810190620002b1919062002b64565b62000f8f565b604051620002c6919062003051565b60405180910390f35b620002ed6004803603810190620002e7919062002942565b62001044565b604051620002fc91906200344e565b60405180910390f35b6200030f620010ff565b005b6200032f600480360381019062000329919062002942565b62001190565b6040516200033e91906200344e565b60405180910390f35b62000351620011a8565b60405162000360919062003051565b60405180910390f35b62000373620011d1565b6040516200038291906200311c565b60405180910390f35b620003a96004803603810190620003a3919062002942565b6200126b565b604051620003b891906200344e565b60405180910390f35b620003df6004803603810190620003d9919062002a8a565b62001283565b005b620003ff6004803603810190620003f9919062002b64565b6200129d565b005b6200041f600480360381019062000419919062002942565b62001486565b6040516200042e91906200344e565b60405180910390f35b620004416200149e565b6040516200045091906200344e565b60405180910390f35b62000477600480360381019062000471919062002a05565b620014a4565b005b62000497600480360381019062000491919062002acb565b6200150f565b005b620004b76004803603810190620004b1919062002b64565b62001821565b604051620004c691906200311c565b60405180910390f35b620004ed6004803603810190620004e791906200296e565b620018d5565b604051620004fc9190620030ff565b60405180910390f35b6200052360048036038101906200051d919062002942565b62001969565b005b60007f80ac58cd000000000000000000000000000000000000000000000000000000007bffffffffffffffffffffffffffffffffffffffffffffffffffffffff1916827bffffffffffffffffffffffffffffffffffffffffffffffffffffffff19161480620005f157507f5b5e139f000000000000000000000000000000000000000000000000000000007bffffffffffffffffffffffffffffffffffffffffffffffffffffffff1916827bffffffffffffffffffffffffffffffffffffffffffffffffffffffff1916145b80620006045750620006038262001a6d565b5b9050919050565b6060600180546200061c9062003698565b80601f01602080910402602001604051908101604052809291908181526020018280546200064a9062003698565b80156200069b5780601f106200066f576101008083540402835291602001916200069b565b820191906000526020600020905b8154815290600101906020018083116200067d57829003601f168201915b5050505050905090565b6000620006b28262001ad7565b620006f4576040517f08c379a0000000000000000000000000000000000000000000000000000000008152600401620006eb9062003360565b60405180910390fd5b6005600083815260200190815260200160002060009054906101000a900473ffffffffffffffffffffffffffffffffffffffff169050919050565b60006200073c8262000f8f565b90508073ffffffffffffffffffffffffffffffffffffffff168373ffffffffffffffffffffffffffffffffffffffff161415620007b0576040517f08c379a0000000000000000000000000000000000000000000000000000000008152600401620007a790620033e8565b60405180910390fd5b8073ffffffffffffffffffffffffffffffffffffffff16620007d162001b43565b73ffffffffffffffffffffffffffffffffffffffff1614806200080557506200080481620007fe62001b43565b620018d5565b5b62000847576040517f08c379a00000000000000000000000000000000000000000000000000000000081526004016200083e90620032d8565b60405180910390fd5b62000853838362001b4b565b505050565b6200086d6200086662001b43565b8262001c06565b620008af576040517f08c379a0000000000000000000000000000000000000000000000000000000008152600401620008a6906200340a565b60405180910390fd5b620008bc83838362001cf1565b505050565b60075481565b6107e66007541062000910576040517f08c379a000000000000000000000000000000000000000000000000000000000815260040162000907906200342c565b60405180910390fd5b600060405162000920906200281c565b604051809103906000f0801580156200093d573d6000803e3d6000fd5b50905060008173ffffffffffffffffffffffffffffffffffffffff16637a915dcf336040518263ffffffff1660e01b81526004016200097d919062003051565b60206040518083038186803b1580156200099657600080fd5b505afa158015620009ab573d6000803e3d6000fd5b505050506040513d601f19601f82011682018060405250810190620009d1919062002b90565b1162000a14576040517f08c379a000000000000000000000000000000000000000000000000000000000815260040162000a0b9062003140565b60405180910390fd5b60008173ffffffffffffffffffffffffffffffffffffffff16637a915dcf336040518263ffffffff1660e01b815260040162000a51919062003051565b60206040518083038186803b15801562000a6a57600080fd5b505afa15801562000a7f573d6000803e3d6000fd5b505050506040513d601f19601f8201168201806040525081019062000aa5919062002b90565b9050600060405162000ab7906200282a565b604051809103906000f08015801562000ad4573d6000803e3d6000fd5b50905060008173ffffffffffffffffffffffffffffffffffffffff16633342a7ab336040518263ffffffff1660e01b815260040162000b14919062003051565b60206040518083038186803b15801562000b2d57600080fd5b505afa15801562000b42573d6000803e3d6000fd5b505050506040513d601f19601f8201168201806040525081019062000b68919062002b90565b1162000bab576040517f08c379a000000000000000000000000000000000000000000000000000000000815260040162000ba29062003294565b60405180910390fd5b60008173ffffffffffffffffffffffffffffffffffffffff16633342a7ab336040518263ffffffff1660e01b815260040162000be8919062003051565b60206040518083038186803b15801562000c0157600080fd5b505afa15801562000c16573d6000803e3d6000fd5b505050506040513d601f19601f8201168201806040525081019062000c3c919062002b90565b9050600060405162000c4e9062002838565b604051809103906000f08015801562000c6b573d6000803e3d6000fd5b50905060008173ffffffffffffffffffffffffffffffffffffffff1663d952eca5336040518263ffffffff1660e01b815260040162000cab919062003051565b60206040518083038186803b15801562000cc457600080fd5b505afa15801562000cd9573d6000803e3d6000fd5b505050506040513d601f19601f8201168201806040525081019062000cff919062002b90565b1162000d42576040517f08c379a000000000000000000000000000000000000000000000000000000000815260040162000d399062003272565b60405180910390fd5b60008173ffffffffffffffffffffffffffffffffffffffff1663d952eca5336040518263ffffffff1660e01b815260040162000d7f919062003051565b60206040518083038186803b15801562000d9857600080fd5b505afa15801562000dad573d6000803e3d6000fd5b505050506040513d601f19601f8201168201806040525081019062000dd3919062002b90565b90508573ffffffffffffffffffffffffffffffffffffffff16632bfe169f3362000dfc620011a8565b886040518463ffffffff1660e01b815260040162000e1d939291906200306e565b600060405180830381600087803b15801562000e3857600080fd5b505af115801562000e4d573d6000803e3d6000fd5b505050508373ffffffffffffffffffffffffffffffffffffffff16632071033a3362000e78620011a8565b866040518463ffffffff1660e01b815260040162000e99939291906200306e565b600060405180830381600087803b15801562000eb457600080fd5b505af115801562000ec9573d6000803e3d6000fd5b505050508173ffffffffffffffffffffffffffffffffffffffff1663ed61db293362000ef4620011a8565b846040518463ffffffff1660e01b815260040162000f15939291906200306e565b600060405180830381600087803b15801562000f3057600080fd5b505af115801562000f45573d6000803e3d6000fd5b5050505062000f6533600160075462000f5f91906200350d565b62001f6a565b505050505050565b62000f8a83838360405180602001604052806000815250620014a4565b505050565b6000806003600084815260200190815260200160002060009054906101000a900473ffffffffffffffffffffffffffffffffffffffff169050600073ffffffffffffffffffffffffffffffffffffffff168173ffffffffffffffffffffffffffffffffffffffff1614156200103b576040517f08c379a000000000000000000000000000000000000000000000000000000000815260040162001032906200331c565b60405180910390fd5b80915050919050565b60008073ffffffffffffffffffffffffffffffffffffffff168273ffffffffffffffffffffffffffffffffffffffff161415620010b8576040517f08c379a0000000000000000000000000000000000000000000000000000000008152600401620010af90620032fa565b60405180910390fd5b600460008373ffffffffffffffffffffffffffffffffffffffff1673ffffffffffffffffffffffffffffffffffffffff168152602001908152602001600020549050919050565b6200110962001b43565b73ffffffffffffffffffffffffffffffffffffffff1662001129620011a8565b73ffffffffffffffffffffffffffffffffffffffff161462001182576040517f08c379a0000000000000000000000000000000000000000000000000000000008152600401620011799062003382565b60405180910390fd5b6200118e600062001f8a565b565b60096020528060005260406000206000915090505481565b60008060009054906101000a900473ffffffffffffffffffffffffffffffffffffffff16905090565b606060028054620011e29062003698565b80601f0160208091040260200160405190810160405280929190818152602001828054620012109062003698565b8015620012615780601f10620012355761010080835404028352916020019162001261565b820191906000526020600020905b8154815290600101906020018083116200124357829003601f168201915b5050505050905090565b600a6020528060005260406000206000915090505481565b620012996200129162001b43565b83836200204e565b5050565b600181141562001340576000604051620012b7906200281c565b604051809103906000f080158015620012d4573d6000803e3d6000fd5b5090508073ffffffffffffffffffffffffffffffffffffffff166372e466a06040518163ffffffff1660e01b8152600401600060405180830381600087803b1580156200132057600080fd5b505af115801562001335573d6000803e3d6000fd5b505050505062001483565b6002811415620013e35760006040516200135a906200282a565b604051809103906000f08015801562001377573d6000803e3d6000fd5b5090508073ffffffffffffffffffffffffffffffffffffffff16639097b0116040518163ffffffff1660e01b8152600401600060405180830381600087803b158015620013c357600080fd5b505af1158015620013d8573d6000803e3d6000fd5b505050505062001482565b600381141562001481576000604051620013fd9062002838565b604051809103906000f0801580156200141a573d6000803e3d6000fd5b5090508073ffffffffffffffffffffffffffffffffffffffff1663e485b9ad6040518163ffffffff1660e01b8152600401600060405180830381600087803b1580156200146657600080fd5b505af11580156200147b573d6000803e3d6000fd5b50505050505b5b5b50565b60086020528060005260406000206000915090505481565b6107e681565b620014b9620014b262001b43565b8362001c06565b620014fb576040517f08c379a0000000000000000000000000000000000000000000000000000000008152600401620014f2906200340a565b60405180910390fd5b6200150984848484620021c0565b50505050565b6200151962001b43565b73ffffffffffffffffffffffffffffffffffffffff1662001539620011a8565b73ffffffffffffffffffffffffffffffffffffffff161462001592576040517f08c379a0000000000000000000000000000000000000000000000000000000008152600401620015899062003382565b60405180910390fd5b60018114156200166c576001600860008473ffffffffffffffffffffffffffffffffffffffff1673ffffffffffffffffffffffffffffffffffffffff168152602001908152602001600020541062001621576040517f08c379a00000000000000000000000000000000000000000000000000000000081526004016200161890620033c6565b60405180910390fd5b6001600860008473ffffffffffffffffffffffffffffffffffffffff1673ffffffffffffffffffffffffffffffffffffffff168152602001908152602001600020819055506200181d565b600281141562001746576001600960008473ffffffffffffffffffffffffffffffffffffffff1673ffffffffffffffffffffffffffffffffffffffff1681526020019081526020016000205410620016fb576040517f08c379a0000000000000000000000000000000000000000000000000000000008152600401620016f2906200320c565b60405180910390fd5b6001600960008473ffffffffffffffffffffffffffffffffffffffff1673ffffffffffffffffffffffffffffffffffffffff168152602001908152602001600020819055506200181c565b60038114156200181b576001600a60008473ffffffffffffffffffffffffffffffffffffffff1673ffffffffffffffffffffffffffffffffffffffff1681526020019081526020016000205410620017d5576040517f08c379a0000000000000000000000000000000000000000000000000000000008152600401620017cc9062003162565b60405180910390fd5b6001600a60008473ffffffffffffffffffffffffffffffffffffffff1673ffffffffffffffffffffffffffffffffffffffff168152602001908152602001600020819055505b5b5b5050565b60606200182e8262001ad7565b62001870576040517f08c379a00000000000000000000000000000000000000000000000000000000081526004016200186790620033a4565b60405180910390fd5b60006200187c62002223565b905060008151116200189e5760405180602001604052806000815250620018cd565b80620018aa846200223a565b604051602001620018bd92919062003029565b6040516020818303038152906040525b915050919050565b6000600660008473ffffffffffffffffffffffffffffffffffffffff1673ffffffffffffffffffffffffffffffffffffffff16815260200190815260200160002060008373ffffffffffffffffffffffffffffffffffffffff1673ffffffffffffffffffffffffffffffffffffffff16815260200190815260200160002060009054906101000a900460ff16905092915050565b6200197362001b43565b73ffffffffffffffffffffffffffffffffffffffff1662001993620011a8565b73ffffffffffffffffffffffffffffffffffffffff1614620019ec576040517f08c379a0000000000000000000000000000000000000000000000000000000008152600401620019e39062003382565b60405180910390fd5b600073ffffffffffffffffffffffffffffffffffffffff168173ffffffffffffffffffffffffffffffffffffffff16141562001a5f576040517f08c379a000000000000000000000000000000000000000000000000000000000815260040162001a5690620031a6565b60405180910390fd5b62001a6a8162001f8a565b50565b60007f01ffc9a7000000000000000000000000000000000000000000000000000000007bffffffffffffffffffffffffffffffffffffffffffffffffffffffff1916827bffffffffffffffffffffffffffffffffffffffffffffffffffffffff1916149050919050565b60008073ffffffffffffffffffffffffffffffffffffffff166003600084815260200190815260200160002060009054906101000a900473ffffffffffffffffffffffffffffffffffffffff1673ffffffffffffffffffffffffffffffffffffffff1614159050919050565b600033905090565b816005600083815260200190815260200160002060006101000a81548173ffffffffffffffffffffffffffffffffffffffff021916908373ffffffffffffffffffffffffffffffffffffffff160217905550808273ffffffffffffffffffffffffffffffffffffffff1662001bc08362000f8f565b73ffffffffffffffffffffffffffffffffffffffff167f8c5be1e5ebec7d5bd14f71427d1e84f3dd0314c0f7b2291e5b200ac8c7c3b92560405160405180910390a45050565b600062001c138262001ad7565b62001c55576040517f08c379a000000000000000000000000000000000000000000000000000000000815260040162001c4c90620032b6565b60405180910390fd5b600062001c628362000f8f565b90508073ffffffffffffffffffffffffffffffffffffffff168473ffffffffffffffffffffffffffffffffffffffff16148062001cd457508373ffffffffffffffffffffffffffffffffffffffff1662001cbc84620006a5565b73ffffffffffffffffffffffffffffffffffffffff16145b8062001ce8575062001ce78185620018d5565b5b91505092915050565b8273ffffffffffffffffffffffffffffffffffffffff1662001d138262000f8f565b73ffffffffffffffffffffffffffffffffffffffff161462001d6c576040517f08c379a000000000000000000000000000000000000000000000000000000000815260040162001d6390620031c8565b60405180910390fd5b600073ffffffffffffffffffffffffffffffffffffffff168273ffffffffffffffffffffffffffffffffffffffff16141562001ddf576040517f08c379a000000000000000000000000000000000000000000000000000000000815260040162001dd6906200322e565b60405180910390fd5b62001dec838383620023fc565b62001df960008262001b4b565b6001600460008573ffffffffffffffffffffffffffffffffffffffff1673ffffffffffffffffffffffffffffffffffffffff168152602001908152602001600020600082825462001e4b9190620035a2565b925050819055506001600460008473ffffffffffffffffffffffffffffffffffffffff1673ffffffffffffffffffffffffffffffffffffffff168152602001908152602001600020600082825462001ea491906200350d565b92505081905550816003600083815260200190815260200160002060006101000a81548173ffffffffffffffffffffffffffffffffffffffff021916908373ffffffffffffffffffffffffffffffffffffffff160217905550808273ffffffffffffffffffffffffffffffffffffffff168473ffffffffffffffffffffffffffffffffffffffff167fddf252ad1be2c89b69c2b068fc378daa952ba7f163c4a11628f55a4df523b3ef60405160405180910390a462001f6583838362002401565b505050565b62001f8682826040518060200160405280600081525062002406565b5050565b60008060009054906101000a900473ffffffffffffffffffffffffffffffffffffffff169050816000806101000a81548173ffffffffffffffffffffffffffffffffffffffff021916908373ffffffffffffffffffffffffffffffffffffffff1602179055508173ffffffffffffffffffffffffffffffffffffffff168173ffffffffffffffffffffffffffffffffffffffff167f8be0079c531659141344cd1fd0a4f28419497f9722a3daafe3b4186f6b6457e060405160405180910390a35050565b8173ffffffffffffffffffffffffffffffffffffffff168373ffffffffffffffffffffffffffffffffffffffff161415620020c0576040517f08c379a0000000000000000000000000000000000000000000000000000000008152600401620020b79062003250565b60405180910390fd5b80600660008573ffffffffffffffffffffffffffffffffffffffff1673ffffffffffffffffffffffffffffffffffffffff16815260200190815260200160002060008473ffffffffffffffffffffffffffffffffffffffff1673ffffffffffffffffffffffffffffffffffffffff16815260200190815260200160002060006101000a81548160ff0219169083151502179055508173ffffffffffffffffffffffffffffffffffffffff168373ffffffffffffffffffffffffffffffffffffffff167f17307eab39ab6107e8899845ad3d59bd9653f200f220920489ca2b5937696c3183604051620021b39190620030ff565b60405180910390a3505050565b620021cd84848462001cf1565b620021db8484848462002468565b6200221d576040517f08c379a0000000000000000000000000000000000000000000000000000000008152600401620022149062003184565b60405180910390fd5b50505050565b606060405180602001604052806000815250905090565b6060600082141562002284576040518060400160405280600181526020017f30000000000000000000000000000000000000000000000000000000000000008152509050620023f7565b600082905060005b60008214620022bc578080620022a29062003704565b915050600a82620022b491906200356a565b91506200228c565b60008167ffffffffffffffff811115620022ff577f4e487b7100000000000000000000000000000000000000000000000000000000600052604160045260246000fd5b6040519080825280601f01601f191660200182016040528015620023325781602001600182028036833780820191505090505b5090505b60008514620023f0576001826200234e9190620035a2565b9150600a856200235f919062003752565b60306200236d91906200350d565b60f81b818381518110620023aa577f4e487b7100000000000000000000000000000000000000000000000000000000600052603260045260246000fd5b60200101907effffffffffffffffffffffffffffffffffffffffffffffffffffffffffffff1916908160001a905350600a85620023e891906200356a565b945062002336565b8093505050505b919050565b505050565b505050565b62002412838362002611565b62002421600084848462002468565b62002463576040517f08c379a00000000000000000000000000000000000000000000000000000000081526004016200245a9062003184565b60405180910390fd5b505050565b60006200248b8473ffffffffffffffffffffffffffffffffffffffff16620027f9565b1562002604578373ffffffffffffffffffffffffffffffffffffffff1663150b7a02620024b762001b43565b8786866040518563ffffffff1660e01b8152600401620024db9493929190620030ab565b602060405180830381600087803b158015620024f657600080fd5b505af19250505080156200252a57506040513d601f19601f8201168201806040525081019062002527919062002b38565b60015b620025b3573d80600081146200255d576040519150601f19603f3d011682016040523d82523d6000602084013e62002562565b606091505b50600081511415620025ab576040517f08c379a0000000000000000000000000000000000000000000000000000000008152600401620025a29062003184565b60405180910390fd5b805181602001fd5b63150b7a0260e01b7bffffffffffffffffffffffffffffffffffffffffffffffffffffffff1916817bffffffffffffffffffffffffffffffffffffffffffffffffffffffff19161491505062002609565b600190505b949350505050565b600073ffffffffffffffffffffffffffffffffffffffff168273ffffffffffffffffffffffffffffffffffffffff16141562002684576040517f08c379a00000000000000000000000000000000000000000000000000000000081526004016200267b906200333e565b60405180910390fd5b6200268f8162001ad7565b15620026d2576040517f08c379a0000000000000000000000000000000000000000000000000000000008152600401620026c990620031ea565b60405180910390fd5b620026e060008383620023fc565b6001600460008473ffffffffffffffffffffffffffffffffffffffff1673ffffffffffffffffffffffffffffffffffffffff16815260200190815260200160002060008282546200273291906200350d565b92505081905550816003600083815260200190815260200160002060006101000a81548173ffffffffffffffffffffffffffffffffffffffff021916908373ffffffffffffffffffffffffffffffffffffffff160217905550808273ffffffffffffffffffffffffffffffffffffffff16600073ffffffffffffffffffffffffffffffffffffffff167fddf252ad1be2c89b69c2b068fc378daa952ba7f163c4a11628f55a4df523b3ef60405160405180910390a4620027f56000838362002401565b5050565b6000808273ffffffffffffffffffffffffffffffffffffffff163b119050919050565b6132b88062003ea983390190565b6132b8806200716183390190565b613399806200a41983390190565b60006200285d620028578462003494565b6200346b565b9050828152602081018484840111156200287657600080fd5b6200288384828562003653565b509392505050565b6000813590506200289c8162003e40565b92915050565b600081359050620028b38162003e5a565b92915050565b600081359050620028ca8162003e74565b92915050565b600081519050620028e18162003e74565b92915050565b600082601f830112620028f957600080fd5b81356200290b84826020860162002846565b91505092915050565b600081359050620029258162003e8e565b92915050565b6000815190506200293c8162003e8e565b92915050565b6000602082840312156200295557600080fd5b600062002965848285016200288b565b91505092915050565b600080604083850312156200298257600080fd5b600062002992858286016200288b565b9250506020620029a5858286016200288b565b9150509250929050565b600080600060608486031215620029c557600080fd5b6000620029d5868287016200288b565b9350506020620029e8868287016200288b565b9250506040620029fb8682870162002914565b9150509250925092565b6000806000806080858703121562002a1c57600080fd5b600062002a2c878288016200288b565b945050602062002a3f878288016200288b565b935050604062002a528782880162002914565b925050606085013567ffffffffffffffff81111562002a7057600080fd5b62002a7e87828801620028e7565b91505092959194509250565b6000806040838503121562002a9e57600080fd5b600062002aae858286016200288b565b925050602062002ac185828601620028a2565b9150509250929050565b6000806040838503121562002adf57600080fd5b600062002aef858286016200288b565b925050602062002b028582860162002914565b9150509250929050565b60006020828403121562002b1f57600080fd5b600062002b2f84828501620028b9565b91505092915050565b60006020828403121562002b4b57600080fd5b600062002b5b84828501620028d0565b91505092915050565b60006020828403121562002b7757600080fd5b600062002b878482850162002914565b91505092915050565b60006020828403121562002ba357600080fd5b600062002bb3848285016200292b565b91505092915050565b62002bc781620035dd565b82525050565b62002bd881620035f1565b82525050565b600062002beb82620034ca565b62002bf78185620034e0565b935062002c0981856020860162003662565b62002c148162003846565b840191505092915050565b600062002c2c82620034d5565b62002c388185620034f1565b935062002c4a81856020860162003662565b62002c558162003846565b840191505092915050565b600062002c6d82620034d5565b62002c79818562003502565b935062002c8b81856020860162003662565b80840191505092915050565b600062002ca6601183620034f1565b915062002cb38262003857565b602082019050919050565b600062002ccd602683620034f1565b915062002cda8262003880565b604082019050919050565b600062002cf4603283620034f1565b915062002d0182620038cf565b604082019050919050565b600062002d1b602683620034f1565b915062002d28826200391e565b604082019050919050565b600062002d42602583620034f1565b915062002d4f826200396d565b604082019050919050565b600062002d69601c83620034f1565b915062002d7682620039bc565b602082019050919050565b600062002d90602683620034f1565b915062002d9d82620039e5565b604082019050919050565b600062002db7602483620034f1565b915062002dc48262003a34565b604082019050919050565b600062002dde601983620034f1565b915062002deb8262003a83565b602082019050919050565b600062002e05601183620034f1565b915062002e128262003aac565b602082019050919050565b600062002e2c601183620034f1565b915062002e398262003ad5565b602082019050919050565b600062002e53602c83620034f1565b915062002e608262003afe565b604082019050919050565b600062002e7a603883620034f1565b915062002e878262003b4d565b604082019050919050565b600062002ea1602a83620034f1565b915062002eae8262003b9c565b604082019050919050565b600062002ec8602983620034f1565b915062002ed58262003beb565b604082019050919050565b600062002eef602083620034f1565b915062002efc8262003c3a565b602082019050919050565b600062002f16602c83620034f1565b915062002f238262003c63565b604082019050919050565b600062002f3d602083620034f1565b915062002f4a8262003cb2565b602082019050919050565b600062002f64602f83620034f1565b915062002f718262003cdb565b604082019050919050565b600062002f8b602683620034f1565b915062002f988262003d2a565b604082019050919050565b600062002fb2602183620034f1565b915062002fbf8262003d79565b604082019050919050565b600062002fd9603183620034f1565b915062002fe68262003dc8565b604082019050919050565b600062003000601083620034f1565b91506200300d8262003e17565b602082019050919050565b620030238162003649565b82525050565b600062003037828562002c60565b915062003045828462002c60565b91508190509392505050565b600060208201905062003068600083018462002bbc565b92915050565b600060608201905062003085600083018662002bbc565b62003094602083018562002bbc565b620030a3604083018462003018565b949350505050565b6000608082019050620030c2600083018762002bbc565b620030d1602083018662002bbc565b620030e0604083018562003018565b8181036060830152620030f4818462002bde565b905095945050505050565b600060208201905062003116600083018462002bcd565b92915050565b6000602082019050818103600083015262003138818462002c1f565b905092915050565b600060208201905081810360008301526200315b8162002c97565b9050919050565b600060208201905081810360008301526200317d8162002cbe565b9050919050565b600060208201905081810360008301526200319f8162002ce5565b9050919050565b60006020820190508181036000830152620031c18162002d0c565b9050919050565b60006020820190508181036000830152620031e38162002d33565b9050919050565b60006020820190508181036000830152620032058162002d5a565b9050919050565b60006020820190508181036000830152620032278162002d81565b9050919050565b60006020820190508181036000830152620032498162002da8565b9050919050565b600060208201905081810360008301526200326b8162002dcf565b9050919050565b600060208201905081810360008301526200328d8162002df6565b9050919050565b60006020820190508181036000830152620032af8162002e1d565b9050919050565b60006020820190508181036000830152620032d18162002e44565b9050919050565b60006020820190508181036000830152620032f38162002e6b565b9050919050565b60006020820190508181036000830152620033158162002e92565b9050919050565b60006020820190508181036000830152620033378162002eb9565b9050919050565b60006020820190508181036000830152620033598162002ee0565b9050919050565b600060208201905081810360008301526200337b8162002f07565b9050919050565b600060208201905081810360008301526200339d8162002f2e565b9050919050565b60006020820190508181036000830152620033bf8162002f55565b9050919050565b60006020820190508181036000830152620033e18162002f7c565b9050919050565b60006020820190508181036000830152620034038162002fa3565b9050919050565b60006020820190508181036000830152620034258162002fca565b9050919050565b60006020820190508181036000830152620034478162002ff1565b9050919050565b600060208201905062003465600083018462003018565b92915050565b6000620034776200348a565b9050620034858282620036ce565b919050565b6000604051905090565b600067ffffffffffffffff821115620034b257620034b162003817565b5b620034bd8262003846565b9050602081019050919050565b600081519050919050565b600081519050919050565b600082825260208201905092915050565b600082825260208201905092915050565b600081905092915050565b60006200351a8262003649565b9150620035278362003649565b9250827fffffffffffffffffffffffffffffffffffffffffffffffffffffffffffffffff038211156200355f576200355e6200378a565b5b828201905092915050565b6000620035778262003649565b9150620035848362003649565b925082620035975762003596620037b9565b5b828204905092915050565b6000620035af8262003649565b9150620035bc8362003649565b925082821015620035d257620035d16200378a565b5b828203905092915050565b6000620035ea8262003629565b9050919050565b60008115159050919050565b60007fffffffff0000000000000000000000000000000000000000000000000000000082169050919050565b600073ffffffffffffffffffffffffffffffffffffffff82169050919050565b6000819050919050565b82818337600083830152505050565b60005b838110156200368257808201518184015260208101905062003665565b8381111562003692576000848401525b50505050565b60006002820490506001821680620036b157607f821691505b60208210811415620036c857620036c7620037e8565b5b50919050565b620036d98262003846565b810181811067ffffffffffffffff82111715620036fb57620036fa62003817565b5b80604052505050565b6000620037118262003649565b91507fffffffffffffffffffffffffffffffffffffffffffffffffffffffffffffffff8214156200374757620037466200378a565b5b600182019050919050565b60006200375f8262003649565b91506200376c8362003649565b9250826200377f576200377e620037b9565b5b828206905092915050565b7f4e487b7100000000000000000000000000000000000000000000000000000000600052601160045260246000fd5b7f4e487b7100000000000000000000000000000000000000000000000000000000600052601260045260246000fd5b7f4e487b7100000000000000000000000000000000000000000000000000000000600052602260045260246000fd5b7f4e487b7100000000000000000000000000000000000000000000000000000000600052604160045260246000fd5b6000601f19601f8301169050919050565b7f596f75206e656564207069656365204121000000000000000000000000000000600082015250565b7f746865206164647265737320697320616c726561647920696e2077686974652060008201527f6c69737420580000000000000000000000000000000000000000000000000000602082015250565b7f4552433732313a207472616e7366657220746f206e6f6e20455243373231526560008201527f63656976657220696d706c656d656e7465720000000000000000000000000000602082015250565b7f4f776e61626c653a206e6577206f776e657220697320746865207a65726f206160008201527f6464726573730000000000000000000000000000000000000000000000000000602082015250565b7f4552433732313a207472616e736665722066726f6d20696e636f72726563742060008201527f6f776e6572000000000000000000000000000000000000000000000000000000602082015250565b7f4552433732313a20746f6b656e20616c7265616479206d696e74656400000000600082015250565b7f746865206164647265737320697320616c726561647920696e2077686974652060008201527f6c69737420420000000000000000000000000000000000000000000000000000602082015250565b7f4552433732313a207472616e7366657220746f20746865207a65726f2061646460008201527f7265737300000000000000000000000000000000000000000000000000000000602082015250565b7f4552433732313a20617070726f766520746f2063616c6c657200000000000000600082015250565b7f596f75206e656564207069656365205821000000000000000000000000000000600082015250565b7f596f75206e656564207069656365204221000000000000000000000000000000600082015250565b7f4552433732313a206f70657261746f7220717565727920666f72206e6f6e657860008201527f697374656e7420746f6b656e0000000000000000000000000000000000000000602082015250565b7f4552433732313a20617070726f76652063616c6c6572206973206e6f74206f7760008201527f6e6572206e6f7220617070726f76656420666f7220616c6c0000000000000000602082015250565b7f4552433732313a2062616c616e636520717565727920666f7220746865207a6560008201527f726f206164647265737300000000000000000000000000000000000000000000602082015250565b7f4552433732313a206f776e657220717565727920666f72206e6f6e657869737460008201527f656e7420746f6b656e0000000000000000000000000000000000000000000000602082015250565b7f4552433732313a206d696e7420746f20746865207a65726f2061646472657373600082015250565b7f4552433732313a20617070726f76656420717565727920666f72206e6f6e657860008201527f697374656e7420746f6b656e0000000000000000000000000000000000000000602082015250565b7f4f776e61626c653a2063616c6c6572206973206e6f7420746865206f776e6572600082015250565b7f4552433732314d657461646174613a2055524920717565727920666f72206e6f60008201527f6e6578697374656e7420746f6b656e0000000000000000000000000000000000602082015250565b7f746865206164647265737320697320616c726561647920696e2077686974652060008201527f6c69737420410000000000000000000000000000000000000000000000000000602082015250565b7f4552433732313a20617070726f76616c20746f2063757272656e74206f776e6560008201527f7200000000000000000000000000000000000000000000000000000000000000602082015250565b7f4552433732313a207472616e736665722063616c6c6572206973206e6f74206f60008201527f776e6572206e6f7220617070726f766564000000000000000000000000000000602082015250565b7f4e5446206973206d696e74206f75742100000000000000000000000000000000600082015250565b62003e4b81620035dd565b811462003e5757600080fd5b50565b62003e6581620035f1565b811462003e7157600080fd5b50565b62003e7f81620035fd565b811462003e8b57600080fd5b50565b62003e998162003649565b811462003ea557600080fd5b5056fe608060405260006007553480156200001657600080fd5b506040518060400160405280600681526020017f51696c696e4100000000000000000000000000000000000000000000000000008152506040518060400160405280600181526020017f4100000000000000000000000000000000000000000000000000000000000000815250620000a362000097620000dd60201b60201c565b620000e560201b60201c565b8160019080519060200190620000bb929190620001a9565b508060029080519060200190620000d4929190620001a9565b505050620002be565b600033905090565b60008060009054906101000a900473ffffffffffffffffffffffffffffffffffffffff169050816000806101000a81548173ffffffffffffffffffffffffffffffffffffffff021916908373ffffffffffffffffffffffffffffffffffffffff1602179055508173ffffffffffffffffffffffffffffffffffffffff168173ffffffffffffffffffffffffffffffffffffffff167f8be0079c531659141344cd1fd0a4f28419497f9722a3daafe3b4186f6b6457e060405160405180910390a35050565b828054620001b79062000259565b90600052602060002090601f016020900481019282620001db576000855562000227565b82601f10620001f657805160ff191683800117855562000227565b8280016001018555821562000227579182015b828111156200022657825182559160200191906001019062000209565b5b5090506200023691906200023a565b5090565b5b80821115620002555760008160009055506001016200023b565b5090565b600060028204905060018216806200027257607f821691505b602082108114156200028957620002886200028f565b5b50919050565b7f4e487b7100000000000000000000000000000000000000000000000000000000600052602260045260246000fd5b612fea80620002ce6000396000f3fe608060405234801561001057600080fd5b50600436106101425760003560e01c80637a915dcf116100b8578063b88d4fde1161007c578063b88d4fde1461034d578063bff7468814610369578063c87b56dd14610387578063e3d57f2c146103b7578063e985e9c5146103e7578063f2fde38b1461041757610142565b80637a915dcf146102a95780638da5cb5b146102d957806395d89b41146102f7578063a22cb46514610315578063ab4d4c8a1461033157610142565b80632bfe169f1161010a5780632bfe169f146101fd57806342842e0e146102195780636352211e1461023557806370a0823114610265578063715018a61461029557806372e466a01461029f57610142565b806301ffc9a71461014757806306fdde0314610177578063081812fc14610195578063095ea7b3146101c557806323b872dd146101e1575b600080fd5b610161600480360381019061015c9190612016565b610433565b60405161016e9190612462565b60405180910390f35b61017f610515565b60405161018c919061247d565b60405180910390f35b6101af60048036038101906101aa9190612068565b6105a7565b6040516101bc91906123fb565b60405180910390f35b6101df60048036038101906101da9190611fda565b61062c565b005b6101fb60048036038101906101f69190611ed4565b610744565b005b61021760048036038101906102129190611ed4565b6107a4565b005b610233600480360381019061022e9190611ed4565b61086c565b005b61024f600480360381019061024a9190612068565b61088c565b60405161025c91906123fb565b60405180910390f35b61027f600480360381019061027a9190611e6f565b61093e565b60405161028c91906126df565b60405180910390f35b61029d6109f6565b005b6102a7610a7e565b005b6102c360048036038101906102be9190611e6f565b610b64565b6040516102d091906126df565b60405180910390f35b6102e1610bad565b6040516102ee91906123fb565b60405180910390f35b6102ff610bd6565b60405161030c919061247d565b60405180910390f35b61032f600480360381019061032a9190611f9e565b610c68565b005b61034b60048036038101906103469190612068565b610c7e565b005b61036760048036038101906103629190611f23565b610c8a565b005b610371610cec565b60405161037e91906126df565b60405180910390f35b6103a1600480360381019061039c9190612068565b610cf2565b6040516103ae919061247d565b60405180910390f35b6103d160048036038101906103cc9190611e6f565b610d99565b6040516103de91906126df565b60405180910390f35b61040160048036038101906103fc9190611e98565b610db1565b60405161040e9190612462565b60405180910390f35b610431600480360381019061042c9190611e6f565b610e45565b005b60007f80ac58cd000000000000000000000000000000000000000000000000000000007bffffffffffffffffffffffffffffffffffffffffffffffffffffffff1916827bffffffffffffffffffffffffffffffffffffffffffffffffffffffff191614806104fe57507f5b5e139f000000000000000000000000000000000000000000000000000000007bffffffffffffffffffffffffffffffffffffffffffffffffffffffff1916827bffffffffffffffffffffffffffffffffffffffffffffffffffffffff1916145b8061050e575061050d82610f3d565b5b9050919050565b60606001805461052490612904565b80601f016020809104026020016040519081016040528092919081815260200182805461055090612904565b801561059d5780601f106105725761010080835404028352916020019161059d565b820191906000526020600020905b81548152906001019060200180831161058057829003601f168201915b5050505050905090565b60006105b282610fa7565b6105f1576040517f08c379a00000000000000000000000000000000000000000000000000000000081526004016105e89061263f565b60405180910390fd5b6005600083815260200190815260200160002060009054906101000a900473ffffffffffffffffffffffffffffffffffffffff169050919050565b60006106378261088c565b90508073ffffffffffffffffffffffffffffffffffffffff168373ffffffffffffffffffffffffffffffffffffffff1614156106a8576040517f08c379a000000000000000000000000000000000000000000000000000000000815260040161069f9061269f565b60405180910390fd5b8073ffffffffffffffffffffffffffffffffffffffff166106c7611013565b73ffffffffffffffffffffffffffffffffffffffff1614806106f657506106f5816106f0611013565b610db1565b5b610735576040517f08c379a000000000000000000000000000000000000000000000000000000000815260040161072c9061259f565b60405180910390fd5b61073f838361101b565b505050565b61075561074f611013565b826110d4565b610794576040517f08c379a000000000000000000000000000000000000000000000000000000000815260040161078b906126bf565b60405180910390fd5b61079f8383836111b2565b505050565b6107ac610bad565b73ffffffffffffffffffffffffffffffffffffffff168273ffffffffffffffffffffffffffffffffffffffff1614610819576040517f08c379a00000000000000000000000000000000000000000000000000000000081526004016108109061249f565b60405180910390fd5b6108248383836111b2565b600860008473ffffffffffffffffffffffffffffffffffffffff1673ffffffffffffffffffffffffffffffffffffffff16815260200190815260200160002060009055505050565b61088783838360405180602001604052806000815250610c8a565b505050565b6000806003600084815260200190815260200160002060009054906101000a900473ffffffffffffffffffffffffffffffffffffffff169050600073ffffffffffffffffffffffffffffffffffffffff168173ffffffffffffffffffffffffffffffffffffffff161415610935576040517f08c379a000000000000000000000000000000000000000000000000000000000815260040161092c906125df565b60405180910390fd5b80915050919050565b60008073ffffffffffffffffffffffffffffffffffffffff168273ffffffffffffffffffffffffffffffffffffffff1614156109af576040517f08c379a00000000000000000000000000000000000000000000000000000000081526004016109a6906125bf565b60405180910390fd5b600460008373ffffffffffffffffffffffffffffffffffffffff1673ffffffffffffffffffffffffffffffffffffffff168152602001908152602001600020549050919050565b6109fe611013565b73ffffffffffffffffffffffffffffffffffffffff16610a1c610bad565b73ffffffffffffffffffffffffffffffffffffffff1614610a72576040517f08c379a0000000000000000000000000000000000000000000000000000000008152600401610a699061265f565b60405180910390fd5b610a7c6000611419565b565b6001600860003373ffffffffffffffffffffffffffffffffffffffff1673ffffffffffffffffffffffffffffffffffffffff1681526020019081526020016000205410610b00576040517f08c379a0000000000000000000000000000000000000000000000000000000008152600401610af7906125ff565b60405180910390fd5b60006001600754610b119190612793565b9050610b1d33826114dd565b80600860003373ffffffffffffffffffffffffffffffffffffffff1673ffffffffffffffffffffffffffffffffffffffff1681526020019081526020016000208190555050565b6000600860008373ffffffffffffffffffffffffffffffffffffffff1673ffffffffffffffffffffffffffffffffffffffff168152602001908152602001600020549050919050565b60008060009054906101000a900473ffffffffffffffffffffffffffffffffffffffff16905090565b606060028054610be590612904565b80601f0160208091040260200160405190810160405280929190818152602001828054610c1190612904565b8015610c5e5780601f10610c3357610100808354040283529160200191610c5e565b820191906000526020600020905b815481529060010190602001808311610c4157829003601f168201915b5050505050905090565b610c7a610c73611013565b83836114fb565b5050565b610c8781611668565b50565b610c9b610c95611013565b836110d4565b610cda576040517f08c379a0000000000000000000000000000000000000000000000000000000008152600401610cd1906126bf565b60405180910390fd5b610ce684848484611785565b50505050565b60075481565b6060610cfd82610fa7565b610d3c576040517f08c379a0000000000000000000000000000000000000000000000000000000008152600401610d339061267f565b60405180910390fd5b6000610d466117e1565b90506000815111610d665760405180602001604052806000815250610d91565b80610d70846117f8565b604051602001610d819291906123d7565b6040516020818303038152906040525b915050919050565b60086020528060005260406000206000915090505481565b6000600660008473ffffffffffffffffffffffffffffffffffffffff1673ffffffffffffffffffffffffffffffffffffffff16815260200190815260200160002060008373ffffffffffffffffffffffffffffffffffffffff1673ffffffffffffffffffffffffffffffffffffffff16815260200190815260200160002060009054906101000a900460ff16905092915050565b610e4d611013565b73ffffffffffffffffffffffffffffffffffffffff16610e6b610bad565b73ffffffffffffffffffffffffffffffffffffffff1614610ec1576040517f08c379a0000000000000000000000000000000000000000000000000000000008152600401610eb89061265f565b60405180910390fd5b600073ffffffffffffffffffffffffffffffffffffffff168173ffffffffffffffffffffffffffffffffffffffff161415610f31576040517f08c379a0000000000000000000000000000000000000000000000000000000008152600401610f28906124df565b60405180910390fd5b610f3a81611419565b50565b60007f01ffc9a7000000000000000000000000000000000000000000000000000000007bffffffffffffffffffffffffffffffffffffffffffffffffffffffff1916827bffffffffffffffffffffffffffffffffffffffffffffffffffffffff1916149050919050565b60008073ffffffffffffffffffffffffffffffffffffffff166003600084815260200190815260200160002060009054906101000a900473ffffffffffffffffffffffffffffffffffffffff1673ffffffffffffffffffffffffffffffffffffffff1614159050919050565b600033905090565b816005600083815260200190815260200160002060006101000a81548173ffffffffffffffffffffffffffffffffffffffff021916908373ffffffffffffffffffffffffffffffffffffffff160217905550808273ffffffffffffffffffffffffffffffffffffffff1661108e8361088c565b73ffffffffffffffffffffffffffffffffffffffff167f8c5be1e5ebec7d5bd14f71427d1e84f3dd0314c0f7b2291e5b200ac8c7c3b92560405160405180910390a45050565b60006110df82610fa7565b61111e576040517f08c379a00000000000000000000000000000000000000000000000000000000081526004016111159061257f565b60405180910390fd5b60006111298361088c565b90508073ffffffffffffffffffffffffffffffffffffffff168473ffffffffffffffffffffffffffffffffffffffff16148061119857508373ffffffffffffffffffffffffffffffffffffffff16611180846105a7565b73ffffffffffffffffffffffffffffffffffffffff16145b806111a957506111a88185610db1565b5b91505092915050565b8273ffffffffffffffffffffffffffffffffffffffff166111d28261088c565b73ffffffffffffffffffffffffffffffffffffffff1614611228576040517f08c379a000000000000000000000000000000000000000000000000000000000815260040161121f906124ff565b60405180910390fd5b600073ffffffffffffffffffffffffffffffffffffffff168273ffffffffffffffffffffffffffffffffffffffff161415611298576040517f08c379a000000000000000000000000000000000000000000000000000000000815260040161128f9061253f565b60405180910390fd5b6112a38383836119a5565b6112ae60008261101b565b6001600460008573ffffffffffffffffffffffffffffffffffffffff1673ffffffffffffffffffffffffffffffffffffffff16815260200190815260200160002060008282546112fe919061281a565b925050819055506001600460008473ffffffffffffffffffffffffffffffffffffffff1673ffffffffffffffffffffffffffffffffffffffff16815260200190815260200160002060008282546113559190612793565b92505081905550816003600083815260200190815260200160002060006101000a81548173ffffffffffffffffffffffffffffffffffffffff021916908373ffffffffffffffffffffffffffffffffffffffff160217905550808273ffffffffffffffffffffffffffffffffffffffff168473ffffffffffffffffffffffffffffffffffffffff167fddf252ad1be2c89b69c2b068fc378daa952ba7f163c4a11628f55a4df523b3ef60405160405180910390a46114148383836119aa565b505050565b60008060009054906101000a900473ffffffffffffffffffffffffffffffffffffffff169050816000806101000a81548173ffffffffffffffffffffffffffffffffffffffff021916908373ffffffffffffffffffffffffffffffffffffffff1602179055508173ffffffffffffffffffffffffffffffffffffffff168173ffffffffffffffffffffffffffffffffffffffff167f8be0079c531659141344cd1fd0a4f28419497f9722a3daafe3b4186f6b6457e060405160405180910390a35050565b6114f78282604051806020016040528060008152506119af565b5050565b8173ffffffffffffffffffffffffffffffffffffffff168373ffffffffffffffffffffffffffffffffffffffff16141561156a576040517f08c379a00000000000000000000000000000000000000000000000000000000081526004016115619061255f565b60405180910390fd5b80600660008573ffffffffffffffffffffffffffffffffffffffff1673ffffffffffffffffffffffffffffffffffffffff16815260200190815260200160002060008473ffffffffffffffffffffffffffffffffffffffff1673ffffffffffffffffffffffffffffffffffffffff16815260200190815260200160002060006101000a81548160ff0219169083151502179055508173ffffffffffffffffffffffffffffffffffffffff168373ffffffffffffffffffffffffffffffffffffffff167f17307eab39ab6107e8899845ad3d59bd9653f200f220920489ca2b5937696c318360405161165b9190612462565b60405180910390a3505050565b60006116738261088c565b9050611681816000846119a5565b61168c60008361101b565b6001600460008373ffffffffffffffffffffffffffffffffffffffff1673ffffffffffffffffffffffffffffffffffffffff16815260200190815260200160002060008282546116dc919061281a565b925050819055506003600083815260200190815260200160002060006101000a81549073ffffffffffffffffffffffffffffffffffffffff021916905581600073ffffffffffffffffffffffffffffffffffffffff168273ffffffffffffffffffffffffffffffffffffffff167fddf252ad1be2c89b69c2b068fc378daa952ba7f163c4a11628f55a4df523b3ef60405160405180910390a4611781816000846119aa565b5050565b6117908484846111b2565b61179c84848484611a0a565b6117db576040517f08c379a00000000000000000000000000000000000000000000000000000000081526004016117d2906124bf565b60405180910390fd5b50505050565b606060405180602001604052806000815250905090565b60606000821415611840576040518060400160405280600181526020017f300000000000000000000000000000000000000000000000000000000000000081525090506119a0565b600082905060005b6000821461187257808061185b90612967565b915050600a8261186b91906127e9565b9150611848565b60008167ffffffffffffffff8111156118b4577f4e487b7100000000000000000000000000000000000000000000000000000000600052604160045260246000fd5b6040519080825280601f01601f1916602001820160405280156118e65781602001600182028036833780820191505090505b5090505b60008514611999576001826118ff919061281a565b9150600a8561190e91906129b0565b603061191a9190612793565b60f81b818381518110611956577f4e487b7100000000000000000000000000000000000000000000000000000000600052603260045260246000fd5b60200101907effffffffffffffffffffffffffffffffffffffffffffffffffffffffffffff1916908160001a905350600a8561199291906127e9565b94506118ea565b8093505050505b919050565b505050565b505050565b6119b98383611ba1565b6119c66000848484611a0a565b611a05576040517f08c379a00000000000000000000000000000000000000000000000000000000081526004016119fc906124bf565b60405180910390fd5b505050565b6000611a2b8473ffffffffffffffffffffffffffffffffffffffff16611d7b565b15611b94578373ffffffffffffffffffffffffffffffffffffffff1663150b7a02611a54611013565b8786866040518563ffffffff1660e01b8152600401611a769493929190612416565b602060405180830381600087803b158015611a9057600080fd5b505af1925050508015611ac157506040513d601f19601f82011682018060405250810190611abe919061203f565b60015b611b44573d8060008114611af1576040519150601f19603f3d011682016040523d82523d6000602084013e611af6565b606091505b50600081511415611b3c576040517f08c379a0000000000000000000000000000000000000000000000000000000008152600401611b33906124bf565b60405180910390fd5b805181602001fd5b63150b7a0260e01b7bffffffffffffffffffffffffffffffffffffffffffffffffffffffff1916817bffffffffffffffffffffffffffffffffffffffffffffffffffffffff191614915050611b99565b600190505b949350505050565b600073ffffffffffffffffffffffffffffffffffffffff168273ffffffffffffffffffffffffffffffffffffffff161415611c11576040517f08c379a0000000000000000000000000000000000000000000000000000000008152600401611c089061261f565b60405180910390fd5b611c1a81610fa7565b15611c5a576040517f08c379a0000000000000000000000000000000000000000000000000000000008152600401611c519061251f565b60405180910390fd5b611c66600083836119a5565b6001600460008473ffffffffffffffffffffffffffffffffffffffff1673ffffffffffffffffffffffffffffffffffffffff1681526020019081526020016000206000828254611cb69190612793565b92505081905550816003600083815260200190815260200160002060006101000a81548173ffffffffffffffffffffffffffffffffffffffff021916908373ffffffffffffffffffffffffffffffffffffffff160217905550808273ffffffffffffffffffffffffffffffffffffffff16600073ffffffffffffffffffffffffffffffffffffffff167fddf252ad1be2c89b69c2b068fc378daa952ba7f163c4a11628f55a4df523b3ef60405160405180910390a4611d77600083836119aa565b5050565b6000808273ffffffffffffffffffffffffffffffffffffffff163b119050919050565b6000611db1611dac8461271f565b6126fa565b905082815260208101848484011115611dc957600080fd5b611dd48482856128c2565b509392505050565b600081359050611deb81612f58565b92915050565b600081359050611e0081612f6f565b92915050565b600081359050611e1581612f86565b92915050565b600081519050611e2a81612f86565b92915050565b600082601f830112611e4157600080fd5b8135611e51848260208601611d9e565b91505092915050565b600081359050611e6981612f9d565b92915050565b600060208284031215611e8157600080fd5b6000611e8f84828501611ddc565b91505092915050565b60008060408385031215611eab57600080fd5b6000611eb985828601611ddc565b9250506020611eca85828601611ddc565b9150509250929050565b600080600060608486031215611ee957600080fd5b6000611ef786828701611ddc565b9350506020611f0886828701611ddc565b9250506040611f1986828701611e5a565b9150509250925092565b60008060008060808587031215611f3957600080fd5b6000611f4787828801611ddc565b9450506020611f5887828801611ddc565b9350506040611f6987828801611e5a565b925050606085013567ffffffffffffffff811115611f8657600080fd5b611f9287828801611e30565b91505092959194509250565b60008060408385031215611fb157600080fd5b6000611fbf85828601611ddc565b9250506020611fd085828601611df1565b9150509250929050565b60008060408385031215611fed57600080fd5b6000611ffb85828601611ddc565b925050602061200c85828601611e5a565b9150509250929050565b60006020828403121561202857600080fd5b600061203684828501611e06565b91505092915050565b60006020828403121561205157600080fd5b600061205f84828501611e1b565b91505092915050565b60006020828403121561207a57600080fd5b600061208884828501611e5a565b91505092915050565b61209a8161284e565b82525050565b6120a981612860565b82525050565b60006120ba82612750565b6120c48185612766565b93506120d48185602086016128d1565b6120dd81612a9d565b840191505092915050565b60006120f38261275b565b6120fd8185612777565b935061210d8185602086016128d1565b61211681612a9d565b840191505092915050565b600061212c8261275b565b6121368185612788565b93506121468185602086016128d1565b80840191505092915050565b600061215f601283612777565b915061216a82612aae565b602082019050919050565b6000612182603283612777565b915061218d82612ad7565b604082019050919050565b60006121a5602683612777565b91506121b082612b26565b604082019050919050565b60006121c8602583612777565b91506121d382612b75565b604082019050919050565b60006121eb601c83612777565b91506121f682612bc4565b602082019050919050565b600061220e602483612777565b915061221982612bed565b604082019050919050565b6000612231601983612777565b915061223c82612c3c565b602082019050919050565b6000612254602c83612777565b915061225f82612c65565b604082019050919050565b6000612277603883612777565b915061228282612cb4565b604082019050919050565b600061229a602a83612777565b91506122a582612d03565b604082019050919050565b60006122bd602983612777565b91506122c882612d52565b604082019050919050565b60006122e0601883612777565b91506122eb82612da1565b602082019050919050565b6000612303602083612777565b915061230e82612dca565b602082019050919050565b6000612326602c83612777565b915061233182612df3565b604082019050919050565b6000612349602083612777565b915061235482612e42565b602082019050919050565b600061236c602f83612777565b915061237782612e6b565b604082019050919050565b600061238f602183612777565b915061239a82612eba565b604082019050919050565b60006123b2603183612777565b91506123bd82612f09565b604082019050919050565b6123d1816128b8565b82525050565b60006123e38285612121565b91506123ef8284612121565b91508190509392505050565b60006020820190506124106000830184612091565b92915050565b600060808201905061242b6000830187612091565b6124386020830186612091565b61244560408301856123c8565b818103606083015261245781846120af565b905095945050505050565b600060208201905061247760008301846120a0565b92915050565b6000602082019050818103600083015261249781846120e8565b905092915050565b600060208201905081810360008301526124b881612152565b9050919050565b600060208201905081810360008301526124d881612175565b9050919050565b600060208201905081810360008301526124f881612198565b9050919050565b60006020820190508181036000830152612518816121bb565b9050919050565b60006020820190508181036000830152612538816121de565b9050919050565b6000602082019050818103600083015261255881612201565b9050919050565b6000602082019050818103600083015261257881612224565b9050919050565b6000602082019050818103600083015261259881612247565b9050919050565b600060208201905081810360008301526125b88161226a565b9050919050565b600060208201905081810360008301526125d88161228d565b9050919050565b600060208201905081810360008301526125f8816122b0565b9050919050565b60006020820190508181036000830152612618816122d3565b9050919050565b60006020820190508181036000830152612638816122f6565b9050919050565b6000602082019050818103600083015261265881612319565b9050919050565b600060208201905081810360008301526126788161233c565b9050919050565b600060208201905081810360008301526126988161235f565b9050919050565b600060208201905081810360008301526126b881612382565b9050919050565b600060208201905081810360008301526126d8816123a5565b9050919050565b60006020820190506126f460008301846123c8565b92915050565b6000612704612715565b90506127108282612936565b919050565b6000604051905090565b600067ffffffffffffffff82111561273a57612739612a6e565b5b61274382612a9d565b9050602081019050919050565b600081519050919050565b600081519050919050565b600082825260208201905092915050565b600082825260208201905092915050565b600081905092915050565b600061279e826128b8565b91506127a9836128b8565b9250827fffffffffffffffffffffffffffffffffffffffffffffffffffffffffffffffff038211156127de576127dd6129e1565b5b828201905092915050565b60006127f4826128b8565b91506127ff836128b8565b92508261280f5761280e612a10565b5b828204905092915050565b6000612825826128b8565b9150612830836128b8565b925082821015612843576128426129e1565b5b828203905092915050565b600061285982612898565b9050919050565b60008115159050919050565b60007fffffffff0000000000000000000000000000000000000000000000000000000082169050919050565b600073ffffffffffffffffffffffffffffffffffffffff82169050919050565b6000819050919050565b82818337600083830152505050565b60005b838110156128ef5780820151818401526020810190506128d4565b838111156128fe576000848401525b50505050565b6000600282049050600182168061291c57607f821691505b602082108114156129305761292f612a3f565b5b50919050565b61293f82612a9d565b810181811067ffffffffffffffff8211171561295e5761295d612a6e565b5b80604052505050565b6000612972826128b8565b91507fffffffffffffffffffffffffffffffffffffffffffffffffffffffffffffffff8214156129a5576129a46129e1565b5b600182019050919050565b60006129bb826128b8565b91506129c6836128b8565b9250826129d6576129d5612a10565b5b828206905092915050565b7f4e487b7100000000000000000000000000000000000000000000000000000000600052601160045260246000fd5b7f4e487b7100000000000000000000000000000000000000000000000000000000600052601260045260246000fd5b7f4e487b7100000000000000000000000000000000000000000000000000000000600052602260045260246000fd5b7f4e487b7100000000000000000000000000000000000000000000000000000000600052604160045260246000fd5b6000601f19601f8301169050919050565b7f7472616e736665722069732062616e6e65640000000000000000000000000000600082015250565b7f4552433732313a207472616e7366657220746f206e6f6e20455243373231526560008201527f63656976657220696d706c656d656e7465720000000000000000000000000000602082015250565b7f4f776e61626c653a206e6577206f776e657220697320746865207a65726f206160008201527f6464726573730000000000000000000000000000000000000000000000000000602082015250565b7f4552433732313a207472616e736665722066726f6d20696e636f72726563742060008201527f6f776e6572000000000000000000000000000000000000000000000000000000602082015250565b7f4552433732313a20746f6b656e20616c7265616479206d696e74656400000000600082015250565b7f4552433732313a207472616e7366657220746f20746865207a65726f2061646460008201527f7265737300000000000000000000000000000000000000000000000000000000602082015250565b7f4552433732313a20617070726f766520746f2063616c6c657200000000000000600082015250565b7f4552433732313a206f70657261746f7220717565727920666f72206e6f6e657860008201527f697374656e7420746f6b656e0000000000000000000000000000000000000000602082015250565b7f4552433732313a20617070726f76652063616c6c6572206973206e6f74206f7760008201527f6e6572206e6f7220617070726f76656420666f7220616c6c0000000000000000602082015250565b7f4552433732313a2062616c616e636520717565727920666f7220746865207a6560008201527f726f206164647265737300000000000000000000000000000000000000000000602082015250565b7f4552433732313a206f776e657220717565727920666f72206e6f6e657869737460008201527f656e7420746f6b656e0000000000000000000000000000000000000000000000602082015250565b7f796f7520616c7265616479206861766520706965636520410000000000000000600082015250565b7f4552433732313a206d696e7420746f20746865207a65726f2061646472657373600082015250565b7f4552433732313a20617070726f76656420717565727920666f72206e6f6e657860008201527f697374656e7420746f6b656e0000000000000000000000000000000000000000602082015250565b7f4f776e61626c653a2063616c6c6572206973206e6f7420746865206f776e6572600082015250565b7f4552433732314d657461646174613a2055524920717565727920666f72206e6f60008201527f6e6578697374656e7420746f6b656e0000000000000000000000000000000000602082015250565b7f4552433732313a20617070726f76616c20746f2063757272656e74206f776e6560008201527f7200000000000000000000000000000000000000000000000000000000000000602082015250565b7f4552433732313a207472616e736665722063616c6c6572206973206e6f74206f60008201527f776e6572206e6f7220617070726f766564000000000000000000000000000000602082015250565b612f618161284e565b8114612f6c57600080fd5b50565b612f7881612860565b8114612f8357600080fd5b50565b612f8f8161286c565b8114612f9a57600080fd5b50565b612fa6816128b8565b8114612fb157600080fd5b5056fea26469706673582212205aa95c2446193cc179c1cbe83b433488a089ec665cc369fd100a1e150d29136c64736f6c63430008010033608060405260006007553480156200001657600080fd5b506040518060400160405280600681526020017f51696c696e4200000000000000000000000000000000000000000000000000008152506040518060400160405280600181526020017f4200000000000000000000000000000000000000000000000000000000000000815250620000a362000097620000dd60201b60201c565b620000e560201b60201c565b8160019080519060200190620000bb929190620001a9565b508060029080519060200190620000d4929190620001a9565b505050620002be565b600033905090565b60008060009054906101000a900473ffffffffffffffffffffffffffffffffffffffff169050816000806101000a81548173ffffffffffffffffffffffffffffffffffffffff021916908373ffffffffffffffffffffffffffffffffffffffff1602179055508173ffffffffffffffffffffffffffffffffffffffff168173ffffffffffffffffffffffffffffffffffffffff167f8be0079c531659141344cd1fd0a4f28419497f9722a3daafe3b4186f6b6457e060405160405180910390a35050565b828054620001b79062000259565b90600052602060002090601f016020900481019282620001db576000855562000227565b82601f10620001f657805160ff191683800117855562000227565b8280016001018555821562000227579182015b828111156200022657825182559160200191906001019062000209565b5b5090506200023691906200023a565b5090565b5b80821115620002555760008160009055506001016200023b565b5090565b600060028204905060018216806200027257607f821691505b602082108114156200028957620002886200028f565b5b50919050565b7f4e487b7100000000000000000000000000000000000000000000000000000000600052602260045260246000fd5b612fea80620002ce6000396000f3fe608060405234801561001057600080fd5b50600436106101425760003560e01c8063715018a6116100b857806395d89b411161007c57806395d89b4114610361578063a22cb4651461037f578063b88d4fde1461039b578063c87b56dd146103b7578063e985e9c5146103e7578063f2fde38b1461041757610142565b8063715018a6146102e157806371a0c9d6146102eb5780638da5cb5b1461031b5780638f825dc7146103395780639097b0111461035757610142565b806323b872dd1161010a57806323b872dd146101fd5780633342a7ab14610219578063415a1ce51461024957806342842e0e146102655780636352211e1461028157806370a08231146102b157610142565b806301ffc9a71461014757806306fdde0314610177578063081812fc14610195578063095ea7b3146101c55780632071033a146101e1575b600080fd5b610161600480360381019061015c9190612016565b610433565b60405161016e9190612462565b60405180910390f35b61017f610515565b60405161018c919061247d565b60405180910390f35b6101af60048036038101906101aa9190612068565b6105a7565b6040516101bc91906123fb565b60405180910390f35b6101df60048036038101906101da9190611fda565b61062c565b005b6101fb60048036038101906101f69190611ed4565b610744565b005b61021760048036038101906102129190611ed4565b61080c565b005b610233600480360381019061022e9190611e6f565b61086c565b60405161024091906126df565b60405180910390f35b610263600480360381019061025e9190612068565b6108b5565b005b61027f600480360381019061027a9190611ed4565b6108c1565b005b61029b60048036038101906102969190612068565b6108e1565b6040516102a891906123fb565b60405180910390f35b6102cb60048036038101906102c69190611e6f565b610993565b6040516102d891906126df565b60405180910390f35b6102e9610a4b565b005b61030560048036038101906103009190611e6f565b610ad3565b60405161031291906126df565b60405180910390f35b610323610aeb565b60405161033091906123fb565b60405180910390f35b610341610b14565b60405161034e91906126df565b60405180910390f35b61035f610b1a565b005b610369610c00565b604051610376919061247d565b60405180910390f35b61039960048036038101906103949190611f9e565b610c92565b005b6103b560048036038101906103b09190611f23565b610ca8565b005b6103d160048036038101906103cc9190612068565b610d0a565b6040516103de919061247d565b60405180910390f35b61040160048036038101906103fc9190611e98565b610db1565b60405161040e9190612462565b60405180910390f35b610431600480360381019061042c9190611e6f565b610e45565b005b60007f80ac58cd000000000000000000000000000000000000000000000000000000007bffffffffffffffffffffffffffffffffffffffffffffffffffffffff1916827bffffffffffffffffffffffffffffffffffffffffffffffffffffffff191614806104fe57507f5b5e139f000000000000000000000000000000000000000000000000000000007bffffffffffffffffffffffffffffffffffffffffffffffffffffffff1916827bffffffffffffffffffffffffffffffffffffffffffffffffffffffff1916145b8061050e575061050d82610f3d565b5b9050919050565b60606001805461052490612904565b80601f016020809104026020016040519081016040528092919081815260200182805461055090612904565b801561059d5780601f106105725761010080835404028352916020019161059d565b820191906000526020600020905b81548152906001019060200180831161058057829003601f168201915b5050505050905090565b60006105b282610fa7565b6105f1576040517f08c379a00000000000000000000000000000000000000000000000000000000081526004016105e89061261f565b60405180910390fd5b6005600083815260200190815260200160002060009054906101000a900473ffffffffffffffffffffffffffffffffffffffff169050919050565b6000610637826108e1565b90508073ffffffffffffffffffffffffffffffffffffffff168373ffffffffffffffffffffffffffffffffffffffff1614156106a8576040517f08c379a000000000000000000000000000000000000000000000000000000000815260040161069f9061269f565b60405180910390fd5b8073ffffffffffffffffffffffffffffffffffffffff166106c7611013565b73ffffffffffffffffffffffffffffffffffffffff1614806106f657506106f5816106f0611013565b610db1565b5b610735576040517f08c379a000000000000000000000000000000000000000000000000000000000815260040161072c9061259f565b60405180910390fd5b61073f838361101b565b505050565b61074c610aeb565b73ffffffffffffffffffffffffffffffffffffffff168273ffffffffffffffffffffffffffffffffffffffff16146107b9576040517f08c379a00000000000000000000000000000000000000000000000000000000081526004016107b09061249f565b60405180910390fd5b6107c48383836110d4565b600860008473ffffffffffffffffffffffffffffffffffffffff1673ffffffffffffffffffffffffffffffffffffffff16815260200190815260200160002060009055505050565b61081d610817611013565b8261133b565b61085c576040517f08c379a0000000000000000000000000000000000000000000000000000000008152600401610853906126bf565b60405180910390fd5b6108678383836110d4565b505050565b6000600860008373ffffffffffffffffffffffffffffffffffffffff1673ffffffffffffffffffffffffffffffffffffffff168152602001908152602001600020549050919050565b6108be81611419565b50565b6108dc83838360405180602001604052806000815250610ca8565b505050565b6000806003600084815260200190815260200160002060009054906101000a900473ffffffffffffffffffffffffffffffffffffffff169050600073ffffffffffffffffffffffffffffffffffffffff168173ffffffffffffffffffffffffffffffffffffffff16141561098a576040517f08c379a0000000000000000000000000000000000000000000000000000000008152600401610981906125df565b60405180910390fd5b80915050919050565b60008073ffffffffffffffffffffffffffffffffffffffff168273ffffffffffffffffffffffffffffffffffffffff161415610a04576040517f08c379a00000000000000000000000000000000000000000000000000000000081526004016109fb906125bf565b60405180910390fd5b600460008373ffffffffffffffffffffffffffffffffffffffff1673ffffffffffffffffffffffffffffffffffffffff168152602001908152602001600020549050919050565b610a53611013565b73ffffffffffffffffffffffffffffffffffffffff16610a71610aeb565b73ffffffffffffffffffffffffffffffffffffffff1614610ac7576040517f08c379a0000000000000000000000000000000000000000000000000000000008152600401610abe9061263f565b60405180910390fd5b610ad16000611536565b565b60086020528060005260406000206000915090505481565b60008060009054906101000a900473ffffffffffffffffffffffffffffffffffffffff16905090565b60075481565b6001600860003373ffffffffffffffffffffffffffffffffffffffff1673ffffffffffffffffffffffffffffffffffffffff1681526020019081526020016000205410610b9c576040517f08c379a0000000000000000000000000000000000000000000000000000000008152600401610b939061267f565b60405180910390fd5b60006001600754610bad9190612793565b9050610bb933826115fa565b80600860003373ffffffffffffffffffffffffffffffffffffffff1673ffffffffffffffffffffffffffffffffffffffff1681526020019081526020016000208190555050565b606060028054610c0f90612904565b80601f0160208091040260200160405190810160405280929190818152602001828054610c3b90612904565b8015610c885780601f10610c5d57610100808354040283529160200191610c88565b820191906000526020600020905b815481529060010190602001808311610c6b57829003601f168201915b5050505050905090565b610ca4610c9d611013565b8383611618565b5050565b610cb9610cb3611013565b8361133b565b610cf8576040517f08c379a0000000000000000000000000000000000000000000000000000000008152600401610cef906126bf565b60405180910390fd5b610d0484848484611785565b50505050565b6060610d1582610fa7565b610d54576040517f08c379a0000000000000000000000000000000000000000000000000000000008152600401610d4b9061265f565b60405180910390fd5b6000610d5e6117e1565b90506000815111610d7e5760405180602001604052806000815250610da9565b80610d88846117f8565b604051602001610d999291906123d7565b6040516020818303038152906040525b915050919050565b6000600660008473ffffffffffffffffffffffffffffffffffffffff1673ffffffffffffffffffffffffffffffffffffffff16815260200190815260200160002060008373ffffffffffffffffffffffffffffffffffffffff1673ffffffffffffffffffffffffffffffffffffffff16815260200190815260200160002060009054906101000a900460ff16905092915050565b610e4d611013565b73ffffffffffffffffffffffffffffffffffffffff16610e6b610aeb565b73ffffffffffffffffffffffffffffffffffffffff1614610ec1576040517f08c379a0000000000000000000000000000000000000000000000000000000008152600401610eb89061263f565b60405180910390fd5b600073ffffffffffffffffffffffffffffffffffffffff168173ffffffffffffffffffffffffffffffffffffffff161415610f31576040517f08c379a0000000000000000000000000000000000000000000000000000000008152600401610f28906124df565b60405180910390fd5b610f3a81611536565b50565b60007f01ffc9a7000000000000000000000000000000000000000000000000000000007bffffffffffffffffffffffffffffffffffffffffffffffffffffffff1916827bffffffffffffffffffffffffffffffffffffffffffffffffffffffff1916149050919050565b60008073ffffffffffffffffffffffffffffffffffffffff166003600084815260200190815260200160002060009054906101000a900473ffffffffffffffffffffffffffffffffffffffff1673ffffffffffffffffffffffffffffffffffffffff1614159050919050565b600033905090565b816005600083815260200190815260200160002060006101000a81548173ffffffffffffffffffffffffffffffffffffffff021916908373ffffffffffffffffffffffffffffffffffffffff160217905550808273ffffffffffffffffffffffffffffffffffffffff1661108e836108e1565b73ffffffffffffffffffffffffffffffffffffffff167f8c5be1e5ebec7d5bd14f71427d1e84f3dd0314c0f7b2291e5b200ac8c7c3b92560405160405180910390a45050565b8273ffffffffffffffffffffffffffffffffffffffff166110f4826108e1565b73ffffffffffffffffffffffffffffffffffffffff161461114a576040517f08c379a0000000000000000000000000000000000000000000000000000000008152600401611141906124ff565b60405180910390fd5b600073ffffffffffffffffffffffffffffffffffffffff168273ffffffffffffffffffffffffffffffffffffffff1614156111ba576040517f08c379a00000000000000000000000000000000000000000000000000000000081526004016111b19061253f565b60405180910390fd5b6111c58383836119a5565b6111d060008261101b565b6001600460008573ffffffffffffffffffffffffffffffffffffffff1673ffffffffffffffffffffffffffffffffffffffff1681526020019081526020016000206000828254611220919061281a565b925050819055506001600460008473ffffffffffffffffffffffffffffffffffffffff1673ffffffffffffffffffffffffffffffffffffffff16815260200190815260200160002060008282546112779190612793565b92505081905550816003600083815260200190815260200160002060006101000a81548173ffffffffffffffffffffffffffffffffffffffff021916908373ffffffffffffffffffffffffffffffffffffffff160217905550808273ffffffffffffffffffffffffffffffffffffffff168473ffffffffffffffffffffffffffffffffffffffff167fddf252ad1be2c89b69c2b068fc378daa952ba7f163c4a11628f55a4df523b3ef60405160405180910390a46113368383836119aa565b505050565b600061134682610fa7565b611385576040517f08c379a000000000000000000000000000000000000000000000000000000000815260040161137c9061257f565b60405180910390fd5b6000611390836108e1565b90508073ffffffffffffffffffffffffffffffffffffffff168473ffffffffffffffffffffffffffffffffffffffff1614806113ff57508373ffffffffffffffffffffffffffffffffffffffff166113e7846105a7565b73ffffffffffffffffffffffffffffffffffffffff16145b80611410575061140f8185610db1565b5b91505092915050565b6000611424826108e1565b9050611432816000846119a5565b61143d60008361101b565b6001600460008373ffffffffffffffffffffffffffffffffffffffff1673ffffffffffffffffffffffffffffffffffffffff168152602001908152602001600020600082825461148d919061281a565b925050819055506003600083815260200190815260200160002060006101000a81549073ffffffffffffffffffffffffffffffffffffffff021916905581600073ffffffffffffffffffffffffffffffffffffffff168273ffffffffffffffffffffffffffffffffffffffff167fddf252ad1be2c89b69c2b068fc378daa952ba7f163c4a11628f55a4df523b3ef60405160405180910390a4611532816000846119aa565b5050565b60008060009054906101000a900473ffffffffffffffffffffffffffffffffffffffff169050816000806101000a81548173ffffffffffffffffffffffffffffffffffffffff021916908373ffffffffffffffffffffffffffffffffffffffff1602179055508173ffffffffffffffffffffffffffffffffffffffff168173ffffffffffffffffffffffffffffffffffffffff167f8be0079c531659141344cd1fd0a4f28419497f9722a3daafe3b4186f6b6457e060405160405180910390a35050565b6116148282604051806020016040528060008152506119af565b5050565b8173ffffffffffffffffffffffffffffffffffffffff168373ffffffffffffffffffffffffffffffffffffffff161415611687576040517f08c379a000000000000000000000000000000000000000000000000000000000815260040161167e9061255f565b60405180910390fd5b80600660008573ffffffffffffffffffffffffffffffffffffffff1673ffffffffffffffffffffffffffffffffffffffff16815260200190815260200160002060008473ffffffffffffffffffffffffffffffffffffffff1673ffffffffffffffffffffffffffffffffffffffff16815260200190815260200160002060006101000a81548160ff0219169083151502179055508173ffffffffffffffffffffffffffffffffffffffff168373ffffffffffffffffffffffffffffffffffffffff167f17307eab39ab6107e8899845ad3d59bd9653f200f220920489ca2b5937696c31836040516117789190612462565b60405180910390a3505050565b6117908484846110d4565b61179c84848484611a0a565b6117db576040517f08c379a00000000000000000000000000000000000000000000000000000000081526004016117d2906124bf565b60405180910390fd5b50505050565b606060405180602001604052806000815250905090565b60606000821415611840576040518060400160405280600181526020017f300000000000000000000000000000000000000000000000000000000000000081525090506119a0565b600082905060005b6000821461187257808061185b90612967565b915050600a8261186b91906127e9565b9150611848565b60008167ffffffffffffffff8111156118b4577f4e487b7100000000000000000000000000000000000000000000000000000000600052604160045260246000fd5b6040519080825280601f01601f1916602001820160405280156118e65781602001600182028036833780820191505090505b5090505b60008514611999576001826118ff919061281a565b9150600a8561190e91906129b0565b603061191a9190612793565b60f81b818381518110611956577f4e487b7100000000000000000000000000000000000000000000000000000000600052603260045260246000fd5b60200101907effffffffffffffffffffffffffffffffffffffffffffffffffffffffffffff1916908160001a905350600a8561199291906127e9565b94506118ea565b8093505050505b919050565b505050565b505050565b6119b98383611ba1565b6119c66000848484611a0a565b611a05576040517f08c379a00000000000000000000000000000000000000000000000000000000081526004016119fc906124bf565b60405180910390fd5b505050565b6000611a2b8473ffffffffffffffffffffffffffffffffffffffff16611d7b565b15611b94578373ffffffffffffffffffffffffffffffffffffffff1663150b7a02611a54611013565b8786866040518563ffffffff1660e01b8152600401611a769493929190612416565b602060405180830381600087803b158015611a9057600080fd5b505af1925050508015611ac157506040513d601f19601f82011682018060405250810190611abe919061203f565b60015b611b44573d8060008114611af1576040519150601f19603f3d011682016040523d82523d6000602084013e611af6565b606091505b50600081511415611b3c576040517f08c379a0000000000000000000000000000000000000000000000000000000008152600401611b33906124bf565b60405180910390fd5b805181602001fd5b63150b7a0260e01b7bffffffffffffffffffffffffffffffffffffffffffffffffffffffff1916817bffffffffffffffffffffffffffffffffffffffffffffffffffffffff191614915050611b99565b600190505b949350505050565b600073ffffffffffffffffffffffffffffffffffffffff168273ffffffffffffffffffffffffffffffffffffffff161415611c11576040517f08c379a0000000000000000000000000000000000000000000000000000000008152600401611c08906125ff565b60405180910390fd5b611c1a81610fa7565b15611c5a576040517f08c379a0000000000000000000000000000000000000000000000000000000008152600401611c519061251f565b60405180910390fd5b611c66600083836119a5565b6001600460008473ffffffffffffffffffffffffffffffffffffffff1673ffffffffffffffffffffffffffffffffffffffff1681526020019081526020016000206000828254611cb69190612793565b92505081905550816003600083815260200190815260200160002060006101000a81548173ffffffffffffffffffffffffffffffffffffffff021916908373ffffffffffffffffffffffffffffffffffffffff160217905550808273ffffffffffffffffffffffffffffffffffffffff16600073ffffffffffffffffffffffffffffffffffffffff167fddf252ad1be2c89b69c2b068fc378daa952ba7f163c4a11628f55a4df523b3ef60405160405180910390a4611d77600083836119aa565b5050565b6000808273ffffffffffffffffffffffffffffffffffffffff163b119050919050565b6000611db1611dac8461271f565b6126fa565b905082815260208101848484011115611dc957600080fd5b611dd48482856128c2565b509392505050565b600081359050611deb81612f58565b92915050565b600081359050611e0081612f6f565b92915050565b600081359050611e1581612f86565b92915050565b600081519050611e2a81612f86565b92915050565b600082601f830112611e4157600080fd5b8135611e51848260208601611d9e565b91505092915050565b600081359050611e6981612f9d565b92915050565b600060208284031215611e8157600080fd5b6000611e8f84828501611ddc565b91505092915050565b60008060408385031215611eab57600080fd5b6000611eb985828601611ddc565b9250506020611eca85828601611ddc565b9150509250929050565b600080600060608486031215611ee957600080fd5b6000611ef786828701611ddc565b9350506020611f0886828701611ddc565b9250506040611f1986828701611e5a565b9150509250925092565b60008060008060808587031215611f3957600080fd5b6000611f4787828801611ddc565b9450506020611f5887828801611ddc565b9350506040611f6987828801611e5a565b925050606085013567ffffffffffffffff811115611f8657600080fd5b611f9287828801611e30565b91505092959194509250565b60008060408385031215611fb157600080fd5b6000611fbf85828601611ddc565b9250506020611fd085828601611df1565b9150509250929050565b60008060408385031215611fed57600080fd5b6000611ffb85828601611ddc565b925050602061200c85828601611e5a565b9150509250929050565b60006020828403121561202857600080fd5b600061203684828501611e06565b91505092915050565b60006020828403121561205157600080fd5b600061205f84828501611e1b565b91505092915050565b60006020828403121561207a57600080fd5b600061208884828501611e5a565b91505092915050565b61209a8161284e565b82525050565b6120a981612860565b82525050565b60006120ba82612750565b6120c48185612766565b93506120d48185602086016128d1565b6120dd81612a9d565b840191505092915050565b60006120f38261275b565b6120fd8185612777565b935061210d8185602086016128d1565b61211681612a9d565b840191505092915050565b600061212c8261275b565b6121368185612788565b93506121468185602086016128d1565b80840191505092915050565b600061215f601283612777565b915061216a82612aae565b602082019050919050565b6000612182603283612777565b915061218d82612ad7565b604082019050919050565b60006121a5602683612777565b91506121b082612b26565b604082019050919050565b60006121c8602583612777565b91506121d382612b75565b604082019050919050565b60006121eb601c83612777565b91506121f682612bc4565b602082019050919050565b600061220e602483612777565b915061221982612bed565b604082019050919050565b6000612231601983612777565b915061223c82612c3c565b602082019050919050565b6000612254602c83612777565b915061225f82612c65565b604082019050919050565b6000612277603883612777565b915061228282612cb4565b604082019050919050565b600061229a602a83612777565b91506122a582612d03565b604082019050919050565b60006122bd602983612777565b91506122c882612d52565b604082019050919050565b60006122e0602083612777565b91506122eb82612da1565b602082019050919050565b6000612303602c83612777565b915061230e82612dca565b604082019050919050565b6000612326602083612777565b915061233182612e19565b602082019050919050565b6000612349602f83612777565b915061235482612e42565b604082019050919050565b600061236c601883612777565b915061237782612e91565b602082019050919050565b600061238f602183612777565b915061239a82612eba565b604082019050919050565b60006123b2603183612777565b91506123bd82612f09565b604082019050919050565b6123d1816128b8565b82525050565b60006123e38285612121565b91506123ef8284612121565b91508190509392505050565b60006020820190506124106000830184612091565b92915050565b600060808201905061242b6000830187612091565b6124386020830186612091565b61244560408301856123c8565b818103606083015261245781846120af565b905095945050505050565b600060208201905061247760008301846120a0565b92915050565b6000602082019050818103600083015261249781846120e8565b905092915050565b600060208201905081810360008301526124b881612152565b9050919050565b600060208201905081810360008301526124d881612175565b9050919050565b600060208201905081810360008301526124f881612198565b9050919050565b60006020820190508181036000830152612518816121bb565b9050919050565b60006020820190508181036000830152612538816121de565b9050919050565b6000602082019050818103600083015261255881612201565b9050919050565b6000602082019050818103600083015261257881612224565b9050919050565b6000602082019050818103600083015261259881612247565b9050919050565b600060208201905081810360008301526125b88161226a565b9050919050565b600060208201905081810360008301526125d88161228d565b9050919050565b600060208201905081810360008301526125f8816122b0565b9050919050565b60006020820190508181036000830152612618816122d3565b9050919050565b60006020820190508181036000830152612638816122f6565b9050919050565b6000602082019050818103600083015261265881612319565b9050919050565b600060208201905081810360008301526126788161233c565b9050919050565b600060208201905081810360008301526126988161235f565b9050919050565b600060208201905081810360008301526126b881612382565b9050919050565b600060208201905081810360008301526126d8816123a5565b9050919050565b60006020820190506126f460008301846123c8565b92915050565b6000612704612715565b90506127108282612936565b919050565b6000604051905090565b600067ffffffffffffffff82111561273a57612739612a6e565b5b61274382612a9d565b9050602081019050919050565b600081519050919050565b600081519050919050565b600082825260208201905092915050565b600082825260208201905092915050565b600081905092915050565b600061279e826128b8565b91506127a9836128b8565b9250827fffffffffffffffffffffffffffffffffffffffffffffffffffffffffffffffff038211156127de576127dd6129e1565b5b828201905092915050565b60006127f4826128b8565b91506127ff836128b8565b92508261280f5761280e612a10565b5b828204905092915050565b6000612825826128b8565b9150612830836128b8565b925082821015612843576128426129e1565b5b828203905092915050565b600061285982612898565b9050919050565b60008115159050919050565b60007fffffffff0000000000000000000000000000000000000000000000000000000082169050919050565b600073ffffffffffffffffffffffffffffffffffffffff82169050919050565b6000819050919050565b82818337600083830152505050565b60005b838110156128ef5780820151818401526020810190506128d4565b838111156128fe576000848401525b50505050565b6000600282049050600182168061291c57607f821691505b602082108114156129305761292f612a3f565b5b50919050565b61293f82612a9d565b810181811067ffffffffffffffff8211171561295e5761295d612a6e565b5b80604052505050565b6000612972826128b8565b91507fffffffffffffffffffffffffffffffffffffffffffffffffffffffffffffffff8214156129a5576129a46129e1565b5b600182019050919050565b60006129bb826128b8565b91506129c6836128b8565b9250826129d6576129d5612a10565b5b828206905092915050565b7f4e487b7100000000000000000000000000000000000000000000000000000000600052601160045260246000fd5b7f4e487b7100000000000000000000000000000000000000000000000000000000600052601260045260246000fd5b7f4e487b7100000000000000000000000000000000000000000000000000000000600052602260045260246000fd5b7f4e487b7100000000000000000000000000000000000000000000000000000000600052604160045260246000fd5b6000601f19601f8301169050919050565b7f7472616e736665722069732062616e6e65640000000000000000000000000000600082015250565b7f4552433732313a207472616e7366657220746f206e6f6e20455243373231526560008201527f63656976657220696d706c656d656e7465720000000000000000000000000000602082015250565b7f4f776e61626c653a206e6577206f776e657220697320746865207a65726f206160008201527f6464726573730000000000000000000000000000000000000000000000000000602082015250565b7f4552433732313a207472616e736665722066726f6d20696e636f72726563742060008201527f6f776e6572000000000000000000000000000000000000000000000000000000602082015250565b7f4552433732313a20746f6b656e20616c7265616479206d696e74656400000000600082015250565b7f4552433732313a207472616e7366657220746f20746865207a65726f2061646460008201527f7265737300000000000000000000000000000000000000000000000000000000602082015250565b7f4552433732313a20617070726f766520746f2063616c6c657200000000000000600082015250565b7f4552433732313a206f70657261746f7220717565727920666f72206e6f6e657860008201527f697374656e7420746f6b656e0000000000000000000000000000000000000000602082015250565b7f4552433732313a20617070726f76652063616c6c6572206973206e6f74206f7760008201527f6e6572206e6f7220617070726f76656420666f7220616c6c0000000000000000602082015250565b7f4552433732313a2062616c616e636520717565727920666f7220746865207a6560008201527f726f206164647265737300000000000000000000000000000000000000000000602082015250565b7f4552433732313a206f776e657220717565727920666f72206e6f6e657869737460008201527f656e7420746f6b656e0000000000000000000000000000000000000000000000602082015250565b7f4552433732313a206d696e7420746f20746865207a65726f2061646472657373600082015250565b7f4552433732313a20617070726f76656420717565727920666f72206e6f6e657860008201527f697374656e7420746f6b656e0000000000000000000000000000000000000000602082015250565b7f4f776e61626c653a2063616c6c6572206973206e6f7420746865206f776e6572600082015250565b7f4552433732314d657461646174613a2055524920717565727920666f72206e6f60008201527f6e6578697374656e7420746f6b656e0000000000000000000000000000000000602082015250565b7f796f7520616c7265616479206861766520706965636520420000000000000000600082015250565b7f4552433732313a20617070726f76616c20746f2063757272656e74206f776e6560008201527f7200000000000000000000000000000000000000000000000000000000000000602082015250565b7f4552433732313a207472616e736665722063616c6c6572206973206e6f74206f60008201527f776e6572206e6f7220617070726f766564000000000000000000000000000000602082015250565b612f618161284e565b8114612f6c57600080fd5b50565b612f7881612860565b8114612f8357600080fd5b50565b612f8f8161286c565b8114612f9a57600080fd5b50565b612fa6816128b8565b8114612fb157600080fd5b5056fea2646970667358221220cc472de6fa5d39468e6c6be25261a5a14fb00c1dfb5f05f5cdc46683687f245e64736f6c63430008010033608060405260006007553480156200001657600080fd5b506040518060400160405280600681526020017f51696c696e5800000000000000000000000000000000000000000000000000008152506040518060400160405280600181526020017f5800000000000000000000000000000000000000000000000000000000000000815250620000a362000097620000dd60201b60201c565b620000e560201b60201c565b8160019080519060200190620000bb929190620001a9565b508060029080519060200190620000d4929190620001a9565b505050620002be565b600033905090565b60008060009054906101000a900473ffffffffffffffffffffffffffffffffffffffff169050816000806101000a81548173ffffffffffffffffffffffffffffffffffffffff021916908373ffffffffffffffffffffffffffffffffffffffff1602179055508173ffffffffffffffffffffffffffffffffffffffff168173ffffffffffffffffffffffffffffffffffffffff167f8be0079c531659141344cd1fd0a4f28419497f9722a3daafe3b4186f6b6457e060405160405180910390a35050565b828054620001b79062000259565b90600052602060002090601f016020900481019282620001db576000855562000227565b82601f10620001f657805160ff191683800117855562000227565b8280016001018555821562000227579182015b828111156200022657825182559160200191906001019062000209565b5b5090506200023691906200023a565b5090565b5b80821115620002555760008160009055506001016200023b565b5090565b600060028204905060018216806200027257607f821691505b602082108114156200028957620002886200028f565b5b50919050565b7f4e487b7100000000000000000000000000000000000000000000000000000000600052602260045260246000fd5b6130cb80620002ce6000396000f3fe608060405234801561001057600080fd5b506004361061014d5760003560e01c80638da5cb5b116100c3578063d952eca51161007c578063d952eca51461039c578063e485b9ad146103cc578063e985e9c5146103d6578063ed61db2914610406578063f1adcd1614610422578063f2fde38b146104405761014d565b80638da5cb5b146102dc57806395d89b41146102fa57806397c73af614610318578063a22cb46514610334578063b88d4fde14610350578063c87b56dd1461036c5761014d565b806323b872dd1161011557806323b872dd1461020a57806342842e0e146102265780636352211e1461024257806370a0823114610272578063715018a6146102a25780638b3d3079146102ac5761014d565b806301ffc9a71461015257806306fdde0314610182578063081812fc146101a0578063095ea7b3146101d05780631e20ae3b146101ec575b600080fd5b61016c6004803603810190610167919061208b565b61045c565b60405161017991906124fa565b60405180910390f35b61018a61053e565b6040516101979190612515565b60405180910390f35b6101ba60048036038101906101b591906120dd565b6105d0565b6040516101c79190612493565b60405180910390f35b6101ea60048036038101906101e5919061204f565b610655565b005b6101f461076d565b6040516102019190612797565b60405180910390f35b610224600480360381019061021f9190611f49565b610773565b005b610240600480360381019061023b9190611f49565b6107d3565b005b61025c600480360381019061025791906120dd565b6107f3565b6040516102699190612493565b60405180910390f35b61028c60048036038101906102879190611ee4565b6108a5565b6040516102999190612797565b60405180910390f35b6102aa61095d565b005b6102c660048036038101906102c19190611ee4565b6109e5565b6040516102d39190612797565b60405180910390f35b6102e46109fd565b6040516102f19190612493565b60405180910390f35b610302610a26565b60405161030f9190612515565b60405180910390f35b610332600480360381019061032d91906120dd565b610ab8565b005b61034e60048036038101906103499190612013565b610ac4565b005b61036a60048036038101906103659190611f98565b610ada565b005b610386600480360381019061038191906120dd565b610b3c565b6040516103939190612515565b60405180910390f35b6103b660048036038101906103b19190611ee4565b610be3565b6040516103c39190612797565b60405180910390f35b6103d4610c2c565b005b6103f060048036038101906103eb9190611f0d565b610d58565b6040516103fd91906124fa565b60405180910390f35b610420600480360381019061041b9190611f49565b610dec565b005b61042a610eb4565b6040516104379190612797565b60405180910390f35b61045a60048036038101906104559190611ee4565b610eba565b005b60007f80ac58cd000000000000000000000000000000000000000000000000000000007bffffffffffffffffffffffffffffffffffffffffffffffffffffffff1916827bffffffffffffffffffffffffffffffffffffffffffffffffffffffff1916148061052757507f5b5e139f000000000000000000000000000000000000000000000000000000007bffffffffffffffffffffffffffffffffffffffffffffffffffffffff1916827bffffffffffffffffffffffffffffffffffffffffffffffffffffffff1916145b80610537575061053682610fb2565b5b9050919050565b60606001805461054d906129bc565b80601f0160208091040260200160405190810160405280929190818152602001828054610579906129bc565b80156105c65780601f1061059b576101008083540402835291602001916105c6565b820191906000526020600020905b8154815290600101906020018083116105a957829003601f168201915b5050505050905090565b60006105db8261101c565b61061a576040517f08c379a0000000000000000000000000000000000000000000000000000000008152600401610611906126d7565b60405180910390fd5b6005600083815260200190815260200160002060009054906101000a900473ffffffffffffffffffffffffffffffffffffffff169050919050565b6000610660826107f3565b90508073ffffffffffffffffffffffffffffffffffffffff168373ffffffffffffffffffffffffffffffffffffffff1614156106d1576040517f08c379a00000000000000000000000000000000000000000000000000000000081526004016106c890612757565b60405180910390fd5b8073ffffffffffffffffffffffffffffffffffffffff166106f0611088565b73ffffffffffffffffffffffffffffffffffffffff16148061071f575061071e81610719611088565b610d58565b5b61075e576040517f08c379a000000000000000000000000000000000000000000000000000000000815260040161075590612657565b60405180910390fd5b6107688383611090565b505050565b6107e681565b61078461077e611088565b82611149565b6107c3576040517f08c379a00000000000000000000000000000000000000000000000000000000081526004016107ba90612777565b60405180910390fd5b6107ce838383611227565b505050565b6107ee83838360405180602001604052806000815250610ada565b505050565b6000806003600084815260200190815260200160002060009054906101000a900473ffffffffffffffffffffffffffffffffffffffff169050600073ffffffffffffffffffffffffffffffffffffffff168173ffffffffffffffffffffffffffffffffffffffff16141561089c576040517f08c379a000000000000000000000000000000000000000000000000000000000815260040161089390612697565b60405180910390fd5b80915050919050565b60008073ffffffffffffffffffffffffffffffffffffffff168273ffffffffffffffffffffffffffffffffffffffff161415610916576040517f08c379a000000000000000000000000000000000000000000000000000000000815260040161090d90612677565b60405180910390fd5b600460008373ffffffffffffffffffffffffffffffffffffffff1673ffffffffffffffffffffffffffffffffffffffff168152602001908152602001600020549050919050565b610965611088565b73ffffffffffffffffffffffffffffffffffffffff166109836109fd565b73ffffffffffffffffffffffffffffffffffffffff16146109d9576040517f08c379a00000000000000000000000000000000000000000000000000000000081526004016109d0906126f7565b60405180910390fd5b6109e3600061148e565b565b60086020528060005260406000206000915090505481565b60008060009054906101000a900473ffffffffffffffffffffffffffffffffffffffff16905090565b606060028054610a35906129bc565b80601f0160208091040260200160405190810160405280929190818152602001828054610a61906129bc565b8015610aae5780601f10610a8357610100808354040283529160200191610aae565b820191906000526020600020905b815481529060010190602001808311610a9157829003601f168201915b5050505050905090565b610ac181611552565b50565b610ad6610acf611088565b838361166f565b5050565b610aeb610ae5611088565b83611149565b610b2a576040517f08c379a0000000000000000000000000000000000000000000000000000000008152600401610b2190612777565b60405180910390fd5b610b36848484846117dc565b50505050565b6060610b478261101c565b610b86576040517f08c379a0000000000000000000000000000000000000000000000000000000008152600401610b7d90612717565b60405180910390fd5b6000610b90611838565b90506000815111610bb05760405180602001604052806000815250610bdb565b80610bba8461184f565b604051602001610bcb92919061246f565b6040516020818303038152906040525b915050919050565b6000600860008373ffffffffffffffffffffffffffffffffffffffff1673ffffffffffffffffffffffffffffffffffffffff168152602001908152602001600020549050919050565b6107e660075410610c72576040517f08c379a0000000000000000000000000000000000000000000000000000000008152600401610c6990612617565b60405180910390fd5b6001600860003373ffffffffffffffffffffffffffffffffffffffff1673ffffffffffffffffffffffffffffffffffffffff1681526020019081526020016000205410610cf4576040517f08c379a0000000000000000000000000000000000000000000000000000000008152600401610ceb90612737565b60405180910390fd5b60006001600754610d05919061284b565b9050610d1133826119fc565b80600860003373ffffffffffffffffffffffffffffffffffffffff1673ffffffffffffffffffffffffffffffffffffffff1681526020019081526020016000208190555050565b6000600660008473ffffffffffffffffffffffffffffffffffffffff1673ffffffffffffffffffffffffffffffffffffffff16815260200190815260200160002060008373ffffffffffffffffffffffffffffffffffffffff1673ffffffffffffffffffffffffffffffffffffffff16815260200190815260200160002060009054906101000a900460ff16905092915050565b610df46109fd565b73ffffffffffffffffffffffffffffffffffffffff168273ffffffffffffffffffffffffffffffffffffffff1614610e61576040517f08c379a0000000000000000000000000000000000000000000000000000000008152600401610e5890612537565b60405180910390fd5b610e6c838383611227565b600860008473ffffffffffffffffffffffffffffffffffffffff1673ffffffffffffffffffffffffffffffffffffffff16815260200190815260200160002060009055505050565b60075481565b610ec2611088565b73ffffffffffffffffffffffffffffffffffffffff16610ee06109fd565b73ffffffffffffffffffffffffffffffffffffffff1614610f36576040517f08c379a0000000000000000000000000000000000000000000000000000000008152600401610f2d906126f7565b60405180910390fd5b600073ffffffffffffffffffffffffffffffffffffffff168173ffffffffffffffffffffffffffffffffffffffff161415610fa6576040517f08c379a0000000000000000000000000000000000000000000000000000000008152600401610f9d90612577565b60405180910390fd5b610faf8161148e565b50565b60007f01ffc9a7000000000000000000000000000000000000000000000000000000007bffffffffffffffffffffffffffffffffffffffffffffffffffffffff1916827bffffffffffffffffffffffffffffffffffffffffffffffffffffffff1916149050919050565b60008073ffffffffffffffffffffffffffffffffffffffff166003600084815260200190815260200160002060009054906101000a900473ffffffffffffffffffffffffffffffffffffffff1673ffffffffffffffffffffffffffffffffffffffff1614159050919050565b600033905090565b816005600083815260200190815260200160002060006101000a81548173ffffffffffffffffffffffffffffffffffffffff021916908373ffffffffffffffffffffffffffffffffffffffff160217905550808273ffffffffffffffffffffffffffffffffffffffff16611103836107f3565b73ffffffffffffffffffffffffffffffffffffffff167f8c5be1e5ebec7d5bd14f71427d1e84f3dd0314c0f7b2291e5b200ac8c7c3b92560405160405180910390a45050565b60006111548261101c565b611193576040517f08c379a000000000000000000000000000000000000000000000000000000000815260040161118a90612637565b60405180910390fd5b600061119e836107f3565b90508073ffffffffffffffffffffffffffffffffffffffff168473ffffffffffffffffffffffffffffffffffffffff16148061120d57508373ffffffffffffffffffffffffffffffffffffffff166111f5846105d0565b73ffffffffffffffffffffffffffffffffffffffff16145b8061121e575061121d8185610d58565b5b91505092915050565b8273ffffffffffffffffffffffffffffffffffffffff16611247826107f3565b73ffffffffffffffffffffffffffffffffffffffff161461129d576040517f08c379a000000000000000000000000000000000000000000000000000000000815260040161129490612597565b60405180910390fd5b600073ffffffffffffffffffffffffffffffffffffffff168273ffffffffffffffffffffffffffffffffffffffff16141561130d576040517f08c379a0000000000000000000000000000000000000000000000000000000008152600401611304906125d7565b60405180910390fd5b611318838383611a1a565b611323600082611090565b6001600460008573ffffffffffffffffffffffffffffffffffffffff1673ffffffffffffffffffffffffffffffffffffffff168152602001908152602001600020600082825461137391906128d2565b925050819055506001600460008473ffffffffffffffffffffffffffffffffffffffff1673ffffffffffffffffffffffffffffffffffffffff16815260200190815260200160002060008282546113ca919061284b565b92505081905550816003600083815260200190815260200160002060006101000a81548173ffffffffffffffffffffffffffffffffffffffff021916908373ffffffffffffffffffffffffffffffffffffffff160217905550808273ffffffffffffffffffffffffffffffffffffffff168473ffffffffffffffffffffffffffffffffffffffff167fddf252ad1be2c89b69c2b068fc378daa952ba7f163c4a11628f55a4df523b3ef60405160405180910390a4611489838383611a1f565b505050565b60008060009054906101000a900473ffffffffffffffffffffffffffffffffffffffff169050816000806101000a81548173ffffffffffffffffffffffffffffffffffffffff021916908373ffffffffffffffffffffffffffffffffffffffff1602179055508173ffffffffffffffffffffffffffffffffffffffff168173ffffffffffffffffffffffffffffffffffffffff167f8be0079c531659141344cd1fd0a4f28419497f9722a3daafe3b4186f6b6457e060405160405180910390a35050565b600061155d826107f3565b905061156b81600084611a1a565b611576600083611090565b6001600460008373ffffffffffffffffffffffffffffffffffffffff1673ffffffffffffffffffffffffffffffffffffffff16815260200190815260200160002060008282546115c691906128d2565b925050819055506003600083815260200190815260200160002060006101000a81549073ffffffffffffffffffffffffffffffffffffffff021916905581600073ffffffffffffffffffffffffffffffffffffffff168273ffffffffffffffffffffffffffffffffffffffff167fddf252ad1be2c89b69c2b068fc378daa952ba7f163c4a11628f55a4df523b3ef60405160405180910390a461166b81600084611a1f565b5050565b8173ffffffffffffffffffffffffffffffffffffffff168373ffffffffffffffffffffffffffffffffffffffff1614156116de576040517f08c379a00000000000000000000000000000000000000000000000000000000081526004016116d5906125f7565b60405180910390fd5b80600660008573ffffffffffffffffffffffffffffffffffffffff1673ffffffffffffffffffffffffffffffffffffffff16815260200190815260200160002060008473ffffffffffffffffffffffffffffffffffffffff1673ffffffffffffffffffffffffffffffffffffffff16815260200190815260200160002060006101000a81548160ff0219169083151502179055508173ffffffffffffffffffffffffffffffffffffffff168373ffffffffffffffffffffffffffffffffffffffff167f17307eab39ab6107e8899845ad3d59bd9653f200f220920489ca2b5937696c31836040516117cf91906124fa565b60405180910390a3505050565b6117e7848484611227565b6117f384848484611a24565b611832576040517f08c379a000000000000000000000000000000000000000000000000000000000815260040161182990612557565b60405180910390fd5b50505050565b606060405180602001604052806000815250905090565b60606000821415611897576040518060400160405280600181526020017f300000000000000000000000000000000000000000000000000000000000000081525090506119f7565b600082905060005b600082146118c95780806118b290612a1f565b915050600a826118c291906128a1565b915061189f565b60008167ffffffffffffffff81111561190b577f4e487b7100000000000000000000000000000000000000000000000000000000600052604160045260246000fd5b6040519080825280601f01601f19166020018201604052801561193d5781602001600182028036833780820191505090505b5090505b600085146119f05760018261195691906128d2565b9150600a856119659190612a68565b6030611971919061284b565b60f81b8183815181106119ad577f4e487b7100000000000000000000000000000000000000000000000000000000600052603260045260246000fd5b60200101907effffffffffffffffffffffffffffffffffffffffffffffffffffffffffffff1916908160001a905350600a856119e991906128a1565b9450611941565b8093505050505b919050565b611a16828260405180602001604052806000815250611bbb565b5050565b505050565b505050565b6000611a458473ffffffffffffffffffffffffffffffffffffffff16611c16565b15611bae578373ffffffffffffffffffffffffffffffffffffffff1663150b7a02611a6e611088565b8786866040518563ffffffff1660e01b8152600401611a9094939291906124ae565b602060405180830381600087803b158015611aaa57600080fd5b505af1925050508015611adb57506040513d601f19601f82011682018060405250810190611ad891906120b4565b60015b611b5e573d8060008114611b0b576040519150601f19603f3d011682016040523d82523d6000602084013e611b10565b606091505b50600081511415611b56576040517f08c379a0000000000000000000000000000000000000000000000000000000008152600401611b4d90612557565b60405180910390fd5b805181602001fd5b63150b7a0260e01b7bffffffffffffffffffffffffffffffffffffffffffffffffffffffff1916817bffffffffffffffffffffffffffffffffffffffffffffffffffffffff191614915050611bb3565b600190505b949350505050565b611bc58383611c39565b611bd26000848484611a24565b611c11576040517f08c379a0000000000000000000000000000000000000000000000000000000008152600401611c0890612557565b60405180910390fd5b505050565b6000808273ffffffffffffffffffffffffffffffffffffffff163b119050919050565b600073ffffffffffffffffffffffffffffffffffffffff168273ffffffffffffffffffffffffffffffffffffffff161415611ca9576040517f08c379a0000000000000000000000000000000000000000000000000000000008152600401611ca0906126b7565b60405180910390fd5b611cb28161101c565b15611cf2576040517f08c379a0000000000000000000000000000000000000000000000000000000008152600401611ce9906125b7565b60405180910390fd5b611cfe60008383611a1a565b6001600460008473ffffffffffffffffffffffffffffffffffffffff1673ffffffffffffffffffffffffffffffffffffffff1681526020019081526020016000206000828254611d4e919061284b565b92505081905550816003600083815260200190815260200160002060006101000a81548173ffffffffffffffffffffffffffffffffffffffff021916908373ffffffffffffffffffffffffffffffffffffffff160217905550808273ffffffffffffffffffffffffffffffffffffffff16600073ffffffffffffffffffffffffffffffffffffffff167fddf252ad1be2c89b69c2b068fc378daa952ba7f163c4a11628f55a4df523b3ef60405160405180910390a4611e0f60008383611a1f565b5050565b6000611e26611e21846127d7565b6127b2565b905082815260208101848484011115611e3e57600080fd5b611e4984828561297a565b509392505050565b600081359050611e6081613039565b92915050565b600081359050611e7581613050565b92915050565b600081359050611e8a81613067565b92915050565b600081519050611e9f81613067565b92915050565b600082601f830112611eb657600080fd5b8135611ec6848260208601611e13565b91505092915050565b600081359050611ede8161307e565b92915050565b600060208284031215611ef657600080fd5b6000611f0484828501611e51565b91505092915050565b60008060408385031215611f2057600080fd5b6000611f2e85828601611e51565b9250506020611f3f85828601611e51565b9150509250929050565b600080600060608486031215611f5e57600080fd5b6000611f6c86828701611e51565b9350506020611f7d86828701611e51565b9250506040611f8e86828701611ecf565b9150509250925092565b60008060008060808587031215611fae57600080fd5b6000611fbc87828801611e51565b9450506020611fcd87828801611e51565b9350506040611fde87828801611ecf565b925050606085013567ffffffffffffffff811115611ffb57600080fd5b61200787828801611ea5565b91505092959194509250565b6000806040838503121561202657600080fd5b600061203485828601611e51565b925050602061204585828601611e66565b9150509250929050565b6000806040838503121561206257600080fd5b600061207085828601611e51565b925050602061208185828601611ecf565b9150509250929050565b60006020828403121561209d57600080fd5b60006120ab84828501611e7b565b91505092915050565b6000602082840312156120c657600080fd5b60006120d484828501611e90565b91505092915050565b6000602082840312156120ef57600080fd5b60006120fd84828501611ecf565b91505092915050565b61210f81612906565b82525050565b61211e81612918565b82525050565b600061212f82612808565b612139818561281e565b9350612149818560208601612989565b61215281612b55565b840191505092915050565b600061216882612813565b612172818561282f565b9350612182818560208601612989565b61218b81612b55565b840191505092915050565b60006121a182612813565b6121ab8185612840565b93506121bb818560208601612989565b80840191505092915050565b60006121d460128361282f565b91506121df82612b66565b602082019050919050565b60006121f760328361282f565b915061220282612b8f565b604082019050919050565b600061221a60268361282f565b915061222582612bde565b604082019050919050565b600061223d60258361282f565b915061224882612c2d565b604082019050919050565b6000612260601c8361282f565b915061226b82612c7c565b602082019050919050565b600061228360248361282f565b915061228e82612ca5565b604082019050919050565b60006122a660198361282f565b91506122b182612cf4565b602082019050919050565b60006122c960148361282f565b91506122d482612d1d565b602082019050919050565b60006122ec602c8361282f565b91506122f782612d46565b604082019050919050565b600061230f60388361282f565b915061231a82612d95565b604082019050919050565b6000612332602a8361282f565b915061233d82612de4565b604082019050919050565b600061235560298361282f565b915061236082612e33565b604082019050919050565b600061237860208361282f565b915061238382612e82565b602082019050919050565b600061239b602c8361282f565b91506123a682612eab565b604082019050919050565b60006123be60208361282f565b91506123c982612efa565b602082019050919050565b60006123e1602f8361282f565b91506123ec82612f23565b604082019050919050565b600061240460188361282f565b915061240f82612f72565b602082019050919050565b600061242760218361282f565b915061243282612f9b565b604082019050919050565b600061244a60318361282f565b915061245582612fea565b604082019050919050565b61246981612970565b82525050565b600061247b8285612196565b91506124878284612196565b91508190509392505050565b60006020820190506124a86000830184612106565b92915050565b60006080820190506124c36000830187612106565b6124d06020830186612106565b6124dd6040830185612460565b81810360608301526124ef8184612124565b905095945050505050565b600060208201905061250f6000830184612115565b92915050565b6000602082019050818103600083015261252f818461215d565b905092915050565b60006020820190508181036000830152612550816121c7565b9050919050565b60006020820190508181036000830152612570816121ea565b9050919050565b600060208201905081810360008301526125908161220d565b9050919050565b600060208201905081810360008301526125b081612230565b9050919050565b600060208201905081810360008301526125d081612253565b9050919050565b600060208201905081810360008301526125f081612276565b9050919050565b6000602082019050818103600083015261261081612299565b9050919050565b60006020820190508181036000830152612630816122bc565b9050919050565b60006020820190508181036000830152612650816122df565b9050919050565b6000602082019050818103600083015261267081612302565b9050919050565b6000602082019050818103600083015261269081612325565b9050919050565b600060208201905081810360008301526126b081612348565b9050919050565b600060208201905081810360008301526126d08161236b565b9050919050565b600060208201905081810360008301526126f08161238e565b9050919050565b60006020820190508181036000830152612710816123b1565b9050919050565b60006020820190508181036000830152612730816123d4565b9050919050565b60006020820190508181036000830152612750816123f7565b9050919050565b600060208201905081810360008301526127708161241a565b9050919050565b600060208201905081810360008301526127908161243d565b9050919050565b60006020820190506127ac6000830184612460565b92915050565b60006127bc6127cd565b90506127c882826129ee565b919050565b6000604051905090565b600067ffffffffffffffff8211156127f2576127f1612b26565b5b6127fb82612b55565b9050602081019050919050565b600081519050919050565b600081519050919050565b600082825260208201905092915050565b600082825260208201905092915050565b600081905092915050565b600061285682612970565b915061286183612970565b9250827fffffffffffffffffffffffffffffffffffffffffffffffffffffffffffffffff0382111561289657612895612a99565b5b828201905092915050565b60006128ac82612970565b91506128b783612970565b9250826128c7576128c6612ac8565b5b828204905092915050565b60006128dd82612970565b91506128e883612970565b9250828210156128fb576128fa612a99565b5b828203905092915050565b600061291182612950565b9050919050565b60008115159050919050565b60007fffffffff0000000000000000000000000000000000000000000000000000000082169050919050565b600073ffffffffffffffffffffffffffffffffffffffff82169050919050565b6000819050919050565b82818337600083830152505050565b60005b838110156129a757808201518184015260208101905061298c565b838111156129b6576000848401525b50505050565b600060028204905060018216806129d457607f821691505b602082108114156129e8576129e7612af7565b5b50919050565b6129f782612b55565b810181811067ffffffffffffffff82111715612a1657612a15612b26565b5b80604052505050565b6000612a2a82612970565b91507fffffffffffffffffffffffffffffffffffffffffffffffffffffffffffffffff821415612a5d57612a5c612a99565b5b600182019050919050565b6000612a7382612970565b9150612a7e83612970565b925082612a8e57612a8d612ac8565b5b828206905092915050565b7f4e487b7100000000000000000000000000000000000000000000000000000000600052601160045260246000fd5b7f4e487b7100000000000000000000000000000000000000000000000000000000600052601260045260246000fd5b7f4e487b7100000000000000000000000000000000000000000000000000000000600052602260045260246000fd5b7f4e487b7100000000000000000000000000000000000000000000000000000000600052604160045260246000fd5b6000601f19601f8301169050919050565b7f7472616e736665722069732062616e6e65640000000000000000000000000000600082015250565b7f4552433732313a207472616e7366657220746f206e6f6e20455243373231526560008201527f63656976657220696d706c656d656e7465720000000000000000000000000000602082015250565b7f4f776e61626c653a206e6577206f776e657220697320746865207a65726f206160008201527f6464726573730000000000000000000000000000000000000000000000000000602082015250565b7f4552433732313a207472616e736665722066726f6d20696e636f72726563742060008201527f6f776e6572000000000000000000000000000000000000000000000000000000602082015250565b7f4552433732313a20746f6b656e20616c7265616479206d696e74656400000000600082015250565b7f4552433732313a207472616e7366657220746f20746865207a65726f2061646460008201527f7265737300000000000000000000000000000000000000000000000000000000602082015250565b7f4552433732313a20617070726f766520746f2063616c6c657200000000000000600082015250565b7f7069656365205820697320736f6c64206f757421000000000000000000000000600082015250565b7f4552433732313a206f70657261746f7220717565727920666f72206e6f6e657860008201527f697374656e7420746f6b656e0000000000000000000000000000000000000000602082015250565b7f4552433732313a20617070726f76652063616c6c6572206973206e6f74206f7760008201527f6e6572206e6f7220617070726f76656420666f7220616c6c0000000000000000602082015250565b7f4552433732313a2062616c616e636520717565727920666f7220746865207a6560008201527f726f206164647265737300000000000000000000000000000000000000000000602082015250565b7f4552433732313a206f776e657220717565727920666f72206e6f6e657869737460008201527f656e7420746f6b656e0000000000000000000000000000000000000000000000602082015250565b7f4552433732313a206d696e7420746f20746865207a65726f2061646472657373600082015250565b7f4552433732313a20617070726f76656420717565727920666f72206e6f6e657860008201527f697374656e7420746f6b656e0000000000000000000000000000000000000000602082015250565b7f4f776e61626c653a2063616c6c6572206973206e6f7420746865206f776e6572600082015250565b7f4552433732314d657461646174613a2055524920717565727920666f72206e6f60008201527f6e6578697374656e7420746f6b656e0000000000000000000000000000000000602082015250565b7f796f7520616c7265616479206861766520706965636520420000000000000000600082015250565b7f4552433732313a20617070726f76616c20746f2063757272656e74206f776e6560008201527f7200000000000000000000000000000000000000000000000000000000000000602082015250565b7f4552433732313a207472616e736665722063616c6c6572206973206e6f74206f60008201527f776e6572206e6f7220617070726f766564000000000000000000000000000000602082015250565b61304281612906565b811461304d57600080fd5b50565b61305981612918565b811461306457600080fd5b50565b61307081612924565b811461307b57600080fd5b50565b61308781612970565b811461309257600080fd5b5056fea26469706673582212208e46d8b84267f0661a54d7df292984ecc496c98ac888bf360adeb89a5b7e342764736f6c63430008010033a26469706673582212201ce2ab634dfe21c000fa83cef73686ad935797e6a3f2b2c51e5b56cf5e3f44f664736f6c63430008010033",
  "immutableReferences": {},
  "source": "pragma solidity >=0.4.22 <0.9.0;\n\nimport \"@openzeppelin/contracts/token/ERC721/ERC721.sol\";\nimport \"@openzeppelin/contracts/access/Ownable.sol\";\nimport \"./QilinPieceA.sol\";\nimport \"./QilinPieceB.sol\";\nimport \"./QilinPieceX.sol\";\n\ncontract Qilin is Ownable, ERC721 {\n\n    uint256 public totalQilinQty = 0;\n    uint256 public constant TOTAL_QILIN_SUPPLY = 2022;\n\n    mapping (address => uint256) public whiteListA;\n    mapping (address => uint256) public whiteListB;\n    mapping (address => uint256) public whiteListX;\n\n    constructor() ERC721(\"Qilin\", \"Qilin\") {}\n\n\n    function mintQilin () external {\n        require(totalQilinQty < TOTAL_QILIN_SUPPLY, \"NTF is mint out!\");\n\n        QilinPieceA a = new QilinPieceA();\n        require(a.getHolderA(msg.sender) > 0, \"You need piece A!\");\n        uint256 tokenIdA = a.getHolderA(msg.sender);\n\n        QilinPieceB b = new QilinPieceB();\n        require(b.getHolderB(msg.sender) > 0, \"You need piece B!\");\n        uint256 tokenIdB = b.getHolderB(msg.sender);\n\n        QilinPieceX x = new QilinPieceX();\n        require(x.getHolderX(msg.sender) > 0, \"You need piece X!\");\n        uint256 tokenIdX = x.getHolderX(msg.sender);\n\n        a.transferA(msg.sender, owner(), tokenIdA);\n        b.transferB(msg.sender, owner(), tokenIdB);\n        x.transferX(msg.sender, owner(), tokenIdX);\n        _safeMint(msg.sender, totalQilinQty + 1);\n    }\n\n    function mintQilinPiece (uint256 piece) external {\n        \n        if (piece == 1) {\n            QilinPieceA a = new QilinPieceA();\n            a.mintQilinPieceA();\n        } else if (piece == 2) {\n            QilinPieceB b = new QilinPieceB();\n            b.mintQilinPieceB();\n        } else if (piece == 3) {\n            QilinPieceX x = new QilinPieceX();\n            x.mintQilinPieceX();\n        }\n    }\n\n    function setWhiteList (address whiteLister, uint256 piece) external onlyOwner {\n\n        if (piece == 1) {\n\n            require(whiteListA[whiteLister] < 1, \"the address is already in white list A\");\n            whiteListA[whiteLister] = 1;\n\n        } else if (piece == 2) {\n\n            require(whiteListB[whiteLister] < 1, \"the address is already in white list B\");\n            whiteListB[whiteLister] = 1;\n\n        } else if (piece == 3) {\n\n            require(whiteListX[whiteLister] < 1, \"the address is already in white list X\");\n            whiteListX[whiteLister] = 1;\n\n        }\n    }\n\n}",
  "sourcePath": "/Users/pengyun/Desktop/code/qilin-nft/contracts/Qilin.sol",
  "compiler": {
    "name": "solc",
    "version": "0.8.1+commit.df193b15.Emscripten.clang"
  },
  "schemaVersion": "3.3.3",
  "updatedAt": "2022-03-08T03:12:23.507Z",
  "devdoc": {
    "kind": "dev",
    "methods": {
      "approve(address,uint256)": {
        "details": "See {IERC721-approve}."
      },
      "balanceOf(address)": {
        "details": "See {IERC721-balanceOf}."
      },
      "getApproved(uint256)": {
        "details": "See {IERC721-getApproved}."
      },
      "isApprovedForAll(address,address)": {
        "details": "See {IERC721-isApprovedForAll}."
      },
      "name()": {
        "details": "See {IERC721Metadata-name}."
      },
      "owner()": {
        "details": "Returns the address of the current owner."
      },
      "ownerOf(uint256)": {
        "details": "See {IERC721-ownerOf}."
      },
      "renounceOwnership()": {
        "details": "Leaves the contract without owner. It will not be possible to call `onlyOwner` functions anymore. Can only be called by the current owner. NOTE: Renouncing ownership will leave the contract without an owner, thereby removing any functionality that is only available to the owner."
      },
      "safeTransferFrom(address,address,uint256)": {
        "details": "See {IERC721-safeTransferFrom}."
      },
      "safeTransferFrom(address,address,uint256,bytes)": {
        "details": "See {IERC721-safeTransferFrom}."
      },
      "setApprovalForAll(address,bool)": {
        "details": "See {IERC721-setApprovalForAll}."
      },
      "supportsInterface(bytes4)": {
        "details": "See {IERC165-supportsInterface}."
      },
      "symbol()": {
        "details": "See {IERC721Metadata-symbol}."
      },
      "tokenURI(uint256)": {
        "details": "See {IERC721Metadata-tokenURI}."
      },
      "transferFrom(address,address,uint256)": {
        "details": "See {IERC721-transferFrom}."
      },
      "transferOwnership(address)": {
        "details": "Transfers ownership of the contract to a new account (`newOwner`). Can only be called by the current owner."
      }
    },
    "version": 1
  },
  "userdoc": {
    "kind": "user",
    "methods": {},
    "version": 1
  }
}