{
  "contractName": "Qilin",
  "abi": [
    {
      "inputs": [
        {
          "internalType": "address",
          "name": "pieceA_",
          "type": "address"
        },
        {
          "internalType": "address",
          "name": "pieceB_",
          "type": "address"
        },
        {
          "internalType": "address",
          "name": "pieceX_",
          "type": "address"
        },
        {
          "internalType": "string",
          "name": "name",
          "type": "string"
        },
        {
          "internalType": "string",
          "name": "symbol",
          "type": "string"
        }
      ],
      "stateMutability": "nonpayable",
      "type": "constructor"
    },
    {
      "anonymous": false,
      "inputs": [
        {
          "indexed": true,
          "internalType": "address",
          "name": "owner",
          "type": "address"
        },
        {
          "indexed": true,
          "internalType": "address",
          "name": "approved",
          "type": "address"
        },
        {
          "indexed": true,
          "internalType": "uint256",
          "name": "tokenId",
          "type": "uint256"
        }
      ],
      "name": "Approval",
      "type": "event"
    },
    {
      "anonymous": false,
      "inputs": [
        {
          "indexed": true,
          "internalType": "address",
          "name": "owner",
          "type": "address"
        },
        {
          "indexed": true,
          "internalType": "address",
          "name": "operator",
          "type": "address"
        },
        {
          "indexed": false,
          "internalType": "bool",
          "name": "approved",
          "type": "bool"
        }
      ],
      "name": "ApprovalForAll",
      "type": "event"
    },
    {
      "anonymous": false,
      "inputs": [
        {
          "indexed": true,
          "internalType": "address",
          "name": "previousOwner",
          "type": "address"
        },
        {
          "indexed": true,
          "internalType": "address",
          "name": "newOwner",
          "type": "address"
        }
      ],
      "name": "OwnershipTransferred",
      "type": "event"
    },
    {
      "anonymous": false,
      "inputs": [
        {
          "indexed": true,
          "internalType": "address",
          "name": "from",
          "type": "address"
        },
        {
          "indexed": true,
          "internalType": "address",
          "name": "to",
          "type": "address"
        },
        {
          "indexed": true,
          "internalType": "uint256",
          "name": "tokenId",
          "type": "uint256"
        }
      ],
      "name": "Transfer",
      "type": "event"
    },
    {
      "inputs": [],
      "name": "TOTAL_QILIN_SUPPLY",
      "outputs": [
        {
          "internalType": "uint256",
          "name": "",
          "type": "uint256"
        }
      ],
      "stateMutability": "view",
      "type": "function",
      "constant": true
    },
    {
      "inputs": [
        {
          "internalType": "address",
          "name": "to",
          "type": "address"
        },
        {
          "internalType": "uint256",
          "name": "tokenId",
          "type": "uint256"
        }
      ],
      "name": "approve",
      "outputs": [],
      "stateMutability": "nonpayable",
      "type": "function"
    },
    {
      "inputs": [
        {
          "internalType": "address",
          "name": "owner",
          "type": "address"
        }
      ],
      "name": "balanceOf",
      "outputs": [
        {
          "internalType": "uint256",
          "name": "",
          "type": "uint256"
        }
      ],
      "stateMutability": "view",
      "type": "function",
      "constant": true
    },
    {
      "inputs": [
        {
          "internalType": "uint256",
          "name": "tokenId",
          "type": "uint256"
        }
      ],
      "name": "getApproved",
      "outputs": [
        {
          "internalType": "address",
          "name": "",
          "type": "address"
        }
      ],
      "stateMutability": "view",
      "type": "function",
      "constant": true
    },
    {
      "inputs": [
        {
          "internalType": "address",
          "name": "owner",
          "type": "address"
        },
        {
          "internalType": "address",
          "name": "operator",
          "type": "address"
        }
      ],
      "name": "isApprovedForAll",
      "outputs": [
        {
          "internalType": "bool",
          "name": "",
          "type": "bool"
        }
      ],
      "stateMutability": "view",
      "type": "function",
      "constant": true
    },
    {
      "inputs": [],
      "name": "name",
      "outputs": [
        {
          "internalType": "string",
          "name": "",
          "type": "string"
        }
      ],
      "stateMutability": "view",
      "type": "function",
      "constant": true
    },
    {
      "inputs": [],
      "name": "owner",
      "outputs": [
        {
          "internalType": "address",
          "name": "",
          "type": "address"
        }
      ],
      "stateMutability": "view",
      "type": "function",
      "constant": true
    },
    {
      "inputs": [
        {
          "internalType": "uint256",
          "name": "tokenId",
          "type": "uint256"
        }
      ],
      "name": "ownerOf",
      "outputs": [
        {
          "internalType": "address",
          "name": "",
          "type": "address"
        }
      ],
      "stateMutability": "view",
      "type": "function",
      "constant": true
    },
    {
      "inputs": [],
      "name": "renounceOwnership",
      "outputs": [],
      "stateMutability": "nonpayable",
      "type": "function"
    },
    {
      "inputs": [
        {
          "internalType": "address",
          "name": "from",
          "type": "address"
        },
        {
          "internalType": "address",
          "name": "to",
          "type": "address"
        },
        {
          "internalType": "uint256",
          "name": "tokenId",
          "type": "uint256"
        }
      ],
      "name": "safeTransferFrom",
      "outputs": [],
      "stateMutability": "nonpayable",
      "type": "function"
    },
    {
      "inputs": [
        {
          "internalType": "address",
          "name": "from",
          "type": "address"
        },
        {
          "internalType": "address",
          "name": "to",
          "type": "address"
        },
        {
          "internalType": "uint256",
          "name": "tokenId",
          "type": "uint256"
        },
        {
          "internalType": "bytes",
          "name": "_data",
          "type": "bytes"
        }
      ],
      "name": "safeTransferFrom",
      "outputs": [],
      "stateMutability": "nonpayable",
      "type": "function"
    },
    {
      "inputs": [
        {
          "internalType": "address",
          "name": "operator",
          "type": "address"
        },
        {
          "internalType": "bool",
          "name": "approved",
          "type": "bool"
        }
      ],
      "name": "setApprovalForAll",
      "outputs": [],
      "stateMutability": "nonpayable",
      "type": "function"
    },
    {
      "inputs": [
        {
          "internalType": "bytes4",
          "name": "interfaceId",
          "type": "bytes4"
        }
      ],
      "name": "supportsInterface",
      "outputs": [
        {
          "internalType": "bool",
          "name": "",
          "type": "bool"
        }
      ],
      "stateMutability": "view",
      "type": "function",
      "constant": true
    },
    {
      "inputs": [],
      "name": "symbol",
      "outputs": [
        {
          "internalType": "string",
          "name": "",
          "type": "string"
        }
      ],
      "stateMutability": "view",
      "type": "function",
      "constant": true
    },
    {
      "inputs": [
        {
          "internalType": "uint256",
          "name": "tokenId",
          "type": "uint256"
        }
      ],
      "name": "tokenURI",
      "outputs": [
        {
          "internalType": "string",
          "name": "",
          "type": "string"
        }
      ],
      "stateMutability": "view",
      "type": "function",
      "constant": true
    },
    {
      "inputs": [],
      "name": "totalQilinQty",
      "outputs": [
        {
          "internalType": "uint256",
          "name": "",
          "type": "uint256"
        }
      ],
      "stateMutability": "view",
      "type": "function",
      "constant": true
    },
    {
      "inputs": [
        {
          "internalType": "address",
          "name": "from",
          "type": "address"
        },
        {
          "internalType": "address",
          "name": "to",
          "type": "address"
        },
        {
          "internalType": "uint256",
          "name": "tokenId",
          "type": "uint256"
        }
      ],
      "name": "transferFrom",
      "outputs": [],
      "stateMutability": "nonpayable",
      "type": "function"
    },
    {
      "inputs": [
        {
          "internalType": "address",
          "name": "newOwner",
          "type": "address"
        }
      ],
      "name": "transferOwnership",
      "outputs": [],
      "stateMutability": "nonpayable",
      "type": "function"
    },
    {
      "inputs": [
        {
          "internalType": "address",
          "name": "",
          "type": "address"
        }
      ],
      "name": "whiteListA",
      "outputs": [
        {
          "internalType": "uint256",
          "name": "",
          "type": "uint256"
        }
      ],
      "stateMutability": "view",
      "type": "function",
      "constant": true
    },
    {
      "inputs": [
        {
          "internalType": "address",
          "name": "",
          "type": "address"
        }
      ],
      "name": "whiteListB",
      "outputs": [
        {
          "internalType": "uint256",
          "name": "",
          "type": "uint256"
        }
      ],
      "stateMutability": "view",
      "type": "function",
      "constant": true
    },
    {
      "inputs": [
        {
          "internalType": "address",
          "name": "",
          "type": "address"
        }
      ],
      "name": "whiteListX",
      "outputs": [
        {
          "internalType": "uint256",
          "name": "",
          "type": "uint256"
        }
      ],
      "stateMutability": "view",
      "type": "function",
      "constant": true
    },
    {
      "inputs": [],
      "name": "mintQilin",
      "outputs": [],
      "stateMutability": "nonpayable",
      "type": "function"
    },
    {
      "inputs": [
        {
          "internalType": "uint256",
          "name": "piece",
          "type": "uint256"
        }
      ],
      "name": "mintQilinPiece",
      "outputs": [],
      "stateMutability": "nonpayable",
      "type": "function"
    },
    {
      "inputs": [
        {
          "internalType": "address",
          "name": "whiteLister",
          "type": "address"
        },
        {
          "internalType": "uint256",
          "name": "piece",
          "type": "uint256"
        }
      ],
      "name": "setWhiteList",
      "outputs": [],
      "stateMutability": "nonpayable",
      "type": "function"
    },
    {
      "inputs": [
        {
          "internalType": "address",
          "name": "account",
          "type": "address"
        }
      ],
      "name": "getStatus",
      "outputs": [
        {
          "internalType": "uint256[3]",
          "name": "",
          "type": "uint256[3]"
        }
      ],
      "stateMutability": "view",
      "type": "function",
      "constant": true
    }
  ],
  "bytecode": "0x608060405260006007553480156200001657600080fd5b5060405162004b6138038062004b6183398181016040528101906200003c919062000365565b81816200005e620000526200016060201b60201c565b6200016860201b60201c565b8160019080519060200190620000769291906200022c565b5080600290805190602001906200008f9291906200022c565b50505084600860006101000a81548173ffffffffffffffffffffffffffffffffffffffff021916908373ffffffffffffffffffffffffffffffffffffffff16021790555083600960006101000a81548173ffffffffffffffffffffffffffffffffffffffff021916908373ffffffffffffffffffffffffffffffffffffffff16021790555082600a60006101000a81548173ffffffffffffffffffffffffffffffffffffffff021916908373ffffffffffffffffffffffffffffffffffffffff1602179055505050505050620005d7565b600033905090565b60008060009054906101000a900473ffffffffffffffffffffffffffffffffffffffff169050816000806101000a81548173ffffffffffffffffffffffffffffffffffffffff021916908373ffffffffffffffffffffffffffffffffffffffff1602179055508173ffffffffffffffffffffffffffffffffffffffff168173ffffffffffffffffffffffffffffffffffffffff167f8be0079c531659141344cd1fd0a4f28419497f9722a3daafe3b4186f6b6457e060405160405180910390a35050565b8280546200023a90620004e2565b90600052602060002090601f0160209004810192826200025e5760008555620002aa565b82601f106200027957805160ff1916838001178555620002aa565b82800160010185558215620002aa579182015b82811115620002a95782518255916020019190600101906200028c565b5b509050620002b99190620002bd565b5090565b5b80821115620002d8576000816000905550600101620002be565b5090565b6000620002f3620002ed8462000442565b62000419565b9050828152602081018484840111156200030c57600080fd5b62000319848285620004ac565b509392505050565b6000815190506200033281620005bd565b92915050565b600082601f8301126200034a57600080fd5b81516200035c848260208601620002dc565b91505092915050565b600080600080600060a086880312156200037e57600080fd5b60006200038e8882890162000321565b9550506020620003a18882890162000321565b9450506040620003b48882890162000321565b935050606086015167ffffffffffffffff811115620003d257600080fd5b620003e08882890162000338565b925050608086015167ffffffffffffffff811115620003fe57600080fd5b6200040c8882890162000338565b9150509295509295909350565b60006200042562000438565b905062000433828262000518565b919050565b6000604051905090565b600067ffffffffffffffff82111562000460576200045f6200057d565b5b6200046b82620005ac565b9050602081019050919050565b600062000485826200048c565b9050919050565b600073ffffffffffffffffffffffffffffffffffffffff82169050919050565b60005b83811015620004cc578082015181840152602081019050620004af565b83811115620004dc576000848401525b50505050565b60006002820490506001821680620004fb57607f821691505b602082108114156200051257620005116200054e565b5b50919050565b6200052382620005ac565b810181811067ffffffffffffffff821117156200054557620005446200057d565b5b80604052505050565b7f4e487b7100000000000000000000000000000000000000000000000000000000600052602260045260246000fd5b7f4e487b7100000000000000000000000000000000000000000000000000000000600052604160045260246000fd5b6000601f19601f8301169050919050565b620005c88162000478565b8114620005d457600080fd5b50565b61457a80620005e76000396000f3fe608060405234801561001057600080fd5b50600436106101735760003560e01c8063750cd8e7116100de578063a6921aeb11610097578063c156776a11610071578063c156776a1461044a578063c87b56dd14610466578063e985e9c514610496578063f2fde38b146104c657610173565b8063a6921aeb146103e0578063b61e9a7c14610410578063b88d4fde1461042e57610173565b8063750cd8e71461030c5780638da5cb5b1461033c57806395d89b411461035a5780639f07f28614610378578063a22cb465146103a8578063a5b98f20146103c457610173565b806330ccebb51161013057806330ccebb51461024c57806332ecfc2f1461027c57806342842e0e146102865780636352211e146102a257806370a08231146102d2578063715018a61461030257610173565b806301ffc9a71461017857806306fdde03146101a8578063081812fc146101c6578063095ea7b3146101f657806323b872dd146102125780632ebf64791461022e575b600080fd5b610192600480360381019061018d91906130ae565b6104e2565b60405161019f919061370b565b60405180910390f35b6101b06105c4565b6040516101bd9190613726565b60405180910390f35b6101e060048036038101906101db9190613100565b610656565b6040516101ed9190613652565b60405180910390f35b610210600480360381019061020b9190613072565b6106db565b005b61022c60048036038101906102279190612f6c565b6107f3565b005b610236610853565b6040516102439190613a88565b60405180910390f35b61026660048036038101906102619190612ede565b610859565b60405161027391906136f0565b60405180910390f35b610284610940565b005b6102a0600480360381019061029b9190612f6c565b611384565b005b6102bc60048036038101906102b79190613100565b6113a4565b6040516102c99190613652565b60405180910390f35b6102ec60048036038101906102e79190612ede565b611456565b6040516102f99190613a88565b60405180910390f35b61030a61150e565b005b61032660048036038101906103219190612ede565b611596565b6040516103339190613a88565b60405180910390f35b6103446115ae565b6040516103519190613652565b60405180910390f35b6103626115d7565b60405161036f9190613726565b60405180910390f35b610392600480360381019061038d9190612ede565b611669565b60405161039f9190613a88565b60405180910390f35b6103c260048036038101906103bd9190613036565b611681565b005b6103de60048036038101906103d99190613100565b611697565b005b6103fa60048036038101906103f59190612ede565b611acd565b6040516104079190613a88565b60405180910390f35b610418611ae5565b6040516104259190613a88565b60405180910390f35b61044860048036038101906104439190612fbb565b611aeb565b005b610464600480360381019061045f9190613072565b611b4d565b005b610480600480360381019061047b9190613100565b611e4a565b60405161048d9190613726565b60405180910390f35b6104b060048036038101906104ab9190612f30565b611ef1565b6040516104bd919061370b565b60405180910390f35b6104e060048036038101906104db9190612ede565b611f85565b005b60007f80ac58cd000000000000000000000000000000000000000000000000000000007bffffffffffffffffffffffffffffffffffffffffffffffffffffffff1916827bffffffffffffffffffffffffffffffffffffffffffffffffffffffff191614806105ad57507f5b5e139f000000000000000000000000000000000000000000000000000000007bffffffffffffffffffffffffffffffffffffffffffffffffffffffff1916827bffffffffffffffffffffffffffffffffffffffffffffffffffffffff1916145b806105bd57506105bc8261207d565b5b9050919050565b6060600180546105d390613cda565b80601f01602080910402602001604051908101604052809291908181526020018280546105ff90613cda565b801561064c5780601f106106215761010080835404028352916020019161064c565b820191906000526020600020905b81548152906001019060200180831161062f57829003601f168201915b5050505050905090565b6000610661826120e7565b6106a0576040517f08c379a000000000000000000000000000000000000000000000000000000000815260040161069790613988565b60405180910390fd5b6005600083815260200190815260200160002060009054906101000a900473ffffffffffffffffffffffffffffffffffffffff169050919050565b60006106e6826113a4565b90508073ffffffffffffffffffffffffffffffffffffffff168373ffffffffffffffffffffffffffffffffffffffff161415610757576040517f08c379a000000000000000000000000000000000000000000000000000000000815260040161074e90613a08565b60405180910390fd5b8073ffffffffffffffffffffffffffffffffffffffff16610776612153565b73ffffffffffffffffffffffffffffffffffffffff1614806107a557506107a48161079f612153565b611ef1565b5b6107e4576040517f08c379a00000000000000000000000000000000000000000000000000000000081526004016107db90613908565b60405180910390fd5b6107ee838361215b565b505050565b6108046107fe612153565b82612214565b610843576040517f08c379a000000000000000000000000000000000000000000000000000000000815260040161083a90613a28565b60405180910390fd5b61084e8383836122f2565b505050565b60075481565b610861612dc1565b6040518060600160405280600b60008573ffffffffffffffffffffffffffffffffffffffff1673ffffffffffffffffffffffffffffffffffffffff168152602001908152602001600020548152602001600c60008573ffffffffffffffffffffffffffffffffffffffff1673ffffffffffffffffffffffffffffffffffffffff168152602001908152602001600020548152602001600d60008573ffffffffffffffffffffffffffffffffffffffff1673ffffffffffffffffffffffffffffffffffffffff168152602001908152602001600020548152509050919050565b6107e660075410610986576040517f08c379a000000000000000000000000000000000000000000000000000000000815260040161097d90613a48565b60405180910390fd5b6000600860009054906101000a900473ffffffffffffffffffffffffffffffffffffffff16905060008173ffffffffffffffffffffffffffffffffffffffff1663cd75c7d4336040518263ffffffff1660e01b81526004016109e89190613652565b60206040518083038186803b158015610a0057600080fd5b505afa158015610a14573d6000803e3d6000fd5b505050506040513d601f19601f82011682018060405250810190610a389190613129565b11610a78576040517f08c379a0000000000000000000000000000000000000000000000000000000008152600401610a6f90613748565b60405180910390fd5b60008173ffffffffffffffffffffffffffffffffffffffff1663cd75c7d4336040518263ffffffff1660e01b8152600401610ab39190613652565b60206040518083038186803b158015610acb57600080fd5b505afa158015610adf573d6000803e3d6000fd5b505050506040513d601f19601f82011682018060405250810190610b039190613129565b90506000600960009054906101000a900473ffffffffffffffffffffffffffffffffffffffff16905060008173ffffffffffffffffffffffffffffffffffffffff1663cd75c7d4336040518263ffffffff1660e01b8152600401610b679190613652565b60206040518083038186803b158015610b7f57600080fd5b505afa158015610b93573d6000803e3d6000fd5b505050506040513d601f19601f82011682018060405250810190610bb79190613129565b11610bf7576040517f08c379a0000000000000000000000000000000000000000000000000000000008152600401610bee906138a8565b60405180910390fd5b60008173ffffffffffffffffffffffffffffffffffffffff1663cd75c7d4336040518263ffffffff1660e01b8152600401610c329190613652565b60206040518083038186803b158015610c4a57600080fd5b505afa158015610c5e573d6000803e3d6000fd5b505050506040513d601f19601f82011682018060405250810190610c829190613129565b90506000600a60009054906101000a900473ffffffffffffffffffffffffffffffffffffffff16905060008173ffffffffffffffffffffffffffffffffffffffff1663cd75c7d4336040518263ffffffff1660e01b8152600401610ce69190613652565b60206040518083038186803b158015610cfe57600080fd5b505afa158015610d12573d6000803e3d6000fd5b505050506040513d601f19601f82011682018060405250810190610d369190613129565b11610d76576040517f08c379a0000000000000000000000000000000000000000000000000000000008152600401610d6d90613888565b60405180910390fd5b60008173ffffffffffffffffffffffffffffffffffffffff1663cd75c7d4336040518263ffffffff1660e01b8152600401610db19190613652565b60206040518083038186803b158015610dc957600080fd5b505afa158015610ddd573d6000803e3d6000fd5b505050506040513d601f19601f82011682018060405250810190610e019190613129565b90508573ffffffffffffffffffffffffffffffffffffffff166323b872dd3330886040518463ffffffff1660e01b8152600401610e409392919061366d565b600060405180830381600087803b158015610e5a57600080fd5b505af1158015610e6e573d6000803e3d6000fd5b505050508373ffffffffffffffffffffffffffffffffffffffff166323b872dd3330866040518463ffffffff1660e01b8152600401610eaf9392919061366d565b600060405180830381600087803b158015610ec957600080fd5b505af1158015610edd573d6000803e3d6000fd5b505050508173ffffffffffffffffffffffffffffffffffffffff166323b872dd3330846040518463ffffffff1660e01b8152600401610f1e9392919061366d565b600060405180830381600087803b158015610f3857600080fd5b505af1158015610f4c573d6000803e3d6000fd5b50505050600860009054906101000a900473ffffffffffffffffffffffffffffffffffffffff1673ffffffffffffffffffffffffffffffffffffffff1663081812fc866040518263ffffffff1660e01b8152600401610fab9190613a88565b60206040518083038186803b158015610fc357600080fd5b505afa158015610fd7573d6000803e3d6000fd5b505050506040513d601f19601f82011682018060405250810190610ffb9190612f07565b50600960009054906101000a900473ffffffffffffffffffffffffffffffffffffffff1673ffffffffffffffffffffffffffffffffffffffff1663081812fc846040518263ffffffff1660e01b81526004016110579190613a88565b60206040518083038186803b15801561106f57600080fd5b505afa158015611083573d6000803e3d6000fd5b505050506040513d601f19601f820116820180604052508101906110a79190612f07565b50600a60009054906101000a900473ffffffffffffffffffffffffffffffffffffffff1673ffffffffffffffffffffffffffffffffffffffff1663081812fc826040518263ffffffff1660e01b81526004016111039190613a88565b60206040518083038186803b15801561111b57600080fd5b505afa15801561112f573d6000803e3d6000fd5b505050506040513d601f19601f820116820180604052508101906111539190612f07565b508573ffffffffffffffffffffffffffffffffffffffff166342966c68866040518263ffffffff1660e01b815260040161118d9190613a88565b600060405180830381600087803b1580156111a757600080fd5b505af11580156111bb573d6000803e3d6000fd5b505050508373ffffffffffffffffffffffffffffffffffffffff166342966c68846040518263ffffffff1660e01b81526004016111f89190613a88565b600060405180830381600087803b15801561121257600080fd5b505af1158015611226573d6000803e3d6000fd5b505050508173ffffffffffffffffffffffffffffffffffffffff166342966c68826040518263ffffffff1660e01b81526004016112639190613a88565b600060405180830381600087803b15801561127d57600080fd5b505af1158015611291573d6000803e3d6000fd5b505050506112ad3360016007546112a89190613b69565b612559565b6003600b60003373ffffffffffffffffffffffffffffffffffffffff1673ffffffffffffffffffffffffffffffffffffffff168152602001908152602001600020819055506003600c60003373ffffffffffffffffffffffffffffffffffffffff1673ffffffffffffffffffffffffffffffffffffffff168152602001908152602001600020819055506003600d60003373ffffffffffffffffffffffffffffffffffffffff1673ffffffffffffffffffffffffffffffffffffffff16815260200190815260200160002081905550505050505050565b61139f83838360405180602001604052806000815250611aeb565b505050565b6000806003600084815260200190815260200160002060009054906101000a900473ffffffffffffffffffffffffffffffffffffffff169050600073ffffffffffffffffffffffffffffffffffffffff168173ffffffffffffffffffffffffffffffffffffffff16141561144d576040517f08c379a000000000000000000000000000000000000000000000000000000000815260040161144490613948565b60405180910390fd5b80915050919050565b60008073ffffffffffffffffffffffffffffffffffffffff168273ffffffffffffffffffffffffffffffffffffffff1614156114c7576040517f08c379a00000000000000000000000000000000000000000000000000000000081526004016114be90613928565b60405180910390fd5b600460008373ffffffffffffffffffffffffffffffffffffffff1673ffffffffffffffffffffffffffffffffffffffff168152602001908152602001600020549050919050565b611516612153565b73ffffffffffffffffffffffffffffffffffffffff166115346115ae565b73ffffffffffffffffffffffffffffffffffffffff161461158a576040517f08c379a0000000000000000000000000000000000000000000000000000000008152600401611581906139a8565b60405180910390fd5b6115946000612577565b565b600c6020528060005260406000206000915090505481565b60008060009054906101000a900473ffffffffffffffffffffffffffffffffffffffff16905090565b6060600280546115e690613cda565b80601f016020809104026020016040519081016040528092919081815260200182805461161290613cda565b801561165f5780601f106116345761010080835404028352916020019161165f565b820191906000526020600020905b81548152906001019060200180831161164257829003601f168201915b5050505050905090565b600d6020528060005260406000206000915090505481565b61169361168c612153565b838361263b565b5050565b60018114156117fe576001600b60003373ffffffffffffffffffffffffffffffffffffffff1673ffffffffffffffffffffffffffffffffffffffff1681526020019081526020016000205414611722576040517f08c379a0000000000000000000000000000000000000000000000000000000008152600401611719906138c8565b60405180910390fd5b6000600860009054906101000a900473ffffffffffffffffffffffffffffffffffffffff1690508073ffffffffffffffffffffffffffffffffffffffff166229aa48336040518263ffffffff1660e01b81526004016117819190613652565b600060405180830381600087803b15801561179b57600080fd5b505af11580156117af573d6000803e3d6000fd5b505050506002600b60003373ffffffffffffffffffffffffffffffffffffffff1673ffffffffffffffffffffffffffffffffffffffff1681526020019081526020016000208190555050611aca565b6002811415611965576001600c60003373ffffffffffffffffffffffffffffffffffffffff1673ffffffffffffffffffffffffffffffffffffffff1681526020019081526020016000205414611889576040517f08c379a000000000000000000000000000000000000000000000000000000000815260040161188090613a68565b60405180910390fd5b6000600960009054906101000a900473ffffffffffffffffffffffffffffffffffffffff1690508073ffffffffffffffffffffffffffffffffffffffff166229aa48336040518263ffffffff1660e01b81526004016118e89190613652565b600060405180830381600087803b15801561190257600080fd5b505af1158015611916573d6000803e3d6000fd5b505050506002600c60003373ffffffffffffffffffffffffffffffffffffffff1673ffffffffffffffffffffffffffffffffffffffff1681526020019081526020016000208190555050611ac9565b6003811415611ac8576001600d60003373ffffffffffffffffffffffffffffffffffffffff1673ffffffffffffffffffffffffffffffffffffffff16815260200190815260200160002054146119f0576040517f08c379a00000000000000000000000000000000000000000000000000000000081526004016119e790613788565b60405180910390fd5b6000600a60009054906101000a900473ffffffffffffffffffffffffffffffffffffffff1690508073ffffffffffffffffffffffffffffffffffffffff166229aa48336040518263ffffffff1660e01b8152600401611a4f9190613652565b600060405180830381600087803b158015611a6957600080fd5b505af1158015611a7d573d6000803e3d6000fd5b505050506002600d60003373ffffffffffffffffffffffffffffffffffffffff1673ffffffffffffffffffffffffffffffffffffffff16815260200190815260200160002081905550505b5b5b50565b600b6020528060005260406000206000915090505481565b6107e681565b611afc611af6612153565b83612214565b611b3b576040517f08c379a0000000000000000000000000000000000000000000000000000000008152600401611b3290613a28565b60405180910390fd5b611b47848484846127a8565b50505050565b611b55612153565b73ffffffffffffffffffffffffffffffffffffffff16611b736115ae565b73ffffffffffffffffffffffffffffffffffffffff1614611bc9576040517f08c379a0000000000000000000000000000000000000000000000000000000008152600401611bc0906139a8565b60405180910390fd5b6001811415611c9e576001600b60008473ffffffffffffffffffffffffffffffffffffffff1673ffffffffffffffffffffffffffffffffffffffff1681526020019081526020016000205410611c54576040517f08c379a0000000000000000000000000000000000000000000000000000000008152600401611c4b906139e8565b60405180910390fd5b6001600b60008473ffffffffffffffffffffffffffffffffffffffff1673ffffffffffffffffffffffffffffffffffffffff16815260200190815260200160002081905550611e46565b6002811415611d73576001600c60008473ffffffffffffffffffffffffffffffffffffffff1673ffffffffffffffffffffffffffffffffffffffff1681526020019081526020016000205410611d29576040517f08c379a0000000000000000000000000000000000000000000000000000000008152600401611d2090613828565b60405180910390fd5b6001600c60008473ffffffffffffffffffffffffffffffffffffffff1673ffffffffffffffffffffffffffffffffffffffff16815260200190815260200160002081905550611e45565b6003811415611e44576001600d60008473ffffffffffffffffffffffffffffffffffffffff1673ffffffffffffffffffffffffffffffffffffffff1681526020019081526020016000205410611dfe576040517f08c379a0000000000000000000000000000000000000000000000000000000008152600401611df590613768565b60405180910390fd5b6001600d60008473ffffffffffffffffffffffffffffffffffffffff1673ffffffffffffffffffffffffffffffffffffffff168152602001908152602001600020819055505b5b5b5050565b6060611e55826120e7565b611e94576040517f08c379a0000000000000000000000000000000000000000000000000000000008152600401611e8b906139c8565b60405180910390fd5b6000611e9e612804565b90506000815111611ebe5760405180602001604052806000815250611ee9565b80611ec88461281b565b604051602001611ed992919061362e565b6040516020818303038152906040525b915050919050565b6000600660008473ffffffffffffffffffffffffffffffffffffffff1673ffffffffffffffffffffffffffffffffffffffff16815260200190815260200160002060008373ffffffffffffffffffffffffffffffffffffffff1673ffffffffffffffffffffffffffffffffffffffff16815260200190815260200160002060009054906101000a900460ff16905092915050565b611f8d612153565b73ffffffffffffffffffffffffffffffffffffffff16611fab6115ae565b73ffffffffffffffffffffffffffffffffffffffff1614612001576040517f08c379a0000000000000000000000000000000000000000000000000000000008152600401611ff8906139a8565b60405180910390fd5b600073ffffffffffffffffffffffffffffffffffffffff168173ffffffffffffffffffffffffffffffffffffffff161415612071576040517f08c379a0000000000000000000000000000000000000000000000000000000008152600401612068906137c8565b60405180910390fd5b61207a81612577565b50565b60007f01ffc9a7000000000000000000000000000000000000000000000000000000007bffffffffffffffffffffffffffffffffffffffffffffffffffffffff1916827bffffffffffffffffffffffffffffffffffffffffffffffffffffffff1916149050919050565b60008073ffffffffffffffffffffffffffffffffffffffff166003600084815260200190815260200160002060009054906101000a900473ffffffffffffffffffffffffffffffffffffffff1673ffffffffffffffffffffffffffffffffffffffff1614159050919050565b600033905090565b816005600083815260200190815260200160002060006101000a81548173ffffffffffffffffffffffffffffffffffffffff021916908373ffffffffffffffffffffffffffffffffffffffff160217905550808273ffffffffffffffffffffffffffffffffffffffff166121ce836113a4565b73ffffffffffffffffffffffffffffffffffffffff167f8c5be1e5ebec7d5bd14f71427d1e84f3dd0314c0f7b2291e5b200ac8c7c3b92560405160405180910390a45050565b600061221f826120e7565b61225e576040517f08c379a0000000000000000000000000000000000000000000000000000000008152600401612255906138e8565b60405180910390fd5b6000612269836113a4565b90508073ffffffffffffffffffffffffffffffffffffffff168473ffffffffffffffffffffffffffffffffffffffff1614806122d857508373ffffffffffffffffffffffffffffffffffffffff166122c084610656565b73ffffffffffffffffffffffffffffffffffffffff16145b806122e957506122e88185611ef1565b5b91505092915050565b8273ffffffffffffffffffffffffffffffffffffffff16612312826113a4565b73ffffffffffffffffffffffffffffffffffffffff1614612368576040517f08c379a000000000000000000000000000000000000000000000000000000000815260040161235f906137e8565b60405180910390fd5b600073ffffffffffffffffffffffffffffffffffffffff168273ffffffffffffffffffffffffffffffffffffffff1614156123d8576040517f08c379a00000000000000000000000000000000000000000000000000000000081526004016123cf90613848565b60405180910390fd5b6123e38383836129c8565b6123ee60008261215b565b6001600460008573ffffffffffffffffffffffffffffffffffffffff1673ffffffffffffffffffffffffffffffffffffffff168152602001908152602001600020600082825461243e9190613bf0565b925050819055506001600460008473ffffffffffffffffffffffffffffffffffffffff1673ffffffffffffffffffffffffffffffffffffffff16815260200190815260200160002060008282546124959190613b69565b92505081905550816003600083815260200190815260200160002060006101000a81548173ffffffffffffffffffffffffffffffffffffffff021916908373ffffffffffffffffffffffffffffffffffffffff160217905550808273ffffffffffffffffffffffffffffffffffffffff168473ffffffffffffffffffffffffffffffffffffffff167fddf252ad1be2c89b69c2b068fc378daa952ba7f163c4a11628f55a4df523b3ef60405160405180910390a46125548383836129cd565b505050565b6125738282604051806020016040528060008152506129d2565b5050565b60008060009054906101000a900473ffffffffffffffffffffffffffffffffffffffff169050816000806101000a81548173ffffffffffffffffffffffffffffffffffffffff021916908373ffffffffffffffffffffffffffffffffffffffff1602179055508173ffffffffffffffffffffffffffffffffffffffff168173ffffffffffffffffffffffffffffffffffffffff167f8be0079c531659141344cd1fd0a4f28419497f9722a3daafe3b4186f6b6457e060405160405180910390a35050565b8173ffffffffffffffffffffffffffffffffffffffff168373ffffffffffffffffffffffffffffffffffffffff1614156126aa576040517f08c379a00000000000000000000000000000000000000000000000000000000081526004016126a190613868565b60405180910390fd5b80600660008573ffffffffffffffffffffffffffffffffffffffff1673ffffffffffffffffffffffffffffffffffffffff16815260200190815260200160002060008473ffffffffffffffffffffffffffffffffffffffff1673ffffffffffffffffffffffffffffffffffffffff16815260200190815260200160002060006101000a81548160ff0219169083151502179055508173ffffffffffffffffffffffffffffffffffffffff168373ffffffffffffffffffffffffffffffffffffffff167f17307eab39ab6107e8899845ad3d59bd9653f200f220920489ca2b5937696c318360405161279b919061370b565b60405180910390a3505050565b6127b38484846122f2565b6127bf84848484612a2d565b6127fe576040517f08c379a00000000000000000000000000000000000000000000000000000000081526004016127f5906137a8565b60405180910390fd5b50505050565b606060405180602001604052806000815250905090565b60606000821415612863576040518060400160405280600181526020017f300000000000000000000000000000000000000000000000000000000000000081525090506129c3565b600082905060005b6000821461289557808061287e90613d3d565b915050600a8261288e9190613bbf565b915061286b565b60008167ffffffffffffffff8111156128d7577f4e487b7100000000000000000000000000000000000000000000000000000000600052604160045260246000fd5b6040519080825280601f01601f1916602001820160405280156129095781602001600182028036833780820191505090505b5090505b600085146129bc576001826129229190613bf0565b9150600a856129319190613d86565b603061293d9190613b69565b60f81b818381518110612979577f4e487b7100000000000000000000000000000000000000000000000000000000600052603260045260246000fd5b60200101907effffffffffffffffffffffffffffffffffffffffffffffffffffffffffffff1916908160001a905350600a856129b59190613bbf565b945061290d565b8093505050505b919050565b505050565b505050565b6129dc8383612bc4565b6129e96000848484612a2d565b612a28576040517f08c379a0000000000000000000000000000000000000000000000000000000008152600401612a1f906137a8565b60405180910390fd5b505050565b6000612a4e8473ffffffffffffffffffffffffffffffffffffffff16612d9e565b15612bb7578373ffffffffffffffffffffffffffffffffffffffff1663150b7a02612a77612153565b8786866040518563ffffffff1660e01b8152600401612a9994939291906136a4565b602060405180830381600087803b158015612ab357600080fd5b505af1925050508015612ae457506040513d601f19601f82011682018060405250810190612ae191906130d7565b60015b612b67573d8060008114612b14576040519150601f19603f3d011682016040523d82523d6000602084013e612b19565b606091505b50600081511415612b5f576040517f08c379a0000000000000000000000000000000000000000000000000000000008152600401612b56906137a8565b60405180910390fd5b805181602001fd5b63150b7a0260e01b7bffffffffffffffffffffffffffffffffffffffffffffffffffffffff1916817bffffffffffffffffffffffffffffffffffffffffffffffffffffffff191614915050612bbc565b600190505b949350505050565b600073ffffffffffffffffffffffffffffffffffffffff168273ffffffffffffffffffffffffffffffffffffffff161415612c34576040517f08c379a0000000000000000000000000000000000000000000000000000000008152600401612c2b90613968565b60405180910390fd5b612c3d816120e7565b15612c7d576040517f08c379a0000000000000000000000000000000000000000000000000000000008152600401612c7490613808565b60405180910390fd5b612c89600083836129c8565b6001600460008473ffffffffffffffffffffffffffffffffffffffff1673ffffffffffffffffffffffffffffffffffffffff1681526020019081526020016000206000828254612cd99190613b69565b92505081905550816003600083815260200190815260200160002060006101000a81548173ffffffffffffffffffffffffffffffffffffffff021916908373ffffffffffffffffffffffffffffffffffffffff160217905550808273ffffffffffffffffffffffffffffffffffffffff16600073ffffffffffffffffffffffffffffffffffffffff167fddf252ad1be2c89b69c2b068fc378daa952ba7f163c4a11628f55a4df523b3ef60405160405180910390a4612d9a600083836129cd565b5050565b6000808273ffffffffffffffffffffffffffffffffffffffff163b119050919050565b6040518060600160405280600390602082028036833780820191505090505090565b6000612df6612df184613ac8565b613aa3565b905082815260208101848484011115612e0e57600080fd5b612e19848285613c98565b509392505050565b600081359050612e30816144e8565b92915050565b600081519050612e45816144e8565b92915050565b600081359050612e5a816144ff565b92915050565b600081359050612e6f81614516565b92915050565b600081519050612e8481614516565b92915050565b600082601f830112612e9b57600080fd5b8135612eab848260208601612de3565b91505092915050565b600081359050612ec38161452d565b92915050565b600081519050612ed88161452d565b92915050565b600060208284031215612ef057600080fd5b6000612efe84828501612e21565b91505092915050565b600060208284031215612f1957600080fd5b6000612f2784828501612e36565b91505092915050565b60008060408385031215612f4357600080fd5b6000612f5185828601612e21565b9250506020612f6285828601612e21565b9150509250929050565b600080600060608486031215612f8157600080fd5b6000612f8f86828701612e21565b9350506020612fa086828701612e21565b9250506040612fb186828701612eb4565b9150509250925092565b60008060008060808587031215612fd157600080fd5b6000612fdf87828801612e21565b9450506020612ff087828801612e21565b935050604061300187828801612eb4565b925050606085013567ffffffffffffffff81111561301e57600080fd5b61302a87828801612e8a565b91505092959194509250565b6000806040838503121561304957600080fd5b600061305785828601612e21565b925050602061306885828601612e4b565b9150509250929050565b6000806040838503121561308557600080fd5b600061309385828601612e21565b92505060206130a485828601612eb4565b9150509250929050565b6000602082840312156130c057600080fd5b60006130ce84828501612e60565b91505092915050565b6000602082840312156130e957600080fd5b60006130f784828501612e75565b91505092915050565b60006020828403121561311257600080fd5b600061312084828501612eb4565b91505092915050565b60006020828403121561313b57600080fd5b600061314984828501612ec9565b91505092915050565b600061315e8383613610565b60208301905092915050565b61317381613c24565b82525050565b61318281613b03565b61318c8184613b31565b925061319782613af9565b8060005b838110156131c85781516131af8782613152565b96506131ba83613b24565b92505060018101905061319b565b505050505050565b6131d981613c36565b82525050565b60006131ea82613b0e565b6131f48185613b3c565b9350613204818560208601613ca7565b61320d81613e73565b840191505092915050565b600061322382613b19565b61322d8185613b4d565b935061323d818560208601613ca7565b61324681613e73565b840191505092915050565b600061325c82613b19565b6132668185613b5e565b9350613276818560208601613ca7565b80840191505092915050565b600061328f601183613b4d565b915061329a82613e84565b602082019050919050565b60006132b2602683613b4d565b91506132bd82613ead565b604082019050919050565b60006132d5601883613b4d565b91506132e082613efc565b602082019050919050565b60006132f8603283613b4d565b915061330382613f25565b604082019050919050565b600061331b602683613b4d565b915061332682613f74565b604082019050919050565b600061333e602583613b4d565b915061334982613fc3565b604082019050919050565b6000613361601c83613b4d565b915061336c82614012565b602082019050919050565b6000613384602683613b4d565b915061338f8261403b565b604082019050919050565b60006133a7602483613b4d565b91506133b28261408a565b604082019050919050565b60006133ca601983613b4d565b91506133d5826140d9565b602082019050919050565b60006133ed601183613b4d565b91506133f882614102565b602082019050919050565b6000613410601183613b4d565b915061341b8261412b565b602082019050919050565b6000613433601883613b4d565b915061343e82614154565b602082019050919050565b6000613456602c83613b4d565b91506134618261417d565b604082019050919050565b6000613479603883613b4d565b9150613484826141cc565b604082019050919050565b600061349c602a83613b4d565b91506134a78261421b565b604082019050919050565b60006134bf602983613b4d565b91506134ca8261426a565b604082019050919050565b60006134e2602083613b4d565b91506134ed826142b9565b602082019050919050565b6000613505602c83613b4d565b9150613510826142e2565b604082019050919050565b6000613528602083613b4d565b915061353382614331565b602082019050919050565b600061354b602f83613b4d565b91506135568261435a565b604082019050919050565b600061356e602683613b4d565b9150613579826143a9565b604082019050919050565b6000613591602183613b4d565b915061359c826143f8565b604082019050919050565b60006135b4603183613b4d565b91506135bf82614447565b604082019050919050565b60006135d7601083613b4d565b91506135e282614496565b602082019050919050565b60006135fa601883613b4d565b9150613605826144bf565b602082019050919050565b61361981613c8e565b82525050565b61362881613c8e565b82525050565b600061363a8285613251565b91506136468284613251565b91508190509392505050565b6000602082019050613667600083018461316a565b92915050565b6000606082019050613682600083018661316a565b61368f602083018561316a565b61369c604083018461361f565b949350505050565b60006080820190506136b9600083018761316a565b6136c6602083018661316a565b6136d3604083018561361f565b81810360608301526136e581846131df565b905095945050505050565b60006060820190506137056000830184613179565b92915050565b600060208201905061372060008301846131d0565b92915050565b600060208201905081810360008301526137408184613218565b905092915050565b6000602082019050818103600083015261376181613282565b9050919050565b60006020820190508181036000830152613781816132a5565b9050919050565b600060208201905081810360008301526137a1816132c8565b9050919050565b600060208201905081810360008301526137c1816132eb565b9050919050565b600060208201905081810360008301526137e18161330e565b9050919050565b6000602082019050818103600083015261380181613331565b9050919050565b6000602082019050818103600083015261382181613354565b9050919050565b6000602082019050818103600083015261384181613377565b9050919050565b600060208201905081810360008301526138618161339a565b9050919050565b60006020820190508181036000830152613881816133bd565b9050919050565b600060208201905081810360008301526138a1816133e0565b9050919050565b600060208201905081810360008301526138c181613403565b9050919050565b600060208201905081810360008301526138e181613426565b9050919050565b6000602082019050818103600083015261390181613449565b9050919050565b600060208201905081810360008301526139218161346c565b9050919050565b600060208201905081810360008301526139418161348f565b9050919050565b60006020820190508181036000830152613961816134b2565b9050919050565b60006020820190508181036000830152613981816134d5565b9050919050565b600060208201905081810360008301526139a1816134f8565b9050919050565b600060208201905081810360008301526139c18161351b565b9050919050565b600060208201905081810360008301526139e18161353e565b9050919050565b60006020820190508181036000830152613a0181613561565b9050919050565b60006020820190508181036000830152613a2181613584565b9050919050565b60006020820190508181036000830152613a41816135a7565b9050919050565b60006020820190508181036000830152613a61816135ca565b9050919050565b60006020820190508181036000830152613a81816135ed565b9050919050565b6000602082019050613a9d600083018461361f565b92915050565b6000613aad613abe565b9050613ab98282613d0c565b919050565b6000604051905090565b600067ffffffffffffffff821115613ae357613ae2613e44565b5b613aec82613e73565b9050602081019050919050565b6000819050919050565b600060039050919050565b600081519050919050565b600081519050919050565b6000602082019050919050565b600081905092915050565b600082825260208201905092915050565b600082825260208201905092915050565b600081905092915050565b6000613b7482613c8e565b9150613b7f83613c8e565b9250827fffffffffffffffffffffffffffffffffffffffffffffffffffffffffffffffff03821115613bb457613bb3613db7565b5b828201905092915050565b6000613bca82613c8e565b9150613bd583613c8e565b925082613be557613be4613de6565b5b828204905092915050565b6000613bfb82613c8e565b9150613c0683613c8e565b925082821015613c1957613c18613db7565b5b828203905092915050565b6000613c2f82613c6e565b9050919050565b60008115159050919050565b60007fffffffff0000000000000000000000000000000000000000000000000000000082169050919050565b600073ffffffffffffffffffffffffffffffffffffffff82169050919050565b6000819050919050565b82818337600083830152505050565b60005b83811015613cc5578082015181840152602081019050613caa565b83811115613cd4576000848401525b50505050565b60006002820490506001821680613cf257607f821691505b60208210811415613d0657613d05613e15565b5b50919050565b613d1582613e73565b810181811067ffffffffffffffff82111715613d3457613d33613e44565b5b80604052505050565b6000613d4882613c8e565b91507fffffffffffffffffffffffffffffffffffffffffffffffffffffffffffffffff821415613d7b57613d7a613db7565b5b600182019050919050565b6000613d9182613c8e565b9150613d9c83613c8e565b925082613dac57613dab613de6565b5b828206905092915050565b7f4e487b7100000000000000000000000000000000000000000000000000000000600052601160045260246000fd5b7f4e487b7100000000000000000000000000000000000000000000000000000000600052601260045260246000fd5b7f4e487b7100000000000000000000000000000000000000000000000000000000600052602260045260246000fd5b7f4e487b7100000000000000000000000000000000000000000000000000000000600052604160045260246000fd5b6000601f19601f8301169050919050565b7f596f75206e656564207069656365204121000000000000000000000000000000600082015250565b7f746865206164647265737320697320616c726561647920696e2077686974652060008201527f6c69737420580000000000000000000000000000000000000000000000000000602082015250565b7f796f752063616e206e6f74206d696e7420706965636520580000000000000000600082015250565b7f4552433732313a207472616e7366657220746f206e6f6e20455243373231526560008201527f63656976657220696d706c656d656e7465720000000000000000000000000000602082015250565b7f4f776e61626c653a206e6577206f776e657220697320746865207a65726f206160008201527f6464726573730000000000000000000000000000000000000000000000000000602082015250565b7f4552433732313a207472616e736665722066726f6d20696e636f72726563742060008201527f6f776e6572000000000000000000000000000000000000000000000000000000602082015250565b7f4552433732313a20746f6b656e20616c7265616479206d696e74656400000000600082015250565b7f746865206164647265737320697320616c726561647920696e2077686974652060008201527f6c69737420420000000000000000000000000000000000000000000000000000602082015250565b7f4552433732313a207472616e7366657220746f20746865207a65726f2061646460008201527f7265737300000000000000000000000000000000000000000000000000000000602082015250565b7f4552433732313a20617070726f766520746f2063616c6c657200000000000000600082015250565b7f596f75206e656564207069656365205821000000000000000000000000000000600082015250565b7f596f75206e656564207069656365204221000000000000000000000000000000600082015250565b7f796f752063616e206e6f74206d696e7420706965636520410000000000000000600082015250565b7f4552433732313a206f70657261746f7220717565727920666f72206e6f6e657860008201527f697374656e7420746f6b656e0000000000000000000000000000000000000000602082015250565b7f4552433732313a20617070726f76652063616c6c6572206973206e6f74206f7760008201527f6e6572206e6f7220617070726f76656420666f7220616c6c0000000000000000602082015250565b7f4552433732313a2062616c616e636520717565727920666f7220746865207a6560008201527f726f206164647265737300000000000000000000000000000000000000000000602082015250565b7f4552433732313a206f776e657220717565727920666f72206e6f6e657869737460008201527f656e7420746f6b656e0000000000000000000000000000000000000000000000602082015250565b7f4552433732313a206d696e7420746f20746865207a65726f2061646472657373600082015250565b7f4552433732313a20617070726f76656420717565727920666f72206e6f6e657860008201527f697374656e7420746f6b656e0000000000000000000000000000000000000000602082015250565b7f4f776e61626c653a2063616c6c6572206973206e6f7420746865206f776e6572600082015250565b7f4552433732314d657461646174613a2055524920717565727920666f72206e6f60008201527f6e6578697374656e7420746f6b656e0000000000000000000000000000000000602082015250565b7f746865206164647265737320697320616c726561647920696e2077686974652060008201527f6c69737420410000000000000000000000000000000000000000000000000000602082015250565b7f4552433732313a20617070726f76616c20746f2063757272656e74206f776e6560008201527f7200000000000000000000000000000000000000000000000000000000000000602082015250565b7f4552433732313a207472616e736665722063616c6c6572206973206e6f74206f60008201527f776e6572206e6f7220617070726f766564000000000000000000000000000000602082015250565b7f4e5446206973206d696e74206f75742100000000000000000000000000000000600082015250565b7f796f752063616e206e6f74206d696e7420706965636520420000000000000000600082015250565b6144f181613c24565b81146144fc57600080fd5b50565b61450881613c36565b811461451357600080fd5b50565b61451f81613c42565b811461452a57600080fd5b50565b61453681613c8e565b811461454157600080fd5b5056fea264697066735822122029e94ec1448be8526ff9b5f060ee106dea5fa22ea62abf022bad95f374c29db064736f6c63430008010033",
  "immutableReferences": {},
  "source": "pragma solidity >=0.4.22 <0.9.0;\n\nimport \"@openzeppelin/contracts/token/ERC721/ERC721.sol\";\nimport \"@openzeppelin/contracts/access/Ownable.sol\";\nimport \"./QilinPiece.sol\";\n\ncontract Qilin is Ownable, ERC721 {\n\n    uint256 public totalQilinQty = 0;\n    uint256 public constant TOTAL_QILIN_SUPPLY = 2022;\n\n    address _pieceA;\n    address _pieceB;\n    address _pieceX;\n\n    mapping (address => uint256) public whiteListA;\n    mapping (address => uint256) public whiteListB;\n    mapping (address => uint256) public whiteListX;\n\n    constructor(\n        address pieceA_,\n        address pieceB_,\n        address pieceX_,\n        string memory name,\n        string memory symbol\n    ) ERC721(name, symbol) {\n        _pieceA = pieceA_;\n        _pieceB = pieceB_;\n        _pieceX = pieceX_;\n    }\n\n    function mintQilin () external {\n        require(totalQilinQty < TOTAL_QILIN_SUPPLY, \"NTF is mint out!\");\n\n        QilinPiece a = QilinPiece(_pieceA);\n        require(a.getHolder(msg.sender) > 0, \"You need piece A!\");\n        uint256 tokenIdA = a.getHolder(msg.sender);\n\n        QilinPiece b = QilinPiece(_pieceB);\n        require(b.getHolder(msg.sender) > 0, \"You need piece B!\");\n        uint256 tokenIdB = b.getHolder(msg.sender);\n\n        QilinPiece x = QilinPiece(_pieceX);\n        require(x.getHolder(msg.sender) > 0, \"You need piece X!\");\n        uint256 tokenIdX = x.getHolder(msg.sender);\n\n        a.transferFrom(msg.sender, address(this), tokenIdA);\n        b.transferFrom(msg.sender, address(this), tokenIdB);\n        x.transferFrom(msg.sender, address(this), tokenIdX);\n\n        IERC721(_pieceA).getApproved(tokenIdA);\n        IERC721(_pieceB).getApproved(tokenIdB);\n        IERC721(_pieceX).getApproved(tokenIdX);\n\n        a.burn(tokenIdA);\n        b.burn(tokenIdB);\n        x.burn(tokenIdX);\n\n        _safeMint(msg.sender, totalQilinQty + 1);\n\n        whiteListA[msg.sender] = 3;\n        whiteListB[msg.sender] = 3;\n        whiteListX[msg.sender] = 3;\n    }\n\n    function mintQilinPiece (uint256 piece) external {\n        \n        if (piece == 1) {\n\n            require(whiteListA[msg.sender] == 1, \"you can not mint piece A\");\n\n            QilinPiece a = QilinPiece(_pieceA);\n            a.mintQilinPiece(msg.sender);\n            whiteListA[msg.sender] = 2;\n        } else if (piece == 2) {\n\n            require(whiteListB[msg.sender] == 1, \"you can not mint piece B\");\n\n            QilinPiece b = QilinPiece(_pieceB);\n            b.mintQilinPiece(msg.sender);\n            whiteListB[msg.sender] = 2;\n        } else if (piece == 3) {\n\n            require(whiteListX[msg.sender] == 1, \"you can not mint piece X\");\n\n            QilinPiece x = QilinPiece(_pieceX);\n            x.mintQilinPiece(msg.sender);\n            whiteListX[msg.sender] = 2;\n        }\n    }\n\n    function setWhiteList (address whiteLister, uint256 piece) external onlyOwner {\n\n        if (piece == 1) {\n\n            require(whiteListA[whiteLister] < 1, \"the address is already in white list A\");\n            whiteListA[whiteLister] = 1;\n\n        } else if (piece == 2) {\n\n            require(whiteListB[whiteLister] < 1, \"the address is already in white list B\");\n            whiteListB[whiteLister] = 1;\n\n        } else if (piece == 3) {\n\n            require(whiteListX[whiteLister] < 1, \"the address is already in white list X\");\n            whiteListX[whiteLister] = 1;\n\n        }\n    }\n\n    function getStatus (address account) external view returns (uint256[3] memory) {\n\n        return [whiteListA[account], whiteListB[account], whiteListX[account]];\n    }\n\n}",
  "sourcePath": "/Users/pengyun/Desktop/code/qilin-nft/contracts/Qilin.sol",
  "compiler": {
    "name": "solc",
    "version": "0.8.1+commit.df193b15.Emscripten.clang"
  },
  "schemaVersion": "3.3.3",
  "updatedAt": "2022-03-08T11:01:13.645Z",
  "networkType": "ethereum",
  "devdoc": {
    "kind": "dev",
    "methods": {
      "approve(address,uint256)": {
        "details": "See {IERC721-approve}."
      },
      "balanceOf(address)": {
        "details": "See {IERC721-balanceOf}."
      },
      "getApproved(uint256)": {
        "details": "See {IERC721-getApproved}."
      },
      "isApprovedForAll(address,address)": {
        "details": "See {IERC721-isApprovedForAll}."
      },
      "name()": {
        "details": "See {IERC721Metadata-name}."
      },
      "owner()": {
        "details": "Returns the address of the current owner."
      },
      "ownerOf(uint256)": {
        "details": "See {IERC721-ownerOf}."
      },
      "renounceOwnership()": {
        "details": "Leaves the contract without owner. It will not be possible to call `onlyOwner` functions anymore. Can only be called by the current owner. NOTE: Renouncing ownership will leave the contract without an owner, thereby removing any functionality that is only available to the owner."
      },
      "safeTransferFrom(address,address,uint256)": {
        "details": "See {IERC721-safeTransferFrom}."
      },
      "safeTransferFrom(address,address,uint256,bytes)": {
        "details": "See {IERC721-safeTransferFrom}."
      },
      "setApprovalForAll(address,bool)": {
        "details": "See {IERC721-setApprovalForAll}."
      },
      "supportsInterface(bytes4)": {
        "details": "See {IERC165-supportsInterface}."
      },
      "symbol()": {
        "details": "See {IERC721Metadata-symbol}."
      },
      "tokenURI(uint256)": {
        "details": "See {IERC721Metadata-tokenURI}."
      },
      "transferFrom(address,address,uint256)": {
        "details": "See {IERC721-transferFrom}."
      },
      "transferOwnership(address)": {
        "details": "Transfers ownership of the contract to a new account (`newOwner`). Can only be called by the current owner."
      }
    },
    "version": 1
  },
  "userdoc": {
    "kind": "user",
    "methods": {},
    "version": 1
  }
}