{
  "contractName": "QilinPiece",
  "abi": [
    {
      "inputs": [
        {
          "internalType": "string",
          "name": "name",
          "type": "string"
        },
        {
          "internalType": "string",
          "name": "symbol",
          "type": "string"
        },
        {
          "internalType": "uint256",
          "name": "totalSupply_",
          "type": "uint256"
        }
      ],
      "stateMutability": "nonpayable",
      "type": "constructor"
    },
    {
      "anonymous": false,
      "inputs": [
        {
          "indexed": true,
          "internalType": "address",
          "name": "owner",
          "type": "address"
        },
        {
          "indexed": true,
          "internalType": "address",
          "name": "approved",
          "type": "address"
        },
        {
          "indexed": true,
          "internalType": "uint256",
          "name": "tokenId",
          "type": "uint256"
        }
      ],
      "name": "Approval",
      "type": "event"
    },
    {
      "anonymous": false,
      "inputs": [
        {
          "indexed": true,
          "internalType": "address",
          "name": "owner",
          "type": "address"
        },
        {
          "indexed": true,
          "internalType": "address",
          "name": "operator",
          "type": "address"
        },
        {
          "indexed": false,
          "internalType": "bool",
          "name": "approved",
          "type": "bool"
        }
      ],
      "name": "ApprovalForAll",
      "type": "event"
    },
    {
      "anonymous": false,
      "inputs": [
        {
          "indexed": true,
          "internalType": "address",
          "name": "previousOwner",
          "type": "address"
        },
        {
          "indexed": true,
          "internalType": "address",
          "name": "newOwner",
          "type": "address"
        }
      ],
      "name": "OwnershipTransferred",
      "type": "event"
    },
    {
      "anonymous": false,
      "inputs": [
        {
          "indexed": true,
          "internalType": "address",
          "name": "from",
          "type": "address"
        },
        {
          "indexed": true,
          "internalType": "address",
          "name": "to",
          "type": "address"
        },
        {
          "indexed": true,
          "internalType": "uint256",
          "name": "tokenId",
          "type": "uint256"
        }
      ],
      "name": "Transfer",
      "type": "event"
    },
    {
      "inputs": [],
      "name": "_totalSupply",
      "outputs": [
        {
          "internalType": "uint256",
          "name": "",
          "type": "uint256"
        }
      ],
      "stateMutability": "view",
      "type": "function",
      "constant": true
    },
    {
      "inputs": [
        {
          "internalType": "address",
          "name": "to",
          "type": "address"
        },
        {
          "internalType": "uint256",
          "name": "tokenId",
          "type": "uint256"
        }
      ],
      "name": "approve",
      "outputs": [],
      "stateMutability": "nonpayable",
      "type": "function"
    },
    {
      "inputs": [
        {
          "internalType": "address",
          "name": "owner",
          "type": "address"
        }
      ],
      "name": "balanceOf",
      "outputs": [
        {
          "internalType": "uint256",
          "name": "",
          "type": "uint256"
        }
      ],
      "stateMutability": "view",
      "type": "function",
      "constant": true
    },
    {
      "inputs": [
        {
          "internalType": "uint256",
          "name": "tokenId",
          "type": "uint256"
        }
      ],
      "name": "getApproved",
      "outputs": [
        {
          "internalType": "address",
          "name": "",
          "type": "address"
        }
      ],
      "stateMutability": "view",
      "type": "function",
      "constant": true
    },
    {
      "inputs": [
        {
          "internalType": "address",
          "name": "owner",
          "type": "address"
        },
        {
          "internalType": "address",
          "name": "operator",
          "type": "address"
        }
      ],
      "name": "isApprovedForAll",
      "outputs": [
        {
          "internalType": "bool",
          "name": "",
          "type": "bool"
        }
      ],
      "stateMutability": "view",
      "type": "function",
      "constant": true
    },
    {
      "inputs": [
        {
          "internalType": "address",
          "name": "",
          "type": "address"
        }
      ],
      "name": "minterToTokenId",
      "outputs": [
        {
          "internalType": "uint256",
          "name": "",
          "type": "uint256"
        }
      ],
      "stateMutability": "view",
      "type": "function",
      "constant": true
    },
    {
      "inputs": [],
      "name": "name",
      "outputs": [
        {
          "internalType": "string",
          "name": "",
          "type": "string"
        }
      ],
      "stateMutability": "view",
      "type": "function",
      "constant": true
    },
    {
      "inputs": [],
      "name": "owner",
      "outputs": [
        {
          "internalType": "address",
          "name": "",
          "type": "address"
        }
      ],
      "stateMutability": "view",
      "type": "function",
      "constant": true
    },
    {
      "inputs": [
        {
          "internalType": "uint256",
          "name": "tokenId",
          "type": "uint256"
        }
      ],
      "name": "ownerOf",
      "outputs": [
        {
          "internalType": "address",
          "name": "",
          "type": "address"
        }
      ],
      "stateMutability": "view",
      "type": "function",
      "constant": true
    },
    {
      "inputs": [],
      "name": "renounceOwnership",
      "outputs": [],
      "stateMutability": "nonpayable",
      "type": "function"
    },
    {
      "inputs": [
        {
          "internalType": "address",
          "name": "from",
          "type": "address"
        },
        {
          "internalType": "address",
          "name": "to",
          "type": "address"
        },
        {
          "internalType": "uint256",
          "name": "tokenId",
          "type": "uint256"
        }
      ],
      "name": "safeTransferFrom",
      "outputs": [],
      "stateMutability": "nonpayable",
      "type": "function"
    },
    {
      "inputs": [
        {
          "internalType": "address",
          "name": "from",
          "type": "address"
        },
        {
          "internalType": "address",
          "name": "to",
          "type": "address"
        },
        {
          "internalType": "uint256",
          "name": "tokenId",
          "type": "uint256"
        },
        {
          "internalType": "bytes",
          "name": "_data",
          "type": "bytes"
        }
      ],
      "name": "safeTransferFrom",
      "outputs": [],
      "stateMutability": "nonpayable",
      "type": "function"
    },
    {
      "inputs": [
        {
          "internalType": "address",
          "name": "operator",
          "type": "address"
        },
        {
          "internalType": "bool",
          "name": "approved",
          "type": "bool"
        }
      ],
      "name": "setApprovalForAll",
      "outputs": [],
      "stateMutability": "nonpayable",
      "type": "function"
    },
    {
      "inputs": [
        {
          "internalType": "bytes4",
          "name": "interfaceId",
          "type": "bytes4"
        }
      ],
      "name": "supportsInterface",
      "outputs": [
        {
          "internalType": "bool",
          "name": "",
          "type": "bool"
        }
      ],
      "stateMutability": "view",
      "type": "function",
      "constant": true
    },
    {
      "inputs": [],
      "name": "symbol",
      "outputs": [
        {
          "internalType": "string",
          "name": "",
          "type": "string"
        }
      ],
      "stateMutability": "view",
      "type": "function",
      "constant": true
    },
    {
      "inputs": [
        {
          "internalType": "uint256",
          "name": "tokenId",
          "type": "uint256"
        }
      ],
      "name": "tokenURI",
      "outputs": [
        {
          "internalType": "string",
          "name": "",
          "type": "string"
        }
      ],
      "stateMutability": "view",
      "type": "function",
      "constant": true
    },
    {
      "inputs": [],
      "name": "totalQty",
      "outputs": [
        {
          "internalType": "uint256",
          "name": "",
          "type": "uint256"
        }
      ],
      "stateMutability": "view",
      "type": "function",
      "constant": true
    },
    {
      "inputs": [
        {
          "internalType": "address",
          "name": "newOwner",
          "type": "address"
        }
      ],
      "name": "transferOwnership",
      "outputs": [],
      "stateMutability": "nonpayable",
      "type": "function"
    },
    {
      "inputs": [
        {
          "internalType": "address",
          "name": "account",
          "type": "address"
        }
      ],
      "name": "mintQilinPiece",
      "outputs": [],
      "stateMutability": "nonpayable",
      "type": "function"
    },
    {
      "inputs": [
        {
          "internalType": "address",
          "name": "from",
          "type": "address"
        },
        {
          "internalType": "address",
          "name": "to",
          "type": "address"
        },
        {
          "internalType": "uint256",
          "name": "tokenId",
          "type": "uint256"
        }
      ],
      "name": "transferFrom",
      "outputs": [],
      "stateMutability": "nonpayable",
      "type": "function"
    },
    {
      "inputs": [
        {
          "internalType": "uint256",
          "name": "tokenId",
          "type": "uint256"
        }
      ],
      "name": "burn",
      "outputs": [],
      "stateMutability": "nonpayable",
      "type": "function"
    },
    {
      "inputs": [
        {
          "internalType": "address",
          "name": "holder",
          "type": "address"
        }
      ],
      "name": "getHolder",
      "outputs": [
        {
          "internalType": "uint256",
          "name": "",
          "type": "uint256"
        }
      ],
      "stateMutability": "view",
      "type": "function",
      "constant": true
    },
    {
      "inputs": [
        {
          "internalType": "address",
          "name": "owner",
          "type": "address"
        }
      ],
      "name": "setOwner",
      "outputs": [],
      "stateMutability": "nonpayable",
      "type": "function"
    }
  ],
  "bytecode": "0x6080604052600060075560006009553480156200001b57600080fd5b5060405162003622380380620036228339818101604052810190620000419190620002ac565b82826200006362000057620000a760201b60201c565b620000af60201b60201c565b81600190805190602001906200007b92919062000173565b5080600290805190602001906200009492919062000173565b50505080600981905550505050620004c8565b600033905090565b60008060009054906101000a900473ffffffffffffffffffffffffffffffffffffffff169050816000806101000a81548173ffffffffffffffffffffffffffffffffffffffff021916908373ffffffffffffffffffffffffffffffffffffffff1602179055508173ffffffffffffffffffffffffffffffffffffffff168173ffffffffffffffffffffffffffffffffffffffff167f8be0079c531659141344cd1fd0a4f28419497f9722a3daafe3b4186f6b6457e060405160405180910390a35050565b8280546200018190620003d3565b90600052602060002090601f016020900481019282620001a55760008555620001f1565b82601f10620001c057805160ff1916838001178555620001f1565b82800160010185558215620001f1579182015b82811115620001f0578251825591602001919060010190620001d3565b5b50905062000200919062000204565b5090565b5b808211156200021f57600081600090555060010162000205565b5090565b60006200023a62000234846200035d565b62000334565b9050828152602081018484840111156200025357600080fd5b620002608482856200039d565b509392505050565b600082601f8301126200027a57600080fd5b81516200028c84826020860162000223565b91505092915050565b600081519050620002a681620004ae565b92915050565b600080600060608486031215620002c257600080fd5b600084015167ffffffffffffffff811115620002dd57600080fd5b620002eb8682870162000268565b935050602084015167ffffffffffffffff8111156200030957600080fd5b620003178682870162000268565b92505060406200032a8682870162000295565b9150509250925092565b60006200034062000353565b90506200034e828262000409565b919050565b6000604051905090565b600067ffffffffffffffff8211156200037b576200037a6200046e565b5b62000386826200049d565b9050602081019050919050565b6000819050919050565b60005b83811015620003bd578082015181840152602081019050620003a0565b83811115620003cd576000848401525b50505050565b60006002820490506001821680620003ec57607f821691505b602082108114156200040357620004026200043f565b5b50919050565b62000414826200049d565b810181811067ffffffffffffffff821117156200043657620004356200046e565b5b80604052505050565b7f4e487b7100000000000000000000000000000000000000000000000000000000600052602260045260246000fd5b7f4e487b7100000000000000000000000000000000000000000000000000000000600052604160045260246000fd5b6000601f19601f8301169050919050565b620004b98162000393565b8114620004c557600080fd5b50565b61314a80620004d86000396000f3fe608060405234801561001057600080fd5b506004361061014c5760003560e01c806370a08231116100c3578063a897598a1161007c578063a897598a14610387578063b88d4fde146103a5578063c87b56dd146103c1578063cd75c7d4146103f1578063e985e9c514610421578063f2fde38b146104515761014c565b806370a08231146102c5578063715018a6146102f55780638da5cb5b146102ff57806395d89b411461031d578063a22cb4651461033b578063a35f8055146103575761014c565b806313af40351161011557806313af40351461020757806323b872dd146102235780633eaaf86b1461023f57806342842e0e1461025d57806342966c68146102795780636352211e146102955761014c565b806229aa481461015157806301ffc9a71461016d57806306fdde031461019d578063081812fc146101bb578063095ea7b3146101eb575b600080fd5b61016b60048036038101906101669190611f63565b61046d565b005b6101876004803603810190610182919061210a565b6105a6565b6040516101949190612579565b60405180910390f35b6101a5610688565b6040516101b29190612594565b60405180910390f35b6101d560048036038101906101d0919061215c565b61071a565b6040516101e29190612512565b60405180910390f35b610205600480360381019061020091906120ce565b61079f565b005b610221600480360381019061021c9190611f63565b6108b7565b005b61023d60048036038101906102389190611fc8565b61093f565b005b6102476109c4565b6040516102549190612816565b60405180910390f35b61027760048036038101906102729190611fc8565b6109ca565b005b610293600480360381019061028e919061215c565b6109ea565b005b6102af60048036038101906102aa919061215c565b610a72565b6040516102bc9190612512565b60405180910390f35b6102df60048036038101906102da9190611f63565b610b24565b6040516102ec9190612816565b60405180910390f35b6102fd610bdc565b005b610307610c64565b6040516103149190612512565b60405180910390f35b610325610c8d565b6040516103329190612594565b60405180910390f35b61035560048036038101906103509190612092565b610d1f565b005b610371600480360381019061036c9190611f63565b610d35565b60405161037e9190612816565b60405180910390f35b61038f610d4d565b60405161039c9190612816565b60405180910390f35b6103bf60048036038101906103ba9190612017565b610d53565b005b6103db60048036038101906103d6919061215c565b610db5565b6040516103e89190612594565b60405180910390f35b61040b60048036038101906104069190611f63565b610e5c565b6040516104189190612816565b60405180910390f35b61043b60048036038101906104369190611f8c565b610ea5565b6040516104489190612579565b60405180910390f35b61046b60048036038101906104669190611f63565b610f39565b005b600060095411156104bf57600954600754106104be576040517f08c379a00000000000000000000000000000000000000000000000000000000081526004016104b590612656565b60405180910390fd5b5b6001600860008373ffffffffffffffffffffffffffffffffffffffff1673ffffffffffffffffffffffffffffffffffffffff1681526020019081526020016000205410610541576040517f08c379a0000000000000000000000000000000000000000000000000000000008152600401610538906127f6565b60405180910390fd5b6000600160075461055291906128ca565b905061055e8282611031565b80600860008473ffffffffffffffffffffffffffffffffffffffff1673ffffffffffffffffffffffffffffffffffffffff168152602001908152602001600020819055505050565b60007f80ac58cd000000000000000000000000000000000000000000000000000000007bffffffffffffffffffffffffffffffffffffffffffffffffffffffff1916827bffffffffffffffffffffffffffffffffffffffffffffffffffffffff1916148061067157507f5b5e139f000000000000000000000000000000000000000000000000000000007bffffffffffffffffffffffffffffffffffffffffffffffffffffffff1916827bffffffffffffffffffffffffffffffffffffffffffffffffffffffff1916145b8061068157506106808261104f565b5b9050919050565b60606001805461069790612a3b565b80601f01602080910402602001604051908101604052809291908181526020018280546106c390612a3b565b80156107105780601f106106e557610100808354040283529160200191610710565b820191906000526020600020905b8154815290600101906020018083116106f357829003601f168201915b5050505050905090565b6000610725826110b9565b610764576040517f08c379a000000000000000000000000000000000000000000000000000000000815260040161075b90612756565b60405180910390fd5b6005600083815260200190815260200160002060009054906101000a900473ffffffffffffffffffffffffffffffffffffffff169050919050565b60006107aa82610a72565b90508073ffffffffffffffffffffffffffffffffffffffff168373ffffffffffffffffffffffffffffffffffffffff16141561081b576040517f08c379a0000000000000000000000000000000000000000000000000000000008152600401610812906127b6565b60405180910390fd5b8073ffffffffffffffffffffffffffffffffffffffff1661083a611125565b73ffffffffffffffffffffffffffffffffffffffff161480610869575061086881610863611125565b610ea5565b5b6108a8576040517f08c379a000000000000000000000000000000000000000000000000000000000815260040161089f906126d6565b60405180910390fd5b6108b2838361112d565b505050565b6108bf611125565b73ffffffffffffffffffffffffffffffffffffffff166108dd610c64565b73ffffffffffffffffffffffffffffffffffffffff1614610933576040517f08c379a000000000000000000000000000000000000000000000000000000000815260040161092a90612776565b60405180910390fd5b61093c816111e6565b50565b610947610c64565b73ffffffffffffffffffffffffffffffffffffffff168273ffffffffffffffffffffffffffffffffffffffff16146109b4576040517f08c379a00000000000000000000000000000000000000000000000000000000081526004016109ab906125b6565b60405180910390fd5b6109bf8383836112aa565b505050565b60095481565b6109e583838360405180602001604052806000815250610d53565b505050565b6109f2611125565b73ffffffffffffffffffffffffffffffffffffffff16610a10610c64565b73ffffffffffffffffffffffffffffffffffffffff1614610a66576040517f08c379a0000000000000000000000000000000000000000000000000000000008152600401610a5d90612776565b60405180910390fd5b610a6f81611511565b50565b6000806003600084815260200190815260200160002060009054906101000a900473ffffffffffffffffffffffffffffffffffffffff169050600073ffffffffffffffffffffffffffffffffffffffff168173ffffffffffffffffffffffffffffffffffffffff161415610b1b576040517f08c379a0000000000000000000000000000000000000000000000000000000008152600401610b1290612716565b60405180910390fd5b80915050919050565b60008073ffffffffffffffffffffffffffffffffffffffff168273ffffffffffffffffffffffffffffffffffffffff161415610b95576040517f08c379a0000000000000000000000000000000000000000000000000000000008152600401610b8c906126f6565b60405180910390fd5b600460008373ffffffffffffffffffffffffffffffffffffffff1673ffffffffffffffffffffffffffffffffffffffff168152602001908152602001600020549050919050565b610be4611125565b73ffffffffffffffffffffffffffffffffffffffff16610c02610c64565b73ffffffffffffffffffffffffffffffffffffffff1614610c58576040517f08c379a0000000000000000000000000000000000000000000000000000000008152600401610c4f90612776565b60405180910390fd5b610c6260006111e6565b565b60008060009054906101000a900473ffffffffffffffffffffffffffffffffffffffff16905090565b606060028054610c9c90612a3b565b80601f0160208091040260200160405190810160405280929190818152602001828054610cc890612a3b565b8015610d155780601f10610cea57610100808354040283529160200191610d15565b820191906000526020600020905b815481529060010190602001808311610cf857829003601f168201915b5050505050905090565b610d31610d2a611125565b838361162e565b5050565b60086020528060005260406000206000915090505481565b60075481565b610d64610d5e611125565b8361179b565b610da3576040517f08c379a0000000000000000000000000000000000000000000000000000000008152600401610d9a906127d6565b60405180910390fd5b610daf84848484611879565b50505050565b6060610dc0826110b9565b610dff576040517f08c379a0000000000000000000000000000000000000000000000000000000008152600401610df690612796565b60405180910390fd5b6000610e096118d5565b90506000815111610e295760405180602001604052806000815250610e54565b80610e33846118ec565b604051602001610e449291906124ee565b6040516020818303038152906040525b915050919050565b6000600860008373ffffffffffffffffffffffffffffffffffffffff1673ffffffffffffffffffffffffffffffffffffffff168152602001908152602001600020549050919050565b6000600660008473ffffffffffffffffffffffffffffffffffffffff1673ffffffffffffffffffffffffffffffffffffffff16815260200190815260200160002060008373ffffffffffffffffffffffffffffffffffffffff1673ffffffffffffffffffffffffffffffffffffffff16815260200190815260200160002060009054906101000a900460ff16905092915050565b610f41611125565b73ffffffffffffffffffffffffffffffffffffffff16610f5f610c64565b73ffffffffffffffffffffffffffffffffffffffff1614610fb5576040517f08c379a0000000000000000000000000000000000000000000000000000000008152600401610fac90612776565b60405180910390fd5b600073ffffffffffffffffffffffffffffffffffffffff168173ffffffffffffffffffffffffffffffffffffffff161415611025576040517f08c379a000000000000000000000000000000000000000000000000000000000815260040161101c906125f6565b60405180910390fd5b61102e816111e6565b50565b61104b828260405180602001604052806000815250611a99565b5050565b60007f01ffc9a7000000000000000000000000000000000000000000000000000000007bffffffffffffffffffffffffffffffffffffffffffffffffffffffff1916827bffffffffffffffffffffffffffffffffffffffffffffffffffffffff1916149050919050565b60008073ffffffffffffffffffffffffffffffffffffffff166003600084815260200190815260200160002060009054906101000a900473ffffffffffffffffffffffffffffffffffffffff1673ffffffffffffffffffffffffffffffffffffffff1614159050919050565b600033905090565b816005600083815260200190815260200160002060006101000a81548173ffffffffffffffffffffffffffffffffffffffff021916908373ffffffffffffffffffffffffffffffffffffffff160217905550808273ffffffffffffffffffffffffffffffffffffffff166111a083610a72565b73ffffffffffffffffffffffffffffffffffffffff167f8c5be1e5ebec7d5bd14f71427d1e84f3dd0314c0f7b2291e5b200ac8c7c3b92560405160405180910390a45050565b60008060009054906101000a900473ffffffffffffffffffffffffffffffffffffffff169050816000806101000a81548173ffffffffffffffffffffffffffffffffffffffff021916908373ffffffffffffffffffffffffffffffffffffffff1602179055508173ffffffffffffffffffffffffffffffffffffffff168173ffffffffffffffffffffffffffffffffffffffff167f8be0079c531659141344cd1fd0a4f28419497f9722a3daafe3b4186f6b6457e060405160405180910390a35050565b8273ffffffffffffffffffffffffffffffffffffffff166112ca82610a72565b73ffffffffffffffffffffffffffffffffffffffff1614611320576040517f08c379a000000000000000000000000000000000000000000000000000000000815260040161131790612616565b60405180910390fd5b600073ffffffffffffffffffffffffffffffffffffffff168273ffffffffffffffffffffffffffffffffffffffff161415611390576040517f08c379a000000000000000000000000000000000000000000000000000000000815260040161138790612676565b60405180910390fd5b61139b838383611af4565b6113a660008261112d565b6001600460008573ffffffffffffffffffffffffffffffffffffffff1673ffffffffffffffffffffffffffffffffffffffff16815260200190815260200160002060008282546113f69190612951565b925050819055506001600460008473ffffffffffffffffffffffffffffffffffffffff1673ffffffffffffffffffffffffffffffffffffffff168152602001908152602001600020600082825461144d91906128ca565b92505081905550816003600083815260200190815260200160002060006101000a81548173ffffffffffffffffffffffffffffffffffffffff021916908373ffffffffffffffffffffffffffffffffffffffff160217905550808273ffffffffffffffffffffffffffffffffffffffff168473ffffffffffffffffffffffffffffffffffffffff167fddf252ad1be2c89b69c2b068fc378daa952ba7f163c4a11628f55a4df523b3ef60405160405180910390a461150c838383611af9565b505050565b600061151c82610a72565b905061152a81600084611af4565b61153560008361112d565b6001600460008373ffffffffffffffffffffffffffffffffffffffff1673ffffffffffffffffffffffffffffffffffffffff16815260200190815260200160002060008282546115859190612951565b925050819055506003600083815260200190815260200160002060006101000a81549073ffffffffffffffffffffffffffffffffffffffff021916905581600073ffffffffffffffffffffffffffffffffffffffff168273ffffffffffffffffffffffffffffffffffffffff167fddf252ad1be2c89b69c2b068fc378daa952ba7f163c4a11628f55a4df523b3ef60405160405180910390a461162a81600084611af9565b5050565b8173ffffffffffffffffffffffffffffffffffffffff168373ffffffffffffffffffffffffffffffffffffffff16141561169d576040517f08c379a000000000000000000000000000000000000000000000000000000000815260040161169490612696565b60405180910390fd5b80600660008573ffffffffffffffffffffffffffffffffffffffff1673ffffffffffffffffffffffffffffffffffffffff16815260200190815260200160002060008473ffffffffffffffffffffffffffffffffffffffff1673ffffffffffffffffffffffffffffffffffffffff16815260200190815260200160002060006101000a81548160ff0219169083151502179055508173ffffffffffffffffffffffffffffffffffffffff168373ffffffffffffffffffffffffffffffffffffffff167f17307eab39ab6107e8899845ad3d59bd9653f200f220920489ca2b5937696c318360405161178e9190612579565b60405180910390a3505050565b60006117a6826110b9565b6117e5576040517f08c379a00000000000000000000000000000000000000000000000000000000081526004016117dc906126b6565b60405180910390fd5b60006117f083610a72565b90508073ffffffffffffffffffffffffffffffffffffffff168473ffffffffffffffffffffffffffffffffffffffff16148061185f57508373ffffffffffffffffffffffffffffffffffffffff166118478461071a565b73ffffffffffffffffffffffffffffffffffffffff16145b80611870575061186f8185610ea5565b5b91505092915050565b6118848484846112aa565b61189084848484611afe565b6118cf576040517f08c379a00000000000000000000000000000000000000000000000000000000081526004016118c6906125d6565b60405180910390fd5b50505050565b606060405180602001604052806000815250905090565b60606000821415611934576040518060400160405280600181526020017f30000000000000000000000000000000000000000000000000000000000000008152509050611a94565b600082905060005b6000821461196657808061194f90612a9e565b915050600a8261195f9190612920565b915061193c565b60008167ffffffffffffffff8111156119a8577f4e487b7100000000000000000000000000000000000000000000000000000000600052604160045260246000fd5b6040519080825280601f01601f1916602001820160405280156119da5781602001600182028036833780820191505090505b5090505b60008514611a8d576001826119f39190612951565b9150600a85611a029190612ae7565b6030611a0e91906128ca565b60f81b818381518110611a4a577f4e487b7100000000000000000000000000000000000000000000000000000000600052603260045260246000fd5b60200101907effffffffffffffffffffffffffffffffffffffffffffffffffffffffffffff1916908160001a905350600a85611a869190612920565b94506119de565b8093505050505b919050565b611aa38383611c95565b611ab06000848484611afe565b611aef576040517f08c379a0000000000000000000000000000000000000000000000000000000008152600401611ae6906125d6565b60405180910390fd5b505050565b505050565b505050565b6000611b1f8473ffffffffffffffffffffffffffffffffffffffff16611e6f565b15611c88578373ffffffffffffffffffffffffffffffffffffffff1663150b7a02611b48611125565b8786866040518563ffffffff1660e01b8152600401611b6a949392919061252d565b602060405180830381600087803b158015611b8457600080fd5b505af1925050508015611bb557506040513d601f19601f82011682018060405250810190611bb29190612133565b60015b611c38573d8060008114611be5576040519150601f19603f3d011682016040523d82523d6000602084013e611bea565b606091505b50600081511415611c30576040517f08c379a0000000000000000000000000000000000000000000000000000000008152600401611c27906125d6565b60405180910390fd5b805181602001fd5b63150b7a0260e01b7bffffffffffffffffffffffffffffffffffffffffffffffffffffffff1916817bffffffffffffffffffffffffffffffffffffffffffffffffffffffff191614915050611c8d565b600190505b949350505050565b600073ffffffffffffffffffffffffffffffffffffffff168273ffffffffffffffffffffffffffffffffffffffff161415611d05576040517f08c379a0000000000000000000000000000000000000000000000000000000008152600401611cfc90612736565b60405180910390fd5b611d0e816110b9565b15611d4e576040517f08c379a0000000000000000000000000000000000000000000000000000000008152600401611d4590612636565b60405180910390fd5b611d5a60008383611af4565b6001600460008473ffffffffffffffffffffffffffffffffffffffff1673ffffffffffffffffffffffffffffffffffffffff1681526020019081526020016000206000828254611daa91906128ca565b92505081905550816003600083815260200190815260200160002060006101000a81548173ffffffffffffffffffffffffffffffffffffffff021916908373ffffffffffffffffffffffffffffffffffffffff160217905550808273ffffffffffffffffffffffffffffffffffffffff16600073ffffffffffffffffffffffffffffffffffffffff167fddf252ad1be2c89b69c2b068fc378daa952ba7f163c4a11628f55a4df523b3ef60405160405180910390a4611e6b60008383611af9565b5050565b6000808273ffffffffffffffffffffffffffffffffffffffff163b119050919050565b6000611ea5611ea084612856565b612831565b905082815260208101848484011115611ebd57600080fd5b611ec88482856129f9565b509392505050565b600081359050611edf816130b8565b92915050565b600081359050611ef4816130cf565b92915050565b600081359050611f09816130e6565b92915050565b600081519050611f1e816130e6565b92915050565b600082601f830112611f3557600080fd5b8135611f45848260208601611e92565b91505092915050565b600081359050611f5d816130fd565b92915050565b600060208284031215611f7557600080fd5b6000611f8384828501611ed0565b91505092915050565b60008060408385031215611f9f57600080fd5b6000611fad85828601611ed0565b9250506020611fbe85828601611ed0565b9150509250929050565b600080600060608486031215611fdd57600080fd5b6000611feb86828701611ed0565b9350506020611ffc86828701611ed0565b925050604061200d86828701611f4e565b9150509250925092565b6000806000806080858703121561202d57600080fd5b600061203b87828801611ed0565b945050602061204c87828801611ed0565b935050604061205d87828801611f4e565b925050606085013567ffffffffffffffff81111561207a57600080fd5b61208687828801611f24565b91505092959194509250565b600080604083850312156120a557600080fd5b60006120b385828601611ed0565b92505060206120c485828601611ee5565b9150509250929050565b600080604083850312156120e157600080fd5b60006120ef85828601611ed0565b925050602061210085828601611f4e565b9150509250929050565b60006020828403121561211c57600080fd5b600061212a84828501611efa565b91505092915050565b60006020828403121561214557600080fd5b600061215384828501611f0f565b91505092915050565b60006020828403121561216e57600080fd5b600061217c84828501611f4e565b91505092915050565b61218e81612985565b82525050565b61219d81612997565b82525050565b60006121ae82612887565b6121b8818561289d565b93506121c8818560208601612a08565b6121d181612bd4565b840191505092915050565b60006121e782612892565b6121f181856128ae565b9350612201818560208601612a08565b61220a81612bd4565b840191505092915050565b600061222082612892565b61222a81856128bf565b935061223a818560208601612a08565b80840191505092915050565b60006122536012836128ae565b915061225e82612be5565b602082019050919050565b60006122766032836128ae565b915061228182612c0e565b604082019050919050565b60006122996026836128ae565b91506122a482612c5d565b604082019050919050565b60006122bc6025836128ae565b91506122c782612cac565b604082019050919050565b60006122df601c836128ae565b91506122ea82612cfb565b602082019050919050565b60006123026016836128ae565b915061230d82612d24565b602082019050919050565b60006123256024836128ae565b915061233082612d4d565b604082019050919050565b60006123486019836128ae565b915061235382612d9c565b602082019050919050565b600061236b602c836128ae565b915061237682612dc5565b604082019050919050565b600061238e6038836128ae565b915061239982612e14565b604082019050919050565b60006123b1602a836128ae565b91506123bc82612e63565b604082019050919050565b60006123d46029836128ae565b91506123df82612eb2565b604082019050919050565b60006123f76020836128ae565b915061240282612f01565b602082019050919050565b600061241a602c836128ae565b915061242582612f2a565b604082019050919050565b600061243d6020836128ae565b915061244882612f79565b602082019050919050565b6000612460602f836128ae565b915061246b82612fa2565b604082019050919050565b60006124836021836128ae565b915061248e82612ff1565b604082019050919050565b60006124a66031836128ae565b91506124b182613040565b604082019050919050565b60006124c96019836128ae565b91506124d48261308f565b602082019050919050565b6124e8816129ef565b82525050565b60006124fa8285612215565b91506125068284612215565b91508190509392505050565b60006020820190506125276000830184612185565b92915050565b60006080820190506125426000830187612185565b61254f6020830186612185565b61255c60408301856124df565b818103606083015261256e81846121a3565b905095945050505050565b600060208201905061258e6000830184612194565b92915050565b600060208201905081810360008301526125ae81846121dc565b905092915050565b600060208201905081810360008301526125cf81612246565b9050919050565b600060208201905081810360008301526125ef81612269565b9050919050565b6000602082019050818103600083015261260f8161228c565b9050919050565b6000602082019050818103600083015261262f816122af565b9050919050565b6000602082019050818103600083015261264f816122d2565b9050919050565b6000602082019050818103600083015261266f816122f5565b9050919050565b6000602082019050818103600083015261268f81612318565b9050919050565b600060208201905081810360008301526126af8161233b565b9050919050565b600060208201905081810360008301526126cf8161235e565b9050919050565b600060208201905081810360008301526126ef81612381565b9050919050565b6000602082019050818103600083015261270f816123a4565b9050919050565b6000602082019050818103600083015261272f816123c7565b9050919050565b6000602082019050818103600083015261274f816123ea565b9050919050565b6000602082019050818103600083015261276f8161240d565b9050919050565b6000602082019050818103600083015261278f81612430565b9050919050565b600060208201905081810360008301526127af81612453565b9050919050565b600060208201905081810360008301526127cf81612476565b9050919050565b600060208201905081810360008301526127ef81612499565b9050919050565b6000602082019050818103600083015261280f816124bc565b9050919050565b600060208201905061282b60008301846124df565b92915050565b600061283b61284c565b90506128478282612a6d565b919050565b6000604051905090565b600067ffffffffffffffff82111561287157612870612ba5565b5b61287a82612bd4565b9050602081019050919050565b600081519050919050565b600081519050919050565b600082825260208201905092915050565b600082825260208201905092915050565b600081905092915050565b60006128d5826129ef565b91506128e0836129ef565b9250827fffffffffffffffffffffffffffffffffffffffffffffffffffffffffffffffff0382111561291557612914612b18565b5b828201905092915050565b600061292b826129ef565b9150612936836129ef565b92508261294657612945612b47565b5b828204905092915050565b600061295c826129ef565b9150612967836129ef565b92508282101561297a57612979612b18565b5b828203905092915050565b6000612990826129cf565b9050919050565b60008115159050919050565b60007fffffffff0000000000000000000000000000000000000000000000000000000082169050919050565b600073ffffffffffffffffffffffffffffffffffffffff82169050919050565b6000819050919050565b82818337600083830152505050565b60005b83811015612a26578082015181840152602081019050612a0b565b83811115612a35576000848401525b50505050565b60006002820490506001821680612a5357607f821691505b60208210811415612a6757612a66612b76565b5b50919050565b612a7682612bd4565b810181811067ffffffffffffffff82111715612a9557612a94612ba5565b5b80604052505050565b6000612aa9826129ef565b91507fffffffffffffffffffffffffffffffffffffffffffffffffffffffffffffffff821415612adc57612adb612b18565b5b600182019050919050565b6000612af2826129ef565b9150612afd836129ef565b925082612b0d57612b0c612b47565b5b828206905092915050565b7f4e487b7100000000000000000000000000000000000000000000000000000000600052601160045260246000fd5b7f4e487b7100000000000000000000000000000000000000000000000000000000600052601260045260246000fd5b7f4e487b7100000000000000000000000000000000000000000000000000000000600052602260045260246000fd5b7f4e487b7100000000000000000000000000000000000000000000000000000000600052604160045260246000fd5b6000601f19601f8301169050919050565b7f7472616e736665722069732062616e6e65640000000000000000000000000000600082015250565b7f4552433732313a207472616e7366657220746f206e6f6e20455243373231526560008201527f63656976657220696d706c656d656e7465720000000000000000000000000000602082015250565b7f4f776e61626c653a206e6577206f776e657220697320746865207a65726f206160008201527f6464726573730000000000000000000000000000000000000000000000000000602082015250565b7f4552433732313a207472616e736665722066726f6d20696e636f72726563742060008201527f6f776e6572000000000000000000000000000000000000000000000000000000602082015250565b7f4552433732313a20746f6b656e20616c7265616479206d696e74656400000000600082015250565b7f746865207069656365206973206d696e74206f75742100000000000000000000600082015250565b7f4552433732313a207472616e7366657220746f20746865207a65726f2061646460008201527f7265737300000000000000000000000000000000000000000000000000000000602082015250565b7f4552433732313a20617070726f766520746f2063616c6c657200000000000000600082015250565b7f4552433732313a206f70657261746f7220717565727920666f72206e6f6e657860008201527f697374656e7420746f6b656e0000000000000000000000000000000000000000602082015250565b7f4552433732313a20617070726f76652063616c6c6572206973206e6f74206f7760008201527f6e6572206e6f7220617070726f76656420666f7220616c6c0000000000000000602082015250565b7f4552433732313a2062616c616e636520717565727920666f7220746865207a6560008201527f726f206164647265737300000000000000000000000000000000000000000000602082015250565b7f4552433732313a206f776e657220717565727920666f72206e6f6e657869737460008201527f656e7420746f6b656e0000000000000000000000000000000000000000000000602082015250565b7f4552433732313a206d696e7420746f20746865207a65726f2061646472657373600082015250565b7f4552433732313a20617070726f76656420717565727920666f72206e6f6e657860008201527f697374656e7420746f6b656e0000000000000000000000000000000000000000602082015250565b7f4f776e61626c653a2063616c6c6572206973206e6f7420746865206f776e6572600082015250565b7f4552433732314d657461646174613a2055524920717565727920666f72206e6f60008201527f6e6578697374656e7420746f6b656e0000000000000000000000000000000000602082015250565b7f4552433732313a20617070726f76616c20746f2063757272656e74206f776e6560008201527f7200000000000000000000000000000000000000000000000000000000000000602082015250565b7f4552433732313a207472616e736665722063616c6c6572206973206e6f74206f60008201527f776e6572206e6f7220617070726f766564000000000000000000000000000000602082015250565b7f796f752068617665206f776e6564207468697320706965636500000000000000600082015250565b6130c181612985565b81146130cc57600080fd5b50565b6130d881612997565b81146130e357600080fd5b50565b6130ef816129a3565b81146130fa57600080fd5b50565b613106816129ef565b811461311157600080fd5b5056fea26469706673582212201de16f708c4ec09998d85c4619e7f57390125992ae76b2e53c886b017fcccc3564736f6c63430008010033",
  "immutableReferences": {},
  "source": "pragma solidity >=0.4.22 <0.9.0;\n\nimport \"@openzeppelin/contracts/token/ERC721/ERC721.sol\";\nimport \"@openzeppelin/contracts/access/Ownable.sol\";\n\ncontract QilinPiece is Ownable, ERC721{\n\n    uint256 public totalQty = 0;\n    mapping (address => uint256) public minterToTokenId;\n\n    uint256 public _totalSupply = 0;\n\n    constructor(\n        string memory name,\n        string memory symbol,\n        uint256 totalSupply_\n    ) ERC721(name, symbol) {\n        _totalSupply = totalSupply_;\n    }\n\n    function mintQilinPiece (address account) external {\n\n        if (_totalSupply > 0) {\n            require(totalQty < _totalSupply, \"the piece is mint out!\");\n        }\n\n        require(minterToTokenId[account] < 1, \"you have owned this piece\");\n\n        uint256 tokenId = totalQty + 1;\n        _safeMint(account, tokenId);\n\n        minterToTokenId[account] = tokenId;\n    }\n\n    function transferFrom (\n        address from,\n        address to,\n        uint256 tokenId\n    ) override public {\n\n        require(to == owner(), \"transfer is banned\");\n\n        _transfer(from, to, tokenId);\n    }\n\n    function burn (uint256 tokenId) external onlyOwner {\n        \n        _burn(tokenId);\n    } \n\n    function getHolder (address holder) external view returns (uint256) {\n        \n        return minterToTokenId[holder];\n    }\n\n    function setOwner (address owner) external onlyOwner {\n\n        _transferOwnership(owner);\n    }\n}",
  "sourcePath": "/Users/pengyun/Desktop/code/qilin-nft/contracts/QilinPiece.sol",
  "compiler": {
    "name": "solc",
    "version": "0.8.1+commit.df193b15.Emscripten.clang"
  },
  "schemaVersion": "3.3.3",
  "updatedAt": "2022-03-08T09:08:17.687Z",
  "networkType": "ethereum",
  "devdoc": {
    "kind": "dev",
    "methods": {
      "approve(address,uint256)": {
        "details": "See {IERC721-approve}."
      },
      "balanceOf(address)": {
        "details": "See {IERC721-balanceOf}."
      },
      "getApproved(uint256)": {
        "details": "See {IERC721-getApproved}."
      },
      "isApprovedForAll(address,address)": {
        "details": "See {IERC721-isApprovedForAll}."
      },
      "name()": {
        "details": "See {IERC721Metadata-name}."
      },
      "owner()": {
        "details": "Returns the address of the current owner."
      },
      "ownerOf(uint256)": {
        "details": "See {IERC721-ownerOf}."
      },
      "renounceOwnership()": {
        "details": "Leaves the contract without owner. It will not be possible to call `onlyOwner` functions anymore. Can only be called by the current owner. NOTE: Renouncing ownership will leave the contract without an owner, thereby removing any functionality that is only available to the owner."
      },
      "safeTransferFrom(address,address,uint256)": {
        "details": "See {IERC721-safeTransferFrom}."
      },
      "safeTransferFrom(address,address,uint256,bytes)": {
        "details": "See {IERC721-safeTransferFrom}."
      },
      "setApprovalForAll(address,bool)": {
        "details": "See {IERC721-setApprovalForAll}."
      },
      "supportsInterface(bytes4)": {
        "details": "See {IERC165-supportsInterface}."
      },
      "symbol()": {
        "details": "See {IERC721Metadata-symbol}."
      },
      "tokenURI(uint256)": {
        "details": "See {IERC721Metadata-tokenURI}."
      },
      "transferFrom(address,address,uint256)": {
        "details": "See {IERC721-transferFrom}."
      },
      "transferOwnership(address)": {
        "details": "Transfers ownership of the contract to a new account (`newOwner`). Can only be called by the current owner."
      }
    },
    "version": 1
  },
  "userdoc": {
    "kind": "user",
    "methods": {},
    "version": 1
  }
}