{
  "contractName": "Qilin",
  "abi": [
    {
      "inputs": [
        {
          "internalType": "address",
          "name": "pieceA_",
          "type": "address"
        },
        {
          "internalType": "address",
          "name": "pieceB_",
          "type": "address"
        },
        {
          "internalType": "address",
          "name": "pieceX_",
          "type": "address"
        },
        {
          "internalType": "string",
          "name": "name",
          "type": "string"
        },
        {
          "internalType": "string",
          "name": "symbol",
          "type": "string"
        }
      ],
      "stateMutability": "nonpayable",
      "type": "constructor"
    },
    {
      "anonymous": false,
      "inputs": [
        {
          "indexed": true,
          "internalType": "address",
          "name": "owner",
          "type": "address"
        },
        {
          "indexed": true,
          "internalType": "address",
          "name": "approved",
          "type": "address"
        },
        {
          "indexed": true,
          "internalType": "uint256",
          "name": "tokenId",
          "type": "uint256"
        }
      ],
      "name": "Approval",
      "type": "event"
    },
    {
      "anonymous": false,
      "inputs": [
        {
          "indexed": true,
          "internalType": "address",
          "name": "owner",
          "type": "address"
        },
        {
          "indexed": true,
          "internalType": "address",
          "name": "operator",
          "type": "address"
        },
        {
          "indexed": false,
          "internalType": "bool",
          "name": "approved",
          "type": "bool"
        }
      ],
      "name": "ApprovalForAll",
      "type": "event"
    },
    {
      "anonymous": false,
      "inputs": [
        {
          "indexed": true,
          "internalType": "address",
          "name": "previousOwner",
          "type": "address"
        },
        {
          "indexed": true,
          "internalType": "address",
          "name": "newOwner",
          "type": "address"
        }
      ],
      "name": "OwnershipTransferred",
      "type": "event"
    },
    {
      "anonymous": false,
      "inputs": [
        {
          "indexed": true,
          "internalType": "address",
          "name": "from",
          "type": "address"
        },
        {
          "indexed": true,
          "internalType": "address",
          "name": "to",
          "type": "address"
        },
        {
          "indexed": true,
          "internalType": "uint256",
          "name": "tokenId",
          "type": "uint256"
        }
      ],
      "name": "Transfer",
      "type": "event"
    },
    {
      "inputs": [],
      "name": "TOTAL_QILIN_SUPPLY",
      "outputs": [
        {
          "internalType": "uint256",
          "name": "",
          "type": "uint256"
        }
      ],
      "stateMutability": "view",
      "type": "function",
      "constant": true
    },
    {
      "inputs": [
        {
          "internalType": "address",
          "name": "to",
          "type": "address"
        },
        {
          "internalType": "uint256",
          "name": "tokenId",
          "type": "uint256"
        }
      ],
      "name": "approve",
      "outputs": [],
      "stateMutability": "nonpayable",
      "type": "function"
    },
    {
      "inputs": [
        {
          "internalType": "address",
          "name": "owner",
          "type": "address"
        }
      ],
      "name": "balanceOf",
      "outputs": [
        {
          "internalType": "uint256",
          "name": "",
          "type": "uint256"
        }
      ],
      "stateMutability": "view",
      "type": "function",
      "constant": true
    },
    {
      "inputs": [
        {
          "internalType": "uint256",
          "name": "tokenId",
          "type": "uint256"
        }
      ],
      "name": "getApproved",
      "outputs": [
        {
          "internalType": "address",
          "name": "",
          "type": "address"
        }
      ],
      "stateMutability": "view",
      "type": "function",
      "constant": true
    },
    {
      "inputs": [
        {
          "internalType": "address",
          "name": "owner",
          "type": "address"
        },
        {
          "internalType": "address",
          "name": "operator",
          "type": "address"
        }
      ],
      "name": "isApprovedForAll",
      "outputs": [
        {
          "internalType": "bool",
          "name": "",
          "type": "bool"
        }
      ],
      "stateMutability": "view",
      "type": "function",
      "constant": true
    },
    {
      "inputs": [],
      "name": "name",
      "outputs": [
        {
          "internalType": "string",
          "name": "",
          "type": "string"
        }
      ],
      "stateMutability": "view",
      "type": "function",
      "constant": true
    },
    {
      "inputs": [],
      "name": "owner",
      "outputs": [
        {
          "internalType": "address",
          "name": "",
          "type": "address"
        }
      ],
      "stateMutability": "view",
      "type": "function",
      "constant": true
    },
    {
      "inputs": [
        {
          "internalType": "uint256",
          "name": "tokenId",
          "type": "uint256"
        }
      ],
      "name": "ownerOf",
      "outputs": [
        {
          "internalType": "address",
          "name": "",
          "type": "address"
        }
      ],
      "stateMutability": "view",
      "type": "function",
      "constant": true
    },
    {
      "inputs": [],
      "name": "renounceOwnership",
      "outputs": [],
      "stateMutability": "nonpayable",
      "type": "function"
    },
    {
      "inputs": [
        {
          "internalType": "address",
          "name": "from",
          "type": "address"
        },
        {
          "internalType": "address",
          "name": "to",
          "type": "address"
        },
        {
          "internalType": "uint256",
          "name": "tokenId",
          "type": "uint256"
        }
      ],
      "name": "safeTransferFrom",
      "outputs": [],
      "stateMutability": "nonpayable",
      "type": "function"
    },
    {
      "inputs": [
        {
          "internalType": "address",
          "name": "from",
          "type": "address"
        },
        {
          "internalType": "address",
          "name": "to",
          "type": "address"
        },
        {
          "internalType": "uint256",
          "name": "tokenId",
          "type": "uint256"
        },
        {
          "internalType": "bytes",
          "name": "_data",
          "type": "bytes"
        }
      ],
      "name": "safeTransferFrom",
      "outputs": [],
      "stateMutability": "nonpayable",
      "type": "function"
    },
    {
      "inputs": [
        {
          "internalType": "address",
          "name": "operator",
          "type": "address"
        },
        {
          "internalType": "bool",
          "name": "approved",
          "type": "bool"
        }
      ],
      "name": "setApprovalForAll",
      "outputs": [],
      "stateMutability": "nonpayable",
      "type": "function"
    },
    {
      "inputs": [
        {
          "internalType": "bytes4",
          "name": "interfaceId",
          "type": "bytes4"
        }
      ],
      "name": "supportsInterface",
      "outputs": [
        {
          "internalType": "bool",
          "name": "",
          "type": "bool"
        }
      ],
      "stateMutability": "view",
      "type": "function",
      "constant": true
    },
    {
      "inputs": [],
      "name": "symbol",
      "outputs": [
        {
          "internalType": "string",
          "name": "",
          "type": "string"
        }
      ],
      "stateMutability": "view",
      "type": "function",
      "constant": true
    },
    {
      "inputs": [
        {
          "internalType": "uint256",
          "name": "tokenId",
          "type": "uint256"
        }
      ],
      "name": "tokenURI",
      "outputs": [
        {
          "internalType": "string",
          "name": "",
          "type": "string"
        }
      ],
      "stateMutability": "view",
      "type": "function",
      "constant": true
    },
    {
      "inputs": [],
      "name": "totalQilinQty",
      "outputs": [
        {
          "internalType": "uint256",
          "name": "",
          "type": "uint256"
        }
      ],
      "stateMutability": "view",
      "type": "function",
      "constant": true
    },
    {
      "inputs": [
        {
          "internalType": "address",
          "name": "from",
          "type": "address"
        },
        {
          "internalType": "address",
          "name": "to",
          "type": "address"
        },
        {
          "internalType": "uint256",
          "name": "tokenId",
          "type": "uint256"
        }
      ],
      "name": "transferFrom",
      "outputs": [],
      "stateMutability": "nonpayable",
      "type": "function"
    },
    {
      "inputs": [
        {
          "internalType": "address",
          "name": "newOwner",
          "type": "address"
        }
      ],
      "name": "transferOwnership",
      "outputs": [],
      "stateMutability": "nonpayable",
      "type": "function"
    },
    {
      "inputs": [
        {
          "internalType": "address",
          "name": "",
          "type": "address"
        }
      ],
      "name": "whiteListA",
      "outputs": [
        {
          "internalType": "uint256",
          "name": "",
          "type": "uint256"
        }
      ],
      "stateMutability": "view",
      "type": "function",
      "constant": true
    },
    {
      "inputs": [
        {
          "internalType": "address",
          "name": "",
          "type": "address"
        }
      ],
      "name": "whiteListB",
      "outputs": [
        {
          "internalType": "uint256",
          "name": "",
          "type": "uint256"
        }
      ],
      "stateMutability": "view",
      "type": "function",
      "constant": true
    },
    {
      "inputs": [
        {
          "internalType": "address",
          "name": "",
          "type": "address"
        }
      ],
      "name": "whiteListX",
      "outputs": [
        {
          "internalType": "uint256",
          "name": "",
          "type": "uint256"
        }
      ],
      "stateMutability": "view",
      "type": "function",
      "constant": true
    },
    {
      "inputs": [],
      "name": "mintQilin",
      "outputs": [],
      "stateMutability": "nonpayable",
      "type": "function"
    },
    {
      "inputs": [
        {
          "internalType": "uint256",
          "name": "piece",
          "type": "uint256"
        }
      ],
      "name": "mintQilinPiece",
      "outputs": [],
      "stateMutability": "nonpayable",
      "type": "function"
    },
    {
      "inputs": [
        {
          "internalType": "address",
          "name": "whiteLister",
          "type": "address"
        },
        {
          "internalType": "uint256",
          "name": "piece",
          "type": "uint256"
        }
      ],
      "name": "setWhiteList",
      "outputs": [],
      "stateMutability": "nonpayable",
      "type": "function"
    },
    {
      "inputs": [
        {
          "internalType": "address",
          "name": "account",
          "type": "address"
        }
      ],
      "name": "getStatus",
      "outputs": [
        {
          "internalType": "uint256[3]",
          "name": "",
          "type": "uint256[3]"
        }
      ],
      "stateMutability": "view",
      "type": "function",
      "constant": true
    }
  ],
  "bytecode": "0x608060405260006007553480156200001657600080fd5b50604051620048973803806200489783398181016040528101906200003c919062000365565b81816200005e620000526200016060201b60201c565b6200016860201b60201c565b8160019080519060200190620000769291906200022c565b5080600290805190602001906200008f9291906200022c565b50505084600860006101000a81548173ffffffffffffffffffffffffffffffffffffffff021916908373ffffffffffffffffffffffffffffffffffffffff16021790555083600960006101000a81548173ffffffffffffffffffffffffffffffffffffffff021916908373ffffffffffffffffffffffffffffffffffffffff16021790555082600a60006101000a81548173ffffffffffffffffffffffffffffffffffffffff021916908373ffffffffffffffffffffffffffffffffffffffff1602179055505050505050620005d7565b600033905090565b60008060009054906101000a900473ffffffffffffffffffffffffffffffffffffffff169050816000806101000a81548173ffffffffffffffffffffffffffffffffffffffff021916908373ffffffffffffffffffffffffffffffffffffffff1602179055508173ffffffffffffffffffffffffffffffffffffffff168173ffffffffffffffffffffffffffffffffffffffff167f8be0079c531659141344cd1fd0a4f28419497f9722a3daafe3b4186f6b6457e060405160405180910390a35050565b8280546200023a90620004e2565b90600052602060002090601f0160209004810192826200025e5760008555620002aa565b82601f106200027957805160ff1916838001178555620002aa565b82800160010185558215620002aa579182015b82811115620002a95782518255916020019190600101906200028c565b5b509050620002b99190620002bd565b5090565b5b80821115620002d8576000816000905550600101620002be565b5090565b6000620002f3620002ed8462000442565b62000419565b9050828152602081018484840111156200030c57600080fd5b62000319848285620004ac565b509392505050565b6000815190506200033281620005bd565b92915050565b600082601f8301126200034a57600080fd5b81516200035c848260208601620002dc565b91505092915050565b600080600080600060a086880312156200037e57600080fd5b60006200038e8882890162000321565b9550506020620003a18882890162000321565b9450506040620003b48882890162000321565b935050606086015167ffffffffffffffff811115620003d257600080fd5b620003e08882890162000338565b925050608086015167ffffffffffffffff811115620003fe57600080fd5b6200040c8882890162000338565b9150509295509295909350565b60006200042562000438565b905062000433828262000518565b919050565b6000604051905090565b600067ffffffffffffffff82111562000460576200045f6200057d565b5b6200046b82620005ac565b9050602081019050919050565b600062000485826200048c565b9050919050565b600073ffffffffffffffffffffffffffffffffffffffff82169050919050565b60005b83811015620004cc578082015181840152602081019050620004af565b83811115620004dc576000848401525b50505050565b60006002820490506001821680620004fb57607f821691505b602082108114156200051257620005116200054e565b5b50919050565b6200052382620005ac565b810181811067ffffffffffffffff821117156200054557620005446200057d565b5b80604052505050565b7f4e487b7100000000000000000000000000000000000000000000000000000000600052602260045260246000fd5b7f4e487b7100000000000000000000000000000000000000000000000000000000600052604160045260246000fd5b6000601f19601f8301169050919050565b620005c88162000478565b8114620005d457600080fd5b50565b6142b080620005e76000396000f3fe608060405234801561001057600080fd5b50600436106101735760003560e01c8063750cd8e7116100de578063a6921aeb11610097578063c156776a11610071578063c156776a1461044a578063c87b56dd14610466578063e985e9c514610496578063f2fde38b146104c657610173565b8063a6921aeb146103e0578063b61e9a7c14610410578063b88d4fde1461042e57610173565b8063750cd8e71461030c5780638da5cb5b1461033c57806395d89b411461035a5780639f07f28614610378578063a22cb465146103a8578063a5b98f20146103c457610173565b806330ccebb51161013057806330ccebb51461024c57806332ecfc2f1461027c57806342842e0e146102865780636352211e146102a257806370a08231146102d2578063715018a61461030257610173565b806301ffc9a71461017857806306fdde03146101a8578063081812fc146101c6578063095ea7b3146101f657806323b872dd146102125780632ebf64791461022e575b600080fd5b610192600480360381019061018d9190612f28565b6104e2565b60405161019f919061351c565b60405180910390f35b6101b06105c4565b6040516101bd9190613537565b60405180910390f35b6101e060048036038101906101db9190612f7a565b610656565b6040516101ed9190613463565b60405180910390f35b610210600480360381019061020b9190612eec565b6106db565b005b61022c60048036038101906102279190612de6565b6107f3565b005b610236610853565b6040516102439190613839565b60405180910390f35b61026660048036038101906102619190612d58565b610859565b6040516102739190613501565b60405180910390f35b610284610940565b005b6102a0600480360381019061029b9190612de6565b611384565b005b6102bc60048036038101906102b79190612f7a565b6113a4565b6040516102c99190613463565b60405180910390f35b6102ec60048036038101906102e79190612d58565b611456565b6040516102f99190613839565b60405180910390f35b61030a61150e565b005b61032660048036038101906103219190612d58565b611596565b6040516103339190613839565b60405180910390f35b6103446115ae565b6040516103519190613463565b60405180910390f35b6103626115d7565b60405161036f9190613537565b60405180910390f35b610392600480360381019061038d9190612d58565b611669565b60405161039f9190613839565b60405180910390f35b6103c260048036038101906103bd9190612eb0565b611681565b005b6103de60048036038101906103d99190612f7a565b611697565b005b6103fa60048036038101906103f59190612d58565b611947565b6040516104079190613839565b60405180910390f35b61041861195f565b6040516104259190613839565b60405180910390f35b61044860048036038101906104439190612e35565b611965565b005b610464600480360381019061045f9190612eec565b6119c7565b005b610480600480360381019061047b9190612f7a565b611cc4565b60405161048d9190613537565b60405180910390f35b6104b060048036038101906104ab9190612daa565b611d6b565b6040516104bd919061351c565b60405180910390f35b6104e060048036038101906104db9190612d58565b611dff565b005b60007f80ac58cd000000000000000000000000000000000000000000000000000000007bffffffffffffffffffffffffffffffffffffffffffffffffffffffff1916827bffffffffffffffffffffffffffffffffffffffffffffffffffffffff191614806105ad57507f5b5e139f000000000000000000000000000000000000000000000000000000007bffffffffffffffffffffffffffffffffffffffffffffffffffffffff1916827bffffffffffffffffffffffffffffffffffffffffffffffffffffffff1916145b806105bd57506105bc82611ef7565b5b9050919050565b6060600180546105d390613a8b565b80601f01602080910402602001604051908101604052809291908181526020018280546105ff90613a8b565b801561064c5780601f106106215761010080835404028352916020019161064c565b820191906000526020600020905b81548152906001019060200180831161062f57829003601f168201915b5050505050905090565b600061066182611f61565b6106a0576040517f08c379a000000000000000000000000000000000000000000000000000000000815260040161069790613759565b60405180910390fd5b6005600083815260200190815260200160002060009054906101000a900473ffffffffffffffffffffffffffffffffffffffff169050919050565b60006106e6826113a4565b90508073ffffffffffffffffffffffffffffffffffffffff168373ffffffffffffffffffffffffffffffffffffffff161415610757576040517f08c379a000000000000000000000000000000000000000000000000000000000815260040161074e906137d9565b60405180910390fd5b8073ffffffffffffffffffffffffffffffffffffffff16610776611fcd565b73ffffffffffffffffffffffffffffffffffffffff1614806107a557506107a48161079f611fcd565b611d6b565b5b6107e4576040517f08c379a00000000000000000000000000000000000000000000000000000000081526004016107db906136d9565b60405180910390fd5b6107ee8383611fd5565b505050565b6108046107fe611fcd565b8261208e565b610843576040517f08c379a000000000000000000000000000000000000000000000000000000000815260040161083a906137f9565b60405180910390fd5b61084e83838361216c565b505050565b60075481565b610861612c3b565b6040518060600160405280600b60008573ffffffffffffffffffffffffffffffffffffffff1673ffffffffffffffffffffffffffffffffffffffff168152602001908152602001600020548152602001600c60008573ffffffffffffffffffffffffffffffffffffffff1673ffffffffffffffffffffffffffffffffffffffff168152602001908152602001600020548152602001600d60008573ffffffffffffffffffffffffffffffffffffffff1673ffffffffffffffffffffffffffffffffffffffff168152602001908152602001600020548152509050919050565b6107e660075410610986576040517f08c379a000000000000000000000000000000000000000000000000000000000815260040161097d90613819565b60405180910390fd5b6000600860009054906101000a900473ffffffffffffffffffffffffffffffffffffffff16905060008173ffffffffffffffffffffffffffffffffffffffff1663cd75c7d4336040518263ffffffff1660e01b81526004016109e89190613463565b60206040518083038186803b158015610a0057600080fd5b505afa158015610a14573d6000803e3d6000fd5b505050506040513d601f19601f82011682018060405250810190610a389190612fa3565b11610a78576040517f08c379a0000000000000000000000000000000000000000000000000000000008152600401610a6f90613559565b60405180910390fd5b60008173ffffffffffffffffffffffffffffffffffffffff1663cd75c7d4336040518263ffffffff1660e01b8152600401610ab39190613463565b60206040518083038186803b158015610acb57600080fd5b505afa158015610adf573d6000803e3d6000fd5b505050506040513d601f19601f82011682018060405250810190610b039190612fa3565b90506000600960009054906101000a900473ffffffffffffffffffffffffffffffffffffffff16905060008173ffffffffffffffffffffffffffffffffffffffff1663cd75c7d4336040518263ffffffff1660e01b8152600401610b679190613463565b60206040518083038186803b158015610b7f57600080fd5b505afa158015610b93573d6000803e3d6000fd5b505050506040513d601f19601f82011682018060405250810190610bb79190612fa3565b11610bf7576040517f08c379a0000000000000000000000000000000000000000000000000000000008152600401610bee90613699565b60405180910390fd5b60008173ffffffffffffffffffffffffffffffffffffffff1663cd75c7d4336040518263ffffffff1660e01b8152600401610c329190613463565b60206040518083038186803b158015610c4a57600080fd5b505afa158015610c5e573d6000803e3d6000fd5b505050506040513d601f19601f82011682018060405250810190610c829190612fa3565b90506000600a60009054906101000a900473ffffffffffffffffffffffffffffffffffffffff16905060008173ffffffffffffffffffffffffffffffffffffffff1663cd75c7d4336040518263ffffffff1660e01b8152600401610ce69190613463565b60206040518083038186803b158015610cfe57600080fd5b505afa158015610d12573d6000803e3d6000fd5b505050506040513d601f19601f82011682018060405250810190610d369190612fa3565b11610d76576040517f08c379a0000000000000000000000000000000000000000000000000000000008152600401610d6d90613679565b60405180910390fd5b60008173ffffffffffffffffffffffffffffffffffffffff1663cd75c7d4336040518263ffffffff1660e01b8152600401610db19190613463565b60206040518083038186803b158015610dc957600080fd5b505afa158015610ddd573d6000803e3d6000fd5b505050506040513d601f19601f82011682018060405250810190610e019190612fa3565b90508573ffffffffffffffffffffffffffffffffffffffff166323b872dd3330886040518463ffffffff1660e01b8152600401610e409392919061347e565b600060405180830381600087803b158015610e5a57600080fd5b505af1158015610e6e573d6000803e3d6000fd5b505050508373ffffffffffffffffffffffffffffffffffffffff166323b872dd3330866040518463ffffffff1660e01b8152600401610eaf9392919061347e565b600060405180830381600087803b158015610ec957600080fd5b505af1158015610edd573d6000803e3d6000fd5b505050508173ffffffffffffffffffffffffffffffffffffffff166323b872dd3330846040518463ffffffff1660e01b8152600401610f1e9392919061347e565b600060405180830381600087803b158015610f3857600080fd5b505af1158015610f4c573d6000803e3d6000fd5b50505050600860009054906101000a900473ffffffffffffffffffffffffffffffffffffffff1673ffffffffffffffffffffffffffffffffffffffff1663081812fc866040518263ffffffff1660e01b8152600401610fab9190613839565b60206040518083038186803b158015610fc357600080fd5b505afa158015610fd7573d6000803e3d6000fd5b505050506040513d601f19601f82011682018060405250810190610ffb9190612d81565b50600960009054906101000a900473ffffffffffffffffffffffffffffffffffffffff1673ffffffffffffffffffffffffffffffffffffffff1663081812fc846040518263ffffffff1660e01b81526004016110579190613839565b60206040518083038186803b15801561106f57600080fd5b505afa158015611083573d6000803e3d6000fd5b505050506040513d601f19601f820116820180604052508101906110a79190612d81565b50600a60009054906101000a900473ffffffffffffffffffffffffffffffffffffffff1673ffffffffffffffffffffffffffffffffffffffff1663081812fc826040518263ffffffff1660e01b81526004016111039190613839565b60206040518083038186803b15801561111b57600080fd5b505afa15801561112f573d6000803e3d6000fd5b505050506040513d601f19601f820116820180604052508101906111539190612d81565b508573ffffffffffffffffffffffffffffffffffffffff166342966c68866040518263ffffffff1660e01b815260040161118d9190613839565b600060405180830381600087803b1580156111a757600080fd5b505af11580156111bb573d6000803e3d6000fd5b505050508373ffffffffffffffffffffffffffffffffffffffff166342966c68846040518263ffffffff1660e01b81526004016111f89190613839565b600060405180830381600087803b15801561121257600080fd5b505af1158015611226573d6000803e3d6000fd5b505050508173ffffffffffffffffffffffffffffffffffffffff166342966c68826040518263ffffffff1660e01b81526004016112639190613839565b600060405180830381600087803b15801561127d57600080fd5b505af1158015611291573d6000803e3d6000fd5b505050506112ad3360016007546112a8919061391a565b6123d3565b6003600b60003373ffffffffffffffffffffffffffffffffffffffff1673ffffffffffffffffffffffffffffffffffffffff168152602001908152602001600020819055506003600c60003373ffffffffffffffffffffffffffffffffffffffff1673ffffffffffffffffffffffffffffffffffffffff168152602001908152602001600020819055506003600d60003373ffffffffffffffffffffffffffffffffffffffff1673ffffffffffffffffffffffffffffffffffffffff16815260200190815260200160002081905550505050505050565b61139f83838360405180602001604052806000815250611965565b505050565b6000806003600084815260200190815260200160002060009054906101000a900473ffffffffffffffffffffffffffffffffffffffff169050600073ffffffffffffffffffffffffffffffffffffffff168173ffffffffffffffffffffffffffffffffffffffff16141561144d576040517f08c379a000000000000000000000000000000000000000000000000000000000815260040161144490613719565b60405180910390fd5b80915050919050565b60008073ffffffffffffffffffffffffffffffffffffffff168273ffffffffffffffffffffffffffffffffffffffff1614156114c7576040517f08c379a00000000000000000000000000000000000000000000000000000000081526004016114be906136f9565b60405180910390fd5b600460008373ffffffffffffffffffffffffffffffffffffffff1673ffffffffffffffffffffffffffffffffffffffff168152602001908152602001600020549050919050565b611516611fcd565b73ffffffffffffffffffffffffffffffffffffffff166115346115ae565b73ffffffffffffffffffffffffffffffffffffffff161461158a576040517f08c379a000000000000000000000000000000000000000000000000000000000815260040161158190613779565b60405180910390fd5b61159460006123f1565b565b600c6020528060005260406000206000915090505481565b60008060009054906101000a900473ffffffffffffffffffffffffffffffffffffffff16905090565b6060600280546115e690613a8b565b80601f016020809104026020016040519081016040528092919081815260200182805461161290613a8b565b801561165f5780601f106116345761010080835404028352916020019161165f565b820191906000526020600020905b81548152906001019060200180831161164257829003601f168201915b5050505050905090565b600d6020528060005260406000206000915090505481565b61169361168c611fcd565b83836124b5565b5050565b600181141561177c576000600860009054906101000a900473ffffffffffffffffffffffffffffffffffffffff1690508073ffffffffffffffffffffffffffffffffffffffff166229aa48336040518263ffffffff1660e01b81526004016116ff9190613463565b600060405180830381600087803b15801561171957600080fd5b505af115801561172d573d6000803e3d6000fd5b505050506002600b60003373ffffffffffffffffffffffffffffffffffffffff1673ffffffffffffffffffffffffffffffffffffffff1681526020019081526020016000208190555050611944565b6002811415611861576000600960009054906101000a900473ffffffffffffffffffffffffffffffffffffffff1690508073ffffffffffffffffffffffffffffffffffffffff166229aa48336040518263ffffffff1660e01b81526004016117e49190613463565b600060405180830381600087803b1580156117fe57600080fd5b505af1158015611812573d6000803e3d6000fd5b505050506002600c60003373ffffffffffffffffffffffffffffffffffffffff1673ffffffffffffffffffffffffffffffffffffffff1681526020019081526020016000208190555050611943565b6003811415611942576000600a60009054906101000a900473ffffffffffffffffffffffffffffffffffffffff1690508073ffffffffffffffffffffffffffffffffffffffff166229aa48336040518263ffffffff1660e01b81526004016118c99190613463565b600060405180830381600087803b1580156118e357600080fd5b505af11580156118f7573d6000803e3d6000fd5b505050506002600d60003373ffffffffffffffffffffffffffffffffffffffff1673ffffffffffffffffffffffffffffffffffffffff16815260200190815260200160002081905550505b5b5b50565b600b6020528060005260406000206000915090505481565b6107e681565b611976611970611fcd565b8361208e565b6119b5576040517f08c379a00000000000000000000000000000000000000000000000000000000081526004016119ac906137f9565b60405180910390fd5b6119c184848484612622565b50505050565b6119cf611fcd565b73ffffffffffffffffffffffffffffffffffffffff166119ed6115ae565b73ffffffffffffffffffffffffffffffffffffffff1614611a43576040517f08c379a0000000000000000000000000000000000000000000000000000000008152600401611a3a90613779565b60405180910390fd5b6001811415611b18576001600b60008473ffffffffffffffffffffffffffffffffffffffff1673ffffffffffffffffffffffffffffffffffffffff1681526020019081526020016000205410611ace576040517f08c379a0000000000000000000000000000000000000000000000000000000008152600401611ac5906137b9565b60405180910390fd5b6001600b60008473ffffffffffffffffffffffffffffffffffffffff1673ffffffffffffffffffffffffffffffffffffffff16815260200190815260200160002081905550611cc0565b6002811415611bed576001600c60008473ffffffffffffffffffffffffffffffffffffffff1673ffffffffffffffffffffffffffffffffffffffff1681526020019081526020016000205410611ba3576040517f08c379a0000000000000000000000000000000000000000000000000000000008152600401611b9a90613619565b60405180910390fd5b6001600c60008473ffffffffffffffffffffffffffffffffffffffff1673ffffffffffffffffffffffffffffffffffffffff16815260200190815260200160002081905550611cbf565b6003811415611cbe576001600d60008473ffffffffffffffffffffffffffffffffffffffff1673ffffffffffffffffffffffffffffffffffffffff1681526020019081526020016000205410611c78576040517f08c379a0000000000000000000000000000000000000000000000000000000008152600401611c6f90613579565b60405180910390fd5b6001600d60008473ffffffffffffffffffffffffffffffffffffffff1673ffffffffffffffffffffffffffffffffffffffff168152602001908152602001600020819055505b5b5b5050565b6060611ccf82611f61565b611d0e576040517f08c379a0000000000000000000000000000000000000000000000000000000008152600401611d0590613799565b60405180910390fd5b6000611d1861267e565b90506000815111611d385760405180602001604052806000815250611d63565b80611d4284612695565b604051602001611d5392919061343f565b6040516020818303038152906040525b915050919050565b6000600660008473ffffffffffffffffffffffffffffffffffffffff1673ffffffffffffffffffffffffffffffffffffffff16815260200190815260200160002060008373ffffffffffffffffffffffffffffffffffffffff1673ffffffffffffffffffffffffffffffffffffffff16815260200190815260200160002060009054906101000a900460ff16905092915050565b611e07611fcd565b73ffffffffffffffffffffffffffffffffffffffff16611e256115ae565b73ffffffffffffffffffffffffffffffffffffffff1614611e7b576040517f08c379a0000000000000000000000000000000000000000000000000000000008152600401611e7290613779565b60405180910390fd5b600073ffffffffffffffffffffffffffffffffffffffff168173ffffffffffffffffffffffffffffffffffffffff161415611eeb576040517f08c379a0000000000000000000000000000000000000000000000000000000008152600401611ee2906135b9565b60405180910390fd5b611ef4816123f1565b50565b60007f01ffc9a7000000000000000000000000000000000000000000000000000000007bffffffffffffffffffffffffffffffffffffffffffffffffffffffff1916827bffffffffffffffffffffffffffffffffffffffffffffffffffffffff1916149050919050565b60008073ffffffffffffffffffffffffffffffffffffffff166003600084815260200190815260200160002060009054906101000a900473ffffffffffffffffffffffffffffffffffffffff1673ffffffffffffffffffffffffffffffffffffffff1614159050919050565b600033905090565b816005600083815260200190815260200160002060006101000a81548173ffffffffffffffffffffffffffffffffffffffff021916908373ffffffffffffffffffffffffffffffffffffffff160217905550808273ffffffffffffffffffffffffffffffffffffffff16612048836113a4565b73ffffffffffffffffffffffffffffffffffffffff167f8c5be1e5ebec7d5bd14f71427d1e84f3dd0314c0f7b2291e5b200ac8c7c3b92560405160405180910390a45050565b600061209982611f61565b6120d8576040517f08c379a00000000000000000000000000000000000000000000000000000000081526004016120cf906136b9565b60405180910390fd5b60006120e3836113a4565b90508073ffffffffffffffffffffffffffffffffffffffff168473ffffffffffffffffffffffffffffffffffffffff16148061215257508373ffffffffffffffffffffffffffffffffffffffff1661213a84610656565b73ffffffffffffffffffffffffffffffffffffffff16145b8061216357506121628185611d6b565b5b91505092915050565b8273ffffffffffffffffffffffffffffffffffffffff1661218c826113a4565b73ffffffffffffffffffffffffffffffffffffffff16146121e2576040517f08c379a00000000000000000000000000000000000000000000000000000000081526004016121d9906135d9565b60405180910390fd5b600073ffffffffffffffffffffffffffffffffffffffff168273ffffffffffffffffffffffffffffffffffffffff161415612252576040517f08c379a000000000000000000000000000000000000000000000000000000000815260040161224990613639565b60405180910390fd5b61225d838383612842565b612268600082611fd5565b6001600460008573ffffffffffffffffffffffffffffffffffffffff1673ffffffffffffffffffffffffffffffffffffffff16815260200190815260200160002060008282546122b891906139a1565b925050819055506001600460008473ffffffffffffffffffffffffffffffffffffffff1673ffffffffffffffffffffffffffffffffffffffff168152602001908152602001600020600082825461230f919061391a565b92505081905550816003600083815260200190815260200160002060006101000a81548173ffffffffffffffffffffffffffffffffffffffff021916908373ffffffffffffffffffffffffffffffffffffffff160217905550808273ffffffffffffffffffffffffffffffffffffffff168473ffffffffffffffffffffffffffffffffffffffff167fddf252ad1be2c89b69c2b068fc378daa952ba7f163c4a11628f55a4df523b3ef60405160405180910390a46123ce838383612847565b505050565b6123ed82826040518060200160405280600081525061284c565b5050565b60008060009054906101000a900473ffffffffffffffffffffffffffffffffffffffff169050816000806101000a81548173ffffffffffffffffffffffffffffffffffffffff021916908373ffffffffffffffffffffffffffffffffffffffff1602179055508173ffffffffffffffffffffffffffffffffffffffff168173ffffffffffffffffffffffffffffffffffffffff167f8be0079c531659141344cd1fd0a4f28419497f9722a3daafe3b4186f6b6457e060405160405180910390a35050565b8173ffffffffffffffffffffffffffffffffffffffff168373ffffffffffffffffffffffffffffffffffffffff161415612524576040517f08c379a000000000000000000000000000000000000000000000000000000000815260040161251b90613659565b60405180910390fd5b80600660008573ffffffffffffffffffffffffffffffffffffffff1673ffffffffffffffffffffffffffffffffffffffff16815260200190815260200160002060008473ffffffffffffffffffffffffffffffffffffffff1673ffffffffffffffffffffffffffffffffffffffff16815260200190815260200160002060006101000a81548160ff0219169083151502179055508173ffffffffffffffffffffffffffffffffffffffff168373ffffffffffffffffffffffffffffffffffffffff167f17307eab39ab6107e8899845ad3d59bd9653f200f220920489ca2b5937696c3183604051612615919061351c565b60405180910390a3505050565b61262d84848461216c565b612639848484846128a7565b612678576040517f08c379a000000000000000000000000000000000000000000000000000000000815260040161266f90613599565b60405180910390fd5b50505050565b606060405180602001604052806000815250905090565b606060008214156126dd576040518060400160405280600181526020017f3000000000000000000000000000000000000000000000000000000000000000815250905061283d565b600082905060005b6000821461270f5780806126f890613aee565b915050600a826127089190613970565b91506126e5565b60008167ffffffffffffffff811115612751577f4e487b7100000000000000000000000000000000000000000000000000000000600052604160045260246000fd5b6040519080825280601f01601f1916602001820160405280156127835781602001600182028036833780820191505090505b5090505b600085146128365760018261279c91906139a1565b9150600a856127ab9190613b37565b60306127b7919061391a565b60f81b8183815181106127f3577f4e487b7100000000000000000000000000000000000000000000000000000000600052603260045260246000fd5b60200101907effffffffffffffffffffffffffffffffffffffffffffffffffffffffffffff1916908160001a905350600a8561282f9190613970565b9450612787565b8093505050505b919050565b505050565b505050565b6128568383612a3e565b61286360008484846128a7565b6128a2576040517f08c379a000000000000000000000000000000000000000000000000000000000815260040161289990613599565b60405180910390fd5b505050565b60006128c88473ffffffffffffffffffffffffffffffffffffffff16612c18565b15612a31578373ffffffffffffffffffffffffffffffffffffffff1663150b7a026128f1611fcd565b8786866040518563ffffffff1660e01b815260040161291394939291906134b5565b602060405180830381600087803b15801561292d57600080fd5b505af192505050801561295e57506040513d601f19601f8201168201806040525081019061295b9190612f51565b60015b6129e1573d806000811461298e576040519150601f19603f3d011682016040523d82523d6000602084013e612993565b606091505b506000815114156129d9576040517f08c379a00000000000000000000000000000000000000000000000000000000081526004016129d090613599565b60405180910390fd5b805181602001fd5b63150b7a0260e01b7bffffffffffffffffffffffffffffffffffffffffffffffffffffffff1916817bffffffffffffffffffffffffffffffffffffffffffffffffffffffff191614915050612a36565b600190505b949350505050565b600073ffffffffffffffffffffffffffffffffffffffff168273ffffffffffffffffffffffffffffffffffffffff161415612aae576040517f08c379a0000000000000000000000000000000000000000000000000000000008152600401612aa590613739565b60405180910390fd5b612ab781611f61565b15612af7576040517f08c379a0000000000000000000000000000000000000000000000000000000008152600401612aee906135f9565b60405180910390fd5b612b0360008383612842565b6001600460008473ffffffffffffffffffffffffffffffffffffffff1673ffffffffffffffffffffffffffffffffffffffff1681526020019081526020016000206000828254612b53919061391a565b92505081905550816003600083815260200190815260200160002060006101000a81548173ffffffffffffffffffffffffffffffffffffffff021916908373ffffffffffffffffffffffffffffffffffffffff160217905550808273ffffffffffffffffffffffffffffffffffffffff16600073ffffffffffffffffffffffffffffffffffffffff167fddf252ad1be2c89b69c2b068fc378daa952ba7f163c4a11628f55a4df523b3ef60405160405180910390a4612c1460008383612847565b5050565b6000808273ffffffffffffffffffffffffffffffffffffffff163b119050919050565b6040518060600160405280600390602082028036833780820191505090505090565b6000612c70612c6b84613879565b613854565b905082815260208101848484011115612c8857600080fd5b612c93848285613a49565b509392505050565b600081359050612caa8161421e565b92915050565b600081519050612cbf8161421e565b92915050565b600081359050612cd481614235565b92915050565b600081359050612ce98161424c565b92915050565b600081519050612cfe8161424c565b92915050565b600082601f830112612d1557600080fd5b8135612d25848260208601612c5d565b91505092915050565b600081359050612d3d81614263565b92915050565b600081519050612d5281614263565b92915050565b600060208284031215612d6a57600080fd5b6000612d7884828501612c9b565b91505092915050565b600060208284031215612d9357600080fd5b6000612da184828501612cb0565b91505092915050565b60008060408385031215612dbd57600080fd5b6000612dcb85828601612c9b565b9250506020612ddc85828601612c9b565b9150509250929050565b600080600060608486031215612dfb57600080fd5b6000612e0986828701612c9b565b9350506020612e1a86828701612c9b565b9250506040612e2b86828701612d2e565b9150509250925092565b60008060008060808587031215612e4b57600080fd5b6000612e5987828801612c9b565b9450506020612e6a87828801612c9b565b9350506040612e7b87828801612d2e565b925050606085013567ffffffffffffffff811115612e9857600080fd5b612ea487828801612d04565b91505092959194509250565b60008060408385031215612ec357600080fd5b6000612ed185828601612c9b565b9250506020612ee285828601612cc5565b9150509250929050565b60008060408385031215612eff57600080fd5b6000612f0d85828601612c9b565b9250506020612f1e85828601612d2e565b9150509250929050565b600060208284031215612f3a57600080fd5b6000612f4884828501612cda565b91505092915050565b600060208284031215612f6357600080fd5b6000612f7184828501612cef565b91505092915050565b600060208284031215612f8c57600080fd5b6000612f9a84828501612d2e565b91505092915050565b600060208284031215612fb557600080fd5b6000612fc384828501612d43565b91505092915050565b6000612fd88383613421565b60208301905092915050565b612fed816139d5565b82525050565b612ffc816138b4565b61300681846138e2565b9250613011826138aa565b8060005b838110156130425781516130298782612fcc565b9650613034836138d5565b925050600181019050613015565b505050505050565b613053816139e7565b82525050565b6000613064826138bf565b61306e81856138ed565b935061307e818560208601613a58565b61308781613c24565b840191505092915050565b600061309d826138ca565b6130a781856138fe565b93506130b7818560208601613a58565b6130c081613c24565b840191505092915050565b60006130d6826138ca565b6130e0818561390f565b93506130f0818560208601613a58565b80840191505092915050565b60006131096011836138fe565b915061311482613c35565b602082019050919050565b600061312c6026836138fe565b915061313782613c5e565b604082019050919050565b600061314f6032836138fe565b915061315a82613cad565b604082019050919050565b60006131726026836138fe565b915061317d82613cfc565b604082019050919050565b60006131956025836138fe565b91506131a082613d4b565b604082019050919050565b60006131b8601c836138fe565b91506131c382613d9a565b602082019050919050565b60006131db6026836138fe565b91506131e682613dc3565b604082019050919050565b60006131fe6024836138fe565b915061320982613e12565b604082019050919050565b60006132216019836138fe565b915061322c82613e61565b602082019050919050565b60006132446011836138fe565b915061324f82613e8a565b602082019050919050565b60006132676011836138fe565b915061327282613eb3565b602082019050919050565b600061328a602c836138fe565b915061329582613edc565b604082019050919050565b60006132ad6038836138fe565b91506132b882613f2b565b604082019050919050565b60006132d0602a836138fe565b91506132db82613f7a565b604082019050919050565b60006132f36029836138fe565b91506132fe82613fc9565b604082019050919050565b60006133166020836138fe565b915061332182614018565b602082019050919050565b6000613339602c836138fe565b915061334482614041565b604082019050919050565b600061335c6020836138fe565b915061336782614090565b602082019050919050565b600061337f602f836138fe565b915061338a826140b9565b604082019050919050565b60006133a26026836138fe565b91506133ad82614108565b604082019050919050565b60006133c56021836138fe565b91506133d082614157565b604082019050919050565b60006133e86031836138fe565b91506133f3826141a6565b604082019050919050565b600061340b6010836138fe565b9150613416826141f5565b602082019050919050565b61342a81613a3f565b82525050565b61343981613a3f565b82525050565b600061344b82856130cb565b915061345782846130cb565b91508190509392505050565b60006020820190506134786000830184612fe4565b92915050565b60006060820190506134936000830186612fe4565b6134a06020830185612fe4565b6134ad6040830184613430565b949350505050565b60006080820190506134ca6000830187612fe4565b6134d76020830186612fe4565b6134e46040830185613430565b81810360608301526134f68184613059565b905095945050505050565b60006060820190506135166000830184612ff3565b92915050565b6000602082019050613531600083018461304a565b92915050565b600060208201905081810360008301526135518184613092565b905092915050565b60006020820190508181036000830152613572816130fc565b9050919050565b600060208201905081810360008301526135928161311f565b9050919050565b600060208201905081810360008301526135b281613142565b9050919050565b600060208201905081810360008301526135d281613165565b9050919050565b600060208201905081810360008301526135f281613188565b9050919050565b60006020820190508181036000830152613612816131ab565b9050919050565b60006020820190508181036000830152613632816131ce565b9050919050565b60006020820190508181036000830152613652816131f1565b9050919050565b6000602082019050818103600083015261367281613214565b9050919050565b6000602082019050818103600083015261369281613237565b9050919050565b600060208201905081810360008301526136b28161325a565b9050919050565b600060208201905081810360008301526136d28161327d565b9050919050565b600060208201905081810360008301526136f2816132a0565b9050919050565b60006020820190508181036000830152613712816132c3565b9050919050565b60006020820190508181036000830152613732816132e6565b9050919050565b6000602082019050818103600083015261375281613309565b9050919050565b600060208201905081810360008301526137728161332c565b9050919050565b600060208201905081810360008301526137928161334f565b9050919050565b600060208201905081810360008301526137b281613372565b9050919050565b600060208201905081810360008301526137d281613395565b9050919050565b600060208201905081810360008301526137f2816133b8565b9050919050565b60006020820190508181036000830152613812816133db565b9050919050565b60006020820190508181036000830152613832816133fe565b9050919050565b600060208201905061384e6000830184613430565b92915050565b600061385e61386f565b905061386a8282613abd565b919050565b6000604051905090565b600067ffffffffffffffff82111561389457613893613bf5565b5b61389d82613c24565b9050602081019050919050565b6000819050919050565b600060039050919050565b600081519050919050565b600081519050919050565b6000602082019050919050565b600081905092915050565b600082825260208201905092915050565b600082825260208201905092915050565b600081905092915050565b600061392582613a3f565b915061393083613a3f565b9250827fffffffffffffffffffffffffffffffffffffffffffffffffffffffffffffffff0382111561396557613964613b68565b5b828201905092915050565b600061397b82613a3f565b915061398683613a3f565b92508261399657613995613b97565b5b828204905092915050565b60006139ac82613a3f565b91506139b783613a3f565b9250828210156139ca576139c9613b68565b5b828203905092915050565b60006139e082613a1f565b9050919050565b60008115159050919050565b60007fffffffff0000000000000000000000000000000000000000000000000000000082169050919050565b600073ffffffffffffffffffffffffffffffffffffffff82169050919050565b6000819050919050565b82818337600083830152505050565b60005b83811015613a76578082015181840152602081019050613a5b565b83811115613a85576000848401525b50505050565b60006002820490506001821680613aa357607f821691505b60208210811415613ab757613ab6613bc6565b5b50919050565b613ac682613c24565b810181811067ffffffffffffffff82111715613ae557613ae4613bf5565b5b80604052505050565b6000613af982613a3f565b91507fffffffffffffffffffffffffffffffffffffffffffffffffffffffffffffffff821415613b2c57613b2b613b68565b5b600182019050919050565b6000613b4282613a3f565b9150613b4d83613a3f565b925082613b5d57613b5c613b97565b5b828206905092915050565b7f4e487b7100000000000000000000000000000000000000000000000000000000600052601160045260246000fd5b7f4e487b7100000000000000000000000000000000000000000000000000000000600052601260045260246000fd5b7f4e487b7100000000000000000000000000000000000000000000000000000000600052602260045260246000fd5b7f4e487b7100000000000000000000000000000000000000000000000000000000600052604160045260246000fd5b6000601f19601f8301169050919050565b7f596f75206e656564207069656365204121000000000000000000000000000000600082015250565b7f746865206164647265737320697320616c726561647920696e2077686974652060008201527f6c69737420580000000000000000000000000000000000000000000000000000602082015250565b7f4552433732313a207472616e7366657220746f206e6f6e20455243373231526560008201527f63656976657220696d706c656d656e7465720000000000000000000000000000602082015250565b7f4f776e61626c653a206e6577206f776e657220697320746865207a65726f206160008201527f6464726573730000000000000000000000000000000000000000000000000000602082015250565b7f4552433732313a207472616e736665722066726f6d20696e636f72726563742060008201527f6f776e6572000000000000000000000000000000000000000000000000000000602082015250565b7f4552433732313a20746f6b656e20616c7265616479206d696e74656400000000600082015250565b7f746865206164647265737320697320616c726561647920696e2077686974652060008201527f6c69737420420000000000000000000000000000000000000000000000000000602082015250565b7f4552433732313a207472616e7366657220746f20746865207a65726f2061646460008201527f7265737300000000000000000000000000000000000000000000000000000000602082015250565b7f4552433732313a20617070726f766520746f2063616c6c657200000000000000600082015250565b7f596f75206e656564207069656365205821000000000000000000000000000000600082015250565b7f596f75206e656564207069656365204221000000000000000000000000000000600082015250565b7f4552433732313a206f70657261746f7220717565727920666f72206e6f6e657860008201527f697374656e7420746f6b656e0000000000000000000000000000000000000000602082015250565b7f4552433732313a20617070726f76652063616c6c6572206973206e6f74206f7760008201527f6e6572206e6f7220617070726f76656420666f7220616c6c0000000000000000602082015250565b7f4552433732313a2062616c616e636520717565727920666f7220746865207a6560008201527f726f206164647265737300000000000000000000000000000000000000000000602082015250565b7f4552433732313a206f776e657220717565727920666f72206e6f6e657869737460008201527f656e7420746f6b656e0000000000000000000000000000000000000000000000602082015250565b7f4552433732313a206d696e7420746f20746865207a65726f2061646472657373600082015250565b7f4552433732313a20617070726f76656420717565727920666f72206e6f6e657860008201527f697374656e7420746f6b656e0000000000000000000000000000000000000000602082015250565b7f4f776e61626c653a2063616c6c6572206973206e6f7420746865206f776e6572600082015250565b7f4552433732314d657461646174613a2055524920717565727920666f72206e6f60008201527f6e6578697374656e7420746f6b656e0000000000000000000000000000000000602082015250565b7f746865206164647265737320697320616c726561647920696e2077686974652060008201527f6c69737420410000000000000000000000000000000000000000000000000000602082015250565b7f4552433732313a20617070726f76616c20746f2063757272656e74206f776e6560008201527f7200000000000000000000000000000000000000000000000000000000000000602082015250565b7f4552433732313a207472616e736665722063616c6c6572206973206e6f74206f60008201527f776e6572206e6f7220617070726f766564000000000000000000000000000000602082015250565b7f4e5446206973206d696e74206f75742100000000000000000000000000000000600082015250565b614227816139d5565b811461423257600080fd5b50565b61423e816139e7565b811461424957600080fd5b50565b614255816139f3565b811461426057600080fd5b50565b61426c81613a3f565b811461427757600080fd5b5056fea26469706673582212206fd29af309f0a60873a74067bb45fec07ac5fe90f39c73fb2282656cb1f9122f64736f6c63430008010033",
  "immutableReferences": {},
  "source": "pragma solidity >=0.4.22 <0.9.0;\n\nimport \"@openzeppelin/contracts/token/ERC721/ERC721.sol\";\nimport \"@openzeppelin/contracts/access/Ownable.sol\";\nimport \"./QilinPiece.sol\";\n\ncontract Qilin is Ownable, ERC721 {\n\n    uint256 public totalQilinQty = 0;\n    uint256 public constant TOTAL_QILIN_SUPPLY = 2022;\n\n    address _pieceA;\n    address _pieceB;\n    address _pieceX;\n\n    mapping (address => uint256) public whiteListA;\n    mapping (address => uint256) public whiteListB;\n    mapping (address => uint256) public whiteListX;\n\n    constructor(\n        address pieceA_,\n        address pieceB_,\n        address pieceX_,\n        string memory name,\n        string memory symbol\n    ) ERC721(name, symbol) {\n        _pieceA = pieceA_;\n        _pieceB = pieceB_;\n        _pieceX = pieceX_;\n    }\n\n    function mintQilin () external {\n        require(totalQilinQty < TOTAL_QILIN_SUPPLY, \"NTF is mint out!\");\n\n        QilinPiece a = QilinPiece(_pieceA);\n        require(a.getHolder(msg.sender) > 0, \"You need piece A!\");\n        uint256 tokenIdA = a.getHolder(msg.sender);\n\n        QilinPiece b = QilinPiece(_pieceB);\n        require(b.getHolder(msg.sender) > 0, \"You need piece B!\");\n        uint256 tokenIdB = b.getHolder(msg.sender);\n\n        QilinPiece x = QilinPiece(_pieceX);\n        require(x.getHolder(msg.sender) > 0, \"You need piece X!\");\n        uint256 tokenIdX = x.getHolder(msg.sender);\n\n        a.transferFrom(msg.sender, address(this), tokenIdA);\n        b.transferFrom(msg.sender, address(this), tokenIdB);\n        x.transferFrom(msg.sender, address(this), tokenIdX);\n\n        IERC721(_pieceA).getApproved(tokenIdA);\n        IERC721(_pieceB).getApproved(tokenIdB);\n        IERC721(_pieceX).getApproved(tokenIdX);\n\n        a.burn(tokenIdA);\n        b.burn(tokenIdB);\n        x.burn(tokenIdX);\n\n        _safeMint(msg.sender, totalQilinQty + 1);\n\n        whiteListA[msg.sender] = 3;\n        whiteListB[msg.sender] = 3;\n        whiteListX[msg.sender] = 3;\n    }\n\n    function mintQilinPiece (uint256 piece) external {\n        \n        if (piece == 1) {\n            QilinPiece a = QilinPiece(_pieceA);\n            a.mintQilinPiece(msg.sender);\n            whiteListA[msg.sender] = 2;\n        } else if (piece == 2) {\n            QilinPiece b = QilinPiece(_pieceB);\n            b.mintQilinPiece(msg.sender);\n            whiteListB[msg.sender] = 2;\n        } else if (piece == 3) {\n            QilinPiece x = QilinPiece(_pieceX);\n            x.mintQilinPiece(msg.sender);\n            whiteListX[msg.sender] = 2;\n        }\n    }\n\n    function setWhiteList (address whiteLister, uint256 piece) external onlyOwner {\n\n        if (piece == 1) {\n\n            require(whiteListA[whiteLister] < 1, \"the address is already in white list A\");\n            whiteListA[whiteLister] = 1;\n\n        } else if (piece == 2) {\n\n            require(whiteListB[whiteLister] < 1, \"the address is already in white list B\");\n            whiteListB[whiteLister] = 1;\n\n        } else if (piece == 3) {\n\n            require(whiteListX[whiteLister] < 1, \"the address is already in white list X\");\n            whiteListX[whiteLister] = 1;\n\n        }\n    }\n\n    function getStatus (address account) external view returns (uint256[3] memory) {\n\n        return [whiteListA[account], whiteListB[account], whiteListX[account]];\n    }\n\n}",
  "sourcePath": "/Users/pengyun/Desktop/code/qilin-nft/contracts/Qilin.sol",
  "compiler": {
    "name": "solc",
    "version": "0.8.1+commit.df193b15.Emscripten.clang"
  },
  "schemaVersion": "3.3.3",
  "updatedAt": "2022-03-08T09:08:17.676Z",
  "networkType": "ethereum",
  "devdoc": {
    "kind": "dev",
    "methods": {
      "approve(address,uint256)": {
        "details": "See {IERC721-approve}."
      },
      "balanceOf(address)": {
        "details": "See {IERC721-balanceOf}."
      },
      "getApproved(uint256)": {
        "details": "See {IERC721-getApproved}."
      },
      "isApprovedForAll(address,address)": {
        "details": "See {IERC721-isApprovedForAll}."
      },
      "name()": {
        "details": "See {IERC721Metadata-name}."
      },
      "owner()": {
        "details": "Returns the address of the current owner."
      },
      "ownerOf(uint256)": {
        "details": "See {IERC721-ownerOf}."
      },
      "renounceOwnership()": {
        "details": "Leaves the contract without owner. It will not be possible to call `onlyOwner` functions anymore. Can only be called by the current owner. NOTE: Renouncing ownership will leave the contract without an owner, thereby removing any functionality that is only available to the owner."
      },
      "safeTransferFrom(address,address,uint256)": {
        "details": "See {IERC721-safeTransferFrom}."
      },
      "safeTransferFrom(address,address,uint256,bytes)": {
        "details": "See {IERC721-safeTransferFrom}."
      },
      "setApprovalForAll(address,bool)": {
        "details": "See {IERC721-setApprovalForAll}."
      },
      "supportsInterface(bytes4)": {
        "details": "See {IERC165-supportsInterface}."
      },
      "symbol()": {
        "details": "See {IERC721Metadata-symbol}."
      },
      "tokenURI(uint256)": {
        "details": "See {IERC721Metadata-tokenURI}."
      },
      "transferFrom(address,address,uint256)": {
        "details": "See {IERC721-transferFrom}."
      },
      "transferOwnership(address)": {
        "details": "Transfers ownership of the contract to a new account (`newOwner`). Can only be called by the current owner."
      }
    },
    "version": 1
  },
  "userdoc": {
    "kind": "user",
    "methods": {},
    "version": 1
  }
}